:100000000C947B120C94BB120C94BB120C94BB127C
:100010000C94BB120C94BB120C94BB120C94BB122C
:100020000C94BB120C9429960C9429960C94299646
:100030000C94BB120C94BB120C94BB120C94BB120C
:100040000C94BB120C947A1D0C94BB120C94BB1232
:100050000C94BB120C94C79F0C94BB120C94669A20
:100060000C94BB120C94847B0C947A7B0C94BB1282
:100070000C94BB120C94BB120C94BB120C94BB12CC
:100080000C94BB120C94BB120C94BB120C94BB12BC
:100090000C94BB120C94BB120C94BB120C94BB12AC
:1000A0000C94BB120C94BB120C94BB120C94BB129C
:1000B0000C94BB120C94BB120C94BB120C94BB128C
:1000C0000C94BB120C94BB120C94BB120C94BB127C
:1000D0000C94BB120C94BB120C94BB120C94BB126C
:1000E0000C94BB12084AD73B3BCE016E84BCBFFDCB
:1000F000C12F3D6C74319ABD56833DDA3D00C77FF8
:1001000011BED9E4BB4C3E916BAAAABE0000008090
:100110003F05A84CCDB2D44EB93836A9020C50B91F
:10012000918688083CA6AAAA2ABE000000803F004B
:100130004E414E494E495459494E46CDCCCC3D0ACC
:10014000D7233C17B7D13877CC2B329595E6241FAF
:10015000B14F0A000020410000C84200401C462068
:10016000BCBE4CCA1B0E5AAEC59D74434F4D4D5577
:100170004E49434154494F4E0044525952554E0046
:100180004552524F525300494E464F004543484F47
:10019000005072696E7465722073746F707065645C
:1001A0002064756520746F206572726F72732E20E3
:1001B00046697820746865206572726F7220616E7E
:1001C0006420757365204D39393920746F2072654C
:1001D00073746172742E202854656D706572617439
:1001E0007572652069732072657365742E2053657E
:1001F000742069742061667465722072657374611D
:100200007274696E67290A004E6F20436865636BDC
:1002100073756D2077697468206C696E65206E75E2
:100220006D6265722C204C617374204C696E653A66
:100230002000636865636B73756D206D69736D6114
:100240007463682C204C617374204C696E653A208D
:10025000004C696E65204E756D6265722069732071
:100260006E6F74204C617374204C696E65204E75FE
:100270006D6265722B312C204C617374204C696E59
:10028000653A20004D3131300053657269616C2050
:10029000737461747573206D69736D617463680A3A
:1002A000002121204B494C4C20636175736564200B
:1002B000627920746F6F206D75636820696E616369
:1002C000746976652074696D65202D20637572727E
:1002D000656E7420636F6D6D616E643A2000486FC7
:1002E00074656E642049646C652054696D656F7532
:1002F000740A00627573793A2070617573656420C1
:10030000666F7220696E7075740A00627573793A4F
:100310002070617573656420666F722075736572F5
:100320000A00627573793A2070726F63657373693E
:100330006E670A006563686F3A004572726F723AC1
:10034000004F4646004F4E0066616C736500747244
:1003500075650042696C696E656172204C657665F1
:100360006C696E6720477269643A0A00303D2E332B
:10037000323500313D2E3138006D6178002F333138
:10038000002F3331002F333100303D2E3332350012
:10039000313D2E3138006D6178002F3331002F331D
:1003A00031002F333100303D2E33323500313D2EB8
:1003B0003138006D6178002F3331002F3331002F39
:1003C000333100303D2E33323500313D2E3138008F
:1003D0006D6178002F3331002F3331002F3331001E
:1003E000092042616420726573706F6E736521002D
:1003F000092042616420726573706F6E736521001D
:10040000092042616420726573706F6E736521000C
:10041000092042616420726573706F6E73652100FC
:100420004C4F570048494748004F4B004572726F88
:10043000723A20416C6C200020636F6E6E656374AD
:10044000696F6E2E2E2E200054657374696E6720BE
:10045000004C4F570048494748004F4B00457272C7
:100460006F723A20416C6C200020636F6E6E656382
:1004700074696F6E2E2E2E200054657374696E673A
:1004800020004C4F570048494748004F4B004572E9
:10049000726F723A20416C6C200020636F6E6E6543
:1004A0006374696F6E2E2E2E200054657374696E0E
:1004B0006720004C4F570048494748004F4B0045C4
:1004C00072726F723A20416C6C200020636F6E6E06
:1004D000656374696F6E2E2E2E20005465737469E7
:1004E0006E6720002E0A002F0050726F62696E67DF
:1004F000206D65736820706F696E74200020284439
:10050000525952554E2900473239204175746F2097
:10051000426564204C6576656C696E67003F2028F3
:100520004C2C522C462C4229206F7574206F66206B
:10053000626F756E64732E0A003F285629657262D9
:100540006F7365206C6576656C20696D706C617584
:100550007369626C652028302D34292E0A004261AF
:1005600064205A2076616C75650A004E6F206269BE
:100570006C696E65617220677269640A00204400CC
:1005800020204D32303020530020284469736162AE
:100590006C6564293A0046696C616D656E74207300
:1005A000657474696E67730020204D3230312058B5
:1005B000004D617820416363656C65726174696F99
:1005C0006E2028756E6974732F7332290020204DB8
:1005D0003230332058004D61782066656564726161
:1005E0007465732028756E6974732F732900205207
:1005F0000020204D323034205000416363656C652B
:10060000726174696F6E2028756E6974732F73320E
:10061000292028503C7072696E742D616363656C8B
:100620003E20523C726574726163742D6163636530
:100630006C3E20543C74726176656C2D6163636519
:100640006C3E2900204A0020540020530020204DF9
:10065000323035204200416476616E636564202843
:10066000423C6D696E5F7365676D656E745F74693A
:100670006D655F75733E20533C6D696E5F666565A1
:1006800064726174653E20543C6D696E5F74726182
:1006900076656C5F66656564726174653E204A3C90
:1006A0006A756E635F6465763E29002044002049C8
:1006B0000020204D333031205000486F74656E6447
:1006C00020504944004452565F53544154555309F5
:1006D0000050574D5F5343414C45090050574D431F
:1006E0004F4E460900434F4F4C434F4E460900437F
:1006F000484F50434F4E460900544849474809095E
:100700000054434F4F4C5448525309005450574DD6
:100710005448525309005453544550090900545049
:100720004F574552444F574E0900494F494E09090A
:1007300000475354415409090049484F4C445F490C
:1007400052554E090047434F4E46090900090044DF
:100750007269766572207265676973746572733A3F
:100760000A0073327673620900733276736109008E
:1007700031323043090031343343090031353043DD
:1007800009003135374309006F7409006F747077C1
:1007900009007332676109007332676209006F6C88
:1007A0006109006F6C6209007374737409007367E8
:1007B0005F726573756C74004452565354415455BE
:1007C0005300755374657020636F756E74005374B5
:1007D000616C6C6775617264207468727300202D9F
:1007E00073746172740900687973746572657369F2
:1007F000730A202D656E640900626C616E6B207453
:10080000696D65006F66662074696D650070776D4F
:100810002067726164206175746F0070776D206F5E
:100820006666736574206175746F0070776D2073F0
:1008300063616C65206175746F0070776D20736300
:10084000616C652073756D004F542070726577611F
:10085000726E005B6D6D2F735D090050574D2074F3
:1008600068726573682E0074737465700900696E30
:100870007465727009006D73746570730900737428
:1008800065616C746843686F70007673656E73653C
:10089000090050574D207363616C6500435320611C
:1008A000637475616C00486F6C6420637572726567
:1008B0006E740052756E2063757272656E74004DB1
:1008C00041582063757272656E7400524D532063F7
:1008D000757272656E74005365742063757272650B
:1008E0006E7400456E61626C6564090041646472F7
:1008F00065737309000900202E68737472743A20BE
:1009000000202E68656E643A20002063686F707066
:100910006572202E746F66663A2000202E6873740C
:1009200072743A2000202E68656E643A20002063BD
:10093000686F70706572202E746F66663A200020B2
:100940002E68737472743A2000202E68656E643AC3
:1009500020002063686F70706572202E746F666669
:100960003A2000202E68737472743A2000202E689A
:10097000656E643A20002063686F70706572202E87
:10098000746F66663A20003F53206F7574206F665F
:100990002072616E67652028312E2E38290A003FAB
:1009A00050206F7574206F662072616E6765202815
:1009B0002D332E2E3132290A003F4F206F757420BF
:1009C0006F662072616E67652028312E2E313529C1
:1009D0000A003B200020496E76616C6964206578CE
:1009E000747275646572200047322F47332062614C
:1009F0006420706172616D65746572730A004732BC
:100A00003800205A3A200020593A200042656420DC
:100A1000583A20004D65736820706F696E74206FBE
:100A20007574206F662072616E67650A00256973B0
:100A30000025696D20256973002569682025696D89
:100A40002025697300256964202569682025696D62
:100A50002025697300256979202569642025696846
:100A60002025696D20256973005072696E742074A9
:100A7000696D653A20006F6B006F6666008C0187B8
:100A800001800179016B0144454255473A004D31DF
:100A900031322053687574646F776E004D31313395
:100AA000205300434F4E4649475F4558504F5254DC
:100AB000004D4541545041434B00434F4F4C45522C
:100AC0005F54454D504552415455524500434841AD
:100AD0004D4245525F54454D504552415455524543
:100AE00000424142595354455050494E47004152EB
:100AF0004353004D4F54494F4E5F4D4F44455300B3
:100B0000544845524D414C5F50524F54454354490F
:100B10004F4E00455854454E4445445F4D323000D9
:100B2000435553544F4D5F4649524D574152455FCF
:100B300055504C4F4144004C464E5F575249544526
:100B4000004C4F4E475F46494C454E414D45004194
:100B500055544F5245504F52545F53445F53544184
:100B60005455530053445F57524954450052455021
:100B7000454154005344434152440050524F4D505C
:100B8000545F535550504F525400484F53545F4197
:100B90004354494F4E5F434F4D4D414E44530045E2
:100BA0004D455247454E43595F50415253455200BF
:100BB000434153455F4C494748545F425249474877
:100BC000544E45535300544F47474C455F4C49479B
:100BD00048545300534F4654574152455F504F5766
:100BE0004552004255494C445F50455243454E548E
:100BF000004C4556454C494E475F44415441005ACC
:100C00005F50524F42450052554E4F55540041558A
:100C1000544F4C4556454C005052494E545F4A4F34
:100C2000420050524F4752455353004155544F5282
:100C300045504F52545F54454D50004155544F520A
:100C400045504F52545F504F5300564F4C554D45F1
:100C50005452494300454550524F4D0042494E4180
:100C600052595F46494C455F5452414E5346455296
:100C70000053455249414C5F584F4E5F584F4646CE
:100C8000004649524D574152455F4E414D453A4D00
:100C900061726C696E206275676669782D322E30DC
:100CA0002E7820284F6374203139203230323220A0
:100CB00031303A31323A33312920534F555243457E
:100CC0005F434F44455F55524C3A6769746875629B
:100CD0002E636F6D2F4D61726C696E4669726D7710
:100CE0006172652F4D61726C696E2050524F544F86
:100CF000434F4C5F56455253494F4E3A312E3020A8
:100D00004D414348494E455F545950453A4A756CE8
:100D100069612050726F2053696E676C65203234B0
:100D2000562041424C207769746820544D4332323A
:100D30003039206F6E2055415254206D6F6465200C
:100D40006F6E204D4B532047656E4C2056322E312E
:100D50002045585452554445525F434F554E543ADE
:100D60003120555549443A63656465326132662DD8
:100D7000343161322D343734382D396231322D63BC
:100D800035356336326633363766660A002F2F00F4
:100D90003F4A206F7574206F662072616E67652010
:100DA00028302E303120746F20302E33290A002055
:100DB000204D61783A2000200020204D696E3A20B5
:100DC00000203B200020204D323131205300536F52
:100DD000667420656E6473746F70730046523A00D7
:100DE00020466C6F773A200050726F6265204F6624
:100DF00066736574205A0050726F6265204F666694
:100E0000736574205A0064697300656E0043290A93
:100E10000061626C656420286D696E2074656D7078
:100E20002000436F6C64206578747275646573206C
:100E30006172652000426564204C6576656C696E60
:100E40006720004661696C656420746F20656E617F
:100E5000626C6520426564204C6576656C696E67DE
:100E60000A00496E76616C6964206D6573682E0AAC
:100E7000004D34323120696E636F72726563742085
:100E8000706172616D657465722075736167650A62
:100E9000004D65736820706F696E74206F757420E3
:100EA0006F662072616E67650A00546F6F2066611D
:100EB000722066726F6D207265666572656E63651D
:100EC00020706F696E740A00454550524F4D204F97
:100ED0004B0A00290A0020746F20003F5A206F75CA
:100EE00074206F662072616E6765202800290A00F1
:100EF00020746F20003F59206F7574206F66207238
:100F0000616E676520282D00290A0020746F20007B
:100F10003F58206F7574206F662072616E67652080
:100F2000282D00206472697665722063757272657F
:100F30006E743A200020647269766572206375725F
:100F400072656E743A20002064726976657220635F
:100F5000757272656E743A200020647269766572EB
:100F60002063757272656E743A20007370726561E9
:100F7000644379636C6500737465616C746843687D
:100F80006F700020647269766572206D6F64653AD7
:100F900009007370726561644379636C65007374F2
:100FA00065616C746843686F70002064726976656F
:100FB00072206D6F64653A090073707265616443F5
:100FC00079636C6500737465616C746843686F70F5
:100FD0000020647269766572206D6F64653A09005D
:100FE0007370726561644379636C650073746561E5
:100FF0006C746843686F7000206472697665722053
:101000006D6F64653A0900496E76616C69642065AC
:10101000787472756465720A006F6B0020204D321F
:101020003036205800486F6D65206F6666736574B2
:10103000004361703A00203B0020204D38353120BC
:1010400058005A2D50726F6265204F666673657442
:101050000020573A0020573A0023646566696E65A0
:101060002044454641554C545F004B6420004B6979
:1010700020004B702000504944204175746F7475F6
:101080006E652066696E69736865642120507574A9
:1010900020746865206C617374204B702C204B6940
:1010A00020616E64204B6420636F6E7374616E7494
:1010B000732066726F6D2062656C6F7720696E7445
:1010C0006F20436F6E66696775726174696F6E2E0B
:1010D000680A00504944204175746F74756E65202C
:1010E0006661696C6564212074696D656F75740A49
:1010F00000504944204175746F74756E65206661B7
:10110000696C6564212054656D70657261747572D7
:101110006520746F6F20686967680A00204B643A25
:101120002000204B693A2000204B703A20002043D9
:101130006C617373696320504944200A0020547520
:101140003A2000204B753A2000206D61783A20004B
:10115000206D696E3A200020643A200020626961A7
:10116000733A2000504944204175746F74756E6560
:101170002073746172740A00504944204175746F81
:1011800074756E65206661696C6564212054656DB7
:10119000706572617475726520746F6F206869671D
:1011A000680A00504944204175746F74756E65205B
:1011B0006661696C656421204261642068656174C0
:1011C00065722069640A006F70656E005452494769
:1011D0004745524544003A20007A5F70726F62655D
:1011E000007A5F6D617800795F6D617800785F6D7E
:1011F000696E005265706F7274696E6720656E6407
:1012000073746F70207374617475730A0020746F47
:101210006F206C6F6E6720657874727573696F6E7E
:101220002070726576656E7465640A0020636F6C69
:101230006420657874727573696F6E20707265765C
:10124000656E7465640A000000A0C10000C8430018
:1012500080CA435761726E696E673A20486F6D6944
:101260006E672042756D702044697669736F7220D5
:101270003C20310A000202040080C5430000C8433C
:101280000080CA430000A0400000A04000000040D1
:1012900000000001000000010000800055555500CD
:1012A0000000400033333300AAAA2A0049922400E8
:1012B00000002000C7711C0099991900D145170042
:1012C000555515003BB113002449120011111100AE
:1012D000000010000F0F0F00E3380E0043790D00DF
:1012E000CCCC0C00C3300C00E8A20B0064210B0036
:1012F000AAAA0A00703D0A009DD80900427B090095
:1013000092240900DCD308008888080010420800F5
:1013100000000800F0C1070087870700755007002C
:10132000711C07003EEB0600A1BC06006990060098
:1013300066660600703E06006118060017F4050098
:1013400074D105005BB00500B29005006272050023
:101350005555050078390500B81E0500050505003E
:101360004EEC040087D40400A1BD040090A7040043
:1013700049920400C17D0400EE690400C7560400D0
:10138000444404005C3204000821040041100400BD
:10139000000004003FF00300F8E0030026D2030041
:1013A000C3C30300CCB503003AA803000A9B0300A3
:1013B000388E0300C08103009F750300D0690300CD
:1013C000505E03001D53030034480300913D0300A9
:1013D0003333030016290300381F03009715030059
:1013E000300C0300030303000BFA020049F1020072
:1013F000BAE802005CE002002DD802002DD0020005
:1014000059C80200B0C0020031B90200DAB10200CE
:10141000AAAA0200A0A30200BC9C0200FA95020046
:101420005C8F0200DF88020082820200457C02009D
:101430002776020027700200436A02007C640200E3
:10144000D05E02003F590200C8530200FFFDFCFAC3
:10145000F8F6F4F2F0EEECEAE9E7E5E3E1E0DEDCF1
:10146000DAD9D7D5D4D2D0CFCDCBCAC8C7C5C3C29D
:10147000C0BFBDBCBAB9B7B6B4B3B2B0AFADACAA19
:10148000A9A8A6A5A4A2A1A09E9D9C9A999897956B
:10149000949392908F8E8D8B8A898887868483829D
:1014A00081807F7E7D7B7A797877767574737271AF
:1014B000706F6E6D6C6B6A696867666564636261A4
:1014C000605F5E5D5C5B5A5958585756555453528D
:1014D0005150504F4E4D4C4B4A4A4948474646455D
:1014E0004443424241403F3E3E3D3C3B3B3A39381B
:1014F0003837363535343332323130302F2E2E2DC9
:101500002C2B2B2A2929282727262525242323226B
:10151000212120201F1E1E1D1C1C1B1B1A191918FF
:1015200018171616151514131312121111100F0F88
:101530000E0E0D0D0C0C0B0A0A0909080807070608
:101540000605050404030302020100000080C543F0
:101550000000C8430080CA430000000000000000F3
:1015600000000000290A002062797465733B206343
:101570007263200053657474696E67732053746FCF
:10158000726564202800454550524F4D20496E69D0
:101590007469616C697A65640A0048617264636F9A
:1015A0006465642044656661756C74205365747469
:1015B000696E6773204C6F616465640020286D6DEF
:1015C0002900203B204C6576656C696E6720002001
:1015D000204D3432302053004175746F20426564D1
:1015E000204C6576656C696E670020204D39303679
:1015F000002054302045005374657070657220647B
:1016000072697665722063757272656E740020204F
:101610004D353639205331005430204500205800D4
:10162000447269766572207374657070696E6720A4
:101630006D6F646500204A00202047323920572012
:10164000490020204D3134392043203B20556E691C
:10165000747320696E2043656C736975730A005456
:10166000656D706572617475726520556E6974730D
:10167000002020473231203B004C696E65617220AA
:10168000556E69747300454550524F4D2064617426
:101690006173697A65206572726F722E0A00290A79
:1016A000002062797465733B2063726320002073AD
:1016B000746F7265642073657474696E67732072E9
:1016C0006574726965766564202800202863616C02
:1016D00063756C6174656429210A0020213D200036
:1016E000454550524F4D20435243206D69736D6103
:1016F000746368202D202873746F7265642920003C
:101700002053697A653A2000496E6465783A200072
:1017100000004843000048430000A041000034425C
:101720000000C8420000C842F0F7FB4300000C4331
:10173000DC050000DC05000032000000102700007E
:10174000204D61726C696E3D563836290A00454558
:1017500050524F4D2076657273696F6E206D6973BC
:101760006D617463682028454550524F4D3D0024FB
:10177000F4D43050C38E20C2A24017828B70111255
:101780007A910D816CD90AA861E108C75866076192
:101790005143061E4B5D05C145A7041A41110409BA
:1017A0003D9803713931034036DB0265339102D431
:1017B000305402802E1D02632CEE01752AC501B043
:1017C00028A001102781018F2564012B244B01E003
:1017D000223401AC211F018D200D01801FFC0084EB
:1017E0001EED00971DDF00B81CD200E61BC60020CE
:1017F0001BBC00641AB200B219A8000A19A0006A42
:10180000189900D117910040178B00B5168400314C
:10181000167E00B31579003A157300C7146F00588F
:10182000146A00EE1366008813630025135E00C778
:10183000125B006C12570015125400C11151007058
:10184000114F0021114B00D61049008D1047004662
:1018500010440002104200C00F4000800F3E0042C2
:101860000F3C00060F3B00CB0E3800930E37005C98
:101870000E3500270E3400F30D3200C10D310090FB
:101880000D3000600D2E00320D2D00050D2C00D9FD
:101890000C2B00AE0C2900850C29005C0C270035B0
:1018A0000C27000E0C2600E80B2400C40B2400A01B
:1018B0000B23007D0B23005A0B2100390B2100184C
:1018C0000B2000F80A1F00D90A1E00BB0A1E009D4B
:1018D0000A1D00800A1D00630A1C00470A1B002C19
:1018E0000A1B00110A1A00F7091A00DD091900C4C1
:1018F000091900AB091900920917007B0918006348
:101900000917004C09160036091600200916000AAE
:10191000091500F5081500E0081400CC081400B8FB
:10192000081400A4081400900813007D0812006B2E
:10193000081300580812004608120034081100234A
:101940000811001208110001081100F0071000E052
:10195000071000D0071000C0071000B0070F00A14B
:1019600007100091070E0083070F0074070F006532
:10197000070E0057070E0049070E003B070D002E0B
:10198000070E0020070D0013070D0006070D00F9D4
:10199000060C00ED060D00E0060C00D4060C00C895
:1019A000060C00BC060C00B0060C00A4060B009947
:1019B000060C008D060B0082060B0077060B006CF0
:1019C000060B0061060A0057060B004C060A00428F
:1019D000060A0038060A002E060A0024060A001A23
:1019E000060A001006090007060A00FD050900F4B2
:1019F000050900EB050900E2050900D9050900D039
:101A0000050900C7050900BE050900B5050800ADB8
:101A1000050800A50509009C050800940508008C30
:101A2000050800840508007C050800740508006CA2
:101A3000050700650508005D050700560508004E0E
:101A40000507004705070040050800380507003175
:101A50000507002A050700230507001C05060016D8
:101A60000507000F0507000805060002050700FB33
:101A7000040600F5040700EE040600E8040600E290
:101A8000040700DB040600D5040600CF040600C9E5
:101A9000040600C3040600BD040600B7040600B136
:101AA000040500AC040600A6040600A00405009B83
:101AB00004060095040500900406008A04050085CC
:101AC000040500800406007A040500750405007012
:101AD0000405006B04050066040500610405005C54
:101AE00004050057040500520405004D0405004894
:101AF000040500430405003E0404003A04050035D3
:101B0000040500300404002C04050027040400230D
:101B10000405001E0404001A040400160405001144
:101B20000404000D0404000904050004040400007A
:101B3000040400FC030400F8030400F4030400F0B0
:101B4000030400EC030400E8030400E4030400E0E1
:101B5000030400DC030400D8030400D4030400D011
:101B6000030400CC030400C8030300C503030024DE
:101B7000F404D9201BC40C5C0E9804C4095F0265F0
:101B8000077101F405F900FB04B30048048700C1A4
:101B90000369005803550003034500BE023A008460
:101BA00002310053022A002902250004022000E429
:101BB000011C00C8011900AF01170098011400842E
:101BC000011300710110006101100051010E00436A
:101BD000010D0036010B002B010B0020010B00153D
:101BE0000109000C01090003010800FB000800F3D3
:101BF000000800EB000700E4000600DE000600D845
:101C0000000600D2000600CC000500C7000500C297
:101C1000000500BD000400B9000400B5000400B1D7
:101C2000000400AD000400A9000400A5000300A208
:101C30000003009F0004009B000300980003009530
:101C400000020093000300900003008D0002008B4F
:101C50000003008800020086000200840003008167
:101C60000002007F0002007D0002007B000200797C
:101C7000000200770001007600020074000200728A
:101C8000000100710002006F0002006D0001006C95
:101C90000002006A0001006900020067000100669E
:101CA00000010065000100640002006200010061A3
:101CB000000100600001005F0002005D0001005CA7
:101CC0000001005B0001005A0001005900010058AA
:101CD00000010057000100560001005500010054AA
:101CE00000010053000000530001005200010051A8
:101CF000000100500001004F0001004E0000004EA6
:101D00000001004D0001004C0001004B0000004BA1
:101D10000001004A0001004900010048000000489D
:101D20000001004700010046000000460001004598
:101D30000000004500010044000100430000004392
:101D4000000100420000004200010041000000418B
:101D5000000100400001003F0000003F0001003E84
:101D60000000003E0001003D0000003D0001003C7D
:101D70000000003C0000003C0001003B0000003B74
:101D80000001003A0000003A00010039000000396B
:101D90000001003800000038000000380001003762
:101DA0000000003700010036000000360000003659
:101DB000000100350000003500000035000100344E
:101DC0000000003400000034000100330000003344
:101DD0000000003300010032000000320000003239
:101DE000000100310000003100000031000100302E
:101DF00000000030000000300001002F0000002F24
:101E00000000002F0000002F0001002E0000002E17
:101E10000000002E0001002D0000002D0000002D0C
:101E20000000002D0001002C0000002C0000002C00
:101E30000000002C0001002B0000002B0000002BF4
:101E40000000002B0001002A0000002A0000002AE8
:101E50000000002A000100290000002900000029DC
:101E600000000029000000290001002800000028CF
:101E700000000028000000280000002800010027C2
:101E800000000027000000270000002700000027B6
:101E900000010026000000260000002600000026A9
:101EA000000000260001002500000025000000259C
:101EB000000000250000002500000025000100248E
:101EC0000000002400000024000000240000002482
:101ED0000001002300000023000000230000002375
:101EE0000000002300000023000000230001002266
:101EF000000000220000002200000022000000225A
:101F0000000000220001002100000021000000214B
:101F1000000000210000002100000021000000213D
:101F20000001002000000020000000200000002030
:101F30000000002000000020000000200000002021
:101F40000001001F0000001F0000001F0000001F14
:101F50000000001F0000001F0000001F0001001E05
:101F60000000001E0000001E0000001E00000039DE
:101F70003000003325000087190000B00F0000DB9F
:101F8000080000BD040000740200003F0100004290
:101F90003A0020436F756E7420413A004500626537
:101FA00064002C2073797374656D2073746F707086
:101FB000656421204865617465725F49443A200078
:101FC00048656174696E67204661696C65640048A4
:101FD000656174696E67206661696C6564001000F4
:101FE000600350012C0190012201D0011801100260
:101FF0000E0170020401E002FA006003F000000428
:10200000E600B004DC00A005D200B006C80000085D
:10201000BE00A009B400800BAA00D00DA000901053
:102020009600C0138C0070178200901B780010205F
:102030006E00C0246400E02D500080353C00A03AC2
:102040002800A03D1400003F0000A03FECFF4572B7
:10205000723A204D415854454D50004D4158544519
:102060004D502074726967676572656400457272CD
:102070003A204D494E54454D50004D494E54454D22
:10208000502074726967676572656400202F0020B4
:1020900042403A0020403A001000C90210012C01D1
:1020A0004001220170011801B0010E01F00104018C
:1020B0005002FA00B002F0003003E600D003DC006A
:1020C0009004D2007005C800A006BE000008B4004D
:1020D000B009AA00D00BA000600E960060118C0021
:1020E0000015820020197800C01D6E00A022640037
:1020F000B0275A00902C500000314600E0343C00DC
:1021000010383200903A2800603C1E00A03D1400B8
:10211000803E0A00203F00002020506C616E6E65FA
:102120007242756666657242797465733A20002062
:1021300046726565204D656D6F72793A20002043C7
:102140006F6D70696C65643A204F6374203139207B
:10215000323032320A00204C617374205570646151
:102160007465643A20323032322D30332D313420D0
:102170007C20417574686F723A2028467261636BE7
:1021800074616C20576F726B732C20646566617587
:102190006C7420636F6E666967290A004D61726C0A
:1021A000696E206275676669782D322E302E780A46
:1021B0000020536F66747761726520526573657491
:1021C0000A00205761746368646F67205265736505
:1021D000740A002042726F776E206F75742052650A
:1021E0007365740A002045787465726E616C2052C4
:1021F000657365740A00506F77657255700A0073D5
:10220000746172740A0020503A00205A3A00205932
:102210003A0020583A00656E6473746F70732068DA
:1022200069743A200000002100240027002A002DB4
:10223000003000330001010000040107010A010021
:10224000000A0B02090C0D0E080703040100000030
:10225000000000000000000000000000000000007E
:10226000000000000000000000000012111000003B
:10227000000000000000000000000000000000005E
:102280000000000000000020002300260029002C90
:10229000002F0032000001000003010601090100C7
:1022A000002200250028002B002E003100340002FF
:1022B000010000050108010B0105050505070508DA
:1022C000080808020202020A0A08080404040401B9
:1022D00001010101010101030303030303030304DB
:1022E0000707070C0C0C0C0C0C0C0C02020202066B
:1022F000060606060606060B0B0B0B0B0B0B0B015B
:102300000210202008081020401020408002010206
:1023100001080402010102040810204080804020CE
:102320001008040201800402018040201008040209
:102330000108040201010204081020408001020487
:102340000810204080486F6D696E67204661696C97
:10235000656400FF010150726F62696E672046611B
:10236000696C65640A00205A3A200020593A20001E
:1023700042656420583A2000307800220A00556EE9
:102380006B6E6F776E20636F6D6D616E643A2022A5
:1023900000204500205A0020590020204D393220CD
:1023A000580053746570732070657220756E69747F
:1023B000004572726F722077726974696E6720745B
:1023C0006F20454550524F4D210A00DB0FC93F4554
:1023D000BCDA3F8FB30240FCF0274056946140FEC8
:1023E0004B9B4084A5D840E0231841346A5641E80D
:1023F00059974164DBD5416E271742B4B75542CE99
:102400001A9742C8AED542B5885A43D40684BFA6AF
:102410005FA7BF7443E0BF10B11AC01C2C58C0E8BE
:10242000F697C0B849D6C04E4E17C124D355C180C7
:102430002497C1A0B5D5C1121A17C244AE55C278AF
:102440001797C26CACD5C267885AC320746F6F20CF
:102450006C6F6E6720657874727573696F6E20702B
:10246000726576656E7465640A0020636F6C642023
:10247000657874727573696F6E2070726576656EBB
:102480007465640A00544845524D414C2052554EE3
:102490004157415900546865726D616C2052756EE8
:1024A0006177617900486F6D652025732573257309
:1024B0002046697273740020453A00205A3A002081
:1024C000593A00583A006F6B0A00526573656E64A2
:1024D0003A20005072696E7465722068616C746590
:1024E000642E206B696C6C28292063616C6C6564B8
:1024F000210A000079A711241FBECFEFD1E2DEBF71
:10250000CDBF00E00CBF84B78093E00F14BE0FB6C0
:10251000F894A89580916000886180936000109283
:1025200060000FBE13E0A0E0B2E0E0EBF6E701E0F0
:102530000BBF02C007900D92A03AB107D9F72FE068
:10254000A0EAB3E001C01D92A03EB207E1F712E19C
:10255000CBE7D2E100E006C021970109802FFE0100
:102560000E940EB8CA37D10780E00807A9F70E9479
:10257000F7A80C9456BB0C940000EF92FF920F93B7
:102580001F93E092AD03F092AE030093AF0310935C
:10259000B0036093B1037093B2038093B3039FEFD2
:1025A000FF27621B730B840B30F480957095619547
:1025B000790B890B99279093AC03A6E06A9F009250
:1025C000A003512DEE277A9F500DE11D8A9FE00D4B
:1025D0005093A103E093A203AFE06A9F0092A4038B
:1025E000512DEE277A9F500DE11D8A9FE00D5093EB
:1025F000A503E093A603AAE06A9F0092A803512DC9
:10260000EE277A9F500DE11D8A9FE00D5093A9039C
:10261000E093AA031F910F91FF90EF90089521E09E
:1026200030E0082E02C0220F331F0A94E2F72095F3
:1026300030959091D50429232093D504813051F011
:10264000823069F05F9A80910D078E7F80930D072D
:1026500081E008958A9A80910D078D7FF7CF809150
:102660000801809581708093060180910D078B7F12
:10267000EDCF9F92AF92BF92CF92DF92EF92FF92F7
:102680000F931F93CF93DF9300D01F921F92CDB76C
:10269000DEB7ECE4F4E10027BB27462F572FA82F25
:1026A000AA2341F4A52F542FB85FAA2319F4A52F0C
:1026B0005527B85FA03138F45295A295452F4F7039
:1026C000507FA42BBC5FA03428F4550FAA1F550FD0
:1026D000AA1FBE5FA03818F4550FAA1FB395550F57
:1026E000AA1FEA0FF01F449151E0AA27B85079F1D0
:1026F000C0F0B0FF02C0440F551FB1FF04C0440F2B
:10270000551F440F551FB2FF06C052954295142F16
:102710001F70407F512BB3FF1AC0A52F542F4427A1
:1027200016C0B195B0FF02C055954795B1FF04C0E2
:102730005595479555954795B2FF05C05295407FF1
:102740004295452B5F70B3FF02C0452F5527DD240E
:10275000CC24BB24B2E0649FD018C108B00AB00BEF
:10276000749FC018B108B00B849FB018B109659F61
:10277000C018B108B00B759FB018B109859FB0198A
:102780006A9FB018B1097A9FB0194D9DA12C992468
:102790003327992722275D9DA00C911C301F901F85
:1027A000201FAD9D900C311D901F201F4C9DA00C33
:1027B000911C301F901F201F5C9D900C311D901F9D
:1027C000201FAC9D300D911D201F4B9D900C311D85
:1027D000901F201F5B9D300D911D201FAB9D900D04
:1027E000211D4B9F300D911D201F5B9F900D211DC2
:1027F000AB9F200DB1E0BB24CC24DD24639FD01817
:10280000C108B00AB00B739FC018B108B00B839F0A
:10281000B018B109699FC018B108B00B799FB01802
:10282000B109899FB019629FB018B109729FB019A0
:10283000D61AC70AB80A20F0B1E03B0F901F201F3C
:102840001124792F632F90E0822F0F900F900F901B
:102850000F900F90DF91CF911F910F91FF90EF900C
:10286000DF90CF90BF90AF909F900895AF92BF92AE
:10287000CF92DF92EF92FF920F931F93CF93DF934C
:10288000CFEADCE007E117E08FEBA82E8CE0B82E52
:10289000C12CD12C7601C394699179918991999138
:1028A0000E94BAB3288939894A895B890E941BB47E
:1028B0000E94A8B9F80161937193819391938F015C
:1028C000C616D706E806F90610F46B017C01AC16B3
:1028D000BD0611F76FEF7FEFCB01A70196010E94B4
:1028E00090B72093270730932807409329075093E8
:1028F0002A07DF91CF911F910F91FF90EF90DF900A
:10290000CF90BF90AF900895CF92DF92EF92FF9259
:1029100080918204882309F457C0C0907E04D0902F
:102920007F04E0908004F090810420E030E0A90171
:10293000C701B6010E94B6B3882309F445C020E060
:1029400030E040E05FE3C701B6010E941BB49B0189
:10295000AC010E941BB42BED3FE049E450E40E941F
:102960001BB49B01AC0160E070E080E89FE30E9433
:102970003BB96B017C01C0926C04D0926D04E09273
:102980006E04F0926F046091280270912902072E64
:10299000000C880B990B0E94BCB32AE037ED43E290
:1029A0005CE30E941BB4A70196010E941BB46093D4
:1029B0005B0270935C0280935D0290935E02FF90D5
:1029C000EF90DF90CF900895C12CD12C80E8E82EB5
:1029D0008FE3F82ED0CF8091EF0E9091F00E891BEF
:1029E0008F7019F490E080E008959091EC0E992397
:1029F00051F0833030F48FEF890F19F08093EC0E93
:102A0000F1CF1092EC0E8091F00E27E5829FC0016D
:102A10001124825C984FFC01208120FDE3CF20919E
:102A2000F00E2F5F2F702093ED0E3091F00E20915D
:102A3000EE0E321304C02091ED0E2093EE0E089599
:102A4000FC017081472F50E0062E02C05595479536
:102A50000A94E2F740FF14C040914F0450E0062E64
:102A600002C0559547950A94E2F740FF09C021E05E
:102A700030E001C0220F6A95EAF7209527232083D2
:102A80000895CF93DF9324E0829FC0011124EC01CD
:102A9000C950D34FFC01E858FA4F805B9B4FDC01D3
:102AA0002D913D914D915C916081718182819381E5
:102AB0000E945FB8688379838A839B83DF91CF917B
:102AC00008958F929F92AF92BF92CF92DF92EF9232
:102AD000FF92CF93DF9320912C02222309F48EC022
:102AE000EC0180914F04E82E80FF2CC080902E02D4
:102AF00090902F02A0903002B0903102288139814D
:102B00004A815B81C501B4010E9485BA181624F47C
:102B100088829982AA82BB8280903A0290903B027E
:102B2000A0903C02B0903D02288139814A815B81AE
:102B3000C501B4010E94B6B387FF04C088829982A0
:102B4000AA82BB82E1FE2CC08090320290903302B8
:102B5000A0903402B09035022C813D814E815F817E
:102B6000C501B4010E9485BA181624F48C829D8296
:102B7000AE82BF8280903E0290903F02A0904002C1
:102B8000B09041022C813D814E815F81C501B4012D
:102B90000E94B6B387FF04C08C829D82AE82BF8242
:102BA000E2FE2CC0C0903602D0903702E09038028E
:102BB000F0903902288539854A855B85C701B601C1
:102BC0000E9485BA181624F4C886D986EA86FB8640
:102BD000C0904202D0904302E0904402F09045023F
:102BE000288539854A855B85C701B6010E94B6B341
:102BF00087FF04C0C886D986EA86FB86DF91CF911D
:102C0000FF90EF90DF90CF90BF90AF909F908F900C
:102C1000089580914B0490914C04A0914D04B09183
:102C20004E048093240290932502A0932602B09331
:102C300027028091490490914A0490932302809343
:102C4000220208958091240290912502A0912602EB
:102C5000B091270280934B0490934C04A0934D04B1
:102C6000B0934E04809122029091230290934A04E3
:102C70008093490484E690E090932302809322029B
:102C8000089590E080E0089520910604833021F4B7
:102C900025FD0CC024FD0CC030E0A90102C05595F3
:102CA00047958A95E2F7CA018170089581E00895F9
:102CB00080E008958091220484FD0BC0809124045B
:102CC00087FD07C090912504937081E019F480E09E
:102CD000089581E008952FEB280F2A3108F047C0AE
:102CE000E22FF0E08091220490912304A09124042B
:102CF000B091250404C0B695A795979587952A9518
:102D0000D2F780FD02C081700895E85FFB4FE0813B
:102D1000EE2341F180910F0790911007E80FF92FF2
:102D2000F11D808190ED980F9A3030F08E3251F481
:102D3000818180538A3098F4F0930304E093020475
:102D400081E008958D3211F08B3249F4818190ED4C
:102D5000980F9A3088F38E3211F48281EACFF0E036
:102D6000E0E0EACF1092030410920204E9CF80E081
:102D70000895B1DF882341F081E020910204309171
:102D80000304232B09F480E00895FC01DB01129673
:102D90002D913D914C911497228333834483159652
:102DA0008C911597858316962D913D914C9118978E
:102DB00026833783408719964D915D916D917C9163
:102DC0001C9741875287638774871D964D915D914B
:102DD0006D917C915097458756876787708B8CE7FC
:102DE00093E09183808351968D919C915297928B21
:102DF000818B53964D915D916D917C915697438B4C
:102E0000548B658B768B57968C915797878B5896FA
:102E10008D919C915997918F808F5A968D919C910D
:102E20005B97938F828F5C968D919C915D97958F28
:102E3000848F5E964D915D916D917C919197468FB7
:102E4000578F60A371A392964D915D916D917C9186
:102E5000959742A353A364A375A396964D915D9154
:102E60006D917C91999746A357A360A771A79A96F5
:102E70008D919C919B9793A782A79C968D919C91F5
:102E80009D9795A784A79E968D919C919F9797A7B4
:102E900086A7D0968D919C91D19791AB80ABD2961D
:102EA0008C9182AB08958F929F92AF92BF92CF92F6
:102EB000DF92EF92FF92C090CB04D090CC04E090D0
:102EC000CD04F090CE0420E030E0A901C701B601A6
:102ED0000E94B6B38823E1F1A701960160E070E09B
:102EE00080E89FE30E943BB96B017C018090CF0496
:102EF0009090D004A090D104B090D20420E030E0B3
:102F0000A901C501B4010E94B6B3882329F1A50126
:102F1000940160E070E080E89FE30E943BB9C092BA
:102F2000F103D092F203E092F303F092F403609382
:102F3000F5037093F6038093F7039093F803FF90E3
:102F4000EF90DF90CF90BF90AF909F908F900895BB
:102F5000C12CD12C7601CACF60E070E0CB01DFCF6D
:102F60002F923F924F925F926F927F928F929F9299
:102F7000AF92BF92CF92DF92EF92FF920F931F9387
:102F8000CF93DF93CDB7DEB72E970FB6F894DEBFA1
:102F90000FBECDBF8A83162F4983822E262F30E0A5
:102FA0003A872987E4E08E9FC00111249C878B8794
:102FB000FC01E20FF31FEE0FFF1FEE0FFF1FED5797
:102FC000FB4F60817181828193819B01AC010E94E2
:102FD0000BBB882309F42EC19A81E9819E0F882DAD
:102FE000810F24E0929FF0011124A985BA85AE0FCC
:102FF000BF1FAA0FBB1FAA0FBB1FAD57BB4FAC9083
:103000001196BC9011971296CC9012971396DC9063
:103010003981930F24E0929FA0011124A985BA85DC
:10302000A40FB51FAA0FBB1FAA0FBB1FAD57BB4FE5
:10303000EC901196FC90119712960C9112971396A2
:103040001C91282F30E0AB85BC85A20FB31FAA0FBF
:10305000BB1FAA0FBB1FAD57BB4F9C9011967C9016
:10306000119712966C90129713965C90880D90E0D1
:10307000AB85BC85A80FB91FAA0FBB1FAA0FBB1F2A
:10308000AD57BB4F8C9011964C90119712963C9077
:10309000129713962C90E20FF31FEE0FFF1FEE0F07
:1030A000FF1FED57FB4F3081398321812A83328105
:1030B0003B8323812C83FA01E80FF91FEE0FFF1FDA
:1030C000EE0FFF1FED57FB4F30813D8381818E83D3
:1030D00092819F83238128879701A801B701C801A6
:1030E0000E940BBB882321F0E12CF12C00E010E0C2
:1030F0009501A601B501C6010E940BBB882311F002
:1031000057016801282D342D432D522D682D742D23
:10311000832D922D0E940BBB882321F0812C412C02
:10312000312C212C292D372D462D552D692D772D0C
:10313000862D952D0E940BBB882321F0982C742C92
:10314000632C522C2D813E814F8158856D817E816B
:103150008F8198850E940BBB882321F01D821E82DF
:103160001F82188629813A814B815C8169817A812D
:103170008B819C810E940BBB882341F03D81398368
:103180008E818A839F819B83E885EC832B853C8598
:1031900089859A85280F391F220F331F220F331F6D
:1031A0002D573B4F3A8729879501A601B501C601E6
:1031B0000E945FB89701A8010E945EB86B017C0174
:1031C000292D372D462D552D692D772D862D952DA1
:1031D0000E945FB8282D342D432D522D0E945EB8D9
:1031E0009B01AC01C701B6010E945FB86B017C0175
:1031F00029813A814B815C8169817A818B819C81B3
:103200000E945FB82D813E814F8158850E945EB833
:103210009B01AC01C701B6010E945FB820E030E01D
:1032200040E450E40E943BB9E985FA8560837183EC
:10323000828393832E960FB6F894DEBF0FBECDBF68
:10324000DF91CF911F910F91FF90EF90DF90CF9082
:10325000BF90AF909F908F907F906F905F904F90B6
:103260003F902F9008954091D30421E042276CE0D5
:1032700070E00C94FF914091D30421E0422764E078
:1032800070E00C94FF914091D30421E0422761E06B
:1032900070E00C94FF914091D30421E0422761E05B
:1032A00070E00C94FF914091D30421E0422768E044
:1032B00070E00C94FF914091D30421E042276CE030
:1032C00070E00C94FF9141E061E070E00C94FF919C
:1032D0004091D30421E042270C94FF91BC0190E07F
:1032E00080E00C9412906CE070E00C94139864E011
:1032F00070E00C94139861E070E00C94139861E016
:1033000070E00C9413986CE070E00C941398682FA4
:10331000880F770B880B990B0C947C90CF93DF93DD
:10332000EC01C43081E0D8076CF184E091E0909327
:10333000640580936305C4E0D1E060915F057091FE
:10334000600580916105909162050E94A3B96E5F4E
:103350007F4F25976C177D07DCF4709343056093CE
:1033600042050E94D29860547B428E4F9F4F6093DB
:103370004405709345058093460590934705DF917A
:10338000CF910895D0936405C09363052097A9F663
:10339000109244051092450510924605109247057B
:1033A000EECF0F931F9380913B04813019F50E945B
:1033B000D298009133041091340420913504309157
:1033C0003604601B710B820B930B28EE33E040E058
:1033D00050E00E9490B760912F047091300480916A
:1033E000310490913204620F731F841F951F1F9147
:1033F0000F910895609137047091380480913904D9
:1034000090913A04D6CF0F931F93CF93DF9303ECA1
:103410001CE0CCE2D7E0F80121913191419151912A
:103420008F0160E070E080E89FE30E943BB9699300
:10343000799389939993F7E0CC33DF0761F70E9482
:10344000DB91DF91CF911F910F9110CA4F925F9244
:103450006F927F928F929F92AF92BF92CF92DF92A4
:10346000EF92FF920F931F93CF93DF93EC01209184
:10347000C3043091C4044091C5045091C6046881CE
:1034800079818A819B810E945EB86B017C012091C9
:10349000C7043091C8044091C9045091CA046C819A
:1034A0007D818E819F810E945EB84B015C01A701E6
:1034B000960160910302709104028091050290913F
:1034C00006020E94B6B3882309F450C0C0920302DA
:1034D000D0920402E0920502F09206022091F103DC
:1034E0003091F2034091F3035091F403C701B60108
:1034F0000E941BB42B013C010E94D4B96B017C01DA
:1035000020E030E0A9010E94B6B387FD70C020E042
:1035100030E040E050E4C701B6010E9485BA1816B9
:103520002CF4C12CD12CE12CA0E4FA2EA701960199
:10353000C301B2010E945EB86093E9037093EA038D
:103540008093EB039093EC03C701B6010E94A3B9EB
:103550006093E703062E000C770B6F5F7F4F63309D
:10356000710514F063E070E06093E503D09101020F
:10357000C091E703A50194016091070270910802D0
:103580008091090290910A020E94B6B3811133C062
:10359000DC1381C02091CD033091CE034091CF0345
:1035A0005091D0036091E9037091EA038091EB039D
:1035B0009091EC030E941BB42091D1033091D2036F
:1035C0004091D3035091D4030E945FB8DF91CF9113
:1035D0001F910F91FF90EF90DF90CF90BF90AF9031
:1035E0009F908F907F906F905F904F900895C12C27
:1035F000D12C76019BCF8092070290920802A09274
:103600000902B0920A022091F5033091F60340912D
:10361000F7035091F803C501B4010E941BB44B019C
:103620005C010E94D4B96B017C0120E030E0A9016B
:103630000E94B6B387FDF4C020E030E040E050E4E3
:10364000C701B6010E9485BA18162CF4C12CD12CE2
:10365000E12CF0E4FF2EA7019601C501B4010E9400
:103660005EB86093ED037093EE038093EF03909345
:10367000F003C701B6010E94A3B96093E803062EC8
:10368000000C770B6F5F7F4F6330710514F063E0C0
:1036900070E06093E6030091E803DC1305C08091BD
:1036A0000202801709F471C08091E7039091E8034A
:1036B0009093020280930102002E000C110B24E073
:1036C000C202C0011124FC01E00FF11FEE0FFF1F29
:1036D000EE0FFF1FED57FB4F208131814281538157
:1036E0002093E1033093E2034093E3035093E40318
:1036F000C091E6030C2E000CDD0BFC01EC0FFD1F4E
:10370000EE0FFF1FEE0FFF1FED57FB4F6081718122
:10371000828193810E945EB86093DD037093DE0323
:103720008093DF039093E0038091E50324E082021D
:10373000C0011124FC01E00FF11FEE0FFF1FEE0F7F
:10374000FF1FED57FB4F2081318142815381209330
:10375000D9033093DA034093DB035093DC03C80FA3
:10376000D91FCC0FDD1FCC0FDD1FCD57DB4F68817C
:1037700079818A819B810E945EB86093D5037093A2
:10378000D6038093D7039093D8038090ED03909055
:10379000EE03A090EF03B090F0032091DD03309191
:1037A000DE034091DF035091E003C501B4010E94A4
:1037B0001BB42091E1033091E2034091E303509167
:1037C000E4030E945FB86B017C01C092D103D092E8
:1037D000D203E092D303F092D4032091D503309129
:1037E000D6034091D7035091D803C501B4010E947C
:1037F0001BB42091D9033091DA034091DB0350913F
:10380000DC030E945FB8A70196010E945EB8609336
:10381000CD037093CE038093CF039093D003BACEA1
:10382000C12CD12C760117CFCF93DF9320917D044B
:10383000222371F0EC010ADE9B01AC0168857985D9
:103840008A859B850E945EB8688779878A879B876F
:10385000DF91CF91089520E030E0A901BC018FE510
:1038600092E00C94A391809102049091030400973C
:1038700031F04AE050E070E060E00C94F6B060E0B7
:1038800070E0CB010895EFDF97FD0AC0ECDF6F3FDA
:1038900071058105910509F02CF4E5DF862F089567
:1038A00080E008958FEF0895CF93C62F62DA8823C2
:1038B00011F0CF91E8CF8C2FCF9108958091020421
:1038C00090910304892B39F0DEDF91E0811101C072
:1038D00090E0892F089591E0FCCFCF93DF93C82F1C
:1038E000D62F47DA882319F0DF91CF91E7CF8C2FBD
:1038F000F2D9811101C08D2FDF91CF910895B3DFEF
:10390000CB010895CF93DF93EB0133DA882319F0CD
:10391000DF91CF91F4CFCE01DF91CF9108950F9336
:103920001F93CF9380910204909103040097E9F0D4
:10393000FC018F01C1912C2F2F7D81F0C53411F036
:10394000C536B9F7F801108270E060E00E94A1AFBF
:10395000F801C083CF911F910F91089570E060E04E
:10396000CF911F910F910C94A1AF60E070E0CB015B
:10397000F1CFCF92DF92EF92FF926A017B01F9D9EA
:10398000882329F0FF90EF90DF90CF90C8CFC70138
:10399000B601FF90EF90DF90CF9008958F929F92A5
:1039A000AF92BF92CF92DF92EF92FF920F931F934D
:1039B000CF938CE5E82E84E0F82E0FE512E097EF28
:1039C000C92E9CE0D92EC0E088E58C0FD2D988237F
:1039D00009F474C0A4DF4B015C018C2F55D98823F6
:1039E00009F462C0F8012081318142815381C5010F
:1039F000B4010E945FB8F70160837183828393836F
:103A0000CF5FF4E0EF0EF11C0C5F1F4F84E0C80E97
:103A1000D11CC330C9F685E4ACD9882309F459C058
:103A20007EDF6B017C0183E02FD9882371F0209128
:103A30006B0230916C0240916D0250916E02C70191
:103A4000B6010E945FB86B017C01C0926804D092FD
:103A50006904E0926A04F0926B0440E050E0BA011D
:103A600086E487DF20E030E0A9010E9485BA1816BD
:103A70007CF455DF20E030E040E752E40E943BB99F
:103A8000609324027093250280932602909327026C
:103A9000CF911F910F91FF90EF90DF90CF90BF904B
:103AA000AF909F908F900895F601208131814281DF
:103AB0005381C501B4010E945EB89DCFF801808199
:103AC0009181A281B381F70180839183A283B38323
:103AD00097CF80916B0290916C02A0916D02B09192
:103AE0006E028093680490936904A0936A04B09373
:103AF0006B04B3CF0F930FB70F9300916E000F932A
:103B00000D7F00936E0000916F000D7F00936F009A
:103B10000F930BB70F930CB70F921F922F933F93F6
:103B20004F935F936F937F938F939F93AF93BF93C5
:103B3000EF93FF931124F0D5FF91EF91BF91AF91D7
:103B40009F918F917F916F915F914F913F912F91B5
:103B50001F900F900CBF0F910BBF0F910260F89454
:103B600000936F000F9100936E000F910FBF0F91A4
:103B7000189500008091750580FF23C0899A8FEF0A
:103B80008093D6048091750581FF1EC08F9A8FEFB8
:103B90008093D7048091750582FF19C080910B0135
:103BA00080958270809309018FEF8093D804809173
:103BB000750583FF13C016988FEF8093D90400001A
:103BC0000895899881E0DCCF8F9881E0E1CF8091E2
:103BD0000B0182708093090181E0E7CF169A81E0A2
:103BE000ECCF8091D504877F8093D504129A81E031
:103BF000089580E00E940F1381E00E940F1382E07D
:103C00000E940F13EECF12988091D50488608093A4
:103C1000D5040895813079F0823079F05F9821E001
:103C200030E001C0220F8A95EAF78091D504822BFB
:103C30008093D50408958A98F2CF909108019170ED
:103C400090930601ECCFCF93DF93809170048111A4
:103C500019C0C0912A02D0912B02219720E030E0B8
:103C600040E05FE360915F057091600580916105C0
:103C7000909162050E945FB80E94A3B921E06C1781
:103C80007D070CF020E0822FDF91CF910895CF9334
:103C9000DF9320917D04222371F0EC01D7DB9B019F
:103CA000AC01688579858A859B850E945FB86887A5
:103CB00079878A879B87DF91CF9108952F923F92D2
:103CC0004F925F926F927F928F929F92AF92BF922C
:103CD000CF92DF92EF92FF920F931F93CF93DF93D8
:103CE000CDB7DEB76C970FB6F894DEBF0FBECDBF71
:103CF0008C015B015A834983FC01EA5BFF4F208101
:103D000031814281538129873A874B875C87CA0179
:103D1000B9010E94BAB36B017C01D5012D913D918F
:103D20004D915C910E941BB40E9425B92B013C016E
:103D3000E981FA812081318142815381C701B60135
:103D40000E941BB40E9425B94B015C01C301B20162
:103D50000E94A8B9698B7A8B8B8B9C8B6837710515
:103D60008105910540F428E730E040E050E0298BE0
:103D70003A8B4B8B5C8BC501B4010E94A8B96D874F
:103D80007E878F87988B683771058105910540F490
:103D900048E750E060E070E04D875E876F87788B82
:103DA000F801EE5AFF4F4080518062807380C3015A
:103DB000B2010E94BCB369837A838B839C83698937
:103DC0007A898B899C890E94BAB36D8B7E8B8F8B8D
:103DD000988F20E030E0A90169817A818B819C81F4
:103DE0000E94B6B3882309F4E1C1A7019601C70177
:103DF000B6010E941BB44B015C012D893E894F899D
:103E0000588DCA01B9010E941BB49B01AC01C501C8
:103E1000B4010E945EB84B015C0129813A814B815B
:103E20005C81CA01B9010E945FB89B01AC01C50168
:103E3000B4010E943BB90E9425B90E94A8B96D83C4
:103E40007E838F83988766277727CB01641975094E
:103E5000860997090E94BCB34B015C016D857E8584
:103E60008F8598890E94BAB32B013C0120E030E095
:103E7000A901C501B4010E94B6B3882309F49AC10F
:103E8000A3019201C301B2010E941BB4698F7A8F12
:103E90008B8F9C8FA7019601C701B6010E941BB4AE
:103EA0009B01AC01698D7A8D8B8D9C8D0E945EB8D3
:103EB0006B017C01A5019401C501B4010E945FB8AA
:103EC0009B01AC01C701B6010E943BB90E94D4B965
:103ED000D80195968D909D90AD90BC909897750166
:103EE00064012D813E814F815885C21AD30AE40AAC
:103EF000F50A0E94A8B9C61AD70AE80AF90AF7FE15
:103F00008EC02D893E894F89588DCA01B9010E9402
:103F10001BB46B017C0129813A814B815C81CA0110
:103F2000B9010E945FB869877A878B879C8720E0F8
:103F300030E0A90169817A818B819C810E94B6B3AE
:103F4000882309F43BC1C501B4010E94BAB3298595
:103F50003A854B855C850E941BB4A70196010E949F
:103F60005EB86D837E838F839887A3019201C3011E
:103F7000B2010E941BB49B01AC016D817E818F81D7
:103F800098850E945FB82B013C0120E030E040E8BA
:103F900050E469817A818B819C810E941BB49B01D2
:103FA000AC01C301B2010E943BB90E9425B92B01AB
:103FB0003C0120E030E0A9010E9485BA18161CF0EF
:103FC000412C512C3201C301B2010E94A8B96D836A
:103FD0007E838F83988786169706A806B90620F4F5
:103FE0008D829E82AF82B8866D817E818F81988519
:103FF0000E94BAB329853A854B855C850E941BB423
:10400000A70196010E945FB80E94CABA0E94A8B98F
:1040100069877A878B879C87C12CD12C760169852B
:104020007A858B859C8529893A894B895C89621BB5
:10403000730B840B950B0E94BAB329813A814B8193
:104040005C810E943BB920E034E244EF59E40E94D5
:104050001BB40E94A8B94B015C0169857A858B85E8
:104060009C852D853E854F855889621B730B840B7B
:10407000950B0E94BAB329813A814B815C810E94E1
:104080003BB920E034E244EF59E40E941BB40E94A3
:10409000A8B92B013C013FE683169104A104B104A9
:1040A00008F090C0F401EE0FFF1FEE0FFF1FE05766
:1040B000FD4E85919591A591B4918983292E3A2E33
:1040C000BD8B4FE6441651046104710408F083C0AF
:1040D000F201EE0FFF1FEE0FFF1FE057FD4E45915F
:1040E0005591659174919A01CB014D815E816F81EB
:1040F0007885D80199964D935D936D937C939C97A9
:104100004C0D5D1D6E1D7F1DF80145A756A767A7C5
:1041100070ABE65BFF4F49895A896B897C89408384
:10412000518362837383D5968D929D92AD92BC929A
:10413000D897F80141AE52AE63AE74AEFD96498198
:104140004083218232825D89538334962083318378
:104150008283938369857A858B859C85D1966D93BF
:104160007D938D939C93D4973D962D853E854F8569
:10417000588920833183428353836C960FB6F89419
:10418000DEBF0FBECDBFDF91CF911F910F91FF908A
:10419000EF90DF90CF90BF90AF909F908F907F90E7
:1041A0006F905F904F903F902F90089560E070E087
:1041B000CB0141CE60E070E0CB0188CE60E070E0E2
:1041C000CB01F3CEC501B4010E9439136983272EB8
:1041D000382E9D8B76CFC301B2010E9439139B010B
:1041E00084CF90916F0081E091FD02C080E008953E
:1041F00090916F009D7F90936F000895EFE6F0E03F
:1042000080818260808308958F929F92AF92BF9247
:10421000CF92DF92EF92FF920F931F93CF93DF9392
:10422000182F84E0189FE0011124123008F046C0D6
:10423000D8DF082FD6DF80902C0590902D05A09018
:104240002E05B0902F058111D9DFCBDFC09030054E
:10425000D0903105E0903205F09033058111CEDF2A
:104260000111CCDF113019F5C501B4016C197D09BC
:104270008E099F090E94BCB320E030E040E05FE37C
:104280000E941BB4C45DD84F288139814A815B816B
:104290000E941BB4DF91CF911F910F91FF90EF907F
:1042A000DF90CF90BF90AF909F908F900895C701FF
:1042B000B601680D791D8A1D9B1DDCCF92DFFE01C2
:1042C000E45DFA4FC080D180E280F380811196DFF7
:1042D000C701B6010E94BCB3D5CFCF92DF92EF9257
:1042E000FF92CF93DF93C82F7CDF94E0C99FE0015A
:1042F0001124FE01E05EFA4FC080D180E280F3809D
:1043000081117CDFC45DD84FC701B6010E94BCB3E8
:10431000288139814A815B810E941BB4DF91CF9152
:10432000FF90EF90DF90CF900895CF93DF93CDB7BC
:10433000DEB72C970FB6F894DEBF0FBECDBF0E943C
:10434000ED904FDF9CE0ECE2F5E0DE01119601908C
:104350000D929A95E1F7811151DFCE0101960E94ED
:10436000B5A62C960FB6F894DEBF0FBECDBFDF9179
:10437000CF9108952F923F924F925F926F927F92CA
:104380008F929F92AF92BF92CF92DF92EF92FF9265
:104390000F931F93CF93DF9300D0CDB7DEB78090FC
:1043A0005F0290906002A0906102B0906202409023
:1043B0006302509064026090650270906602C09043
:1043C0006702D0906802E0906902F0906A020E9451
:1043D00036140E94841408E515E18EE292E09B8376
:1043E0008A838CE4282E85E1382E198289810E94E7
:1043F0004115F80185919591A591B491EA81FB81D0
:1044000081939193A193B193FB83EA83F101859109
:104410009591A591B491EA81FB8180879187A287CC
:10442000B387F981FF5FF9830C5F1F4F84E0280E8B
:10443000311CF330D9F60E9453170E94031AA501CC
:10444000940160915F02709160028091610290918D
:1044500062020E94B6B381111CC0A3019201609157
:1044600063027091640280916502909166020E94DD
:10447000B6B381110EC0209167023091680240915D
:10448000690250916A02C701B6010E94B6B388233F
:10449000B1F00F900F900F90DF91CF911F910F917E
:1044A000FF90EF90DF90CF90BF90AF909F908F9054
:1044B0007F906F905F904F903F902F9036CF0F90EE
:1044C0000F900F90DF91CF911F910F91FF90EF9080
:1044D000DF90CF90BF90AF909F908F907F906F9024
:1044E0005F904F903F902F900895CF93DF931F924E
:1044F000CDB7DEB7898360E0CE0101960E9420151A
:1045000061E0CE0101960E94201562E0CE01019685
:104510000E94201589810F90DF91CF9108958F928D
:104520009F92AF92BF92CF92DF92EF92FF921F9332
:10453000CF93DF93CDB7DEB760970FB6F894DEBFA9
:104540000FBECDBF182F80E05FDE4B015C01809273
:104550003D0490923E04A0923F04B092400481E05A
:1045600053DE6B017C01C0924104D0924204E09280
:104570004304F092440482E047DE60934504709364
:10458000460480934704909348041D861E861F8628
:10459000188A89829A82AB82BC82CD82DE82EF82C7
:1045A000F88669877A878B879C8783E02DDE6D8705
:1045B0007E878F87988BCE01019636D91E3FD9F41E
:1045C00080E1FE013196AFE5B2E001900D928A954F
:1045D000E1F760960FB6F894DEBF0FBECDBFDF9156
:1045E000CF911F91FF90EF90DF90CF90BF90AF9051
:1045F0009F908F90089584E0189FF0011124DF01AF
:10460000A15ABD4F81E090E08C0F9D1FE80FF91F6C
:1046100040815181628173814D935D936D937C9351
:104620001397D7CF0C94DB9180917405811105C04D
:1046300080917605882309F46EC080913C04659BC7
:104640005AC0816080933C049091030180913C04A6
:1046500090FF53C0826080933C0480913C04639B34
:104660004EC0886080933C0480913C044A9B49C0C2
:10467000846080933C048091100580FF10C080917D
:10468000750584FF0CC080913C0480FF08C08091B8
:104690000C07816080930C0780E00E94E9A680915E
:1046A000100581FF10C08091750585FD0CC08091BB
:1046B0003C0481FF08C080910C07826080930C0746
:1046C00081E00E94E9A68091100582FF24C08091BC
:1046D000750582FF18C0809176058823E1F08091EE
:1046E0003C0483FF18C080910C07886080930C07FE
:1046F00082E00C94E9A68E7FA5CF8D7FACCF877F1B
:10470000B1CF8B7FB6CF80913C0482FF04C08091F3
:104710000C078460EBCF08952F923F924F925F92E7
:104720006F927F928F929F92AF92BF92CF92DF92C1
:10473000EF92FF920F931F93CF93DF93CDB7DEB726
:1047400062970FB6F894DEBF0FBECDBF8FEF9FEF1D
:1047500090938900809388002AE0298B312C212CAA
:1047600078948091190590911A05A0911B05B0913C
:104770001C05892B8A2B8B2B09F0CDC180911F053D
:104780008823D1F080911D0590911E0510921F0580
:10479000892B91F010921E0510921D0510921005A4
:1047A0009091EF0E8091F00E981731F08091F00EFD
:1047B0008F5F8F708093F00E80911D0590911E0584
:1047C000892B09F4A8C140911505509116056091F7
:1047D0001705709118058091110590911205A0910F
:1047E0001305B09114050091070510E030E020E0BA
:1047F000841B950BA60BB70B081719072A073B0755
:1048000010F4D901C8018A8B840F951FA61FB71F0A
:104810008093150590931605A0931705B09318057E
:10482000E1E0C090DE04D090DF04E090E004F0907E
:10483000E1048091EE049091EF04A091F004B09116
:10484000F104C80ED91EEA1EFB1EC092EE04D092DF
:10485000EF04E092F004F092F104F7FC33C04091D1
:10486000D604042E000C550B660B770B80912C059B
:1048700090912D05A0912E05B0912F05840F951FC5
:10488000A61FB71F80932C0590932D05A0932E058E
:10489000B0932F058091DA049091DB04A091DC04A1
:1048A000B091DD04B701A601481B590B6A0B7B0BC5
:1048B000DB01CA018093EE049093EF04A093F0040F
:1048C000B093F1040091E2041091E3042091E40418
:1048D0003091E5048091F2049091F304A091F404E6
:1048E000B091F504080F191F2A1F3B1F0093F20413
:1048F0001093F3042093F4043093F50437FD33C090
:104900004091D704042E000C550B660B770B809159
:10491000300590913105A0913205B0913305840F97
:10492000951FA61FB71F8093300590933105A09364
:104930003205B09333058091DA049091DB04A091A5
:10494000DC04B091DD0428013901481A590A6A0AC9
:104950007B0AD301C2018093F2049093F304A093E5
:10496000F404B093F5044091E6045091E70460919B
:10497000E8047091E9048091F6049091F704A09105
:10498000F804B091F904480F591F6A1F7B1F409328
:10499000F6045093F7046093F8047093F90477FDDC
:1049A00033C08090D804082C000C9908AA08BB08D2
:1049B0008091340590913505A0913605B091370569
:1049C000880D991DAA1DBB1D809334059093350554
:1049D000A0933605B09337058091DA049091DB04FB
:1049E000A091DC04B091DD043A014B01681A790A08
:1049F0008A0A9B0AD401C3018093F6049093F704BA
:104A0000A093F804B093F9048090EA049090EB042A
:104A1000A090EC04B090ED048091FA049091FB0416
:104A2000A091FC04B091FD04880D991DAA1DBB1D29
:104A30008093FA049093FB04A093FC04B093FD04CC
:104A4000B7FD33C04090D904042C000C550866080B
:104A500077088090380590903905A0903A05B0907D
:104A60003B05840C951CA61CB71C809238059092BF
:104A70003905A0923A05B0923B058090DA049090F7
:104A8000DB04A090DC04B090DD042C013D0148184B
:104A900059086A087B08530142018092FA049092F7
:104AA000FB04A092FC04B092FD04E11104C0E0916B
:104AB0008400F0918500F7FE889A37FF8E9A77FD83
:104AC00006C0E0910B01E095E870E0930901B7FFA3
:104AD000149AE0918400F0918500E0918400F091B7
:104AE0008500F7FE889837FF8E9877FD05C02091E6
:104AF0000B01287020930901B7FF14985A8855209C
:104B000021F080918400909185002A8921502A8B80
:104B1000E0E0211186CE8091190590911A05A091AF
:104B20001B05B0911C05892B8A2B8B2B09F0A5C680
:104B3000E0911D05F0911E05309709F412C7809190
:104B4000150590911605A0911705B0911805409193
:104B50001105509112056091130570911405841789
:104B60009507A607B70708F447C010921E051092D4
:104B70001D05109210059091EF0E8091F00E981780
:104B800009F4EFC68091F00E8F5F8F708093F00E66
:104B900000EDC02E07E0D02EE12CF12C80911D05F8
:104BA00090911E05892B09F060C60E94EB1490932A
:104BB0001E0580931D05892B09F457C6E0911D053C
:104BC000F0911E05808183FFFCC4CF0145960E94B1
:104BD00030A710921E0510921D051092100590919D
:104BE000EF0E8091F00E981701F38091F00E8F5F19
:104BF0008F708093F00ED9CF40910C0550910D0528
:104C000060910E0570910F05481759076A077B07D9
:104C100008F40AC2409108055091090560910A05FF
:104C200070910B0585A996A9A7A9B0AD481759079A
:104C30006A077B0708F0D2C141155105610571056E
:104C400009F068C08090B1039090B203A090B303C4
:104C5000B090B4038FE69FE1A1E0FC0105911591AE
:104C600025913491081519052A053B0568F4B69479
:104C7000A79497948794AA0F04961BE8612E1FE1CE
:104C8000712E6816790649F7A093070520E282166F
:104C90009104A104B10428F4A0E28A2E912CA12C45
:104CA000B12C30E2831A9108A108B108811488E080
:104CB0009806A104B10408F496C1A4E09A9EC0012C
:104CC00011248159944EFC01329625913491B82DCE
:104CD000EE27B39F8001B29F010D1E1F06940E1F89
:104CE0001E1F112430E020E0FC01C590D490F12C6F
:104CF000E12CC01AD10AE20AF30A4C0D5D1D6E1DAB
:104D00007F1D409308055093090560930A05709331
:104D10000B0544CF00E01981942F852E862FBB818F
:104D2000AC81FD81EE813F8128854A80E091AD0311
:104D3000E99FA12DFF273091AE03399FA00DF11DF2
:104D40001090AF03199EF00DE89DA00DF11D389D48
:104D5000F00DE89FF00D4A2EBF2F4A9EE12D33271C
:104D600022274F9EE00D311D201FBA9FE00D311DFF
:104D7000201FBF9F300D211D432EB22F4A9E112DA3
:104D8000332722274F9E100D311D201FBA9F100D73
:104D9000311D201FBF9F300D211D432EB22FEE2746
:104DA0009091B1038090B2038091B3030090AC0363
:104DB000002A09F483C03091A803349DE119900BB7
:104DC000800A800B2091A903249DE0199109800A93
:104DD000800B1091AA03149D90198108800B3B9FB2
:104DE000E0199109800A800B2B9F90198108800B94
:104DF0001B9F801881094A9E112D332722274F9E21
:104E0000100D311D201FBA9F100D311D201FBF9F97
:104E1000300D211D432EB22F3091A403349DE10D9E
:104E2000901F801E801F2091A503249DE00D911DE1
:104E3000801E801F1091A603149D900D811C801F61
:104E40003B9FE00D911D801E801F2B9F900D811CAC
:104E5000801F1B9F800C811D4A9E112D3327222706
:104E60004F9E100D311D201FBA9F100D311D201FA8
:104E7000BF9F300D211D432EB22F3091A003349DD2
:104E8000E119900B800A800B2091A103249DE01969
:104E90009109800A800B1091A203149D901981083A
:104EA000800B3B9FE0199109800A800B2B9F901982
:104EB0008108800B1B9F8018810982C03091A80354
:104EC000349DE10D901F801E801F2091A903249D19
:104ED000E00D911D801E801F1091AA03149D900D5E
:104EE000811C801F3B9FE00D911D801E801F2B9F0A
:104EF000900D811C801F1B9F800C811D4A9E112DCF
:104F0000332722274F9E100D311D201FBA9F100DF1
:104F1000311D201FBF9F300D211D432EB22F309118
:104F2000A403349DE119900B800A800B2091A50306
:104F3000249DE0199109800A800B1091A603149D0D
:104F400090198108800B3B9FE0199109800A800B22
:104F50002B9F90198108800B1B9F801881094A9E06
:104F6000112D332722274F9E100D311D201FBA9F70
:104F7000100D311D201FBF9F300D211D432EB22F5C
:104F80003091A003349DE10D901F801E801F209161
:104F9000A103249DE00D911D801E801F1091A2038E
:104FA000149D900D811C801F3B9FE00D911D801E64
:104FB000801F2B9F900D811C801F1B9F800C811DCB
:104FC00011244A821983BB83AC83FD83EE833F8324
:104FD0002887982C892EB12CA82E3CCE81A892A887
:104FE000A3A8B4A837CED501C401B695A7959795C7
:104FF00087958C7F8159984EFC01C590D490FC0117
:10500000329625913491F82DF770F29FC001F39FED
:10501000900D1124F3E096958795FA95E1F7C81A5B
:10502000D90AF12CE12C69CE409103055091040579
:105030006091050570910605481759076A077B07B7
:1050400008F02BC28090FE049090FF04A090000511
:10505000B09001058091020581117CC0DF01AF5B3A
:10506000BF4FED90FD900D911C9113971D962D91C2
:105070003D914D915C9161A972A983A994A90E9467
:10508000BD124424439440920205E0911D05F09125
:105090001E0541A952A963A974A98FE69FE1A1E069
:1050A000FC010591159125913491041715072607E8
:1050B000370768F47695679557954795AA0F049634
:1050C0003BE8632E3FE1732E6816790649F7A093FB
:1050D0000705403251056105710520F440E250E0BA
:1050E00060E070E04052510961097109411528E002
:1050F00052076105710508F4B0C134E0539FC00147
:1051000011248159944EFC01329625913491AA279D
:10511000439FF001429FE10DFA1F0694EA1FFA1F18
:105120001124AF0170E060E0FC01C590D490F12C37
:10513000E12CC41AD50AE60AF70A8C0C9D1CAE1C99
:10514000BF1C8092FE049092FF04A0920005B092D2
:10515000010524CD81AD92ADA3ADB4AD88169906FD
:10516000AA06BB0608F072C181149104A104B1041F
:1051700049F44091B1035091B2036091B30370912F
:10518000B4038BCFA0E0F985982D492D8A2DEA85AF
:105190007B856C85BD855E853F8528895091AD03F3
:1051A000599F612DBB273091AE03399F600DB11D12
:1051B0001090AF03199EB00D549F600DB11D349F28
:1051C000B00D589FB00DE62F7B2FE69F512D332752
:1051D0002227EB9F500D311D2A1F769F500D311D48
:1051E0002A1F7B9F300D211DE32F722FE69FF12D8B
:1051F00033272227EB9FF00D311D2A1F769FF00DDC
:10520000311D2A1F7B9F300D211DE32F722F552743
:105210009091B1034091B2038091B3030090AC032D
:105220000A2A09F483C03091A8033E9F51199A0BB2
:105230004A0B8A0B2091A9032E9F501991094A0B02
:105240008A0BF091AA03FE9F901941098A0B379FA0
:10525000501991094A0B8A0B279F901941098A0B13
:10526000F79F40198109E69FF12D33272227EB9FF5
:10527000F00D311D2A1F769FF00D311D2A1F7B9FD7
:10528000300D211DE32F722F3091A4033E9F510D4D
:105290009A1F4A1F8A1F2091A5032E9F500D911D12
:1052A0004A1F8A1FF091A603FE9F900D411D8A1F81
:1052B000379F500D911D4A1F8A1F279F900D411D3A
:1052C0008A1FF79F400D811DE69FF12D332722276E
:1052D000EB9FF00D311D2A1F769FF00D311D2A1F07
:1052E0007B9F300D211DE32F722F3091A0033E9F35
:1052F00051199A0B4A0B8A0B2091A1032E9F50192A
:1053000091094A0B8A0BF091A203FE9F9019410963
:105310008A0B379F501991094A0B8A0B279F9019C6
:1053200041098A0BF79F4019810982C03091A80377
:105330003E9F510D9A1F4A1F8A1F2091A9032E9F3D
:10534000500D911D4A1F8A1FF091AA03FE9F900DD8
:10535000411D8A1F379F500D911D4A1F8A1F279F8D
:10536000900D411D8A1FF79F400D811DE69FF12D75
:1053700033272227EB9FF00D311D2A1F769FF00D5A
:10538000311D2A1F7B9F300D211DE32F722F30917D
:10539000A4033E9F51199A0B4A0B8A0B2091A50337
:1053A0002E9F501991094A0B8A0BF091A603FE9F7C
:1053B000901941098A0B379F501991094A0B8A0BA2
:1053C000279F901941098A0BF79F40198109E69F91
:1053D000F12D33272227EB9FF00D311D2A1F769FD9
:1053E000F00D311D2A1F7B9F300D211DE32F722FE1
:1053F0003091A0033E9F510D9A1F4A1F8A1F209192
:10540000A1032E9F500D911D4A1F8A1FF091A203E8
:10541000FE9F900D411D8A1F379F500D911D4A1F01
:105420008A1F279F900D411D8A1FF79F400D811DE8
:105430001124F987EA877B876C87BD875E873F8762
:10544000288B542F492F70E0682F27CEE25BFF4F47
:10545000408151816281738120CEDB01CA01B69502
:10546000A795979587958C7F8159984EFC01C5909B
:10547000D490FC013296259134914770429FC0012F
:10548000439F900D112403E0969587950A95E1F7C7
:10549000C81AD90AF12CE12C50CE80914602909185
:1054A0004702A0914802B0914902B7FF5FC0EA5B92
:1054B000FF4FC080D180E280F3808FE69FE121E042
:1054C000FC0145915591659174914C155D056E05F2
:1054D0007F0558F4F694E794D794C794220F049666
:1054E0004BE85FE14817590759F72093070550E249
:1054F000C516D104E104F10428F4F0E2CF2ED12C3A
:10550000E12CF12C60E2C61AD108E108F108C114BF
:1055100078E0D706E104F10408F431C0A4E0DA9E93
:10552000C00111248159944EFC0132962591349189
:10553000BC2D6627B39FA001B29F410D561F069454
:10554000461F561F112470E060E0FC018591949184
:10555000B0E0A0E0841B950BA60BB70B809346022E
:1055600090934702A0934802B0934902C09046022C
:10557000D0904702E0904802F09049020FCBD7014B
:10558000C601B695A795979587958C7F8159984EBA
:10559000FC0125913491FC01329645915491FC2DEA
:1055A000F770F49FC001F59F900D1124E3E09695EC
:1055B0008795EA95E1F7281B390BC901B0E0A0E017
:1055C000CDCF458956896789708DC18CD28CE38C8B
:1055D000F48CDF01AB5BBF4F4C904A8A81E04C15E5
:1055E0005D056E057F0509F098C180E04115510504
:1055F0006105710551F0242D2170942D96959170BF
:1056000081E0291380E0291388C1058D168D278D2F
:1056100030A1011511052105310509F08460809341
:1056200010051092FE041092FF04109200051092D3
:105630000105109208051092090510920A051092B2
:105640000B0585A196A1A7A1B0A580931105909304
:105650001205A0931305B0931405882499245401CE
:10566000881A990AAA0ABB0A8092EE049092EF0463
:10567000A092F004B092F1048092F2049092F304AC
:10568000A092F404B092F5048092F6049092F7048C
:10569000A092F804B092F90481A092A0A3A0B4A0B3
:1056A000880C991CAA1CBB1C440F551F661F771F32
:1056B0004093DE045093DF046093E0047093E104B0
:1056C000CC0CDD1CEE1CFF1CC092E204D092E30463
:1056D000E092E404F092E504000F111F221F331F33
:1056E0000093E6041093E7042093E8043093E90460
:1056F0008092EA049092EB04A092EC04B092ED0444
:10570000880F991FAA1FBB1F8093DA049093DB04B4
:10571000A093DC04B093DD041092150510921605D9
:10572000109217051092180581A592A5A3A5B4A5FE
:1057300080930C0590930D05A0930E05B0930F0573
:1057400085A596A5A7A5B0A9809303059093040508
:10575000A0930505B0930605809175055A888515B7
:1057600021F0509275050E94B91D0E9414236624F1
:105770006A94762C430160924602709247028092AE
:10578000480290924902E0911D05F0911E05DF014B
:10579000DD96ED90FD900D911C9121A932A943A9B0
:1057A00054A9E65BFF4F60817181828193810E94E1
:1057B000BD1210920205E0911D05F0911E05E65BF9
:1057C000FF4F40815181628173818FE69FE1A1E0AB
:1057D000FC010591159125913491041715072607B1
:1057E000370768F47695679557954795AA0F0496FD
:1057F000FBE88F2EFFE19F2E8816990649F7A093AC
:105800000705403251056105710520F440E250E082
:1058100060E070E04052510961097109411528E0CA
:1058200052076105710508F47AC034E0539FC00146
:1058300011248159944EFC01329625913491AA2766
:10584000439FF001429FE10DFA1F0694EA1FFA1FE1
:105850001124AF0170E060E0FC01C590D490F12C00
:10586000E12CC41AD50AE60AF70AC0921905D092AB
:105870001A05E0921B05F0921C0580911905909184
:105880001A05A0911B05B0911C05AC01BD01009744
:10589000F1E0AF07B10520F04FEF5FEF60E070E09F
:1058A000841B950BA60BB70B8093190590931A05D3
:1058B000A0931B05B0931C05F894809184009091EF
:1058C0008500409629892150298B222309F447C05D
:1058D000240E351E2816390610F40C94B02330928D
:1058E000890020928800789462960FB6F894DEBF03
:1058F0000FBECDBFDF91CF911F910F91FF90EF9021
:10590000DF90CF90BF90AF909F908F907F906F90DF
:105910005F904F903F902F900895826076CEDB018C
:10592000CA01B695A795979587958C7F8159984E12
:10593000FC01C590D490FC013296259134914770BA
:10594000429FC001439F900D112433E096958795A7
:105950003A95E1F7C81AD90AF12CE12C86CF1C013F
:10596000BECF80EDC82E87E0D82EE12CF12C1DC9CA
:1059700010923B04109233041092340410923504B8
:1059800010923604109237041092380410923904A1
:1059900010923A0410922F041092300410923104A5
:1059A00010923204089580913B048130E9F08230F6
:1059B000C9F40E94D11960932F047093300480932E
:1059C00031049093320481E080933B040E94D2988A
:1059D00060933304709334048093350490933604B9
:1059E00081E00895C5DFEFCF80E0089580913B040A
:1059F0008150823070F410923B040E94D2986093E0
:105A00003704709338048093390490933A0481E00A
:105A1000089580E00895282F30E094E0359527958B
:105A20009A95E1F797E32A3008F490E3920F909368
:105A30001F028F7097E38A3008F490E3890F8093F8
:105A400020028FE192E008950C947C908F929F92B7
:105A5000AF92BF92CF92DF92EF92FF920F931F937C
:105A6000CF93DF9310922704109226042FE3209304
:105A70002A041092290410922804109222041092F1
:105A8000230410922404109225049C01F9019081B2
:105A90002F5F3F4F9032D1F39E34C9F4818190ED56
:105AA000980F9A3020F08D3211F08B3281F43296BB
:105AB0009F012F5F3F4F808180538A3008F46BC075
:105AC0009F012F5F3F4F8081803209F466C0F093C1
:105AD0001007E0930F078F010F5F1F4FC0816AE22D
