:100000000C94E1120C9421130C9421130C942113E1
:100010000C9421130C9421130C9421130C94211390
:100020000C9421130C941A970C941A970C941A9709
:100030000C9421130C9421130C9421130C94211370
:100040000C9421130C9444B30C9421130C9421139D
:100050000C9421130C94EDA00C9421130C948C9B04
:100060000C9421130C9448770C943E770C94211334
:100070000C9421130C9421130C9421130C94211330
:100080000C9421130C9421130C9421130C94211320
:100090000C9421130C9421130C9421130C94211310
:1000A0000C9421130C9421130C9421130C94211300
:1000B0000C9421130C9421130C9421130C942113F0
:1000C0000C9421130C9421130C9421130C942113E0
:1000D0000C9421130C9421130C9421130C942113D0
:1000E0000C942113084AD73B3BCE016E84BCBFFD64
:1000F000C12F3D6C74319ABD56833DDA3D00C77FF8
:1001000011BED9E4BB4C3E916BAAAABE0000008090
:100110003F05A84CCDB2D44EB93836A9020C50B91F
:10012000918688083CA6AAAA2ABE000000803F004B
:100130004E414E494E495459494E46CDCCCC3D0ACC
:10014000D7233C17B7D13877CC2B329595E6241FAF
:10015000B14F0A000020410000C84200401C462068
:10016000BCBE4CCA1B0E5AAEC59D74434F4D4D5577
:100170004E49434154494F4E0044525952554E0046
:100180004552524F525300494E464F004543484F47
:10019000005072696E7465722073746F707065645C
:1001A0002064756520746F206572726F72732E20E3
:1001B00046697820746865206572726F7220616E7E
:1001C0006420757365204D39393920746F2072654C
:1001D00073746172742E202854656D706572617439
:1001E0007572652069732072657365742E2053657E
:1001F000742069742061667465722072657374611D
:100200007274696E67290A004E6F20436865636BDC
:1002100073756D2077697468206C696E65206E75E2
:100220006D6265722C204C617374204C696E653A66
:100230002000636865636B73756D206D69736D6114
:100240007463682C204C617374204C696E653A208D
:10025000004C696E65204E756D6265722069732071
:100260006E6F74204C617374204C696E65204E75FE
:100270006D6265722B312C204C617374204C696E59
:10028000653A20004D3131300053657269616C2050
:10029000737461747573206D69736D617463680A3A
:1002A00000746F6F206D75636820696E6163746997
:1002B00076652074696D65202D2063757272656E98
:1002C0007420636F6D6D616E643A20002121204BB4
:1002D000494C4C2063617573656420627920004845
:1002E0006F74656E642049646C652054696D656F38
:1002F00075740A00627573793A207061757365646C
:1003000020666F7220696E7075740A006275737969
:100310003A2070617573656420666F72207573652D
:10032000720A00627573793A2070726F6365737335
:10033000696E670A006563686F3A004572726F7292
:100340003A004F4646004F4E0066616C736500747C
:100350007275650042696C696E656172204C6576E4
:10036000656C696E6720477269643A0A00303D2EF9
:1003700033323500313D2E3138006D6178002F3336
:1003800031002F3331002F333100303D2E333235E1
:1003900000313D2E3138006D6178002F3331002F50
:1003A0003331002F333100303D2E33323500313DB3
:1003B0002E3138006D6178002F3331002F3331003A
:1003C0002F333100303D2E33323500313D2E313860
:1003D000006D6178002F3331002F3331002F33311E
:1003E00000092042616420726573706F6E7365212D
:1003F00000092042616420726573706F6E7365211D
:1004000000092042616420726573706F6E7365210C
:1004100000092042616420726573706F6E736521FC
:10042000004C4F570048494748004F4B00457272F7
:100430006F723A20416C6C200020636F6E6E6563B2
:1004400074696F6E2E2E2E200054657374696E676A
:1004500020004C4F570048494748004F4B00457219
:10046000726F723A20416C6C200020636F6E6E6573
:100470006374696F6E2E2E2E200054657374696E3E
:100480006720004C4F570048494748004F4B0045F4
:1004900072726F723A20416C6C200020636F6E6E36
:1004A000656374696F6E2E2E2E2000546573746917
:1004B0006E6720004C4F570048494748004F4B009B
:1004C0004572726F723A20416C6C200020636F6E2F
:1004D0006E656374696F6E2E2E2E200054657374E2
:1004E000696E672000426564204C6576656C696EB4
:1004F0006720004661696C656420746F20656E61D9
:10050000626C6520426564204C6576656C696E6737
:100510000A00496E76616C6964206D6573682E0A05
:10052000002E0A002F0050726F62696E67206D65A1
:10053000736820706F696E742000202844525952ED
:10054000554E2900473239204175746F2042656449
:10055000204C6576656C696E67003F20284C2C52F4
:100560002C462C4229206F7574206F6620626F75AF
:100570006E64732E0A003F2856296572626F736598
:10058000206C6576656C20696D706C61757369624D
:100590006C652028302D34292E0A00426164205ACF
:1005A0002076616C75650A004E6F2062696C696E19
:1005B00065617220677269640A0020440020204D42
:1005C000323030205300202844697361626C6564C6
:1005D000293A0046696C616D656E742073657474A8
:1005E000696E67730020204D3230312058004D6114
:1005F0007820416363656C65726174696F6E202851
:10060000756E6974732F7332290020204D32303398
:100610002058004D61782066656564726174657369
:100620002028756E6974732F7329002052002020D2
:100630004D323034205000416363656C65726174E3
:10064000696F6E2028756E6974732F7332292028A4
:10065000503C7072696E742D616363656C3E20520C
:100660003C726574726163742D616363656C3E20D6
:10067000543C74726176656C2D616363656C3E29D0
:1006800000204A0020540020530020204D323035F5
:10069000204200416476616E6365642028423C6DAF
:1006A000696E5F7365676D656E745F74696D655FB4
:1006B00075733E20533C6D696E5F6665656472615B
:1006C00074653E20543C6D696E5F74726176656C32
:1006D0005F66656564726174653E204A3C6A756E4A
:1006E000635F6465763E2900204400204900202095
:1006F0004D333031205000486F74656E642050498E
:10070000440020440020204D353933205920460034
:1007100020440020204D3539332058204600496EB2
:100720007075742053686170696E67004452565F3B
:10073000535441545553090050574D5F5343414C56
:1007400045090050574D434F4E460900434F4F4C0B
:10075000434F4E46090043484F50434F4E46090011
:10076000544849474809090054434F4F4C54485294
:100770005309005450574D54485253090054535490
:10078000455009090054504F574552444F574E09A0
:1007900000494F494E090900475354415409090083
:1007A00049484F4C445F4952554E090047434F4E0C
:1007B000460909000900447269766572207265670E
:1007C0006973746572733A0A007332767362090052
:1007D00073327673610900313230430900313433AA
:1007E0004309003135304309003135374309006F83
:1007F0007409006F747077090073326761090073C0
:1008000032676209006F6C6109006F6C62090073E6
:10081000747374090073675F726573756C74004458
:1008200052565354415455530075537465702063A8
:100830006F756E74005374616C6C677561726420BF
:100840007468727300202D73746172740900687982
:1008500073746572657369730A202D656E6409008F
:10086000626C616E6B2074696D65006F66662074E2
:10087000696D650070776D206772616420617574C1
:100880006F0070776D206F66667365742061757494
:100890006F0070776D207363616C65206175746F94
:1008A0000070776D207363616C652073756D004F08
:1008B00054207072657761726E005B6D6D2F735D91
:1008C000090050574D207468726573682E00747368
:1008D0007465700900696E7465727009006D7374D7
:1008E0006570730900737465616C746843686F7038
:1008F000007673656E7365090050574D2073636110
:100900006C650043532061637475616C00486F6CC3
:10091000642063757272656E740052756E20637523
:100920007272656E74004D41582063757272656E07
:100930007400524D532063757272656E7400536576
:10094000742063757272656E7400456E61626C65C9
:100950006409004164647265737309000900202E04
:1009600068737472743A2000202E68656E643A20B1
:10097000002063686F70706572202E746F66663A2F
:100980002000202E68737472743A2000202E68654F
:100990006E643A20002063686F70706572202E7458
:1009A0006F66663A2000202E68737472743A2000D5
:1009B000202E68656E643A20002063686F70706551
:1009C00072202E746F66663A2000202E687374724F
:1009D000743A2000202E68656E643A200020636817
:1009E0006F70706572202E746F66663A20003F53F8
:1009F000206F7574206F662072616E6765202831E4
:100A00002E2E38290A003F50206F7574206F662003
:100A100072616E676520282D332E2E3132290A002F
:100A20003F4F206F7574206F662072616E6765207E
:100A300028312E2E3135290A003B200020496E76C0
:100A4000616C696420657874727564657220004712
:100A5000322F47332062616420706172616D65746A
:100A60006572730A0047323800205A3A2000205934
:100A70003A200042656420583A20004D6573682092
:100A8000706F696E74206F7574206F662072616E6E
:100A900067650A002569730025696D202569730063
:100AA0002569682025696D20256973002569642002
:100AB0002569682025696D202569730025697920DD
:100AC000256964202569682025696D2025697300E2
:100AD0005072696E742074696D653A20006F6B0006
:100AE0006F6666008C018701800179016B014445C6
:100AF0004255473A004D3131322053687574646F66
:100B0000776E004D3131332053002F2F003F4A20A4
:100B10006F7574206F662072616E67652028302EB5
:100B2000303120746F20302E33290A0020204D618F
:100B3000783A2000200020204D696E3A2000203BAA
:100B4000200020204D323131205300536F66742035
:100B5000656E6473746F70730046523A0020466C81
:100B60006F773A200050726F6265204F666673653A
:100B700074205A0050726F6265204F666673657408
:100B8000205A0064697300656E0043290A0061629F
:100B90006C656420286D696E2074656D702000435B
:100BA0006F6C64206578747275646573206172651A
:100BB00020004D34323120696E636F727265637448
:100BC00020706172616D657465722075736167650F
:100BD0000A004D65736820706F696E74206F7574BC
:100BE000206F662072616E67650A00546F6F206621
:100BF00061722066726F6D207265666572656E63E4
:100C00006520706F696E740A00454550524F4D2043
:100C10004F4B0A00206F72203020746F206469737C
:100C200061626C650A003F4672657175656E637935
:100C300020284629206D75737420626520677265CF
:100C400061746572207468616E20003F5A6574613A
:100C5000202844292076616C7565206F7574206F9B
:100C6000662072616E67652028302D31290A0029BF
:100C70000A0020746F20003F5A206F7574206F6641
:100C80002072616E6765202800290A0020746F2099
:100C9000003F59206F7574206F662072616E676522
:100CA00020282D00290A0020746F20003F58206F53
:100CB0007574206F662072616E676520282D002E86
:100CC0000A002028302D313029002076616C7565AE
:100CD000206F7574206F662072616E6765004164D5
:100CE00076616E6365204B3D0020647269766572A3
:100CF0002063757272656E743A20002064726976A2
:100D000065722063757272656E743A200020647299
:100D1000697665722063757272656E743A20002080
:100D20006472697665722063757272656E743A20BA
:100D3000007370726561644379636C6500737465F8
:100D4000616C746843686F700020647269766572C4
:100D5000206D6F64653A0900737072656164437950
:100D6000636C6500737465616C746843686F7000D0
:100D700020647269766572206D6F64653A0900734C
:100D800070726561644379636C6500737465616C4E
:100D9000746843686F700020647269766572206DB4
:100DA0006F64653A09007370726561644379636CBE
:100DB0006500737465616C746843686F70002064CB
:100DC0007269766572206D6F64653A0900496E76C6
:100DD000616C69642065787472756465720A006F6D
:100DE0006B0020204D323036205800486F6D652052
:100DF0006F6666736574004361703A00434F4E46F8
:100E000049475F4558504F5254004D454154504159
:100E1000434B00434F4F4C45525F54454D50455254
:100E20004154555245004348414D4245525F544557
:100E30004D50455241545552450042414259535438
:100E4000455050494E470041524353004D4F54497D
:100E50004F4E5F4D4F44455300544845524D414C11
:100E60005F50524F54454354494F4E0045585445E6
:100E70004E4445445F4D323000435553544F4D5F0F
:100E80004649524D574152455F55504C4F414400E1
:100E90004C464E5F5752495445004C4F4E475F46B3
:100EA000494C454E414D45004155544F5245504FD8
:100EB00052545F53445F5354415455530053445F5D
:100EC00057524954450052455045415400534443FC
:100ED0004152440050524F4D50545F535550504F63
:100EE000525400484F53545F414354494F4E5F435F
:100EF0004F4D4D414E445300454D455247454E439D
:100F0000595F50415253455200434153455F4C494C
:100F10004748545F4252494748544E455353005442
:100F20004F47474C455F4C494748545300534F4641
:100F300054574152455F504F574552004255494C16
:100F4000445F50455243454E54004C4556454C492C
:100F50004E475F44415441005A5F50524F42450052
:100F600052554E4F5554004155544F4C4556454CE3
:100F7000005052494E545F4A4F420050524F475220
:100F8000455353004155544F5245504F52545F54AE
:100F9000454D50004155544F5245504F52545F50AB
:100FA0004F5300564F4C554D45545249430045450B
:100FB00050524F4D0042494E4152595F46494C45AF
:100FC0005F5452414E534645520053455249414C9D
:100FD0005F584F4E5F584F4646004649524D574165
:100FE00052455F4E414D453A4D61726C696E2032FB
:100FF0002E312E3220284D6179202033203230329C
:10100000332031353A32313A34352920534F555255
:1010100043455F434F44455F55524C3A6769746896
:1010200075622E636F6D2F4D61726C696E466972C9
:101030006D776172652F4D61726C696E2050524FF1
:10104000544F434F4C5F56455253494F4E3A312E01
:1010500030204D414348494E455F545950453A4A26
:10106000756C69612050726F2053696E676C6520E2
:101070003234562041424C207769746820544D43E5
:1010800032323039206F6E2055415254206D6F64DA
:1010900065206F6E204D4B532047656E4C205632B5
:1010A0002E31204D61726C696E20322E312E32202D
:1010B00045585452554445525F434F554E543A316A
:1010C00020555549443A63656465326132662D3472
:1010D0003161322D343734382D396231322D633558
:1010E0003563363266333637666600203B00202093
:1010F0004D3835312058005A2D50726F6265204F9F
:1011000066667365740020573A0020573A002066DF
:1011100061696C6564212042616420686561746561
:10112000722069640A00504944204175746F7475D7
:101130006E650023646566696E65204445464155C9
:101140004C545F004B6420004B6920004B70200022
:101150002066696E69736865642120507574207417
:101160006865206C617374204B702C204B69206182
:101170006E64204B6420636F6E7374616E747320B1
:1011800066726F6D2062656C6F7720696E746F2078
:10119000436F6E66696775726174696F6E2E680A57
:1011A00000504944204175746F74756E6500206667
:1011B00061696C6564212074696D656F75740A00DE
:1011C000504944204175746F74756E6500206661E6
:1011D000696C6564212054656D7065726174757207
:1011E0006520746F6F20686967680A005049442061
:1011F0004175746F74756E6500204B643A20002051
:101200004B693A2000204B703A200020436C6173F8
:1012100073696320504944200A002054753A200025
:10122000204B753A2000206D61783A2000206D69CE
:101230006E3A200020643A200020626961733A20EF
:10124000002073746172740A00504944204175741F
:101250006F74756E6500206661696C656421205449
:10126000656D706572617475726520746F6F20684A
:101270006967680A00504944204175746F74756E3F
:1012800065006F70656E00545249474745524544AA
:10129000003A20007A5F70726F6265007A5F6D615C
:1012A0007800795F6D617800785F6D696E005265D6
:1012B000706F7274696E6720656E6473746F7020EE
:1012C0007374617475730A0020746F6F206C6F6E95
:1012D0006720657874727573696F6E2070726576B9
:1012E000656E7465640A0020636F6C6420657874B1
:1012F000727573696F6E2070726576656E74656461
:101300000A00000070C10000C8430000C8435761D4
:10131000726E696E673A20486F6D696E672042751C
:101320006D702044697669736F72203C20310A0029
:101330000202040080C5430000C8430000C8430007
:1013400000A0400000A0400000004000000001009C
:10135000000001000080005555550000004000339A
:10136000333300AAAA2A004992240000002000C7B3
:10137000711C0099991900D1451700555515003B6E
:10138000B113002449120011111100000010000FC8
:101390000F0F00E3380E0043790D00CCCC0C00C3D6
:1013A000300C00E8A20B0064210B00AAAA0A00700E
:1013B0003D0A009DD80900427B090092240900DC07
:1013C000D30800888808001042080000000800F0D8
:1013D000C107008787070075500700711C07003E92
:1013E000EB0600A1BC060069900600666606007068
:1013F0003E06006118060017F4050074D105005B75
:10140000B00500B2900500627205005555050078E0
:10141000390500B81E0500050505004EEC040087DF
:10142000D40400A1BD040090A7040049920400C1A7
:101430007D0400EE690400C7560400444404005CC7
:101440003204000821040041100400000004003FA1
:10145000F00300F8E0030026D20300C3C30300CC6E
:10146000B503003AA803000A9B0300388E0300C0AE
:101470008103009F750300D0690300505E03001DC7
:1014800053030034480300913D0300333303001637
:10149000290300381F030097150300300C030003D5
:1014A0000303000BFA020049F10200BAE802005CF3
:1014B000E002002DD802002DD0020059C80200B071
:1014C000C0020031B90200DAB10200AAAA0200A0EB
:1014D000A30200BC9C0200FA9502005C8F0200DFB0
:1014E00088020082820200457C02002776020027E3
:1014F000700200436A02007C640200D05E02003F7A
:10150000590200C8530200FFFDFCFAF8F6F4F2F0AD
:10151000EEECEAE9E7E5E3E1E0DEDCDAD9D7D5D4C1
:10152000D2D0CFCDCBCAC8C7C5C3C2C0BFBDBCBA5D
:10153000B9B7B6B4B3B2B0AFADACAAA9A8A6A5A4CA
:10154000A2A1A09E9D9C9A99989795949392908F12
:101550008E8D8B8A8988878684838281807F7E7D39
:101560007B7A797877767574737271706F6E6D6C43
:101570006B6A696867666564636261605F5E5D5C33
:101580005B5A5958585756555453525150504F4E14
:101590004D4C4B4A4A4948474646454443424241DE
:1015A000403F3E3E3D3C3B3B3A3938383736353597
:1015B000343332323130302F2E2E2D2C2B2B2A2942
:1015C0002928272726252524232322212120201FDF
:1015D0001E1E1D1C1C1B1B1A191918181716161570
:1015E0001514131312121111100F0F0E0E0D0D0CF6
:1015F0000C0B0A0A09090808070706060505040472
:10160000030302020100000080C5430000C843003C
:1016100000C8430000000000000000000000002996
:101620000A002062797465733B2063726320005363
:10163000657474696E67732053746F7265642028D3
:1016400000454550524F4D20496E697469616C697F
:101650007A65640A0048617264636F64656420445B
:10166000656661756C742053657474696E67732068
:101670004C6F616465640020286D6D2900203B205B
:101680004C6576656C696E67200020204D343230E1
:101690002053004175746F20426564204C65766567
:1016A0006C696E670020204D3930360020543020A0
:1016B0004500537465707065722064726976657256
:1016C0002063757272656E740020204D35363920A6
:1016D000533100543020450020580044726976652B
:1016E00072207374657070696E67206D6F64650039
:1016F00020204D393030204B004C696E65617220DE
:10170000416476616E636500204A002020473239CB
:10171000205720490020204D3134392043203B20E0
:10172000556E69747320696E2043656C73697573B7
:101730000A0054656D706572617475726520556E2E
:10174000697473002020473231203B004C696E657C
:10175000617220556E69747300454550524F4D209B
:101760006461746173697A65206572726F722E0AA2
:1017700000290A002062797465733B20637263203C
:10178000002073746F7265642073657474696E678A
:10179000732072657472696576656420280020285C
:1017A00063616C63756C6174656429210A00202192
:1017B0003D2000454550524F4D20435243206D6916
:1017C000736D61746368202D202873746F72656473
:1017D0002920002053697A653A2000496E646578B3
:1017E0003A200000004843000048430000A04100A8
:1017F0000034420000C8420000C842F0F7FB43003A
:10180000000C43DC050000DC050000320000001085
:10181000270000204D61726C696E3D563837290AE9
:1018200000454550524F4D2076657273696F6E20AA
:101830006D69736D617463682028454550524F4D42
:101840003D0024F404D9201BC40C5C0E9804C40988
:101850005F0265077101F405F900FB04B300480459
:101860008700C10369005803550003034500BE0209
:101870003A008402310053022A00290225000402A2
:101880002000E4011C00C8011900AF0117009801F5
:101890001400840113007101100061011000510156
:1018A0000E0043010D0036010B002B010B0020013F
:1018B0000B00150109000C01090003010800FB00E1
:1018C0000800F3000800EB000700E4000600DE005B
:1018D0000600D8000600D2000600CC000500C700B4
:1018E0000500C2000500BD000400B9000400B500F9
:1018F0000400B1000400AD000400A9000400A5002C
:101900000300A20003009F0004009B000300980056
:1019100003009500020093000300900003008D0077
:1019200002008B0003008800020086000200840091
:101930000300810002007F0002007D0002007B00A6
:1019400002007900020077000100760002007400B6
:10195000020072000100710002006F0002006D00C1
:1019600001006C0002006A000100690002006700CB
:1019700001006600010065000100640002006200D1
:10198000010061000100600001005F0002005D00D5
:1019900001005C0001005B0001005A0001005900D9
:1019A00001005800010057000100560001005500D9
:1019B00001005400010053000000530001005200D8
:1019C000010051000100500001004F0001004E00D5
:1019D00000004E0001004D0001004C0001004B00D2
:1019E00000004B0001004A000100490001004800CE
:1019F00000004800010047000100460000004600CA
:101A000001004500000045000100440001004300C2
:101A100000004300010042000000420001004100BC
:101A2000000041000100400001003F0000003F00B5
:101A300001003E0000003E0001003D0000003D00AE
:101A400001003C0000003C0000003C0001003B00A5
:101A500000003B0001003A0000003A00010039009C
:101A60000000390001003800000038000000380094
:101A7000010037000000370001003600000036008A
:101A80000000360001003500000035000000350080
:101A90000100340000003400000034000100330075
:101AA000000033000000330001003200000032006B
:101AB0000000320001003100000031000000310060
:101AC00001003000000030000000300001002F0055
:101AD00000002F0000002F0000002F0001002E004A
:101AE00000002E0000002E0001002D0000002D003F
:101AF00000002D0000002D0001002C0000002C0033
:101B000000002C0000002C0001002B0000002B0026
:101B100000002B0000002B0001002A0000002A001A
:101B200000002A0000002A0001002900000029000E
:101B30000000290000002900000029000100280001
:101B400000002800000028000000280000002800F5
:101B500001002700000027000000270000002700E8
:101B600000002700010026000000260000002600DB
:101B700000002600000026000100250000002500CE
:101B800000002500000025000000250000002500C1
:101B900001002400000024000000240000002400B4
:101BA00000002400010023000000230000002300A7
:101BB0000000230000002300000023000000230099
:101BC000010022000000220000002200000022008C
:101BD000000022000000220001002100000021007E
:101BE0000000210000002100000021000000210071
:101BF0000000210001002000000020000000200063
:101C00000000200000002000000020000000200054
:101C10000000200001001F0000001F0000001F0046
:101C200000001F0000001F0000001F0000001F0038
:101C300001001E0000001E0000001E0000001E002B
:101C4000000024F4D43050C38E20C2A24017828BEF
:101C50007011127A910D816CD90AA861E108C758F8
:101C60006607615143061E4B5D05C145A7041A4135
:101C70001104093D9803713931034036DB026533A5
:101C80009102D4305402802E1D02632CEE01752A7D
:101C9000C501B028A001102781018F2564012B24E4
:101CA0004B01E0223401AC211F018D200D01801F6A
:101CB000FC00841EED00971DDF00B81CD200E61B5F
:101CC000C600201BBC00641AB200B219A8000A1991
:101CD000A0006A189900D117910040178B00B51623
:101CE000840031167E00B31579003A157300C714CD
:101CF0006F0058146A00EE13660088136300251302
:101D00005E00C7125B006C12570015125400C1111F
:101D1000510070114F0021114B00D61049008D1059
:101D200047004610440002104200C00F4000800FE0
:101D30003E00420F3C00060F3B00CB0E3800930ED6
:101D400037005C0E3500270E3400F30D3200C10D54
:101D50003100900D3000600D2E00320D2D00050D6C
:101D60002C00D90C2B00AE0C2900850C29005C0C32
:101D70002700350C27000E0C2600E80B2400C40BAE
:101D80002400A00B23007D0B23005A0B2100390BEC
:101D90002100180B2000F80A1F00D90A1E00BB0AF8
:101DA0001E009D0A1D00800A1D00630A1C00470AD0
:101DB0001B002C0A1B00110A1A00F7091A00DD0982
:101DC0001900C4091900AB091900920917007B0911
:101DD0001800630917004C0916003609160020097F
:101DE00016000A091500F5081500E0081400CC08D3
:101DF0001400B8081400A4081400900813007D080B
:101E000012006B081300580812004608120034082C
:101E10001100230811001208110001081100F00739
:101E20001000E0071000D0071000C0071000B00736
:101E30000F00A107100091070E0083070F00740721
:101E40000F0065070E0057070E0049070E003B07FD
:101E50000D002E070E0020070D0013070D000607CA
:101E60000D00F9060C00ED060D00E0060C00D4068E
:101E70000C00C8060C00BC060C00B0060C00A40642
:101E80000B0099060C008D060B0082060B007706EE
:101E90000B006C060B0061060A0057060B004C068F
:101EA0000A0042060A0038060A002E060A00240626
:101EB0000A001A060A001006090007060A00FD05B6
:101EC0000900F4050900EB050900E2050900D90540
:101ED0000900D0050900C7050900BE050900B505C0
:101EE0000800AD050800A50509009C05080094053B
:101EF00008008C050800840508007C0508007405AE
:101F000008006C050700650508005D05070056051B
:101F100008004E0507004705070040050800380582
:101F20000700310507002A050700230507001C05E7
:101F30000600160507000F05070008050600020544
:101F40000700FB040600F5040700EE040600E804A1
:101F50000600E2040700DB040600D5040600CF04F7
:101F60000600C9040600C3040600BD040600B70449
:101F70000600B1040500AC040600A6040600A00497
:101F800005009B04060095040500900406008A04E1
:101F9000050085040500800406007A040500750428
:101FA0000500700405006B0405006604050061046B
:101FB00005005C04050057040500520405004D04AB
:101FC000050048040500430405003E0404003A04EB
:101FD000050035040500300404002C040500270426
:101FE0000400230405001E0404001A04040016045F
:101FF0000500110404000D04040009040500040494
:10200000040000040400FC030400F8030400F403CB
:102010000400F0030400EC030400E8030400E403FC
:102020000400E0030400DC030400D8030400D4032C
:102030000400D0030400CC030400C8030300C5035C
:102040000300423A0020436F756E7420413A004508
:1020500000626564002C2073797374656D2073745D
:102060006F7070656421204865617465725F4944D2
:102070003A20004572723A204D415854454D500067
:102080004D415854454D50207472696767657265BB
:10209000640048656174696E67204661696C6564B7
:1020A0000048656174696E67206661696C656400EB
:1020B0001000600350012C0190012201D001180191
:1020C00010020E0170020401E002FA006003F00049
:1020D0000004E600B004DC00A005D200B006C80091
:1020E0000008BE00A009B400800BAA00D00DA0001B
:1020F00090109600C0138C0070178200901B78001F
:1021000010206E00C0246400E02D500080353C009B
:10211000A03A2800A03D1400003F0000A03FECFFC3
:102120004572723A204D494E54454D50004D494E2E
:1021300054454D502074726967676572656400206C
:102140002F002042403A0020403A001000C90210FF
:10215000012C014001220170011801B0010E01F0B3
:102160000104015002FA00B002F0003003E600D092
:1021700003DC009004D2007005C800A006BE000079
:1021800008B400B009AA00D00BA000600E96006051
:10219000118C000015820020197800C01D6E00A06F
:1021A000226400B0275A00902C500000314600E015
:1021B000343C0010383200903A2800603C1E00A0E9
:1021C0003D1400803E0A00203F00002020506C613A
:1021D0006E6E657242756666657242797465733AB1
:1021E00020002046726565204D656D6F72793A203A
:1021F0000020436F6D70696C65643A204D617920F1
:10220000203320323032330A00204C617374205561
:102210007064617465643A20323032322D31322D6F
:102220003137207C20417574686F723A20284672DD
:1022300061636B74616C20576F726B732C206465E3
:102240006661756C7420636F6E666967290A004D5C
:1022500061726C696E20322E312E320A0020536F6B
:102260006674776172652052657365740A00205741
:1022700061746368646F672052657365740A002037
:1022800042726F776E206F75742052657365740AA1
:10229000002045787465726E616C205265736574B8
:1022A0000A00506F77657255700A0073746172741A
:1022B0000A0020503A00205A3A0020593A0020588B
:1022C0003A00656E6473746F7073206869743A20A5
:1022D0000000002100240027002A002D00300033D8
:1022E0000001010000040107010A0100000A0B02BD
:1022F000090C0D0E08070304010000000000000097
:1023000000000000000000000000000000000000CD
:10231000000000000000001211100000000000008A
:1023200000000000000000000000000000000000AD
:1023300000000020002300260029002C002F00327E
:102340000000010000030106010901000022002530
:102350000028002B002E003100340002010000058F
:102360000108010B01050505050705080808080215
:102370000202020A0A08080404040401010101011E
:102380000101010303030303030303040707070C0D
:102390000C0C0C0C0C0C0C020202020606060606C3
:1023A0000606060B0B0B0B0B0B0B0B010210202070
:1023B0000808102040102040800201020108040299
:1023C000010102040810204080804020100804020F
:1023D0000180040201804020100804020108040268
:1023E000010102040810204080010204081020406E
:1023F00080571D00001F1400005C0C0000F906004F
:1024000000BA030000EE010000FB0000007E0000A7
:1024100000486F6D696E67204661696C656400FFF6
:10242000010150726F62696E67204661696C656474
:102430000A00205A3A200020593A200042656420C0
:10244000583A2000307800220A00556E6B6E6F7784
:102450006E20636F6D6D616E643A2022002045002E
:10246000205A0020590020204D3932205800537442
:102470006570732070657220756E697400457272A4
:102480006F722077726974696E6720746F2045459A
:1024900050524F4D210A00DB0FC93F45BCDA3F8F38
:1024A000B30240FCF0274056946140FE4B9B4084B1
:1024B000A5D840E0231841346A5641E85997416451
:1024C000DBD5416E271742B4B75542CE1A9742C8A2
:1024D000AED542B5885A43D40684BFA65FA7BF7461
:1024E00043E0BF10B11AC01C2C58C0E8F697C0B822
:1024F00049D6C04E4E17C124D355C1802497C1A0E0
:10250000B5D5C1121A17C244AE55C2781797C26C1E
:10251000ACD5C267885AC320746F6F206C6F6E672A
:1025200020657874727573696F6E20707265766558
:102530006E7465640A0020636F6C64206578747241
:102540007573696F6E2070726576656E7465640A66
:1025500000544845524D414C2052554E4157415927
:1025600000546865726D616C2052756E6177617997
:1025700000486F6D652025732573257320466972A9
:1025800073740020453A00205A3A0020593A005806
:102590003A006F6B0A00526573656E643A20005012
:1025A00072696E7465722068616C7465642E206B4C
:1025B000696C6C28292063616C6C6564210A0000D9
:1025C000F7B811241FBECFEFD1E2DEBFCDBF00E0D0
:1025D0000CBF84B78093C91314BE0FB6F894A895A6
:1025E00080916000886180936000109260000FBE4F
:1025F00013E0A0E0B2E0EAE0F9E901E00BBF02C0BD
:1026000007900D92AA39B107D9F723E1AAE9B3E0FF
:1026100001C01D92A93CB207E1F712E1C1EED2E17F
:1026200000E006C021970109802FFE010E942BC9FE
:10263000C03ED10780E00807A9F70E9497BA0C9422
:1026400083CC0C9400009F92AF92BF92CF92DF9206
:10265000EF92FF920F931F93CF93DF9300D01F92BF
:102660001F92CDB7DEB7E7E0F5E10027BB27462F85
:10267000572FA82FAA2341F4A52F542FB85FAA23C0
:1026800019F4A52F5527B85FA03138F45295A295BB
:10269000452F4F70507FA42BBC5FA03428F4550FFA
:1026A000AA1F550FAA1FBE5FA03818F4550FAA1F06
:1026B000B395550FAA1FEA0FF01F449151E0AA27C6
:1026C000B85079F1C0F0B0FF02C0440F551FB1FF00
:1026D00004C0440F551F440F551FB2FF06C052954A
:1026E0004295142F1F70407F512BB3FF1AC0A52FA6
:1026F000542F442716C0B195B0FF02C05595479599
:10270000B1FF04C05595479555954795B2FF05C053
:102710005295407F4295452B5F70B3FF02C0452F15
:102720005527DD24CC24BB24B2E0649FD018C10817
:10273000B00AB00B749FC018B108B00B849FB018DA
:10274000B109659FC018B108B00B759FB018B109E9
:10275000859FB0196A9FB018B1097A9FB0194D9D35
:10276000A12C99243327992722275D9DA00C911C29
:10277000301F901F201FAD9D900C311D901F201FFA
:102780004C9DA00C911C301F901F201F5C9D900C35
:10279000311D901F201FAC9D300D911D201F4B9DA2
:1027A000900C311D901F201F5B9D300D911D201F2F
:1027B000AB9D900D211D4B9F300D911D201F5B9FE8
:1027C000900D211DAB9F200DB1E0BB24CC24DD2456
:1027D000639FD018C108B00AB00B739FC018B1082E
:1027E000B00B839FB018B109699FC018B108B00B36
:1027F000799FB018B109899FB019629FB018B109CB
:10280000729FB019D61AC70AB80A20F0B1E03B0F80
:10281000901F201F1124792F632F90E0822F0F909B
:102820000F900F900F900F90DF91CF911F910F910C
:10283000FF90EF90DF90CF90BF90AF909F90089562
:10284000CF92DF92EF92FF9280918204882309F465
:1028500057C0C0907E04D0907F04E0908004F09038
:10286000810420E030E0A901C701B6010E94D3C471
:10287000882309F445C020E030E040E05FE3C70171
:10288000B6010E9438C59B01AC010E9438C52BEDF2
:102890003FE049E450E40E9438C59B01AC0160E090
:1028A00070E080E89FE30E9468CA6B017C01C092DF
:1028B0006804D0926904E0926A04F0926B0460911B
:1028C0001E0270911F02072E000C880B990B0E94AC
:1028D000D9C42AE037ED43E25CE30E9438C5A70182
:1028E00096010E9438C560936102709362028093E2
:1028F000630290936402FF90EF90DF90CF90089571
:10290000C12CD12C80E8E82E8FE3F82ED0CFFC012B
:102910007081472F50E0062E02C0559547950A94C6
:10292000E2F740FF14C040914B0450E0062E02C075
:10293000559547950A94E2F740FF09C021E030E041
:1029400001C0220F6A95EAF7209527232083089576
:10295000CF93DF9324E0829FC0011124EC01C25B7E
:10296000DF4EFC01E65DF74F845B9B4FDC012D9150
:102970003D914D915C9160817181828193810E9432
:102980008CC9688379838A839B83DF91CF91089573
:102990008F929F92AF92BF92CF92DF92EF92FF926F
:1029A000CF93DF9320912202222309F48EC0EC0101
:1029B00080914B04E82E80FF2CC0809024029090E0
:1029C0002502A0902602B0902702288139814A81F1
:1029D0005B81C501B4010E94B2CB181624F4888231
:1029E0009982AA82BB828090300290903102A0909E
:1029F0003202B0903302288139814A815B81C5015E
:102A0000B4010E94D3C487FF04C088829982AA823D
:102A1000BB82E1FE2CC08090280290902902A090F9
:102A20002A02B0902B022C813D814E815F81C5012D
:102A3000B4010E94B2CB181624F48C829D82AE821F
:102A4000BF828090340290903502A0903602B09000
:102A500037022C813D814E815F81C501B4010E9406
:102A6000D3C487FF04C08C829D82AE82BF82E2FE07
:102A70002CC0C0902C02D0902D02E0902E02F0903D
:102A80002F02288539854A855B85C701B6010E94DA
:102A9000B2CB181624F4C886D986EA86FB86C09085
:102AA0003802D0903902E0903A02F0903B0228853B
:102AB00039854A855B85C701B6010E94D3C487FF6B
:102AC00004C0C886D986EA86FB86DF91CF91FF9045
:102AD000EF90DF90CF90BF90AF909F908F90089530
:102AE0008091470490914804A0914904B0914A0410
:102AF00080931A0290931B02A0931C02B0931D02B4
:102B00008091450490914604909319028093180295
:102B1000089580911A0290911B02A0911C02B0911D
:102B20001D028093470490934804A0934904B093F6
:102B30004A04809118029091190290934604809360
:102B4000450484E690E0909319028093180208955A
:102B500090E080E0089520910204833021F425FD67
:102B60000CC024FD0CC030E0A90102C0559547956A
:102B70008A95E2F7CA018170089581E0089580E0A6
:102B8000089580911E0484FD0BC08091200487FD70
:102B900007C090912104937081E019F480E00895BA
:102BA00081E008952FEB280F2A3108F047C0E22F6B
:102BB000F0E080911E0490911F04A0912004B09138
:102BC000210404C0B695A795979587952A95D2F7C5
:102BD00080FD02C081700895EC5FFB4FE081EE2321
:102BE00041F18091C2099091C309E80FF92FF11DBD
:102BF000808190ED980F9A3030F08E3251F48181BF
:102C000080538A3098F4F093FF03E093FE0381E051
:102C100008958D3211F08B3249F4818190ED980F37
:102C20009A3088F38E3211F48281EACFF0E0E0E04E
:102C3000EACF1092FF031092FE03E9CF80E00895DF
:102C4000B1DF882341F081E02091FE033091FF0342
:102C5000232B09F480E00895FC01DB0112962D91ED
:102C60003D914C91149722833383448315968C9124
:102C70001597858316962D913D914C911897268333
:102C80003783408719964D915D916D917C911C978A
:102C900041875287638774871D964D915D916D9131
:102CA0007C915097458756876787708B86E793E0BE
:102CB0009183808351968D919C915297928B818BB9
:102CC00053964D915D916D917C915697438B548BAA
:102CD000658B768B57968C915797878B58968D91ED
:102CE0009C915997918F808F5A968D919C915B976B
:102CF000938F828F5C968D919C915D97958F848F39
:102D00005E964D915D916D917C919197468F578F15
:102D100060A371A392964D915D916D917C91959771
:102D200042A353A364A375A396964D915D916D91B3
:102D30007C91999746A357A360A771A79A968D9106
:102D40009C919B9793A782A79C968D919C919D9710
:102D500095A784A79E968D919C919F9797A786A7EC
:102D6000D0968D919C91D19791AB80ABD2968C915E
:102D700082AB0895EDEEF3E080EF9FEFA9E7B4ECAE
:102D800084839583A683B78380839183A283B3834F
:102D9000E7EDF3E08DE98183808308958F929F9220
:102DA000AF92BF92CF92DF92EF92FF92FC0198E038
:102DB000A6E7B4E001900D929A95E1F788E0FB0157
:102DC000ADE6B4E001900D928A95E1F7C0907604EB
:102DD000D0907704E0907804F090790420E030E01F
:102DE000A901C701B6010E94D3C48823E1F1A7015C
:102DF000960160E070E080E89FE30E9468CA6B0182
:102E00007C0180907A0490907B04A0907C04B09028
:102E10007D0420E030E0A901C501B4010E94D3C4C3
:102E2000882329F1A501940160E070E080E89FE328
:102E30000E9468CAC092E503D092E603E092E703DD
:102E4000F092E8036093E9037093EA038093EB0345
:102E50009093EC03FF90EF90DF90CF90BF90AF90F6
:102E60009F908F900895C12CD12C7601CACF60E03D
:102E700070E0CB01DFCF10927104109272041092B7
:102E800073041092740410926D0410926E041092E8
:102E90006F041092700410927A0410927B041092C6
:102EA0007C0410927D0410927604109277041092A4
:102EB000780410927904E3E8F4E080E090E0A0EC7C
:102EC000BFE780839183A283B38384839583A683A2
:102ED000B78380879187A287B38784879587A687E2
:102EE000B787709624E0E33CF20759F708954091C4
:102EF000C30421E0422768E070E00C94F89240910E
:102F0000C30421E042276CE070E00C94F8924091F9
:102F1000C30421E0422764E070E00C94F8924091F1
:102F2000C30421E0422761E070E00C94F8924091E4
:102F3000C30421E0422761E070E00C94F8924091D4
:102F4000C30421E0422768E070E00C94F8924091BD
:102F5000C30421E042276CE070E00C94F89241E059
:102F600061E070E00C94F8924091C30421E04227A4
:102F70000C94F892BC0190E080E00C94338F6CE0EC
:102F800070E00C94049964E070E00C94049961E0A2
:102F900070E00C94049961E070E00C9404996CE08A
:102FA00070E00C940499682F880F770B880B990BAD
:102FB0000C949D8FAF92BF92CF92DF92EF92FF92CF
:102FC0000F931F93CF93DF93C6E0D0E106ED19E096
:102FD00086E1A82E80E1B82EC12CD12C7601C394B5
:102FE00069917991899199910E94D7C428893989E9
:102FF0004A895B890E9438C50E94D5CAF80161934D
:103000007193819391938F01C616D706E806F9064E
:1030100010F46B017C01AC16BD0611F76FEF7FEF6A
:10302000CB01A70196010E94ADC82093E609309319
:10303000E7094093E8095093E90923EF34E045E3B9
:103040005FE36091D2097091D3098091D409909186
:10305000D5090E9438C52AE136EF45E95EE30E94B2
:1030600068CA6B017C0160911210709113108091FD
:103070001410909115100E94D7C49B01AC01C70198
:10308000B6010E9438C50E94F7CB6093EA0970939D
:10309000EB098093EC099093ED09DF91CF911F919B
:1030A0000F91FF90EF90DF90CF90BF90AF90089579
:1030B000CF93DF93EC01C43081E0D8076CF184E05A
:1030C00091E09093170880931608C4E0D1E06091D6
:1030D00012087091130880911408909115080E94AD
:1030E000D0CA6E5F7F4F25976C177D07DCF4709315
:1030F0000908609308080E94C39960547B428E4F70
:103100009F4F60930A0870930B0880930C0890936C
:103110000D08DF91CF910895D0931708C09316083A
:103120002097A9F610920A0810920B0810920C082A
:1031300010920D08EECF0F931F93809137048130CA
:1031400019F50E94C39900912F0410913004209129
:10315000310430913204601B710B820B930B28EE0B
:1031600033E040E050E00E94ADC860912B047091C4
:103170002C0480912D0490912E04620F731F841FE4
:10318000951F1F910F91089560913304709134043D
:103190008091350490913604D6CF0F931F93CF932F
:1031A000DF930AE110E1C3EFD9E0F80121913191F9
:1031B000419151918F0160E070E080E89FE30E94AF
:1031C00068CA6993799389939993FAE0C330DF07CA
:1031D00061F70E940292DF91CF911F910F91EACE89
:1031E0004F925F926F927F928F929F92AF92BF9217
:1031F000CF92DF92EF92FF920F931F93CF93DF93C3
:10320000EC0120916D0430916E0440916F04509157
:103210007004688179818A819B810E948BC96B01CE
:103220007C0120917104309172044091730450919B
:1032300074046C817D818E819F810E948BC94B01BA
:103240005C01A70196016091ED037091EE038091FE
:10325000EF039091F0030E94D3C4882309F450C077
:10326000C092ED03D092EE03E092EF03F092F003F0
:103270002091E5033091E6034091E7035091E80384
:10328000C701B6010E9438C52B013C010E9401CB49
:103290006B017C0120E030E0A9010E94D3C487FDCE
:1032A00070C020E030E040E050E4C701B6010E9469
:1032B000B2CB18162CF4C12CD12CE12CA0E4FA2EA0
:1032C000A7019601C301B2010E948BC96093DD037F
:1032D0007093DE038093DF039093E003C701B60190
:1032E0000E94D0CA6093DB03062E000C770B6F5F41
:1032F0007F4F6330710514F063E070E06093D90391
:10330000D091D703C091DB03A50194016091F10333
:103310007091F2038091F3039091F4030E94D3C45F
:10332000811133C0DC1381C02091BF033091C003F1
:103330004091C1035091C2036091DD037091DE039F
:103340008091DF039091E0030E9438C52091C30370
:103350003091C4034091C5035091C6030E948CC9AB
:10336000DF91CF911F910F91FF90EF90DF90CF9061
:10337000BF90AF909F908F907F906F905F904F9095
:103380000895C12CD12C76019BCF8092F1039092AD
:10339000F203A092F303B092F4032091E903309179
:1033A000EA034091EB035091EC03C501B4010E9484
:1033B00038C54B015C010E9401CB6B017C0120E010
:1033C00030E0A9010E94D3C487FDF4C020E030E0C2
:1033D00040E050E4C701B6010E94B2CB18162CF4AD
:1033E000C12CD12CE12CF0E4FF2EA7019601C501E0
:1033F000B4010E948BC96093E1037093E203809350
:10340000E3039093E403C701B6010E94D0CA60931E
:10341000DC03062E000C770B6F5F7F4F6330710566
:1034200014F063E070E06093DA030091DC03DC13D6
:1034300005C08091D803801709F471C08091DB0327
:103440009091DC039093D8038093D703002E000C57
:10345000110B24E0C202C0011124FC01E00FF11F96
:10346000EE0FFF1FEE0FFF1FED57FB4F2081318145
:10347000428153812093D3033093D4034093D503E7
:103480005093D603C091DA030C2E000CDD0BFC0127
:10349000EC0FFD1FEE0FFF1FEE0FFF1FED57FB4F51
:1034A00060817181828193810E948BC96093CF0377
:1034B0007093D0038093D1039093D2038091D9036A
:1034C00024E08202C0011124FC01E00FF11FEE0F85
:1034D000FF1FEE0FFF1FED57FB4F2081318142810F
:1034E00053812093CB033093CC034093CD0350936F
:1034F000CE03C80FD91FCC0FDD1FCC0FDD1FCD575A
:10350000DB4F688179818A819B810E948BC960939E
:10351000C7037093C8038093C9039093CA03809034
:10352000E1039090E203A090E303B090E4032091C4
:10353000CF033091D0034091D1035091D203C50104
:10354000B4010E9438C52091D3033091D403409137
:10355000D5035091D6030E948CC96B017C01C092A7
:10356000C303D092C403E092C503F092C603209136
:10357000C7033091C8034091C9035091CA03C501E4
:10358000B4010E9438C52091CB033091CC03409107
:10359000CD035091CE030E948CC9A70196010E94D1
:1035A0008BC96093BF037093C0038093C103909352
:1035B000C203BACEC12CD12C760117CFCF93DF93A3
:1035C00020917504222371F0EC010ADE9B01AC010D
:1035D000688579858A859B850E948BC968877987EC
:1035E0008A879B87DF91CF910895CF93DF93CDB7E3
:1035F000DEB72C970FB6F894DEBF0FBECDBF198291
:103600001A821B821C821D821E821F8218861986C6
:103610001A861B861C86AE014F5F5F4FBC0185E694
:1036200092E00E94C0902C960FB6F894DEBF0FBEB9
:10363000CDBFDF91CF9108958091FE039091FF035C
:10364000009731F04AE050E070E060E00C9413C263
:1036500060E070E0CB010895EFDF97FD0AC0ECDF7A
:103660006F3F71058105910509F02CF4E5DF862F88
:10367000089580E008958FEF0895CF93C62FE0DA84
:10368000882311F0CF91E8CF8C2FCF9108958091AE
:10369000FE039091FF03892B39F0DEDF91E0811169
:1036A00001C090E0892F089591E0FCCFCF93DF9384
:1036B000C82FD62FC5DA882319F0DF91CF91E7CF35
:1036C0008C2F70DA811101C08D2FDF91CF91089579
:1036D000B3DFCB010895CF93DF93EB01B1DA8823F9
:1036E00019F0DF91CF91F4CFCE01DF91CF91089502
:1036F0000F931F93CF938091FE039091FF03009748
:1037000009F1FC018F01C1912C2F2F7DA1F0C5344F
:1037100031F0C53621F0C83511F0C83799F7F801F6
:10372000108270E060E00E94BEC0F801C083CF91BB
:103730001F910F91089570E060E0CF911F910F915C
:103740000C94BEC060E070E0CB01F1CFCF92DF926D
:10375000EF92FF926A017B0173DA882329F0FF90D0
:10376000EF90DF90CF90C4CFC701B601FF90EF90EC
:10377000DF90CF9008954F925F926F927F92AF92B9
:10378000BF92CF92DF92EF92FF920F931F93CF934E
:103790008EEFA82E82E0B82E98E5E92E94E0F92E5F
:1037A00005E612E02EE4C22E20E1D22EC0E0F501A3
:1037B00081915F0145DA882309F476C099DF2B01F6
:1037C0003C018C2FC8D9882309F464C0F8012081FA
:1037D000318142815381C301B2010E948CC9F7013A
:1037E0006083718382839383CF5FF4E0EF0EF11CDB
:1037F0000C5F1F4F84E0C80ED11CC330C1F685E4B6
:103800001FDA882309F45BC073DF6B017C0183E05E
:10381000A2D9882371F020917102309172024091F7
:10382000730250917402C701B6010E948CC96B01EA
:103830007C01C0926404D0926504E0926604F09228
:10384000670440E050E0BA0186E480DF20E030E029
:10385000A9010E94B2CB18167CF44ADF20E030E0C8
:1038600040E752E40E9468CA60931A0270931B02F8
:1038700080931C0290931D02CF911F910F91FF9096
:10388000EF90DF90CF90BF90AF907F906F905F9060
:103890004F900895F6012081318142815381C30107
:1038A000B2010E948BC99BCFF80180819181A281D6
:1038B000B381F70180839183A283B38395CF8091F5
:1038C000710290917202A0917302B0917402809380
:1038D000640490936504A0936604B0936704B1CF29
:1038E0008091C504877F8093C504129A81E0089572
:1038F00012988091C50488608093C504089521E0E2
:1039000030E0082E02C0220F331F0A94E2F7209500
:1039100030959091C50429232093C504813061F02E
:1039200020F0823071F081E008955F9A8091BF09A4
:103930008E7F8093BF09F7CF8A9A8091BF098D7FD0
:10394000F8CF809108018095817080930601809165
:10395000BF098B7FEECF813089F070F0823081F02B
:1039600021E030E001C0220F8A95EAF78091C5047A
:10397000822B8093C50408955F98F2CF8A98F0CF88
:1039800090910801917090930601EACF2091C507AC
:103990003091C607F901E653FB4F908196959695B5
:1039A000937081E0913009F080E040913C025091A9
:1039B0003D026091C3077091C4074F5F5F4F2F5F57
:1039C0003F4F2D3F310511F430E020E062177307BF
:1039D00021F1F901E653FB4F9081969596959370EE
:1039E00061F33093C6072093C50750933D0240937F
:1039F0003C024091CE075091CF076091CC07709167
:103A0000CD07461B570B220F331FF901E953FA4F1D
:103A100020813181240F351F0AC07093C60760933F
:103A2000C50750933D0240933C022FEF3FEF309388
:103A300047022093460208952091C1073091C207A2
:103A4000F901E653FB4F9081937081E0913009F0CA
:103A500080E040913E0250913F026091C307709117
:103A6000C4074F5F5F4F2F5F3F4F2D3F310511F46C
:103A700030E020E06217730711F1F901E653FB4FC4
:103A80009081937071F33093C2072093C1075093D4
:103A90003F0240933E024091D0075091D107609180
:103AA000CC077091CD07461B570B220F331FF9012E
:103AB000E953FA4F20813181240F351F0AC07093DA
:103AC000C2076093C10750933F0240933E022FEF1D
:103AD0003FEF30934502209344020895CF93DF9344
:103AE00080916C04811119C0C0912002D0912102F3
:103AF000219720E030E040E05FE360911208709190
:103B0000130880911408909115080E948CC90E9496
:103B1000D0CA21E06C177D070CF020E0822FDF91E6
:103B2000CF910895CF93DF9320917504222371F0F4
:103B3000EC0156DB9B01AC01688579858A859B8504
:103B40000E948CC9688779878A879B87DF91CF918C
:103B500008952F923F924F925F926F927F928F9231
:103B60009F92AF92BF92CF92DF92EF92FF920F930C
:103B70001F93CF93DF93CDB7DEB7A0970FB6F8941E
:103B8000DEBF0FBECDBF1C017B015E834D83FC01F8
:103B9000E15BFF4F208131814281538129833A8348
:103BA0004B835C83CA01B9010E94D7C44B015C01FD
:103BB000D7012D913D914D915C910E9438C50E9495
:103BC00052CA2B013C01ED81FE812081318142816D
:103BD0005381C501B4010E9438C50E9452CA6B01CD
:103BE0007C01C301B2010E94D5CA6D877E878F8791
:103BF000988B683771058105910540F428E730E01E
:103C000040E050E02D873E874F87588BC701B601B3
:103C10000E94D5CA6D837E838F839887683771052C
:103C20008105910540F488E790E0A0E0B0E08D8345
:103C30009E83AF83B887D10195962D913D914D918B
:103C40005C91989729873A874B875C87F101E55A01
:103C5000FF4F6081718182819381611571058105BA
:103C6000910509F4FCC10E94D9C46D8B7E8B8F8BAA
:103C7000988F9B01AC0160E070E080E89FE30E94B8
:103C800068CA698F7A8F8B8F9C8F20E030E040E08C
:103C90005FE30E9438C56B017C01A5019401C50159
:103CA000B4010E9438C52B013C016D817E818F815A
:103CB00098850E94D7C49B01AC010E9438C59B0126
:103CC000AC01C301B2010E948BC9A70196010E94F9
:103CD00038C54B015C016D857E858F8598890E9472
:103CE000D7C49B01AC010E9438C56D8F7E8F8F8F2A
:103CF00098A39B01AC01C301B2010E948BC9A7012B
:103D000096010E9438C52B013C010E9452CA0E94B4
:103D1000D5CA6B017C01C501B4010E9401CB0E9490
:103D2000D5CA698B7A8B8B8B9C8BDC01CB018C0D7C
:103D30009D1DAE1DBF1D29853A854B855C85281BC1
:103D4000390B4A0B5B0BDA01C901B7FF61C069850A
:103D50007A858B859C850E94D7C4A30192010E941D
:103D60008CC9A50194010E948BC920E030E040E09D
:103D70005FE30E9438C50E9452CA6B017C0120E0BB
:103D800030E0A9010E94B2CB18161CF0C12CD12C36
:103D90007601C701B6010E94D5CA6B017C018985F5
:103DA0009A85AB85BC858C159D05AE05BF0510F4C5
:103DB0006C017D0129853A854B855C852C193D096F
:103DC0004E095F09298B3A8B4B8B5C8BC701B6017F
:103DD0000E94D7C44B015C012D893E894F89588DC3
:103DE000CA01B9010E948CC99B01AC01C501B40193
:103DF0000E9438C52D8D3E8D4F8D58A10E948CC9D3
:103E00000E94F7CB0E94D5CA69837A838B839C83F7
:103E100020E034E244EF59E4698D7A8D8B8D9C8DDE
:103E20000E9438C54B015C0169817A818B819C813C
:103E30002D853E854F855889621B730B840B950B2E
:103E40000E94D7C4A50194010E9438C50E94D5CA1A
:103E50002B013C0169817A818B819C812D813E817E
:103E60004F815885621B730B840B950B0E94D7C43E
:103E7000A50194010E9438C50E94D5CA4B015C017E
:103E80003FE6431651046104710408F0F4C0F201E6
:103E9000EE0FFF1FEE0FFF1FE55BFC4E8591959126
:103EA000A591B4918C01AD8BB9874FE6841691042E
:103EB000A104B10408F0E7C0F401EE0FFF1FEE0FFC
:103EC000FF1FE55BFC4E4591559165917491342F30
:103ED000252F698F7D8FD1019996CD92DD92ED923C
:103EE000FC929C979596CD90DD90ED90FC909897E4
:103EF000B701A60189899A89AB89BC89481B590BEE
:103F00006A0B7B0BD1019D964D935D936D937C93D2
:103F1000D097F101ED5AFF4F8D859E85AF85B88909
:103F200080839183A283B383D101D5964D925D9214
:103F30006D927C92D897F10181AE92AEA3AEB4AEF1
:103F4000FD96008311834D894283598553833496AE
:103F500030832183898D82839D8D938329813A814A
:103F60004B815C81D1962D933D934D935C93D49777
:103F700076962D813E814F815885208331834283FF
:103F80005383719780819181A281B381892B8A2B80
:103F90008B2B09F44BC0D10191966D917D918D9140
:103FA0009C9194970E94D7C42091EE093091EF091B
:103FB0004091F0095091F1090E9438C54B015C0114
:103FC000C701B6010E94D7C49B01AC01C501B40171
:103FD0000E9468CA6B017C01F101E55BFF4FFA8723
:103FE000E98769817A818B819C810E94D7C4A7016E
:103FF00096010E9438C50E94D5CAA985BA856D93DD
:104000007C93F101E35BFF4FFA83E9836D817E814D
:104010008F8198850E94D7C4A70196010E9438C558
:104020000E94D5CAA981BA816D937C93A0960FB6E0
:10403000F894DEBF0FBECDBFDF91CF911F910F91DE
:10404000FF90EF90DF90CF90BF90AF909F908F90B8
:104050007F906F905F904F903F902F900895198EB2
:104060001A8E1B8E1C8E198A1A8A1B8A1C8AC12CD6
:10407000D12C7601CDCEC301B2010E9423138B0156
:104080008D8B998712CFC501B4010E942313362F5F
:10409000272F898F9D8F1FCF80916A1290916B126D
:1040A000891B8F7019F490E080E008959091671259
:1040B000992351F0833030F48FEF890F19F08093FA
:1040C0006712F1CF1092671280916B1220E6829FE7
:1040D000C00111248B5F954FFC01208120FDE3CFAF
:1040E00020916B122F5F2F702093681230916B120A
:1040F00020916912321304C0209168122093691232
:10410000089590916F0081E091FD02C080E00895D4
:1041100090916F009D7F90936F000895EFE6F0E01F
:1041200080818260808308958F929F92AF92BF9228
:10413000CF92DF92EF92FF920F931F93CF93DF9373
:10414000182F84E0189FE0011124123008F046C0B7
:10415000D8DF082FD6DF8090DF079090E007A0908F
:10416000E107B090E2078111D9DFCBDFC090E30710
:10417000D090E407E090E507F090E6078111CEDFEC
:104180000111CCDF113019F5C501B4016C197D099D
:104190008E099F090E94D9C420E030E040E05FE32F
:1041A0000E9438C5CD50D64F288139814A815B8124
:1041B0000E9438C5DF91CF911F910F91FF90EF9032
:1041C000DF90CF90BF90AF909F908F900895C701E0
:1041D000B601680D791D8A1D9B1DDCCF92DFFE01A3
:1041E000E152F84FC080D180E280F380811196DFE8
:1041F000C701B6010E94D9C4D5CFCF92DF92EF920A
:10420000FF92CF93DF93C82F7CDF94E0C99FE0013A
:104210001124FE01ED52F84FC080D180E280F3807E
:1042200081117CDFCD50D64FC701B6010E94D9C4A1
:10423000288139814A815B810E9438C5DF91CF9105
:10424000FF90EF90DF90CF900895CF93DF93CDB79D
:10425000DEB72C970FB6F894DEBF0FBECDBF0E941D
:104260000E904FDF9CE0EFEDF7E0DE01119601903C
:104270000D929A95E1F7811151DFCE0101960E94CE
:1042800051A22C960FB6F894DEBF0FBECDBFDF91C2
:10429000CF9108954F925F926F927F928F929F92EB
:1042A000AF92BF92CF92DF92EF92FF920F931F9344
:1042B000CF93DF9300D000D000D01F92CDB7DEB7F0
:1042C0008090650290906602A0906702B0906802AC
:1042D000C0906902D0906A02E0906B02F0906C028C
:1042E00080916D0290916E02A0916F02B091700268
:1042F00089839A83AB83BC8380917102909172020F
:10430000A0917302B09174028D839E83AF83B887AE
:104310000E94DA170E94201403E116E1A4E2B2E041
:10432000BA87A98787E0682E86E1782E512C852DE3
:104330000E94A814F80185919591A591B491E98501
:10434000FA8581939193A193B193FA87E987F30159
:1043500085919591A591B491E985FA85808791879A
:10436000A287B38753940C5F1F4FF4E06F0E711C4C
:1043700083E05812DCCF0E94BA1623EF34E045E305
:104380005FE36091D2097091D3098091D409909133
:10439000D5090E9438C52AE136EF45E95EE30E945F
:1043A00068CA2B013C01609112107091131080912A
:1043B0001410909115100E94D7C49B01AC01C30149
:1043C000B2010E9438C50E94F7CB6093EA0970934E
:1043D000EB098093EC099093ED090E94CD18A5019B
:1043E00094016091650270916602809167029091DC
:1043F00068020E94D3C481112EC0A701960160916A
:10440000690270916A0280916B0290916C020E9425
:10441000D3C4811120C029813A814B815C81609194
:104420006D0270916E0280916F02909170020E94F5
:10443000D3C4811110C02D813E814F815885609178
:1044400071027091720280917302909174020E94C5
:10445000D3C48823B9F02A960FB6F894DEBF0FBEF6
:10446000CDBFDF91CF911F910F91FF90EF90DF9023
:10447000CF90BF90AF909F908F907F906F905F9004
:104480004F90E3CE2A960FB6F894DEBF0FBECDBF95
:10449000DF91CF911F910F91FF90EF90DF90CF9020
:1044A000BF90AF909F908F907F906F905F904F9054
:1044B0000895CF93DF931F92CDB7DEB7898360E075
:1044C000CE0101960E94871461E0CE0101960E9400
:1044D000871462E0CE0101960E94871489810F90B3
:1044E000DF91CF9108954F925F926F927F928F925A
:1044F0009F92AF92BF92CF92DF92EF92FF921F9363
:10450000CF93DF93CDB7DEB760970FB6F894DEBFD9
:104510000FBECDBF182F80E007DE4B015C018092FB
:10452000390490923A04A0923B04B0923C0481E09A
:10453000FBDD6B017C01C0923D04D0923E04E09211
:104540003F04F092400482E0EFDD609341047093F9
:10455000420480934304909344041D861E861F8664
:10456000188A89829A82AB82BC82CD82DE82EF82F7
:10457000F88669877A878B879C8783E0D5DD6D878E
:104580007E878F87988BCE01019618D889809A8074
:10459000AB80BC8020E030E0A901C501B4010E94DD
:1045A000B2CB87FD89C020E030E845EC53E4C5017B
:1045B000B4010E94D3C418160CF47EC0CD80DE80F6
:1045C000EF80F88420E030E0A901C701B6010E9425
:1045D000B2CB87FD71C020E030E048EC53E4C70166
:1045E000B6010E94D3C418160CF466C049845A84DC
:1045F0006B847C842091C6093091C7094091C80919
:104600005091C909C701B6010E9438C5A50194019E
:104610000E948CC94B015C012091CA093091CB09E1
:104620004091CC095091CD09C301B2010E9438C517
:104630009B01AC01C501B4010E948CC94B015C0116
:1046400020E030E0A9010E94B2CB87FD35C020E018
:1046500030E845EC53E4C501B4010E94D3C41816F8
:104660005CF12091CE093091CF094091D009509151
:10467000D109C301B2010E9438C5A70196010E9469
:104680008CC96B017C0120E030E0A9010E94B2CB13
:1046900087FD12C020E030E048EC53E4C701B601CA
:1046A0000E94D3C4181644F089829A82AB82BC82DD
:1046B000CD82DE82EF82F8861E3FF9F480E1FE01B2
:1046C0003196A5E6B2E001900D928A95E1F76096E9
:1046D0000FB6F894DEBF0FBECDBFDF91CF911F9113
:1046E000FF90EF90DF90CF90BF90AF909F908F9012
:1046F0007F906F905F904F90089584E0189FF00135
:104700001124DF01AB59BD4F81E090E08C0F9D1F5C
:10471000E80FF91F40815181628173814D935D9350
:104720006D937C931397D3CF0C94029280912708BA
:10473000811105C08091C009882309F46EC0809161
:104740003804659B5AC081608093380490910301BE
:104750008091380490FF53C0826080933804809128
:104760003804639B4EC0886080933804809138047D
:104770004A9B49C08460809338048091CB0780FFB6
:1047800010C08091280884FF0CC08091380480FFFD
:1047900008C08091BE0981608093BE0980E00E94BC
:1047A00085A28091CB0781FF10C08091280885FDEC
:1047B0000CC08091380481FF08C08091BE098260DE
:1047C0008093BE0981E00E9485A28091CB0782FF81
:1047D00024C08091280882FF18C08091C0098823D6
:1047E000E1F08091380483FF18C08091BE09886091
:1047F0008093BE0982E00C9485A28E7FA5CF8D7F29
:10480000ACCF877FB1CF8B7FB6CF8091380482FF4A
:1048100004C08091BE098460EBCF089510923704E4
:1048200010922F041092300410923104109232042E
:10483000109233041092340410923504109236040E
:1048400010922B0410922C0410922D0410922E041E
:104850000895809137048130E9F08230C9F40E94D4
:104860009B1860932B0470932C0480932D049093D9
:104870002E0481E0809337040E94C39960932F0433
:1048800070933004809331049093320481E0089552
:10489000C5DFEFCF80E008958091370481508230EA
:1048A00070F4109237040E94C3996093330470939C
:1048B0003404809335049093360481E0089580E0B9
:1048C0000895282F30E094E0359527959A95E1F7E3
:1048D00097E32A3008F490E3920F909315028F70BB
:1048E00097E38A3008F490E3890F8093160285E1FC
:1048F00092E008950C949D8F8F929F92AF92BF92F9
:10490000CF92DF92EF92FF920F931F93CF93DF939B
:1049100010922304109222042FE320932604109275
:1049200025041092240410921E0410921F04109269
:104930002004109221049C01F90190812F5F3F4FC8
:104940009032D1F39E34C9F4818190ED980F9A3062
:1049500020F08D3211F08B3281F432969F012F5F5F
:104960003F4F808180538A3008F46BC09F012F5FD6
:104970003F4F8081803209F466C0F093C309E09311
:10498000C2098F010F5F1F4FC0816AE270E0C8014A
:104990000E9458CC009731F0FC0131978081803221
:1049A000E1F31182CD3421F0C43511F0C734E1F5C3
:1049B000F80180810F5F1F4F8032D1F380538A301E
:1049C00098F5C093260430E020E06AE0AF014F5F25
:1049D0005F4F629FC001639F900D11249C01205383
:1049E00031098081280F311D87FD3A95FA018081B8
:1049F00080538A3058F33093250420932404DF0138
:104A000031968C918032D9F3CD3449F52E31310570
:104A100039F0D8F42731310519F02C313105F9F48A
:104A2000B0932304A0932204DF91CF911F910F91A3
:104A3000FF90EF90DF90CF90BF90AF909F908F90BE
:104A40000895F9018BCFF90191CF2537310538F061
:104A50002737310528F3203A83E0380709F3D0914E
:104A6000C20940E050E0BA0110E000E0C12CD12CB6
:104A70007601C394FD0131968C91882309F47FC09F
:104A80008132E1F4CD34D1F420323105B9F44093D0
:104A90001E0450931F046093200470932104F0932C
:104AA0002304E093220463E270E0CF010E9458CC1B
:104AB000009709F4B9CFFC011082B6CF81548A3136
:104AC00008F058C0DF019D91903291F0A0EDA90F40
:104AD000AA30E8F09E3271F4918190539A30B8F088
:104AE0000115110519F48F010150110990E013C04F
:104AF000FD01E8CF9D3211F09B3291F79181A0ED3D
:104B0000A90FAA3020F09E3259F79281E6CF9E2F4E
:104B10009D1B309759F3A82FB0E04601570104C000
:104B2000880C991CAA1CBB1C8A95D2F748295929C4
:104B30006A297B29AC5FBB4F9C9380818154DF0144
:104B40008A3108F497CFDF018191882309F492CF4D
:104B500090ED980F9A30B8F393ED980F923098F348
:104B60008B3289F3CD010196EC91E03209F082CFCE
:104B7000DC01F8CF0115110501F78D01DECF10938F
:104B800023040093220440931E0450931F04609357
:104B900020047093210448CFCF93DF93C091050880
:104BA000D0910608209729F16091010870910208C0
:104BB00080910308909104080E94D0CA6E5F7F4FD5
:104BC00024976C177D07ACF47093F0076093EF07A0
:104BD0000E94C3996058774C8E4F9F4F6093F107A6
:104BE0007093F2078093F3079093F407DF91CF91CE
:104BF00008951092F1071092F2071092F3071092A5
:104C0000F407F4CFCF92DF92EF92FF926B017C0119
:104C100083E3C816D104E104F10470F082E3C81AFA
:104C2000D108E108F10862E370E080E090E00E94C2
:104C3000D1980E9400B6ECCFC701B6010E94D1986E
:104C4000FF90EF90DF90CF900C9400B680912708F2
:104C5000811104C08091C009882329F062E070E0CE
:104C600080E090E0CFCF089581E00895CF93DF9367
:104C7000EC01E62F660FFF0BE551FD4DE491E2508C
:104C8000E13108F0B0C0F0E08827E65BF94D8F4FC6
:104C90000C942BC95B26F326F326F326F3268526F0
:104CA0006726A926A7268726CD26CB26AB26F32660
:104CB000F126EF26CF2682E1EBE7F2E0DE0101905C
:104CC0000D928A95E1F7CE01DF91CF91089581E0B1
:104CD00020EB30E03983288321EB30E03B832A83CB
:104CE0001D821C8223EB30E03F832E8324EB30E0D7
:104CF000398728871B861A861D861C8692E09E8728
:104D00008F8781E0888B198ADECF80E0E1CF81E058
:104D10008F5F20E930E03983288321E930E03B834D
:104D20002A8322E930E03D832C8328E930E03F8369
:104D30002E832AE930E0398728872CE930E03B8749
:104D40002A8726E930E03D872C8793E0D8CF80E0A2
:104D5000DFCF80E0DECF81E08F5F20EA30E0398373
:104D6000288321EA30E03B832A8322EA30E03D8336
:104D70002C8328EA30E03F832E832AEA30E039870B
:104D800028872CEA30E03B872A8726EA30E03D87F7
:104D90002C8794E0B4CF80E0DFCF80E0DECF81E0ED
:104DA0008F5F20E231E03983288321E231E03B83C9
:104DB0002A8322E231E03D832C8328E231E03F83E5
:104DC0002E832AE231E0398728872CE231E03B87C5
:104DD0002A8726E231E03D872C8795E090CF80E05E
:104DE000DFCF80E0DECF82E1FE0111928A95E9F704
:104DF0006ACF9091C00095FFFCCF8093C6000895C4
:104E0000CF93DF93EC018991882311F0F2DFFBCF80
:104E1000DF91CF910895F4DF8DE0EBDF8AE0E9CFF9
:104E200085E4E7CF8AE5E5CF89E5E3CF88E5E1CF03
:104E3000EF92FF920F931F93CF93DF93CDB7DEB71F
:104E4000E3970FB6F894DEBF0FBECDBF182FE42E48
:104E5000F22E662301F18F3008F07EC0E82F880F14
:104E6000FF0B8827E95CF84D8F4F0C942BC9462720
:104E70006A2771277D2786278C278F279427AC27C1
:104E8000AC279B27AC27A027A227A72789E0B1DF63
:104E9000CDDF89E0AEDFEE2009F46CC01F3008F0F2
:104EA000CAC0E12F012E000CFF0B8827E55AF84DF0
:104EB0008F4F0C942BC9B527D927E027EC27F5276E
:104EC000FB27FE2703281B281B280A281B280F283E
:104ED0001128162889EF91E10E94EF9D0E94789396
:104EE000D8CF8091FB119091FC112091FD11A22F40
:104EF000AF70BC018A2F90E0F1CF89EF91E10E9461
:104F0000E89B682F70E090E080E0E8CF66E089EFF2
:104F100091E10E94CF99E2CF6091FE11F3CF89EF2A
:104F200091E10E94E09BDACF8091FF1190910012F5
:104F300020910112DCCF89EF91E10E946A9ECECFD1
:104F400060E7E5CF89EF91E10E94CF9DC7CF89EF60
:104F500091E10E94E279C2CF69EF71E1CE01019641
:104F60000E942C1689E045DF94CF89E042DF5CDFA8
:104F700089E03FDFFF2009F46CC01F3008F0C9C092
:104F8000E12F012E000CFF0B8827E653F84D8F4FC1
:104F90000C942BC9242847284E285A2863286928AE
:104FA0006C28712889288928782889287D287F28D5
:104FB00084288DEB91E10E94EF9D0E947893D8CFD9
:104FC0008091BF119091C0112091C111A22FAF709B
:104FD000BC018A2F90E0F1CF8DEB91E10E94E89B1C
:104FE000682F70E090E080E0E8CF66E08DEB91E123
:104FF0000E94CF99E2CF6091C211F3CF8DEB91E186
:105000000E94E09BDACF8091C3119091C41120914E
:10501000C511DCCF8DEB91E10E946A9ECECF60E797
:10502000E5CF8DEB91E10E94CF9DC7CF8DEB91E154
:105030000E94E279C2CF6DEB71E1CE0101960E9430
:105040002C1689E0D6DE94CF89E0D3DEEBDE89E052
:10505000D0DE002309F46BC01F3008F0B9C0E12F87
:10506000110FFF0B8827E85CF74D8F4F0C942BC96D
:105070009228A628AD28B928C228C828CB28D0282D
:10508000E828E828D728E828DC28DE28E32881E873
:1050900091E10E94EF9D0E947893D9CF8091831176
:1050A0009091841120918511A22FAF70BC018A2F9D
:1050B00090E0F1CF81E891E10E94E89B682F70E0D9
:1050C00090E080E0E8CF66E081E891E10E94CF992E
:1050D000E2CF60918611F3CF81E891E10E94E09BDD
:1050E000DACF809187119091881120918911DCCFBE
:1050F00081E891E10E946A9ECECF60E7E5CF81E82A
:1051000091E10E94CF9DC7CF81E891E10E94E279B1
:10511000C2CF61E871E1CE0101960E942C1689E0B0
:1051200068DE95CF89E065DE7BDE89E062DE8AE0BD
:1051300060DEE3960FB6F894DEBF0FBECDBFDF9101
:10514000CF911F910F91FF90EF90089585E491E129
:105150000E94EF9D0E947893E8CF80914711909133
:10516000481120914911A22FAF70BC018A2F90E005
:10517000F1CF85E491E10E94E89B682F70E090E018
:1051800080E0E8CF66E085E491E10E94CF99E2CF2C
:1051900060914A11F3CF85E491E10E94E09BDACF60
:1051A00080914B1190914C1120914D11DCCF85E4F1
:1051B00091E10E946A9ECECF60E7E5CF85E491E160
:1051C0000E94CF9DC7CF85E491E10E94E279C2CFD2
:1051D00065E471E1CE0101960E942C1689E009DE9A
:1051E000A4CFDC016B3051F4ED91FC910280F3818E
:1051F000E02D61E41995CB010C94BA17E7EFE60FA7
:10520000EB3050F50E2E000CFF0B8827E55FF64DB6
:105210008F4F0C942BC959292C292C292C2916295C
:1052200022292D2938292C294E294329ED91FC9139
:1052300011970084F185E02DCD01199573FF0CC005
:105240008AE2D7CDED91FC9111970084F185E02D94
:10525000CD01199572FDF4CF0895ED91FC91119750
:105260000084F185E02DCD01199571FFF5CFE8CFD0
:10527000ED91FC9111970084F185E02DCD011995F8
:1052800070FFEACFDDCFED91FC9111970084F1859D
:10529000E02DCD01199564FFDFCFD2CFED91FC91C8
:1052A00011970084F185E02DCD01199565FFD4CFCC
:1052B000C7CFCD010E94079E9FCFCF93DF93EC0114
:1052C000FE0184912196882311F093DDF9CFDF91BF
:1052D000CF9108950F931F93CF938C01C62F87EF23
:1052E0009DE0EBDFC801E9DF8AE383DD80E38C0F1B
:1052F00080DD8AE0CF911F910F917BCD8AED9FE0F9
:10530000DCDF8AE076DD60E08AEC9FE0E3DF60E0EE
:1053100085EB9FE0DFDF61E08EEA9FE0DBDF61E0AD
:1053200083EA9FE0D7DF60E084E99FE0D3DF61E0BC
:1053300084E89FE0CFDF60E08BE79FE0CBDF61E0B8
:1053400081E79FE0C7DF61E087E69FE0C3DF60E0C1
:1053500080E69FE0BFDF61E088E59FE0BBDF61E0C2
:105360008AE49FE0B7DF60E08CE39FE0B3DF60E0BA
:105370008DE29FE0AFDF60E08FE19FE0ABDF60E0B8
:1053800089E09FE0A7DF60E088EF9EE0A3DF60E0B8
:1053900083EE9EE09FDF60E084ED9EE09BDF60E0B7
:1053A0008DEC9EE097DF60E086EC9EE093DF60E0AE
:1053B0008DEB9EE08FDF60E088EA9EE08BDF60E0AF
:1053C0008AE99EE087DF60E080E99EE083DF60E0BD
:1053D00089E79EE07FDF60E08CE69EE07BDF61E0B6
:1053E00089E59EE077DF60E08CE49EE073DF61E0BA
:1053F00087E49EE06FDF61E08AE39EE06BDF60E0C0
:1054000086E29EE067DF60E083E19EE063DF60E0CC
:1054100086E398E00E94A815682F61708AE09EE0FC
:1054200059DF60E08CEF9DE055CFCF93C62F45DF6D
:105430008C2FCF910C94AA9EF8DF8AE0DACCEF9201
:10544000FF920F931F93CF93DF9361E87FEF8FE479
:105450000E946B1BD82F813861F18FEF8D0F8F3039
:1054600040F180E29AE029DF11E061E87FEF80E51A
:105470000E946B1BC82F813841F083E08C0F803174
:1054800020F086E09AE019DF11E061E87FEF83E524
:105490000E946B1B813879F09FEF980F983058F07D
:1054A0008EEE99E0DF91CF911F910F91FF90EF90D9
:1054B00004CF10E0DACF1111E1C0D13809F4D4E003
:1054C000C13809F4C2E0182F813809F411E08EEFD9
:1054D000E82E82E0F82E00E081E0F70191917F0153
:1054E000915440911E0450911F04609120047091CA
:1054F000210404C076956795579547959A95D2F7FC
:1055000040FF19C06D2F023009F49EC0033009F42A
:10551000A8C0013009F48BC089EF91E10E94529E2E
:105520006C2F89EF91E10E94329C612F89EF91E10C
:105530000E94219C80E00F5F043079F6882309F4F3
:105540009DC074DC89EF91E10E94909E682F81E7F5
:1055500099E06BDF89EF91E10E94299CC82F88E6D2
:1055600099E0ABDE8C2F0E94D31789EF91E10E9466
:10557000189C682F8EE599E05FDF56DC8DEB91E19A
:105580000E94909E682F85E999E04FDF8DEB91E1B5
:105590000E94299CC82F8CE899E08FDE8C2F0E94F6
:1055A000D3178DEB91E10E94189C682F82E899E057
:1055B00043DF38DC81E891E10E94909E682F89EBFF
:1055C00099E033DF81E891E10E94299CC82F80EBAC
:1055D00099E073DE8C2F0E94D31781E891E10E943D
:1055E000189C682F86EA99E027DF1ADC85E491E1B0
:1055F0000E94909E682F8DED99E017DF85E491E180
:105600000E94299CC82F84ED99E057DE8C2F0E94C0
:10561000D31785E491E10E94189C682F8AEC99E0E9
:10562000DF91CF911F910F91FF90EF9005CF8DEB00
:1056300091E10E94529E6C2F8DEB91E10E94329C71
:10564000612F8DEB91E174CF81E891E10E94529E30
:105650006C2F81E891E10E94329C612F81E891E1F9
:1056600067CF85E491E10E94529E6C2F85E491E121
:105670000E94329C612F85E491E15ACFDF91CF9156
:105680001F910F91FF90EF900895CF92DF92EF92CC
:10569000FF920F931F93CF93DF93C82F142FD22F16
:1056A000662309F405C289E0A4DBCD3008F0FCC113
:1056B000EC2F0C2E000CFF0B8827EE59F44D8F4F6A
:1056C0000C942BC96F2B8B2BBA2BE92B152C412C4F
:1056D0006D2C992C542D542D542D542DC52CA6DBF6
:1056E000112309F406C289E084DB9EDBDD2309F483
:1056F00021C289E07EDB96DB002319F089E079DBAB
:105700008FDB8AE0DF91CF911F910F91FF90EF9097
:10571000DF90CF906ECB89EF91E10E94FC9D8111CB
:1057200002C08AE266DB112309F4E3C189E061DB90
:105730008DEB91E10E94FC9D811102C08AE259DB50
:10574000DD2309F4F7C189E054DB81E891E10E948F
:10575000FC9D811102C08AE24CDB002391F289E0BA
:1057600048DB85E491E10E94FC9D8111CACF8AE269
:1057700040DBC7CF89EF91E10E94119E882311F091
:105780008AE237DB112309F4B4C189E032DB8DEB07
:1057900091E10E94119E882311F08AE22ADBDD2329
:1057A00009F4C8C189E025DB81E891E10E94119EDE
:1057B000882311F08AE21DDB002309F4A2CF89E0DF
:1057C00018DB85E491E10E94119E882309F499CFAA
:1057D000CECF89EF91E10E941C9E882311F08AE2CE
:1057E00008DB112309F485C189E003DB8DEB91E12E
:1057F0000E941C9E882311F08AE2FBDADD2309F463
:1058000099C189E0F6DA81E891E10E941C9E882323
:1058100011F08AE2EEDA002309F473CF89E0E9DAC5
:1058200085E491E10E941C9ED0CF89EF91E10E9416
:10583000279E882311F08AE2DCDA112309F459C18A
:1058400089E0D7DA8DEB91E10E94279E882311F041
:105850008AE2CFDADD2309F46DC189E0CADA81E892
:1058600091E10E94279E882311F08AE2C2DA002388
:1058700009F447CF89E0BDDA85E491E10E94279ED3
:10588000A4CF89EF91E10E94329E882311F08AE231
:10589000B0DA112309F42DC189E0ABDA8DEB91E187
:1058A0000E94329E882311F08AE2A3DADD2309F4F4
:1058B00041C189E09EDA81E891E10E94329E88230D
:1058C00011F08AE296DA002309F41BCF89E091DA1D
:1058D00085E491E10E94329E78CF89EF91E10E94A8
:1058E000489E882311F08AE284DA112309F401C169
:1058F00089E07FDA8DEB91E10E94489E882311F0C8
:105900008AE277DADD2309F415C189E072DA81E8E9
:1059100091E10E94489E882311F08AE26ADA00230E
:1059200009F4EFCE89E065DA85E491E10E94489EB2
:105930004CCF89EF91E10E943D9E882311F08AE2CD
:1059400058DA112309F4D5C089E053DA8DEB91E1DF
:105950000E943D9E882311F08AE24BDADD2309F490
:10596000E9C089E046DA81E891E10E943D9E882302
:1059700011F08AE23EDA002309F4C3CE89E039DA75
:1059800085E491E10E943D9E20CF89EF91E10E9444
:10599000E2796B017C0189E02CDA48DA89E029DAC6
:1059A000C701B6010E94789381E0C81AD108E108C6
:1059B000F1088EEFC8168FEFD806E806F80618F043
:1059C00081EE93E07ADC8AE014DA112309F491C0C5
:1059D00089E00FDA8DEB91E10E94E2796B017C01A5
:1059E00089E007DA21DA89E004DAC701B6010E940A
:1059F000789381E0C81AD108E108F1088EEFC81643
:105A00008FEFD806E806F80618F081EF93E055DC32
:105A10008AE0EFD9DD2309F48DC089E0EAD981E875
:105A200091E10E94E2796B017C0189E0E2D9FAD927
:105A300089E0DFD9C701B6010E94789381E0C81AD6
:105A4000D108E108F1088EEFC8168FEFD806E806F6
:105A5000F80618F081E094E030DC8AE0CAD900232F
:105A600009F44FCE89E0C5D985E491E10E94E2793D
:105A70006B017C0189E0BDD9D3D989E0BAD9C701CE
:105A8000B6010E94789381E0C81AD108E108F108B4
:105A90008EEFC8168FEFD806E806F80618F081E1F9
:105AA00094E00BDC8AE064CE6C2F89EF91E199DB06
:105AB0001123F9F089E09DD9CD30B8F4EC2F0C2EEC
:105AC000000CFF0B8827E859F24D8F4F0C942BC91F
:105AD000752B982BC72BF62B222C4E2C7A2CA62C10
