:100000000C948D150C94CD150C94CD150C94CD1528
:100010000C94CD150C94CD150C94CD150C94CD15D8
:100020000C94CD150C94AD910C94AD910C94AD91B4
:100030000C94CD150C94CD150C94CD150C94CD15B8
:100040000C94CD150C949B1F0C94CD150C94CD15D0
:100050000C94CD150C94009B0C94CD150C94099721
:100060000C94CD150C94EB760C94E1760C94CD1594
:100070000C94CD150C94CD150C94CD150C94CD1578
:100080000C94CD150C94CD150C94CD150C94CD1568
:100090000C94CD150C94CD150C94CD150C94CD1558
:1000A0000C94CD150C94CD150C94CD150C94CD1548
:1000B0000C94CD150C94CD150C94CD150C94CD1538
:1000C0000C94CD150C94CD150C94CD150C94CD1528
:1000D0000C94CD150C94CD150C94CD150C94CD1518
:1000E0000C94CD15084AD73B3BCE016E84BCBFFDB6
:1000F000C12F3D6C74319ABD56833DDA3D00C77FF8
:1001000011BED9E4BB4C3E916BAAAABE0000008090
:100110003F05A84CCDB2D44EB93836A9020C50B91F
:10012000918688083CA6AAAA2ABE000000803F004B
:100130004E414E494E495459494E46CDCCCC3D0ACC
:10014000D7233C17B7D13877CC2B329595E6241FAF
:10015000B14F0A000020410000C84200401C462068
:10016000BCBE4CCA1B0E5AAEC59D74434F4D4D5577
:100170004E49434154494F4E0044525952554E0046
:100180004552524F525300494E464F004543484F47
:10019000004572726F722077726974696E6720749D
:1001A0006F20454550524F4D210A00363726033CFB
:1001B0003D380F2E303E13051A1C180A4509084415
:1001C00000015072696E7465722073746F7070658F
:1001D000642064756520746F206572726F72732E6F
:1001E0002046697820746865206572726F7220619C
:1001F0006E6420757365204D39393920746F207213
:100200006573746172742E202854656D7065726117
:10021000747572652069732072657365742E20533E
:1002200065742069742061667465722072657374E8
:10023000617274696E67290A004E6F2043686563B6
:100240006B73756D2077697468206C696E65206EBC
:10025000756D6265722C204C617374204C696E65FB
:100260003A2000636865636B73756D206D69736D0B
:10027000617463682C204C617374204C696E653A1C
:1002800020004C696E65204E756D62657220697341
:10029000206E6F74204C617374204C696E65204E23
:1002A000756D6265722B312C204C617374204C6922
:1002B0006E653A20004D3131300053657269616CD2
:1002C00020737461747573206D69736D61746368F4
:1002D0000A00746F6F206D75636820696E616374C6
:1002E0006976652074696D65202D2063757272656D
:1002F0006E7420636F6D6D616E643A200021212061
:100300004B494C4C20636175736564206279200011
:10031000627573793A2070617573656420666F72D7
:1003200020696E7075740A00627573793A20706185
:100330007573656420666F7220757365720A00625A
:100340007573793A2070726F63657373696E670AAB
:10035000006563686F3A004572726F723A004F46EB
:1003600046004F4E0042696C696E656172204C65B3
:1003700076656C696E6720477269643A0A004C4F73
:10038000570048494748004F4B004572726F723A18
:1003900020416C6C200020636F6E6E656374696F22
:1003A0006E2E2E2E200054657374696E6720004CEB
:1003B0004F570048494748004F4B004572726F72D3
:1003C0003A20416C6C200020636F6E6E6563746927
:1003D0006F6E2E2E2E200054657374696E67200098
:1003E0004C4F570048494748004F4B004572726FC9
:1003F000723A20416C6C200020636F6E6E656374EE
:10040000696F6E2E2E2E200054657374696E6720FE
:10041000004C4F570048494748004F4B0045727207
:100420006F723A20416C6C200020636F6E6E6563C2
:1004300074696F6E2E2E2E200054657374696E677A
:1004400020002E0A002F0050726F62696E67206DC7
:1004500065736820706F696E7420002028445259BB
:1004600052554E2900473239204175746F2042653C
:1004700064204C6576656C696E67003F20284C2CC3
:10048000522C462C4229206F7574206F6620626FB3
:10049000756E64732E0A003F2856296572626F7369
:1004A00065206C6576656C20696D706C617573692B
:1004B000626C652028302D34292E0A0042616420A8
:1004C0005A2076616C75650A004E6F2062696C690E
:1004D0006E65617220677269640A00204400202002
:1004E0004D323030205300202844697361626C65BE
:1004F00064293A0046696C616D656E742073657499
:1005000074696E67730020204D3230312058004DE1
:10051000617820416363656C65726174696F6E20F8
:1005200028756E6974732F7332290020204D323084
:10053000332058004D61782066656564726174658A
:10054000732028756E6974732F7329002052002060
:10055000204D323034205000416363656C65726118
:1005600074696F6E2028756E6974732F7332292039
:1005700028503C7072696E742D616363656C3E2017
:10058000523C726574726163742D616363656C3E85
:1005900020543C74726176656C2D616363656C3EBA
:1005A0002900204A0020540020530020204D3230E2
:1005B00035204200416476616E6365642028423CC8
:1005C0006D696E5F7365676D656E745F74696D6587
:1005D0005F75733E20533C6D696E5F66656564723E
:1005E0006174653E20543C6D696E5F74726176651E
:1005F0006C5F66656564726174653E204A3C6A752D
:100600006E635F6465763E29002044002049002027
:10061000500020204D333031204500486F74656E06
:1006200064205049440050574D3A2020253464003E
:1006300050574D3A20202534640050574D3A202021
:100640002534640050574D3A20202534640050571B
:100650004D3A20202534640050574D3A202025344F
:10066000640050574D3A20202534640050574D3ACD
:1006700020202534640050574D3A20202534640052
:1006800050574D3A20202534640050574D3A2020D1
:100690002534640050574D3A2020253464005057CB
:1006A0004D3A20202534640050574D3A20202534FF
:1006B000640050574D3A20202534640050574D3A7D
:1006C0002020253464003A200020202020434F4D74
:1006D000002020206E6F6E2D7374616E64617264F1
:1006E0002050574D206D6F646500202020636F6D92
:1006F0007061726520696E746572727570742065C0
:100700006E61626C6564002020206F766572666C95
:100710006F7720696E7465727275707420656E6192
:10072000626C6564003A20002020202054494D531B
:100730004B00423A200020202020544343520041E5
:100740003A20002020202054434352002020202023
:1007500043533A20002020202057474D3A20005094
:10076000574D3A20202534640050574D3A2020251B
:1007700034640047004800000088008A008C00B301
:1007800000B400000098009A009C00A800AA00ACE9
:100790000028012A012C012020202054494D4552D7
:1007A00000440045006E00800081006F00B000B181
:1007B000007000900091007100A000A10072002064
:1007C000012101730020697320616C736F207469CB
:1007D000656420746F20746869732070696E0054BA
:1007E000494D45523143000A202E00202000202090
:1007F000506F72743A20004C4F57004849474800E8
:10080000446F6E652E0A0050756C73696E67202008
:100810002000556E746F75636865642000534552FF
:10082000564F206E6F74207365742075702E0A0009
:10083000202D20005761746368696E672070696EAF
:1008400000206973007320617265002070726F74FC
:1008500065637465642E20557365202749272074CD
:100860006F206F766572726964652E0A0053706539
:100870006369666965642070696E00646973006508
:100880006E0061626C65640A00656E6473746F70FB
:10089000206D6F6E69746F722000202E6873747201
:1008A000743A2000202E68656E643A200020636848
:1008B0006F70706572202E746F66663A2000202E6D
:1008C00068737472743A2000202E68656E643A2052
:1008D000002063686F70706572202E746F66663AD0
:1008E0002000202E68737472743A2000202E6865F0
:1008F0006E643A20002063686F70706572202E74F9
:100900006F66663A2000202E68737472743A200075
:10091000202E68656E643A20002063686F707065F1
:1009200072202E746F66663A20003F53206F7574F4
:10093000206F662072616E67652028312E2E38295F
:100940000A003F50206F7574206F662072616E67D9
:100950006520282D332E2E3132290A003F4F206F7B
:100960007574206F662072616E67652028312E2EA7
:100970003135290A003B200020496E76616C69649C
:10098000206578747275646572200047322F473392
:100990002062616420706172616D65746572730AB2
:1009A00000473238005A2050726F626520506173E0
:1009B000742042656400205A3A200020593A2000F1
:1009C00042656420583A20004D65736820706F6955
:1009D0006E74206F7574206F662072616E67650A91
:1009E000005072696E742074696D653A20000A5374
:1009F000746174733A2046696C616D656E7420751C
:100A00007365643A20002C204C6F6E676573742008
:100A10006A6F623A2000546F74616C2074696D656E
:100A20003A200053746174733A20002C20466169A7
:100A30006C65643A20002C2046696E6973686564B1
:100A40003A20005072696E74733A200053746174D6
:100A5000733A20006F6B006F6666008C018701801F
:100A60000179016B0144454255473A004D3131321D
:100A70002053687574646F776E004D3131332053A5
:100A8000002F2F003F4A206F7574206F662072611F
:100A90006E67652028302E303120746F20302E3361
:100AA000290A0020204D61783A2000200020204DA6
:100AB000696E3A2000203B200020204D3231312049
:100AC0005300536F667420656E6473746F707300A7
:100AD000250A0046523A0020466C6F773A200050B3
:100AE000726F6265204F6666736574205A0050729B
:100AF0006F6265204F6666736574205A006469737F
:100B000000656E0043290A0061626C656420286DEF
:100B1000696E2074656D702000436F6C6420657889
:100B2000747275646573206172652000426564208B
:100B30004C6576656C696E6720004661696C65641A
:100B400020746F20656E61626C6520426564204C84
:100B50006576656C696E670A00496E76616C6964DA
:100B6000206D6573682E0A004D34323120696E6342
:100B70006F727265637420706172616D6574657205
:100B80002075736167650A004D65736820706F6931
:100B90006E74206F7574206F662072616E67650ACF
:100BA00000546F6F206661722066726F6D207265EF
:100BB000666572656E636520706F696E740A0045C4
:100BC0004550524F4D204F4B0A00290A0020746FA8
:100BD00020003F5A206F7574206F662072616E6727
:100BE000652028003F59206D7573742062652030A0
:100BF00020284E4F5A5A4C455F41535F50524F4246
:100C000045292E0A003F58206D75737420626520B7
:100C10003020284E4F5A5A4C455F41535F50524F37
:100C20004245292E0A002064726976657220637538
:100C30007272656E743A2000206472697665722063
:100C400063757272656E743A20002064726976650D
:100C5000722063757272656E743A20002064726946
:100C60007665722063757272656E743A20007370D7
:100C7000726561644379636C6500737465616C745B
:100C80006843686F700020647269766572206D6FCA
:100C900064653A09007370726561644379636C65D9
:100CA00000737465616C746843686F7000206472CF
:100CB00069766572206D6F64653A090073707265BC
:100CC00061644379636C6500737465616C74684337
:100CD000686F700020647269766572206D6F64655C
:100CE0003A09007370726561644379636C650073DF
:100CF0007465616C746843686F7000206472697613
:100D00006572206D6F64653A0900496E76616C69A1
:100D1000642065787472756465720A006F6B0020D8
:100D2000204D323036205800486F6D65206F666662
:100D3000736574004361703A00434F4E4649475F04
:100D40004558504F5254004D4541545041434B007B
:100D5000434F4F4C45525F54454D504552415455B9
:100D60005245004348414D4245525F54454D504520
:100D700052415455524500424142595354455050F6
:100D8000494E470041524353004D4F54494F4E5F27
:100D90004D4F44455300544845524D414C5F5052CD
:100DA0004F54454354494F4E00455854454E4445D1
:100DB000445F4D323000435553544F4D5F464952C6
:100DC0004D574152455F55504C4F4144004C464EA3
:100DD0005F5752495445004C4F4E475F46494C457A
:100DE0004E414D45004155544F5245504F52545F6E
:100DF00053445F5354415455530053445F57524931
:100E000054450052455045415400534443415244D7
:100E10000050524F4D50545F535550504F52540054
:100E2000484F53545F414354494F4E5F434F4D4DDC
:100E3000414E445300454D455247454E43595F503E
:100E4000415253455200434153455F4C4947485432
:100E50005F4252494748544E45535300544F474709
:100E60004C455F4C494748545300534F46545741F3
:100E700052455F504F574552004255494C445F50D0
:100E8000455243454E54004C4556454C494E475FEC
:100E900044415441005A5F50524F42450052554E12
:100EA0004F5554004155544F4C4556454C005052F7
:100EB000494E545F4A4F420050524F475245535398
:100EC000004155544F5245504F52545F54454D5078
:100ED000004155544F5245504F52545F504F5300AC
:100EE000564F4C554D455452494300454550524F7D
:100EF0004D0042494E4152595F46494C455F54525C
:100F0000414E534645520053455249414C5F584F5C
:100F10004E5F584F4646004649524D574152455F35
:100F20004E414D453A4D61726C696E20322E312E24
:100F3000322E312028536570202032203230323456
:100F40002031373A32353A35322920534F55524302
:100F5000455F434F44455F55524C3A676974687525
:100F6000622E636F6D2F4D61726C696E4669726D92
:100F7000776172652F4D61726C696E2050524F54CB
:100F80004F434F4C5F56455253494F4E3A312E30E6
:100F9000204D414348494E455F545950453A4A75A2
:100FA0006C69612050726F2053696E676C652032E6
:100FB00034562055415254206A756D706572732005
:100FC0007769746820544D4332323039206F6E2077
:100FD0004D4B532047656E4C2076322E31204558BC
:100FE0005452554445525F434F554E543A31205563
:100FF0005549443A63656465326132662D34316126
:10100000322D343734382D396231322D6335356322
:10101000363266333637666600203B0020204D3876
:101020003531205830205930205A005A2D50726FD7
:101030006265204F666673657400256973002569D3
:101040006D20256973002569682025696D20256953
:101050007300256964202569682025696D2025694C
:101060007300256979202569642025696820256930
:101070006D202569730020573A0020573A002066FA
:1010800061696C65642120426164206865617465F2
:10109000722069640A00504944204175746F747568
:1010A0006E650023646566696E652044454641555A
:1010B0004C545F004B6420004B6920004B702000B3
:1010C0002066696E697368656421205075742074A8
:1010D0006865206C617374204B702C204B69206113
:1010E0006E64204B6420636F6E7374616E74732042
:1010F00066726F6D2062656C6F7720696E746F2009
:10110000436F6E66696775726174696F6E2E680AE7
:1011100000504944204175746F74756E65002066F7
:1011200061696C6564212074696D656F75740A006E
:10113000504944204175746F74756E650020666176
:10114000696C6564212054656D7065726174757297
:101150006520746F6F20686967680A0050494420F1
:101160004175746F74756E6500204B643A200020E1
:101170004B693A2000204B703A200020436C617389
:1011800073696320504944200A002054753A2000B6
:10119000204B753A2000206D61783A2000206D695F
:1011A0006E3A200020643A200020626961733A2080
:1011B000002073746172740A0050494420417574B0
:1011C0006F74756E6500206661696C6564212054DA
:1011D000656D706572617475726520746F6F2068DB
:1011E0006967680A00504944204175746F74756ED0
:1011F00065006F70656E005452494747455245443B
:10120000003A20007A5F70726F6265007A5F6D61EC
:101210007800795F6D617800785F6D696E00526566
:10122000706F7274696E6720656E6473746F70207E
:101230007374617475730A0020746F6F206C6F6E25
:101240006720657874727573696F6E207072657649
:10125000656E7465640A0020636F6C642065787441
:10126000727573696F6E2070726576656E746564F1
:101270000A00000070C10000C8430000C843576165
:10128000726E696E673A20486F6D696E67204275AD
:101290006D702044697669736F72203C20310A00BA
:1012A0000202040080C5430000C8430000C8430098
:1012B00000A0400000A0400000004000000001002D
:1012C000000001000080005555550000004000332B
:1012D000333300AAAA2A004992240000002000C744
:1012E000711C0099991900D1451700555515003BFF
:1012F000B113002449120011111100000010000F59
:101300000F0F00E3380E0043790D00CCCC0C00C366
:10131000300C00E8A20B0064210B00AAAA0A00709E
:101320003D0A009DD80900427B090092240900DC97
:10133000D30800888808001042080000000800F068
:10134000C107008787070075500700711C07003E22
:10135000EB0600A1BC0600699006006666060070F8
:101360003E06006118060017F4050074D105005B05
:10137000B00500B290050062720500555505007871
:10138000390500B81E0500050505004EEC04008770
:10139000D40400A1BD040090A7040049920400C138
:1013A0007D0400EE690400C7560400444404005C58
:1013B0003204000821040041100400000004003F32
:1013C000F00300F8E0030026D20300C3C30300CCFF
:1013D000B503003AA803000A9B0300388E0300C03F
:1013E0008103009F750300D0690300505E03001D58
:1013F00053030034480300913D03003333030016C8
:10140000290300381F030097150300300C03000365
:101410000303000BFA020049F10200BAE802005C83
:10142000E002002DD802002DD0020059C80200B001
:10143000C0020031B90200DAB10200AAAA0200A07B
:10144000A30200BC9C0200FA9502005C8F0200DF40
:1014500088020082820200457C0200277602002773
:10146000700200436A02007C640200D05E02003F0A
:10147000590200C8530200FFFDFCFAF8F6F4F2F03E
:10148000EEECEAE9E7E5E3E1E0DEDCDAD9D7D5D452
:10149000D2D0CFCDCBCAC8C7C5C3C2C0BFBDBCBAEE
:1014A000B9B7B6B4B3B2B0AFADACAAA9A8A6A5A45B
:1014B000A2A1A09E9D9C9A99989795949392908FA3
:1014C0008E8D8B8A8988878684838281807F7E7DCA
:1014D0007B7A797877767574737271706F6E6D6CD4
:1014E0006B6A696867666564636261605F5E5D5CC4
:1014F0005B5A5958585756555453525150504F4EA5
:101500004D4C4B4A4A49484746464544434242416E
:10151000403F3E3E3D3C3B3B3A3938383736353527
:10152000343332323130302F2E2E2D2C2B2B2A29D2
:101530002928272726252524232322212120201F6F
:101540001E1E1D1C1C1B1B1A191918181716161500
:101550001514131312121111100F0F0E0E0D0D0C86
:101560000C0B0A0A09090808070706060505040402
:10157000030302020100000080C5430000C84300CD
:1015800000C8430000000000000000000000002927
:101590000A002062797465733B20637263200053F4
:1015A000657474696E67732053746F726564202864
:1015B00000454550524F4D20496E697469616C6910
:1015C0007A65640A0048617264636F6465642044EC
:1015D000656661756C742053657474696E677320F9
:1015E0004C6F616465640020286D6D2900203B20EC
:1015F0004C6576656C696E67200020204D34323072
:101600002053004175746F20426564204C657665F7
:101610006C696E670020204D393036002054302030
:1016200045005374657070657220647269766572E6
:101630002063757272656E740020204D3536392036
:1016400053310054302045002058004472697665BB
:1016500072207374657070696E67206D6F646500C9
:10166000204A002020473239205720490020204DB1
:101670003134392043203B20556E69747320696EE4
:101680002043656C736975730A0054656D706572EB
:10169000617475726520556E69747300202047323D
:1016A00031203B004C696E65617220556E69747320
:1016B00000454550524F4D206461746173697A65ED
:1016C000206572726F722E0A00202863616C637548
:1016D0006C6174656429210A0020213D2000454584
:1016E00050524F4D20435243206D69736D617463B6
:1016F00068202D202873746F726564292000454589
:1017000050524F4D20436F72727570740A0020530F
:10171000697A653A2000496E6465783A2000290AA2
:10172000002062797465733B20637263200020732C
:10173000746F7265642073657474696E6773207268
:101740006574726965766564202800000096430020
:1017500000964300002041000034420000C84200CF
:1017600000C8420000C84300000C43C4090000C484
:1017700009000032000000401F0000204D61726C23
:10178000696E3D563838290A00454550524F4D2064
:1017900076657273696F6E206D69736D61746368CD
:1017A0002028454550524F4D3D0045315F5345522D
:1017B00049414C5F52585F50494E0045315F534597
:1017C0005249414C5F54585F50494E0045305F5379
:1017D000455249414C5F52585F50494E0045305F79
:1017E00053455249414C5F54585F50494E005A5F2F
:1017F00053455249414C5F52585F50494E005A5F21
:1018000053455249414C5F54585F50494E00595F0F
:1018100053455249414C5F52585F50494E00595F01
:1018200053455249414C5F54585F50494E00585FF0
:1018300053455249414C5F52585F50494E00585FE2
:1018400053455249414C5F54585F50494E005A5FCE
:10185000535445505F50494E005A5F454E41424CEB
:10186000455F50494E005A5F4449525F50494E000F
:10187000595F535445505F50494E00595F454E41A2
:10188000424C455F50494E00595F4449525F5049B0
:101890004E00585F535445505F50494E00585F45C5
:1018A0004E41424C455F50494E00585F4449525F9B
:1018B00050494E005A5F4D494E5F50524F42455F6E
:1018C00050494E0045315F444941475F50494E0001
:1018D00045305F444941475F50494E005A5F444993
:1018E00041475F50494E00595F444941475F504965
:1018F0004E00585F444941475F50494E005A5F537C
:10190000544F505F50494E005A5F4D41585F504907
:101910004E00595F53544F505F50494E00595F4D30
:1019200041585F50494E00585F53544F505F5049E3
:101930004E00585F4D494E5F50494E005345525638
:101940004F335F50494E00534552564F325F504916
:101950004E00534552564F315F50494E0053455249
:10196000564F305F50494E0053445F53535F5049C8
:101970004E00534453530053445F53434B5F50490D
:101980004E0053445F4D4F53495F50494E005344FE
:101990005F4D49534F5F50494E004D4F534645549C
:1019A0005F445F50494E004D4F534645545F435F7F
:1019B00050494E004D4F534645545F425F50494E8B
:1019C000004D4F534645545F415F50494E004C45D2
:1019D000445F50494E004845415445525F4245449A
:1019E0005F50494E004845415445525F335F50496E
:1019F0004E004845415445525F325F50494E0048C1
:101A000045415445525F315F50494E00484541546D
:101A100045525F305F50494E0046414E5F50494E3F
:101A20000045315F43535F50494E0045315F535489
:101A300045505F50494E0045315F454E41424C454F
:101A40005F50494E0045315F4449525F50494E0056
:101A500045305F535445505F50494E0045305F4517
:101A60004E41424C455F50494E0045305F4449521B
:101A70005F50494E00455850325F30385F50494EF4
:101A800000455850325F30375F50494E004558503E
:101A9000325F30365F50494E00455850325F303526
:101AA0005F50494E00455850325F30345F50494EC8
:101AB00000455850325F30335F50494E0045585012
:101AC000325F30325F50494E00455850325F3031FE
:101AD0005F50494E00455850315F30385F50494E95
:101AE00000455850315F30375F50494E00455850DF
:101AF000315F30365F50494E00455850315F3035C8
:101B00005F50494E00455850315F30345F50494E68
:101B100000455850315F30335F50494E00455850B2
:101B2000315F30325F50494E00455850315F30319F
:101B30005F50494E004156525F53535F50494E002B
:101B40004156525F53434B5F50494E004156525FDE
:101B50004D4F53495F50494E004156525F4D4953D6
:101B60004F5F50494E0054454D505F4245445F50D1
:101B7000494E0054454D505F335F50494E00544527
:101B80004D505F325F50494E0054454D505F315FBC
:101B900050494E0054454D505F305F50494E00460D
:101BA000494C57494454485F50494E0054584430BA
:101BB000005258443000423A0020436F756E742042
:101BC000413A004500626564002C207379737465A6
:101BD0006D2073746F707065642120486561746551
:101BE000725F49443A20004572723A204D41585480
:101BF000454D50004D415854454D50207472696711
:101C000067657265640048656174696E6720466146
:101C1000696C65640048656174696E672066616916
:101C20006C6564001000600350012C0190012201DA
:101C3000D001180110020E0170020401E002FA0046
:101C40006003F0000004E600B004DC00A005D20050
:101C5000B006C8000008BE00A009B400800BAA00AE
:101C6000D00DA00090109600C0138C007017820059
:101C7000901B780010206E00C0246400E02D5000FE
:101C800080353C00A03A2800A03D1400003F000031
:101C9000A03FECFF4572723A204D494E54454D50DD
:101CA000004D494E54454D50207472696767657206
:101CB000656400544845524D414C2052554E4157A1
:101CC000415900546865726D616C2052756E617780
:101CD0006179000A0A0020205A5F4D494E5F505238
:101CE0004F42453A0020205A5F4D41583A0020208B
:101CF000595F4D41583A002020585F4D494E3A00F7
:101D0000202F002042403A0020403A001000C90233
:101D100010012C014001220170011801B0010E01D7
:101D2000F00104015002FA00B002F0003003E600B6
:101D3000D003DC009004D2007005C800A006BE00ED
:101D40000008B400B009AA00D00BA000600E9600F5
:101D500060118C000015820020197800C01D6E00F3
:101D6000A0226400B0275A00902C50000031460099
:101D7000E0343C0010383200903A2800603C1E00ED
:101D8000A03D1400803E0A00203F00002020506C3F
:101D9000616E6E65724275666665724279746573CE
:101DA0003A20002046726565204D656D6F72793A64
:101DB000200020436F6D70696C65643A2053657034
:101DC00020203220323032340A00204C61737420DB
:101DD000557064617465643A20323032332D303589
:101DE0002D3136207C20417574686F723A20284668
:101DF0007261636B74616C20576F726B732C20641B
:101E0000656661756C7420636F6E666967290A0088
:101E10004D61726C696E20322E312E322E310A00E5
:101E200020536F6674776172652052657365740A1A
:101E300000205761746368646F672052657365742E
:101E40000A002042726F776E206F7574205265739E
:101E500065740A002045787465726E616C20526565
:101E60007365740A00506F77657255700A00737459
:101E70006172740A0020503A00205A3A0020593A00
:101E80000020583A00656E6473746F70732068693F
:101E9000743A200000002100240027002A002D00B1
:101EA0003000330001010000040107010A010000B5
:101EB0000A0B02090C0D0E080703040100000000C4
:101EC0000000000000000000000000000000000012
:101ED00000000000000000000000121110000000CF
:101EE00000000000000000000000000000000000F2
:101EF00000000000000020002300260029002C0024
:101F00002F0032000001000003010601090100005A
:101F10002200250028002B002E0031003400020191
:101F20000000050108010B01050505050705080866
:101F30000808020202020A0A080804040404010153
:101F40000101010101010303030303030303040768
:101F500007070C0C0C0C0C0C0C0C020202020606FF
:101F60000606060606060B0B0B0B0B0B0B0B0102F2
:101F7000102020080810204010204080020102019B
:101F80000804020101020408102040808040201053
:101F900008040201800402018040201008040201AC
:101FA0000804020101020408102040800102040814
:101FB0001020408024F404D9201BC40C5C0E98042B
:101FC000C4095F0265077101F405F900FB04B30061
:101FD00048048700C1036900580355000303450006
:101FE000BE023A008402310053022A002902250071
:101FF00004022000E4011C00C8011900AF01170011
:102000009801140084011300710110006101100097
:1020100051010E0043010D0036010B002B010B0096
:1020200020010B00150109000C0109000301080043
:10203000FB000800F3000800EB000700E4000600C6
:10204000DE000600D8000600D2000600CC00050025
:10205000C7000500C2000500BD000400B90004006F
:10206000B5000400B1000400AD000400A9000400A4
:10207000A5000300A20003009F0004009B000300D2
:1020800098000300950002009300030090000300F5
:102090008D0002008B000300880002008600020011
:1020A00084000300810002007F0002007D00020026
:1020B0007B00020079000200770001007600020038
:1020C0007400020072000100710002006F00020043
:1020D0006D0001006C0002006A000100690002004E
:1020E0006700010066000100650001006400020055
:1020F0006200010061000100600001005F00020059
:102100005D0001005C0001005B0001005A0001005D
:10211000590001005800010057000100560001005D
:10212000550001005400010053000000530001005D
:102130005200010051000100500001004F00010059
:102140004E0000004E0001004D0001004C00010057
:102150004B0000004B0001004A0001004900010053
:102160004800000048000100470001004600000050
:102170004600010045000000450001004400010048
:102180004300000043000100420000004200010043
:102190004100000041000100400001003F0000003C
:1021A0003F0001003E0000003E0001003D00000035
:1021B0003D0001003C0000003C0000003C0001002C
:1021C0003B0000003B0001003A0000003A00010023
:1021D000390000003900010038000000380000001C
:1021E0003800010037000000370001003600000011
:1021F0003600000036000100350000003500000008
:1022000035000100340000003400000034000100FB
:1022100033000000330000003300010032000000F2
:1022200032000000320001003100000031000000E7
:1022300031000100300000003000000030000100DB
:102240002F0000002F0000002F0000002F000100D1
:102250002E0000002E0000002E0001002D000000C6
:102260002D0000002D0000002D0001002C000000BA
:102270002C0000002C0000002C0001002B000000AE
:102280002B0000002B0000002B0001002A000000A2
:102290002A0000002A0000002A0001002900000096
:1022A0002900000029000000290000002900010089
:1022B000280000002800000028000000280000007E
:1022C0002800010027000000270000002700000070
:1022D0002700000027000100260000002600000063
:1022E0002600000026000000260001002500000056
:1022F000250000002500000025000000250000004A
:10230000250001002400000024000000240000003B
:10231000240000002400010023000000230000002E
:102320002300000023000000230000002300000021
:102330002300010022000000220000002200000013
:102340002200000022000000220001002100000005
:1023500021000000210000002100000021000000F9
:1023600021000000210001002000000020000000EA
:1023700020000000200000002000000020000000DD
:1023800020000000200001001F0000001F000000CE
:102390001F0000001F0000001F0000001F000000C1
:1023A0001F0001001E0000001E0000001E000000B3
:1023B0001E00000024F4D43050C38E20C2A2401767
:1023C000828B7011127A910D816CD90AA861E10893
:1023D000C7586607615143061E4B5D05C145A704FA
:1023E0001A411104093D9803713931034036DB026B
:1023F00065339102D4305402802E1D02632CEE010D
:10240000752AC501B028A001102781018F2564011C
:102410002B244B01E0223401AC211F018D200D0142
:10242000801FFC00841EED00971DDF00B81CD20049
:10243000E61BC600201BBC00641AB200B219A8003B
:102440000A19A0006A189900D117910040178B0053
:10245000B516840031167E00B31579003A15730065
:10246000C7146F0058146A00EE13660088136300E7
:1024700025135E00C7125B006C1257001512540042
:10248000C111510070114F0021114B00D6104900AD
:102490008D1047004610440002104200C00F40005B
:1024A000800F3E00420F3C00060F3B00CB0E380071
:1024B000930E37005C0E3500270E3400F30D32000A
:1024C000C10D3100900D3000600D2E00320D2D0039
:1024D000050D2C00D90C2B00AE0C2900850C290011
:1024E0005C0C2700350C27000E0C2600E80B24009E
:1024F000C40B2400A00B23007D0B23005A0B2100EA
:10250000390B2100180B2000F80A1F00D90A1E0001
:10251000BB0A1E009D0A1D00800A1D00630A1C00E4
:10252000470A1B002C0A1B00110A1A00F7091A009F
:10253000DD091900C4091900AB0919009209170037
:102540007B091800630917004C09160036091600AC
:10255000200916000A091500F5081500E008140006
:10256000CC081400B8081400A40814009008130044
:102570007D0812006B08130058081200460812006C
:10258000340811002308110012081100010811007D
:10259000F0071000E0071000D0071000C00710007F
:1025A000B0070F00A107100091070E0083070F006E
:1025B00074070F0065070E0057070E0049070E004D
:1025C0003B070D002E070E0020070D0013070D001E
:1025D00006070D00F9060C00ED060D00E0060C00E4
:1025E000D4060C00C8060C00BC060C00B0060C009B
:1025F000A4060B0099060C008D060B0082060B004A
:1026000077060B006C060B0061060A0057060B00EC
:102610004C060A0042060A0038060A002E060A0086
:1026200024060A001A060A001006090007060A0016
:10263000FD050900F4050900EB050900E2050900A4
:10264000D9050900D0050900C7050900BE05090024
:10265000B5050800AD050800A50509009C050800A2
:10266000940508008C050800840508007C05080016
:10267000740508006C050700650508005D05070086
:10268000560508004E0507004705070040050800ED
:1026900038050700310507002A0507002305070054
:1026A0001C050600160507000F05070008050600B3
:1026B00002050700FB040600F5040700EE0406000F
:1026C000E8040600E2040700DB040600D504060067
:1026D000CF040600C9040600C3040600BD040600BA
:1026E000B7040600B1040500AC040600A604060009
:1026F000A00405009B040600950405009004060054
:102700008A04050085040500800406007A0405009B
:1027100075040500700405006B04050066040500DF
:10272000610405005C04050057040500520405001F
:102730004D04050048040500430405003E04040060
:102740003A04050035040500300404002C0405009B
:1027500027040400230405001E0404001A040400D6
:1027600016040500110404000D040400090405000A
:102770000404040000040400FC030400F803040043
:10278000F4030400F0030400EC030400E803040075
:10279000E4030400E0030400DC030400D8030400A5
:1027A000D4030400D0030400CC030400C8030300D6
:1027B000C5030300722900007C200000AD16000054
:1027C000270E00001208000057040000410200001C
:1027D00026010000486F6D696E67204661696C656F
:1027E0006400FF010150726F62696E672046616983
:1027F0006C65640A00205A3A200020593A200042B1
:10280000656420583A200020202000202020416EBE
:10281000616C6F6720696E203D2025356C64003C3B
:10282000756E757365642F756E6B6E6F776E3E0097
:1028300020284125326429202000253364200050BF
:10284000494E3A20004F75747075742000496E70BF
:102850007574202000416E616C6F6720696E203DA9
:102860002025356C640070726F7465637465642034
:1028700000202841253264292020002533642000CF
:1028800050494E3A2000B11B0001AC1B01019F1BB7
:102890003B00941B4500891B43007E1B4300731BB8
:1028A0004500661B4400591B32014C1B3301401B81
:1028B0003401351B3501291B25011D1B2301111B6B
:1028C0001101051B1001F91A1701ED1A1901E11A7E
:1028D0001B01D51A1D01C91A3201BD1A3401B11AE2
:1028E0001F01A51A3501991A21018D1A3301811A88
:1028F0003101751A29016A1A1C015C1A1801501A53
:102900001A01451A2201371A1E012B1A2401211A15
:102910000C01191A09010C1A0A01FF190701F21911
:102920002F01E5192D01D6190801CE190D01C11984
:102930000A01B4190901A71908019A1907018E198A
:10294000320182193301771934017219350168197E
:1029500035015D190B0152191501471927013C1961
:10296000200132190301271903011D190F01121942
:102970000F0108191301FD181301F2180301E718DC
:102980000E01DC181201D0180201C4180F01B4188E
:102990000501AA1837019D182601921836018818DA
:1029A0003D017B18380170183C0166183001591838
:1029B0003E014E182E013E1828012E183F011E1808
:1029C0003B010E184001FE172A01EE174101DD17E9
:1029D0002C01CC174201BB171401AA170C01220AC3
:1029E00000556E6B6E6F776E20636F6D6D616E64F8
:1029F0003A202200204500205A0020590020204D76
:102A000039322058005374657073207065722075D8
:102A10006E697400DB0FC93F45BCDA3F8FB30240DB
:102A2000FCF0274056946140FE4B9B4084A5D84063
:102A3000E0231841346A5641E859974164DBD54197
:102A40006E271742B4B75542CE1A9742C8AED54248
:102A5000B5885A43D40684BFA65FA7BF7443E0BFBE
:102A600010B11AC01C2C58C0E8F697C0B849D6C09F
:102A70004E4E17C124D355C1802497C1A0B5D5C1EE
:102A8000121A17C244AE55C2781797C26CACD5C2A1
:102A900067885AC320746F6F206C6F6E67206578EB
:102AA00074727573696F6E2070726576656E746589
:102AB000640A0020636F6C642065787472757369B2
:102AC0006F6E2070726576656E7465640A00486F7B
:102AD0006D652025732046697273740020453A00A5
:102AE000205A3A0020593A00583A006F6B0A0052B7
:102AF0006573656E643A20005072696E7465722069
:102B000068616C7465642E206B696C6C2829206385
:102B1000616C6C6564210A0060A411241FBECFEFB4
:102B2000D1E2DEBFCDBF00E00CBF84B78093B80F09
:102B300014BE0FB6F894A8958091600088618093C8
:102B40006000109260000FBE13E0A0E0B2E0E4E687
:102B5000F0E701E00BBF02C007900D92AE34B10761
:102B6000D9F72FE0AEE4B3E001C01D92A83BB20755
:102B7000E1F715E1CDE8D5E100E006C021970109B4
:102B8000802FFE010E94E8B4CC38D10780E008070E
:102B9000A9F70E94FCA50C9430B80C940000EF92A9
:102BA000FF920F931F93E0925B03F0925C030093FC
:102BB0005D0310935E0360935F03709360038093E3
:102BC00061039FEFFF27621B730B840B30F480952A
:102BD00070956195790B890B992790935A03A6E01C
:102BE0006A9F00924E03512DEE277A9F500DE11DF2
:102BF0008A9FE00D50934F03E0935003AFE06A9F2C
:102C000000925203512DEE277A9F500DE11D8A9FAD
:102C1000E00D50935303E0935403AAE06A9F00929F
:102C20005603512DEE277A9F500DE11D8A9FE00D2E
:102C300050935703E09358031F910F91FF90EF902B
:102C4000089521E030E0082E02C0220F331F0A94BD
:102C5000E2F72095309590918B04292320938B04E3
:102C6000813061F020F0823071F081E008955F9A48
:102C70008091A0068E7F8093A006F7CF8A9A8091DC
:102C8000A0068D7FF8CF8091080180958170809398
:102C900006018091A0068B7FEECF9F92AF92BF92EC
:102CA000CF92DF92EF92FF920F931F93CF93DF9318
:102CB00000D01F921F92CDB7DEB7E7E7F4E10027FF
:102CC000BB27462F572FA82FAA2341F4A52F542FF7
:102CD000B85FAA2319F4A52F5527B85FA03138F49F
:102CE0005295A295452F4F70507FA42BBC5FA03406
:102CF00028F4550FAA1F550FAA1FBE5FA03818F45D
:102D0000550FAA1FB395550FAA1FEA0FF01F449144
:102D100051E0AA27B85079F1C0F0B0FF02C0440FCB
:102D2000551FB1FF04C0440F551F440F551FB2FF7C
:102D300006C052954295142F1F70407F512BB3FF50
:102D40001AC0A52F542F442716C0B195B0FF02C05A
:102D500055954795B1FF04C05595479555954795AD
:102D6000B2FF05C05295407F4295452B5F70B3FF7F
:102D700002C0452F5527DD24CC24BB24B2E0649F3C
:102D8000D018C108B00AB00B749FC018B108B00BBE
:102D9000849FB018B109659FC018B108B00B759F2A
:102DA000B018B109859FB0196A9FB018B1097A9F10
:102DB000B0194D9DA12C99243327992722275D9D79
:102DC000A00C911C301F901F201FAD9D900C311D39
:102DD000901F201F4C9DA00C911C301F901F201F86
:102DE0005C9D900C311D901F201FAC9D300D911DDE
:102DF000201F4B9D900C311D901F201F5B9D300D9F
:102E0000911D201FAB9D900D211D4B9F300D911DDD
:102E1000201F5B9F900D211DAB9F200DB1E0BB24B7
:102E2000CC24DD24639FD018C108B00AB00B739F77
:102E3000C018B108B00B839FB018B109699FC018C2
:102E4000B108B00B799FB018B109899FB019629F82
:102E5000B018B109729FB019D61AC70AB80A20F083
:102E6000B1E03B0F901F201F1124792F632F90E0BA
:102E7000822F0F900F900F900F900F90DF91CF91B6
:102E80001F910F91FF90EF90DF90CF90BF90AF9088
:102E90009F900895AF92BF92CF92DF92EF92FF92F0
:102EA0000F931F93CF93DF93C2E7DCE00AED16E0A8
:102EB00082E8A82E8CE0B82EC12CD12C7601C394C8
:102EC00069917991899199910E9494B02889398961
:102ED0004A895B890E94F5B00E9482B6F80161932D
:102EE0007193819391938F01C616D706E806F90670
:102EF00010F46B017C01AC16BD0611F76FEF7FEF8C
:102F0000CB01A70196010E946AB42093EA06309390
:102F1000EB064093EC065093ED06DF91CF911F91A5
:102F20000F91FF90EF90DF90CF90BF90AF900895FA
:102F3000CF92DF92EF92FF9280914704882309F4A9
:102F400057C0C0904304D0904404E0904504F090F2
:102F5000460420E030E0A901C701B6010E9490B00C
:102F6000882309F445C020E030E040E05FE3C7017A
:102F7000B6010E94F5B09B01AC010E94F5B02BEDAB
:102F80003FE049E450E40E94F5B09B01AC0160E0F1
:102F900070E080E89FE30E9415B66B017C01C0924F
:102FA0001704D0921804E0921904F0921A04609168
:102FB000170270911802072E000C880B990B0E94C3
:102FC00096B02AE037ED43E25CE30E94F5B0A7013A
:102FD00096010E94F5B060934B0270934C0280936F
:102FE0004D0290934E02FF90EF90DF90CF900895A6
:102FF000C12CD12C80E8E82E8FE3F82ED0CF809121
:10300000CF0E9091D00E891B8F7019F490E080E064
:1030100008959091CC0E992351F0833030F48FEFC6
:10302000890F19F08093CC0EF1CF1092CC0E8091C5
:10303000D00E27E5829FC00111248F5F984FFC01BD
:10304000208120FDE3CF2091D00E2F5F2F702093A1
:10305000CD0E3091D00E2091CE0E321304C02091AF
:10306000CD0E2093CE0E0895FC017081472F50E0C5
:10307000062E02C0559547950A94E2F740FF14C00A
:103080004091FA0350E0062E02C0559547950A94E8
:10309000E2F740FF09C021E030E001C0220F6A954D
:1030A000EAF72095272320830895CF93DF9324E028
:1030B000829FC0011124EC01C654D34FFC01E2559C
:1030C000F94F85509C4FDC012D913D914D915C91C4
:1030D00060817181828193810E9439B5688379838F
:1030E0008A839B83DF91CF9108958F929F92AF92B5
:1030F000BF92CF92DF92EF92FF92CF93DF93209116
:103100001B02222309F48EC0EC018091FA03E82E01
:1031100080FF2CC080901D0290901E02A0901F0284
:10312000B0902002288139814A815B81C501B401B8
:103130000E945FB7181624F488829982AA82BB8203
:103140008090290290902A02A0902B02B0902C022D
:10315000288139814A815B81C501B4010E9490B008
:1031600087FF04C088829982AA82BB82E1FE2CC0BC
:103170008090210290902202A0902302B09024021D
:103180002C813D814E815F81C501B4010E945FB7F2
:10319000181624F48C829D82AE82BF8280902D020C
:1031A00090902E02A0902F02B09030022C813D8191
:1031B0004E815F81C501B4010E9490B087FF04C0B9
:1031C0008C829D82AE82BF82E2FE2CC0C09025021E
:1031D000D0902602E0902702F090280228853985B9
:1031E0004A855B85C701B6010E945FB7181624F4B3
:1031F000C886D986EA86FB86C0903102D09032021A
:10320000E0903302F0903402288539854A855B8549
:10321000C701B6010E9490B087FF04C0C886D98656
:10322000EA86FB86DF91CF91FF90EF90DF90CF9001
:10323000BF90AF909F908F9008958091F6039091EA
:10324000F703A091F803B091F903809313029093D0
:103250001402A0931502B09316028091F40390918A
:10326000F503909312028093110208958091130246
:1032700090911402A0911502B09116028093F6036A
:103280009093F703A093F803B093F9038091110290
:10329000909112029093F5038093F40384E690E0FA
:1032A0009093120280931102089590E080E00895B7
:1032B0002091BE03833021F425FD0CC024FD0CC0F9
:1032C00030E0A90102C0559547958A95E2F7CA01F9
:1032D0008170089581E0089580E008958091DA0377
:1032E00084FD0BC08091DC0387FD07C09091DD0356
:1032F000937081E019F480E0089581E008952FEB48
:10330000280F2A3108F047C0E22FF0E08091DA035D
:103310009091DB03A091DC03B091DD0304C0B6956E
:10332000A795979587952A95D2F780FD02C0817061
:103330000895E054FC4FE081EE2341F18091BB06FB
:103340009091BC06E80FF92FF11D808190ED980F48
:103350009A3030F08E3251F4818180538A3098F463
:10336000F093BB03E093BA0381E008958D3211F02E
:103370008B3249F4818190ED980F9A3088F38E3228
:1033800011F48281EACFF0E0E0E0EACF1092BB03D3
:103390001092BA03E9CF80E00895B1DF882341F0AD
:1033A00081E02091BA033091BB03232B09F480E024
:1033B0000895E9EAF3E080EF9FEFA9E7B4EC848396
:1033C0009583A683B78380839183A283B383E3E944
:1033D000F3E08DE98183808308958F929F92AF926D
:1033E000BF92CF92DF92EF92FF92FC0198E0A9E3A7
:1033F000B4E001900D929A95E1F788E0FB01A0E31B
:10340000B4E001900D928A95E1F7C0903904D09014
:103410003A04E0903B04F0903C0420E030E0A90145
:10342000C701B6010E9490B08823E1F1A70196017F
:1034300060E070E080E89FE30E9415B66B017C01BC
:1034400080903D0490903E04A0903F04B0904004D2
:1034500020E030E0A901C501B4010E9490B08823AA
:1034600029F1A501940160E070E080E89FE30E94EB
:1034700015B6C092A103D092A203E092A303F092EA
:10348000A4036093A5037093A6038093A70390936E
:10349000A803FF90EF90DF90CF90BF90AF909F90E8
:1034A0008F900895C12CD12C7601CACF60E070E0D6
:1034B000CB01DFCF10923404109235041092360401
:1034C000109237041092300410923104109232049A
:1034D0001092330410923D0410923E0410923F0467
:1034E000109240041092390410923A0410923B0456
:1034F00010923C04E8E4F4E080E090E0A0ECBFE748
:1035000080839183A283B38384839583A683B783C7
:1035100080879187A287B38784879587A687B78797
:10352000709624E0E838F20759F70895682F880F5D
:10353000770B880B990B0C94658CCF93DF93EC0180
:10354000C43081E0D8076CF184E091E09093B90D2C
:103550008093B80DC4E0D1E06091B40D7091B50DC9
:103560008091B60D9091B70D0E947DB66E5F7F4F32
:1035700025976C177D07DCF470930C0560930B05A1
:103580000E94D4946058794687469F4F60930D05FA
:1035900070930E0580930F0590931005DF91CF91E6
:1035A0000895D093B90DC093B80D2097A9F6109245
:1035B0000D0510920E0510920F0510921005EECF1A
:1035C0000F931F93CF93DF9306E81CE0CFEED6E076
:1035D000F80121913191419151918F0160E070E0AA
:1035E00080E89FE30E9415B6699379938993999334
:1035F000F6E0CF3FDF0761F70E94978EDF91CF9112
:103600001F910F9147CC4F925F926F927F928F9252
:103610009F92AF92BF92CF92DF92EF92FF920F9361
:103620001F93CF93DF93EC0120913004309131044C
:103630004091320450913304688179818A819B8161
:103640000E9438B56B017C0120913404309135041F
:1036500040913604509137046C817D818E819F8129
:103660000E9438B54B015C01A70196016091A90346
:103670007091AA038091AB039091AC030E9490B02B
:10368000882309F450C0C092A903D092AA03E09203
:10369000AB03F092AC032091A1033091A2034091BF
:1036A000A3035091A403C701B6010E94F5B02B01FA
:1036B0003C010E94AEB66B017C0120E030E0A90124
:1036C0000E9490B087FD70C020E030E040E050E400
:1036D000C701B6010E945FB718162CF4C12CD12C7B
:1036E000E12CA0E4FA2EA7019601C301B2010E94C9
:1036F00038B56093990370939A0380939B039093DA
:103700009C03C701B6010E947DB660939703062E05
:10371000000C770B6F5F7F4F6330710514F063E02F
:1037200070E060939503D0919303C0919703A50136
:1037300094016091AD037091AE038091AF039091BD
:10374000B0030E9490B0811133C0DC1381C020917E
:103750007B0330917C0340917D0350917E03609107
:10376000990370919A0380919B0390919C030E940E
:10377000F5B020917F0330918003409181035091F7
:1037800082030E9439B5DF91CF911F910F91FF9075
:10379000EF90DF90CF90BF90AF909F908F907F90F1
:1037A0006F905F904F900895C12CD12C76019BCFE4
:1037B0008092AD039092AE03A092AF03B092B0039B
:1037C0002091A5033091A6034091A7035091A8032F
:1037D000C501B4010E94F5B04B015C010E94AEB678
:1037E0006B017C0120E030E0A9010E9490B087FDD0
:1037F000F4C020E030E040E050E4C701B6010E9490
:103800005FB718162CF4C12CD12CE12CF0E4FF2E5C
:10381000A7019601C501B4010E9438B560939D03CC
:1038200070939E0380939F039093A003C701B601FA
:103830000E947DB660939803062E000C770B6F5F95
:103840007F4F6330710514F063E070E0609396037E
:1038500000919803DC1305C080919403801709F44C
:1038600071C08091970390919803909394038093F3
:103870009303002E000C110B24E0C202C00111249E
:10388000FC01E00FF11FEE0FFF1FEE0FFF1FE85BC3
:10389000FB4F208131814281538120938F033093EC
:1038A00090034093910350939203C09196030C2E82
:1038B000000CDD0BFC01EC0FFD1FEE0FFF1FEE0FE8
:1038C000FF1FE85BFB4F60817181828193810E94C1
:1038D00038B560938B0370938C0380938D03909322
:1038E0008E038091950324E08202C0011124FC0123
:1038F000E00FF11FEE0FFF1FEE0FFF1FE85BFB4F06
:103900002081318142815381209387033093880342
:103910004093890350938A03C80FD91FCC0FDD1F32
:10392000CC0FDD1FC85BDB4F688179818A819B8169
:103930000E9438B56093830370938403809385035A
:103940009093860380909D0390909E03A0909F0388
:10395000B090A00320918B0330918C0340918D0394
:1039600050918E03C501B4010E94F5B020918F03E0
:103970003091900340919103509192030E9439B588
:103980006B017C01C0927F03D0928003E09281039F
:10399000F092820320918303309184034091850348
:1039A00050918603C501B4010E94F5B020918703B0
:1039B000309188034091890350918A030E9439B560
:1039C000A70196010E9438B560937B0370937C0336
:1039D00080937D0390937E03BACEC12CD12C7601C7
:1039E00017CFCF93DF93CDB7DEB72C970FB6F894F0
:1039F000DEBF0FBECDBF19821A821B821C821D82C0
:103A00001E821F82188619861A861B861C86AE01A6
:103A10004F5F5F4FBC018FE492E00E94278E2C968F
:103A20000FB6F894DEBF0FBECDBFDF91CF910895E2
:103A30002F923F924F925F926F927F928F929F92BE
:103A4000AF92BF92CF92DF92EF92FF920F931F93AC
:103A5000CF93DF93D62FC72FFC0180809180A28067
:103A6000B380C501B40120E831E541E050E00E9497
:103A70006AB4C9016DE671E00E94C1B46B017C01BA
:103A8000C501B40120E13EE040E050E00E946AB48C
:103A9000CA01B90128E130E040E050E00E946AB478
:103AA000362E272E062F172F8CE3482E512C612CF3
:103AB000712CC501B401A30192010E946AB4B62E13
:103AC000A72ECA01B901A30192010E946AB4CB01D9
:103AD000C114D10479F1AF92BF927F936F932F926B
:103AE0003F92FF92EF92DF92CF9282E690E19F9316
:103AF0008F93CF93DF930E9461B08DB79EB70E96E0
:103B00000FB6F8949EBF0FBE8DBF8D2F9C2FDF91F7
:103B1000CF911F910F91FF90EF90DF90CF90BF90CA
:103B2000AF909F908F907F906F905F904F903F905D
:103B30002F900895E114F104C9F0AF92BF927F93E2
:103B40006F932F923F92FF92EF9282E590E19F93C5
:103B50008F93CF93DF930E9461B0EDB7FEB73C9691
:103B60000FB6F894FEBF0FBEEDBFCFCF012BB9F05B
:103B7000AF92BF927F936F932F923F9286E490E132
:103B80009F938F93CF93DF930E9461B08DB79EB7C1
:103B90000A960FB6F8949EBF0FBE8DBFB6CF892B85
:103BA000A9F0AF92BF927F936F938EE390E19F93C2
:103BB0008F93CF93DF930E9461B0EDB7FEB7389635
:103BC0000FB6F894FEBF0FBEEDBF9FCFAF92BF926E
:103BD0008AE390E19F938F93CF93DF930E9461B02C
:103BE0000F900F900F900F900F900F908ECFCF925D
:103BF000DF92EF92FF926B017C0183E3C816D10440
:103C0000E104F10470F082E3C81AD108E108F10878
:103C100062E370E080E090E00E9417940E94E29DD1
:103C2000ECCFC701B6010E941794FF90EF90DF9090
:103C3000CF900C94E29D8091BA039091BB030097C2
:103C400031F04AE050E070E060E00C94D0AD60E00C
:103C500070E0CB010895EFDF97FD0AC0ECDF6F3F06
:103C600071058105910509F02CF4E5DF862F089593
:103C700080E008958FEF0895CF93C62F8EDB8823C1
:103C800011F0CF91E8CF8C2FCF9108958091BA0396
:103C90009091BB03892B39F0DEDF91E0811101C0E7
:103CA00090E0892F089591E0FCCFCF93DF93C82F48
:103CB000D62F73DB882319F0DF91CF91E7CF8C2FBC
:103CC0001EDB811101C08D2FDF91CF910895B3DFED
:103CD000CB010895CF93DF93EB015FDB882319F0CD
:103CE000DF91CF91F4CFCE01DF91CF9108950F9363
:103CF0001F93CF938091BA039091BB03009709F172
:103D0000FC018F01C1912C2F2F7DA1F0C53431F022
:103D1000C53621F0C83511F0C83799F7F80110827F
:103D200070E060E00E947BACF801C083CF911F91EE
:103D30000F91089570E060E0CF911F910F910C9466
:103D40007BAC60E070E0CB01F1CFCF92DF92EF92DD
:103D5000FF926A017B0121DB882329F0FF90EF901D
:103D6000DF90CF90C4CFC701B601FF90EF90DF90F6
:103D7000CF9008954F925F926F927F92AF92BF92D1
:103D8000CF92DF92EF92FF920F931F93CF9388EE23
:103D9000A82E82E0B82E97E0E92E94E0F92E0FE4E9
:103DA00012E02AEBC22E2CE0D22EC0E0F501819168
:103DB0005F01F3DA882309F4A2C099DF2B013C01EB
:103DC0008C2F76DA882309F490C0F80120813181A4
:103DD00042815381C301B2010E9439B5F70160836A
:103DE000718382839383CF5FF4E0EF0EF11C0C5F4D
:103DF0001F4F84E0C80ED11CC330C1F685E4CDDA74
:103E0000882309F487C073DF6B017C0183E050DAFB
:103E1000882371F020915B0230915C0240915D0239
:103E200050915E02C701B6010E9439B56B017C0159
:103E3000C0921304D0921404E0921504F092160478
:103E400040E050E0BA0186E480DF20E030E0A901E4
:103E50000E945FB718167CF44ADF20E030E040E7AC
:103E600052E40E9415B6609313027093140280937B
:103E70001502909316028091710C83FD28C08091E9
:103E80001205882321F120915B0230915C02409160
:103E90005D0250915E026091130470911404809150
:103EA0001504909116040E9438B52091D2063091E5
:103EB000D3064091D4065091D5060E9439B560933F
:103EC000D2067093D3068093D4069093D506CF91F3
:103ED0001F910F91FF90EF90DF90CF90BF90AF9028
:103EE0007F906F905F904F900895F601208131810F
:103EF00042815381C301B2010E9438B56FCFF801EE
:103F000080819181A281B381F70180839183A28313
:103F1000B38369CF80915B0290915C02A0915D02B6
:103F2000B0915E028093130490931404A09315043F
:103F3000B093160485CF0F930FB70F9300916E00C7
:103F40000F930D7F00936E0000916F000D7F009323
:103F50006F000F930BB70F930CB70F921F922F9315
:103F60003F934F935F936F937F938F939F93AF9301
:103F7000BF93EF93FF931124DBD5FF91EF91BF9196
:103F8000AF919F918F917F916F915F914F913F91F1
:103F90002F911F900F900CBF0F910BBF0F910260DC
:103FA000F89400936F000F9100936E000F910FBF74
:103FB0000F91189500008091150580FF22C0899A05
:103FC0008FEF80938C048091150581FF1DC08F9A1F
:103FD0008FEF80938D048091150582FF18C080912A
:103FE0000B018270809309018FEF80938E04809182
:103FF000150583FF14C0169A8FEF80938F0400007D
:104000000895899881E0DDCF8F9881E0E2CF80919B
:104010000B01809582708093090181E0E6CF1698AC
:1040200081E0EBCF80918B04877F80938B04129A81
:1040300081E0089580E00E94211681E00E9421160F
:1040400082E00E942116EECF129880918B04886046
:1040500080938B040895813089F070F0823081F074
:1040600021E030E001C0220F8A95EAF780918B04AD
:10407000822B80938B0408955F98F2CF8A98F0CFBB
:1040800090910801917090930601EACFCF93DF934E
:1040900080911B04811119C0C0911902D0911A029C
:1040A000219720E030E040E05FE36091B40D709133
:1040B000B50D8091B60D9091B70D0E9439B50E9453
:1040C0007DB621E06C177D070CF020E0822FDF9198
:1040D000CF910895CF93DF9320913804222371F07C
:1040E000EC0191DA9B01AC01688579858A859B8515
:1040F0000E9439B5688779878A879B87DF91CF913E
:1041000008952F923F924F925F926F927F928F927B
:104110009F92AF92BF92CF92DF92EF92FF920F9356
:104120001F93CF93DF93CDB7DEB7A0970FB6F89468
:10413000DEBF0FBECDBF1C017B015E834D83FC0142
:10414000EA5BFF4F208131814281538129833A8389
:104150004B835C83CA01B9010E9494B04B015C019E
:10416000D7012D913D914D915C910E94F5B00E9437
:10417000FFB52B013C01ED81FE812081318142811F
:104180005381C501B4010E94F5B00E94FFB56B01D7
:104190007C01C301B2010E9482B669877A878B874E
:1041A0009C87683771058105910540F428E730E068
:1041B00040E050E029873A874B875C87C701B6010A
:1041C0000E9482B66D877E878F87988B68377105CE
:1041D0008105910548F428E7C22ED12CE12CF12C61
:1041E000CD86DE86EF86F88AD1019596CD90DD905A
:1041F000ED90FC909897CD82DE82EF82F886F101F7
:10420000EE5AFF4F60817181828193816115710542
:104210008105910509F49FC10E9496B06D8B7E8B3C
:104220008F8B988F9B01AC0160E070E080E89FE38A
:104230000E9415B6698F7A8F8B8F9C8F20E030E0BB
:1042400040E05FE30E94F5B06B017C01A5019401A1
:10425000C501B4010E94F5B02B013C016D857E853E
:104260008F8598890E9494B09B01AC010E94F5B0A3
:104270009B01AC01C301B2010E9438B5A7019601B0
:104280000E94F5B04B015C0169857A858B859C8520
:104290000E9494B09B01AC010E94F5B06D8F7E8F9F
:1042A0008F8F98A39B01AC01C301B2010E9438B566
:1042B000A70196010E94F5B02B013C010E94FFB5B9
:1042C0000E9482B66B017C01C501B4010E94AEB6AA
:1042D0000E9482B6698B7A8B8B8B9C8BDC01CB0125
:1042E0008C0D9D1DAE1DBF1D2D813E814F815885BA
:1042F000281B390B4A0B5B0BDA01C901B7FF61C000
:104300006D817E818F8198850E9494B0A301920176
:104310000E9439B5A50194010E9438B520E030E033
:1043200040E05FE30E94F5B00E94FFB56B017C01A5
:1043300020E030E0A9010E945FB718161CF0C12CE4
:10434000D12C7601C701B6010E9482B66B017C01B7
:104350004D815E816F8178854C155D056E057F0509
:1043600010F46A017B016D817E818F8198856C19C3
:104370007D098E099F09698B7A8B8B8B9C8BC7017A
:10438000B6010E9494B04B015C012D893E894F8992
:10439000588DCA01B9010E9439B59B01AC01C50114
:1043A000B4010E94F5B02D8D3E8D4F8D58A10E9415
:1043B00039B50E94A4B70E9482B669837A838B8341
:1043C0009C8320E034E244EF59E4698D7A8D8B8D33
:1043D0009C8D0E94F5B04B015C0169817A818B81D3
:1043E0009C8129853A854B855C85621B730B840B08
:1043F000950B0E9494B0A50194010E94F5B00E9413
:1044000082B62B013C0169817A818B819C812D854B
:104410003E854F855889621B730B840B950B0E9458
:1044200094B0A50194010E94F5B00E9482B64B01A0
:104430005C013FE6431651046104710408F097C023
:10444000F201EE0FFF1FEE0FFF1FE554FD4E8591A9
:104450009591A591B4918C01AD8BBD834FE68416E7
:104460009104A104B10408F08AC0F401EE0FFF1F0B
:10447000EE0FFF1FE554FD4E4591559165917491E6
:104480009A01CB01D1019996CD92DD92ED92FC92E9
:104490009C9795964D915D916D917C919897C98867
:1044A000DA88EB88FC884C195D096E097F099D96B6
:1044B0004D935D936D937C93D097F101E65BFF4F35
:1044C000C984DA84EB84FC84C082D182E282F382E4
:1044D000D5964D925D926D927C92D897F10181AE06
:1044E00092AEA3AEB4AEFD9600831183CD88C28296
:1044F000DD80D38234962083318382839383C98085
:10450000DA80EB80FC80D196CD92DD92ED92FC9228
:10451000D4973D96CD84DE84EF84F888C082D18222
:10452000E282F382A0960FB6F894DEBF0FBECDBF35
:10453000DF91CF911F910F91FF90EF90DF90CF907F
:10454000BF90AF909F908F907F906F905F904F90B3
:104550003F902F900895198E1A8E1B8E1C8E198AEB
:104560001A8A1B8A1C8AC12CD12C76012ACFC3013E
:10457000B2010E944D168B018D8B9D836FCFC501BB
:10458000B4010E944D169B017DCF90916F0081E098
:1045900091FD02C080E0089590916F009D7F9093FF
:1045A0006F000895EFE6F0E08081826080830895D7
:1045B0008F929F92AF92BF92CF92DF92EF92FF9233
:1045C0000F931F93CF93DF93182F84E0189FE00180
:1045D0001124123008F046C0D8DF082FD6DF8090B3
:1045E000E1049090E204A090E304B090E40481110F
:1045F000D9DFCBDFC090E504D090E604E090E7047B
:10460000F090E8048111CEDF0111CCDF113019F5F3
:10461000C501B4016C197D098E099F090E9496B0ED
:1046200020E030E040E05FE30E94F5B0C151D94F97
:10463000288139814A815B810E94F5B0DF91CF9159
:104640001F910F91FF90EF90DF90CF90BF90AF90B0
:104650009F908F900895C701B601680D791D8A1D3E
:104660009B1DDCCF92DFFE01EF51FB4FC080D1805C
:10467000E280F380811196DFC701B6010E9496B0F7
:10468000D5CF8F929F92AF92BF92CF92DF92EF924F
:10469000FF921F93CF93DF93CDB7DEB760970FB62E
:1046A000F894DEBF0FBECDBF182F80E081DF4B0135
:1046B0005C018092E8039092E903A092EA03B09231
:1046C000EB0381E075DF6B017C01C092EC03D092BB
:1046D000ED03E092EE03F092EF0382E069DF609376
:1046E000F0037093F1038093F2039093F3031D861C
:1046F0001E861F86188A89829A82AB82BC82CD82EE
:10470000DE82EF82F88669877A878B879C8783E0D1
:104710004FDF6D877E878F87988B80913804882341
:1047200081F0CE0101960E94031B9B01AC016985BB
:104730007A858B859C850E9438B569877A878B87B7
:104740009C871E3FD9F480E1FE013196AFE4B2E0D0
:1047500001900D928A95E1F760960FB6F894DEBF4E
:104760000FBECDBFDF91CF911F91FF90EF90DF90F3
:10477000CF90BF90AF909F908F90089584E0189F46
:10478000F0011124DF01A15BBD4F81E090E08C0FAF
:104790009D1FE80FF91F40815181628173814D9304
:1047A0005D936D937C931397D7CFCF92DF92EF9267
:1047B000FF92CF93DF93C82FE8DE94E0C99FE0011A
:1047C0001124FE01EB52FB4FC080D180E280F380C8
:1047D0008111E8DEC151D94FC701B6010E9496B0E0
:1047E000288139814A815B810E94F5B0DF91CF91A8
:1047F000FF90EF90DF90CF900895CF93DF93CDB7E8
:10480000DEB72C970FB6F894DEBF0FBECDBF0E9467
:10481000438DBBDE9CE0E1EEF4E0DE0111960190F9
:104820000D929A95E1F78111BDDECE0101960E94AD
:10483000BEA12C960FB6F894DEBF0FBECDBFDF91A0
:10484000CF9108952F923F924F925F926F927F92F5
:104850008F929F92AF92BF92CF92DF92EF92FF9290
:104860000F931F93CF93DF9300D000D01F92CDB74B
:10487000DEB780914F0290915002A0915102B09109
:1048800052028A839B83AC83BD8340905302509035
:10489000540260905502709056028090570290909A
:1048A0005802A0905902B0905A02C0905B02D0907A
:1048B0005C02E0905D02F0905E020E944A1781E087
:1048C0008093BB0D0E94981703E815E1ADE1B2E0BB
:1048D000BF83AE8387E7282E85E1382E1982898130
:1048E0000E945518F80185919591A591B491EE819A
:1048F000FF8181939193A193B193FF83EE83F101A3
:1049000085919591A591B491EE81FF8180879187E2
:10491000A287B387F981FF5FF9830C5F1F4F84E0A3
:10492000280E311CF330D9F60E94D9190E94E01AE2
:104930002A813B814C815D8160914F0270915002D0
:1049400080915102909152020E9490B081112AC030
:10495000A30192016091530270915402809155021B
:10496000909156020E9490B081111CC0A501940143
:1049700060915702709158028091590290915A02A9
:104980000E9490B081110EC0A701960160915B0258
:1049900070915C0280915D0290915E020E9490B0E5
:1049A0008823C9F027960FB6F894DEBF0FBECDBF9F
:1049B000DF91CF911F910F91FF90EF90DF90CF90FB
:1049C000BF90AF909F908F907F906F905F904F902F
:1049D0003F902F9012CF27960FB6F894DEBF0FBEF0
:1049E000CDBFDF91CF911F910F91FF90EF90DF909E
:1049F000CF90BF90AF909F908F907F906F905F907F
:104A00004F903F902F900895CF93DF931F92CDB793
:104A1000DEB7898360E0CE0101960E94341861E020
:104A2000CE0101960E94341862E0CE0101960E94E8
:104A3000341889810F90DF91CF9108950C94978E4F
:104A400080911405811105C08091A106882309F485
:104A50006EC08091E703659B5AC081608093E70335
:104A6000909103018091E70390FF53C0826080938F
:104A7000E7038091E703639B4EC088608093E70360
:104A80008091E7034A9B49C084608093E70380914B
:104A9000C50480FF10C08091150584FF0CC0809173
:104AA000E70380FF08C080919F06816080939F0686
:104AB00080E00E94F2A18091C50481FF10C0809126
:104AC000150585FD0CC08091E70381FF08C080912A
:104AD0009F06826080939F0681E00E94F2A18091F0
:104AE000C50482FF24C08091150582FF18C0809103
:104AF000A1068823E1F08091E70383FF18C080912D
:104B00009F06886080939F0682E00C94F2A18E7FBE
:104B1000A5CF8D7FACCF877FB1CF8B7FB6CF809174
:104B2000E70382FF04C080919F068460EBCF089565
:104B30002F923F924F925F926F927F928F929F92AD
:104B4000AF92BF92CF92DF92EF92FF920F931F939B
:104B5000CF93DF93CDB7DEB762970FB6F894DEBF81
:104B60000FBECDBF8FEF9FEF909389008093880099
:104B70002AE0298B312C212C78948091CE049091BD
:104B8000CF04A091D004B091D104892B8A2B8B2B18
:104B900009F0D6C18091D4048823D1F08091D20449
:104BA0009091D3041092D404892B91F01092D304E5
:104BB0001092D2041092C5049091CF0E8091D00E25
:104BC000981731F08091D00E8F5F8F708093D00E48
:104BD0008091D2049091D304892B09F4B1C1409102
:104BE000CA045091CB046091CC047091CD048091A3
:104BF000C6049091C704A091C804B091C904481795
:104C000059076A077B0708F09BC100919E0610E0D8
:104C100030E020E0841B950BA60BB70B0817190793
:104C20002A073B0710F4D901C8018A8B840F951F0E
:104C3000A61FB71F8093CA049093CB04A093CC0403
:104C4000B093CD04E1E0C0909404D0909504E0903E
:104C50009604F09097048091A4049091A504A091EB
:104C6000A604B091A704C80ED91EEA1EFB1EC0926E
:104C7000A404D092A504E092A604F092A704F7FC45
:104C800018C08091900490919104A0919204B091E9
:104C90009304B701A601481B590B6A0B7B0BDB0180
:104CA000CA018093A4049093A504A093A604B09392
:104CB000A704009198041091990420919A043091CE
:104CC0009B048091A8049091A904A091AA04B0919A
:104CD000AB04080F191F2A1F3B1F0093A804109351
:104CE000A9042093AA043093AB0437FD18C0809127
:104CF000900490919104A0919204B09193042801A2
:104D00003901481A590A6A0A7B0AD301C201809301
:104D1000A8049093A904A093AA04B093AB04409173
:104D20009C0450919D0460919E0470919F04809119
:104D3000AC049091AD04A091AE04B091AF04480FC3
:104D4000591F6A1F7B1F4093AC045093AD046093BE
:104D5000AE047093AF0477FD18C0809190049091D9
:104D60009104A0919204B09193043A014B01681A06
:104D7000790A8A0A9B0AD401C3018093AC049093F8
:104D8000AD04A093AE04B093AF048090A0049090C3
:104D9000A104A090A204B090A3048091B0049091CB
:104DA000B104A091B204B091B304880D991DAA1D5D
:104DB000BB1D8093B0049093B104A093B204B09350
:104DC000B304B7FD18C08090900490909104A09017
:104DD0009204B09093042C013D01481859086A08C8
:104DE0007B08530142018092B0049092B104A092DA
:104DF000B204B092B304E11104C0E0918400F091D8
:104E00008500F7FC1CC040908C04042C000C550855
:104E1000660877088090E1049090E204A090E30493
:104E2000B090E404840C951CA61CB71C8092E1048D
:104E30009092E204A092E304B092E404889A37FDD1
:104E40001CC040908D04042C000C5508660877089F
:104E50008090E5049090E604A090E704B090E80408
:104E6000840C951CA61CB71C8092E5049092E60465
:104E7000A092E704B092E8048E9A77FD21C040909A
:104E80008E04042C000C5508660877088090E9040D
:104E90009090EA04A090EB04B090EC04840C951C74
:104EA000A61CB71C8092E9049092EA04A092EB043D
:104EB000B092EC04E0910B01E095E870E0930901F9
:104EC000B7FD1CC040908F04042C000C55086608E8
:104ED00077088090ED049090EE04A090EF04B090DD
:104EE000F004840C951CA61CB71C8092ED049092D3
:104EF000EE04A092EF04B092F004149AE0918400C2
:104F0000F0918500E0918400F0918500F7FE88988B
:104F100037FF8E9877FD05C020910B0128702093F4
:104F20000901B7FF14985A88552021F08091840018
:104F3000909185002A8921502A8BE0E0211183CEAF
:104F40008091CE049091CF04A091D004B091D1046F
:104F5000892B8A2B8B2B09F078C1E091D204F09138
:104F6000D304309709F483C58091CA049091CB048F
:104F7000A091CC04B091CD044091C6045091C704D7
:104F80006091C8047091C90484179507A607B707F4
:104F900008F4A9C11092D3041092D2041092C5044F
:104FA0009091CF0E8091D00E981709F460C5809132
:104FB000D00E8F5F8F708093D00E70EDC72E77E08C
:104FC000D72EE12CF12C8091D2049091D304892B1F
:104FD00009F033C10E94FF179093D3048093D20449
:104FE000892B09F42AC1E091D204F091D304808185
:104FF00083FD21C5458956896789708DC18CD28C06
:10500000E38CF48CDF01AB5BBF4F8C918A8B81E02A
:105010004C155D056E057F0509F025C580E041153D
:1050200051056105710551F02A8921709A8996957B
:10503000917081E0291380E0291315C5058D168D27
:10504000278D30A1011511052105310509F0846076
:105050008093C5041092B4041092B5041092B60463
:105060001092B7041092BD041092BE041092BF04B7
:105070001092C00485A196A1A7A1B0A58093C604F3
:105080009093C704A093C804B093C90488249924BA
:105090005401881A990AAA0ABB0A8092A404909221
:1050A000A504A092A604B092A7048092A8049092AE
:1050B000A904A092AA04B092AB048092AC0490928E
:1050C000AD04A092AE04B092AF048092B00490926E
:1050D000B104A092B204B092B30481A092A0A3A0A4
:1050E000B4A0880C991CAA1CBB1C440F551F661F3A
:1050F000771F4093940450939504609396047093A3
:105100009704CC0CDD1CEE1CFF1CC0929804D092BE
:105110009904E0929A04F0929B04000F111F221F41
:10512000331F00939C0410939D0420939E0430939E
:105130009F048092A0049092A104A092A204B09235
:10514000A304880F991FAA1FBB1F809390049093FC
:105150009104A0939204B09393041092CA04109205
:10516000CB041092CC041092CD0481A592A5A3A5E6
:10517000B4A58093C1049093C204A093C304B093D8
:10518000C40485A596A5A7A5B0A98093B90490935A
:10519000BA04A093BB04B093BC04809115059A890E
:1051A000891721F0909315050E94DA1F49DC4424E9
:1051B0004A94542C32014092350250923602609249
:1051C000370270923802E091D204F091D304DF01EB
:1051D000DD96ED90FD900D911C9121A932A943A976
:1051E00054A9E65BFF4F60817181828193810E94A7
:1051F000CF151092B804E091D204F091D304E65B8D
:10520000FF4F60817181828193810E9438916B018F
:105210007C018091BD049091BE04A091BF04B09127
:10522000C0048C0D9D1DAE1DBF1D8093BD049093C9
:10523000BE04A093BF04B093C004C092CE04D09229
:10524000CF04E092D004F092D1048091CE049091EA
:10525000CF04A091D004B091D104AC01BD0100975E
:1052600021E0A207B10520F04FEF5FEF60E070E0B2
:10527000841B950BA60BB70B8093CE049093CF04A1
:10528000A093D004B093D104F894809184009091BD
:105290008500409639893150398B332309F4E5C3B1
:1052A000240E351E2816390608F466CC3092890083
:1052B0002092880062960FB6F894DEBF0FBECDBF75
:1052C000DF91CF911F910F91FF90EF90DF90CF90E2
:1052D000BF90AF909F908F907F906F905F904F9016
:1052E0003F902F9008954091C1045091C204609165
:1052F000C3047091C404481759076A077B0708F470
:10530000A2C14091BD045091BE046091BF04709150
:10531000C00485A996A9A7A9B0AD481759076A077F
:105320007B0708F08BC1411551056105710529F511
:1053300080915F0390916003A0916103B09162033B
:10534000BC012A2F9B2F822F0E9438916B017C0178
:105350008091BD049091BE04A091BF04B091C0049F
:105360008C0D9D1DAE1DBF1D8093BD049093BE048A
:10537000A093BF04B093C00426CEF0E0E981CA0137
:10538000262FAA817B816C815D814E81BF8138850A
:1053900040915B03489F612D5527B0915C03B89FF6
:1053A000600D511D10905D03189E500D499F600DBA
:1053B000511DB99F500D429F500DA62F752FA69FCE
:1053C000412DBB273327A59F400DB11D3F1F769F61
:1053D000400DB11D3F1F759FB00D311DAB2F732FB9
:1053E000A69FE12DBB273327A59FE00DB11D3F1FD1
:1053F000769FE00DB11D3F1F759FB00D311DAB2F86
:10540000732F442780915F03909160032091610383
:1054100000905A030F2A09F483C0B0915603BA9F33
:1054200041198F0B9F0B2F0B309157033A9F401957
:1054300081099F0B2F0BE0915803EA9F8019910976
:105440002F0BB79F401981099F0B2F0B379F801996
:1054500091092F0BE79F90192109A69FE12DBB27EA
:105460003327A59FE00DB11D3F1F769FE00DB11DB5
:105470003F1F759FB00D311DAB2F732FB09152039D
:10548000BA9F410D8F1F9F1F2F1F309153033A9FCB
:10549000400D811D9F1F2F1FE0915403EA9F800D37
:1054A000911D2F1FB79F400D811D9F1F2F1F379FDD
:1054B000800D911D2F1FE79F900D211DA69FE12DAF
:1054C000BB273327A59FE00DB11D3F1F769FE00D41
:1054D000B11D3F1F759FB00D311DAB2F732FB091C4
:1054E0004E03BA9F41198F0B9F0B2F0B30914F0327
:1054F0003A9F401981099F0B2F0BE0915003EA9FBF
:10550000801991092F0BB79F401981099F0B2F0B11
:10551000379F801991092F0BE79F9019210982C0AD
:10552000B0915603BA9F410D8F1F9F1F2F1F3091BF
:1055300057033A9F400D811D9F1F2F1FE091580375
:10554000EA9F800D911D2F1FB79F400D811D9F1F4A
:105550002F1F379F800D911D2F1FE79F900D211D3D
:10556000A69FE12DBB273327A59FE00DB11D3F1F4F
:10557000769FE00DB11D3F1F759FB00D311DAB2F04
:10558000732FB0915203BA9F41198F0B9F0B2F0BB2
:10559000309153033A9F401981099F0B2F0BE091E3
:1055A0005403EA9F801991092F0BB79F4019810975
:1055B0009F0B2F0B379F801991092F0BE79F901995
:1055C0002109A69FE12DBB273327A59FE00DB11D23
:1055D0003F1F769FE00DB11D3F1F759FB00D311D20
:1055E000AB2F732FB0914E03BA9F410D8F1F9F1F9A
:1055F0002F1F30914F033A9F400D811D9F1F2F1F7A
:10560000E0915003EA9F800D911D2F1FB79F400D21
:10561000811D9F1F2F1F379F800D911D2F1FE79FFB
:10562000900D211D1124E983AA837B836C835D8304
:105630004E83BF833887B0E0A22F82CE61A972A9C2
:1056400023A994A980CE4091B9045091BA046091E5
:10565000BB047091BC04481759076A077B0708F020
:10566000C7C18091B804811138C0DF01AF5BBF4F63
:10567000ED90FD900D911C9113971D962D913D91EC
:105680004D915C9161A972A983A994A90E94CF153B
:1056900031E03093B804E091D204F091D30461A9D1
:1056A00072A923A994A9822F0E9438916B017C01D1
:1056B0008091B4049091B504A091B604B091B70460
:1056C0008C0D9D1DAE1DBF1D8093B4049093B50439
:1056D000A093B604B093B70476CC4091B404509133
:1056E000B5046091B6047091B70481AD92ADA3ADDD
:1056F000B4AD481759076A077B0708F072C1411516
:1057000051056105710561F480915F03909160031B
:10571000A0916103B0916203BC012A2F9B2FC3CFDC
:10572000E0E0F985CA01262FBA85AB857C856D85B9
:105730005E854F85388950915B03589F712D662790
:1057400040915C03489F700D611D10905D03189E91
:10575000600D599F700D611D499F600D529F600D36
:10576000B72FA62FB79F512D44273327B69F500D33
:10577000411D3E1FA79F500D411D3E1FA69F400D7E
:10578000311DB42FA32FB79FF12D44273327B69F88
:10579000F00D411D3E1FA79FF00D411D3E1FA69F0E
:1057A000400D311DB42FA32F552780915F03909199
:1057B00060032091610300905A030E2A09F483C00C
:1057C000409156034B9F51198E0B9E0B2E0B30911F
:1057D00057033B9F501981099E0B2E0BF0915803E4
:1057E000FB9F801991092E0B4A9F501981099E0B2E
:1057F0002E0B3A9F801991092E0BFA9F90192109BF
:10580000B79FF12D44273327B69FF00D411D3E1F52
:10581000A79FF00D411D3E1FA69F400D311DB42FC7
:10582000A32F409152034B9F510D8E1F9E1F2E1F81
:10583000309153033B9F500D811D9E1F2E1FF091F1
:105840005403FB9F800D911D2E1F4A9F500D811DFB
:105850009E1F2E1F3A9F800D911D2E1FFA9F900DA7
:10586000211DB79FF12D44273327B69FF00D411D11
:105870003E1FA79FF00D411D3E1FA69F400D311DED
:10588000B42FA32F40914E034B9F51198E0B9E0BAB
:105890002E0B30914F033B9F501981099E0B2E0B0D
:1058A000F0915003FB9F801991092E0B4A9F5019CC
:1058B00081099E0B2E0B3A9F801991092E0BFA9F9E
:1058C0009019210982C0409156034B9F510D8E1FA4
:1058D0009E1F2E1F309157033B9F500D811D9E1F11
:1058E0002E1FF0915803FB9F800D911D2E1F4A9F84
:1058F000500D811D9E1F2E1F3A9F800D911D2E1F42
:10590000FA9F900D211DB79FF12D44273327B69F95
:10591000F00D411D3E1FA79FF00D411D3E1FA69F8C
:10592000400D311DB42FA32F409152034B9F5119AD
:105930008E0B9E0B2E0B309153033B9F5019810908
:105940009E0B2E0BF0915403FB9F801991092E0B97
:105950004A9F501981099E0B2E0B3A9F801991097D
:105960002E0BFA9F90192109B79FF12D4427332759
:10597000B69FF00D411D3E1FA79FF00D411D3E1F1C
:10598000A69F400D311DB42FA32F40914E034B9F76
:10599000510D8E1F9E1F2E1F30914F033B9F500DA8
:1059A000811D9E1F2E1FF0915003FB9F800D911DA6
:1059B0002E1F4A9F500D811D9E1F2E1F3A9F800D46
:1059C000911D2E1FFA9F900D211D1124F987BA8772
:1059D000AB877C876D875E874F87388BB0E0A22FBF
:1059E0009BCEE25BFF4F60817181228193815BCE10
:1059F0008091350290913602A0913702B091380221
:105A0000B7FF10C0EA5BFF4F608171818281938193
:105A10000E9438916093350270933602809337026A
:105A200090933802C0903502D0903602E090370251
:105A3000F0903802C8CACF0145960E9439A2109250
:105A4000D3041092D2041092C5049091CF0E80918D
:105A5000D00E981709F4BECA8091D00E8F5F8F7058
:105A60008093D00EB7CA8260E9CA1C011FCC80EDBA
:105A7000C82E87E0D82EE12CF12CACCA80911405F9
:105A8000811104C08091A106882331F062E070E0AA
:105A900080E090E00C94F71D08950F931F93809180
:105AA000C506813019F50E94D49400911C04109110
:105AB0001D0420911E0430911F04601B710B820B8A
:105AC000930B28EE33E040E050E00E946AB460910E
:105AD0002004709121048091220490912304620F8C
