:100000000C943E110C947E110C947E110C947E1174
:100010000C947E110C947E110C947E110C947E1124
:100020000C947E110C94FC950C94FC950C94FC950E
:100030000C947E110C947E110C947E110C947E1104
:100040000C947E110C94171B0C947E110C947E1151
:100050000C947E110C949A9F0C947E110C94399AF6
:100060000C947E110C945F780C9455780C947E114E
:100070000C947E110C947E110C947E110C947E11C4
:100080000C947E110C947E110C947E110C947E11B4
:100090000C947E110C947E110C947E110C947E11A4
:1000A0000C947E110C947E110C947E110C947E1194
:1000B0000C947E110C947E110C947E110C947E1184
:1000C0000C947E110C947E110C947E110C947E1174
:1000D0000C947E110C947E110C947E110C947E1164
:1000E0000C947E11084AD73B3BCE016E84BCBFFD09
:1000F000C12F3D6C74319ABD56833DDA3D00C77FF8
:1001000011BED9E4BB4C3E916BAAAABE0000008090
:100110003F05A84CCDB2D44EB93836A9020C50B91F
:10012000918688083CA6AAAA2ABE000000803F004B
:100130004E414E494E495459494E46CDCCCC3D0ACC
:10014000D7233C17B7D13877CC2B329595E6241FAF
:10015000B14F0A000020410000C84200401C462068
:10016000BCBE4CCA1B0E5AAEC59D74434F4D4D5577
:100170004E49434154494F4E0044525952554E0046
:100180004552524F525300494E464F004543484F47
:10019000005072696E7465722073746F707065645C
:1001A0002064756520746F206572726F72732E20E3
:1001B00046697820746865206572726F7220616E7E
:1001C0006420757365204D39393920746F2072654C
:1001D00073746172742E202854656D706572617439
:1001E0007572652069732072657365742E2053657E
:1001F000742069742061667465722072657374611D
:100200007274696E67290A004E6F20436865636BDC
:1002100073756D2077697468206C696E65206E75E2
:100220006D6265722C204C617374204C696E653A66
:100230002000636865636B73756D206D69736D6114
:100240007463682C204C617374204C696E653A208D
:10025000004C696E65204E756D6265722069732071
:100260006E6F74204C617374204C696E65204E75FE
:100270006D6265722B312C204C617374204C696E59
:10028000653A20004D3131300053657269616C2050
:10029000737461747573206D69736D617463680A3A
:1002A000002121204B494C4C20636175736564200B
:1002B000627920746F6F206D75636820696E616369
:1002C000746976652074696D65202D20637572727E
:1002D000656E7420636F6D6D616E643A2000486FC7
:1002E00074656E642049646C652054696D656F7532
:1002F000740A00627573793A2070617573656420C1
:10030000666F7220696E7075740A00627573793A4F
:100310002070617573656420666F722075736572F5
:100320000A00627573793A2070726F63657373693E
:100330006E670A006563686F3A004572726F723AC1
:10034000004F4646004F4E0066616C736500747244
:1003500075650042696C696E656172204C657665F1
:100360006C696E6720477269643A0A00303D2E332B
:10037000323500313D2E3138006D6178002F333138
:10038000002F3331002F333100303D2E3332350012
:10039000313D2E3138006D6178002F3331002F331D
:1003A00031002F333100303D2E33323500313D2EB8
:1003B0003138006D6178002F3331002F3331002F39
:1003C000333100303D2E33323500313D2E3138008F
:1003D0006D6178002F3331002F3331002F3331001E
:1003E000092042616420726573706F6E736521002D
:1003F000092042616420726573706F6E736521001D
:10040000092042616420726573706F6E736521000C
:10041000092042616420726573706F6E73652100FC
:100420004C4F570048494748004F4B004572726F88
:10043000723A20416C6C200020636F6E6E656374AD
:10044000696F6E2E2E2E200054657374696E6720BE
:10045000004C4F570048494748004F4B00457272C7
:100460006F723A20416C6C200020636F6E6E656382
:1004700074696F6E2E2E2E200054657374696E673A
:1004800020004C4F570048494748004F4B004572E9
:10049000726F723A20416C6C200020636F6E6E6543
:1004A0006374696F6E2E2E2E200054657374696E0E
:1004B0006720004C4F570048494748004F4B0045C4
:1004C00072726F723A20416C6C200020636F6E6E06
:1004D000656374696F6E2E2E2E20005465737469E7
:1004E0006E6720002E0A002F0050726F62696E67DF
:1004F000206D65736820706F696E74200020284439
:10050000525952554E2900473239204175746F2097
:10051000426564204C6576656C696E67003F2028F3
:100520004C2C522C462C4229206F7574206F66206B
:10053000626F756E64732E0A003F285629657262D9
:100540006F7365206C6576656C20696D706C617584
:100550007369626C652028302D34292E0A004261AF
:1005600064205A2076616C75650A004E6F206269BE
:100570006C696E65617220677269640A00204400CC
:1005800020204D32303020530020284469736162AE
:100590006C6564293A0046696C616D656E74207300
:1005A000657474696E67730020204D3230312058B5
:1005B000004D617820416363656C65726174696F99
:1005C0006E2028756E6974732F7332290020204DB8
:1005D0003230332058004D61782066656564726161
:1005E0007465732028756E6974732F732900205207
:1005F0000020204D323034205000416363656C652B
:10060000726174696F6E2028756E6974732F73320E
:10061000292028503C7072696E742D616363656C8B
:100620003E20523C726574726163742D6163636530
:100630006C3E20543C74726176656C2D6163636519
:100640006C3E2900204A0020540020530020204DF9
:10065000323035204200416476616E636564202843
:10066000423C6D696E5F7365676D656E745F74693A
:100670006D655F75733E20533C6D696E5F666565A1
:1006800064726174653E20543C6D696E5F74726182
:1006900076656C5F66656564726174653E204A3C90
:1006A0006A756E635F6465763E29002044002049C8
:1006B0000020204D333031205000486F74656E6447
:1006C00020504944004452565F53544154555309F5
:1006D0000050574D5F5343414C45090050574D431F
:1006E0004F4E460900434F4F4C434F4E460900437F
:1006F000484F50434F4E460900544849474809095E
:100700000054434F4F4C5448525309005450574DD6
:100710005448525309005453544550090900545049
:100720004F574552444F574E0900494F494E09090A
:1007300000475354415409090049484F4C445F490C
:1007400052554E090047434F4E46090900090044DF
:100750007269766572207265676973746572733A3F
:100760000A0073327673620900733276736109008E
:1007700031323043090031343343090031353043DD
:1007800009003135374309006F7409006F747077C1
:1007900009007332676109007332676209006F6C88
:1007A0006109006F6C6209007374737409007367E8
:1007B0005F726573756C74004452565354415455BE
:1007C0005300755374657020636F756E74005374B5
:1007D000616C6C6775617264207468727300202D9F
:1007E00073746172740900687973746572657369F2
:1007F000730A202D656E640900626C616E6B207453
:10080000696D65006F66662074696D650070776D4F
:100810002067726164206175746F0070776D206F5E
:100820006666736574206175746F0070776D2073F0
:1008300063616C65206175746F0070776D20736300
:10084000616C652073756D004F542070726577611F
:10085000726E005B6D6D2F735D090050574D2074F3
:1008600068726573682E0074737465700900696E30
:100870007465727009006D73746570730900737428
:1008800065616C746843686F70007673656E73653C
:10089000090050574D207363616C6500435320611C
:1008A000637475616C00486F6C6420637572726567
:1008B0006E740052756E2063757272656E74004DB1
:1008C00041582063757272656E7400524D532063F7
:1008D000757272656E74005365742063757272650B
:1008E0006E7400456E61626C6564090041646472F7
:1008F00065737309000900202E68737472743A20BE
:1009000000202E68656E643A20002063686F707066
:100910006572202E746F66663A2000202E6873740C
:1009200072743A2000202E68656E643A20002063BD
:10093000686F70706572202E746F66663A200020B2
:100940002E68737472743A2000202E68656E643AC3
:1009500020002063686F70706572202E746F666669
:100960003A2000202E68737472743A2000202E689A
:10097000656E643A20002063686F70706572202E87
:10098000746F66663A20003F53206F7574206F665F
:100990002072616E67652028312E2E38290A003FAB
:1009A00050206F7574206F662072616E6765202815
:1009B0002D332E2E3132290A003F4F206F757420BF
:1009C0006F662072616E67652028312E2E313529C1
:1009D0000A003B200020496E76616C6964206578CE
:1009E000747275646572200047322F47332062614C
:1009F0006420706172616D65746572730A004732BC
:100A00003800205A3A200020593A200042656420DC
:100A1000583A20004D65736820706F696E74206FBE
:100A20007574206F662072616E67650A00256973B0
:100A30000025696D20256973002569682025696D89
:100A40002025697300256964202569682025696D62
:100A50002025697300256979202569642025696846
:100A60002025696D20256973005072696E742074A9
:100A7000696D653A20006F6B006F6666008C0187B8
:100A800001800179016B0144454255473A004D31DF
:100A900031322053687574646F776E004D31313395
:100AA000205300434F4E4649475F4558504F5254DC
:100AB000004D4541545041434B00434F4F4C45522C
:100AC0005F54454D504552415455524500434841AD
:100AD0004D4245525F54454D504552415455524543
:100AE00000424142595354455050494E47004152EB
:100AF0004353004D4F54494F4E5F4D4F44455300B3
:100B0000544845524D414C5F50524F54454354490F
:100B10004F4E00455854454E4445445F4D323000D9
:100B2000435553544F4D5F4649524D574152455FCF
:100B300055504C4F4144004C464E5F575249544526
:100B4000004C4F4E475F46494C454E414D45004194
:100B500055544F5245504F52545F53445F53544184
:100B60005455530053445F57524954450052455021
:100B7000454154005344434152440050524F4D505C
:100B8000545F535550504F525400484F53545F4197
:100B90004354494F4E5F434F4D4D414E44530045E2
:100BA0004D455247454E43595F50415253455200BF
:100BB000434153455F4C494748545F425249474877
:100BC000544E45535300544F47474C455F4C49479B
:100BD00048545300534F4654574152455F504F5766
:100BE0004552004255494C445F50455243454E548E
:100BF000004C4556454C494E475F44415441005ACC
:100C00005F50524F42450052554E4F55540041558A
:100C1000544F4C4556454C005052494E545F4A4F34
:100C2000420050524F4752455353004155544F5282
:100C300045504F52545F54454D50004155544F520A
:100C400045504F52545F504F5300564F4C554D45F1
:100C50005452494300454550524F4D0042494E4180
:100C600052595F46494C455F5452414E5346455296
:100C70000053455249414C5F584F4E5F584F4646CE
:100C8000004649524D574152455F4E414D453A4D00
:100C900061726C696E206275676669782D322E30DC
:100CA0002E782028417072203133203230323320A8
:100CB00031313A35373A34362920534F555243456E
:100CC0005F434F44455F55524C3A6769746875629B
:100CD0002E636F6D2F4D61726C696E4669726D7710
:100CE0006172652F4D61726C696E2050524F544F86
:100CF000434F4C5F56455253494F4E3A312E3020A8
:100D00004D414348494E455F545950453A4A756CE8
:100D100069612050726F2053696E676C65203234B0
:100D2000562041424C207769746820544D4332323A
:100D30003039206F6E2055415254206D6F6465200C
:100D40006F6E204D4B532047656E4C2056322E312E
:100D50002045585452554445525F434F554E543ADE
:100D60003120555549443A63656465326132662DD8
:100D7000343161322D343734382D396231322D63BC
:100D800035356336326633363766660A002F2F00F4
:100D90003F4A206F7574206F662072616E67652010
:100DA00028302E303120746F20302E33290A002055
:100DB000204D61783A2000200020204D696E3A20B5
:100DC00000203B200020204D323131205300536F52
:100DD000667420656E6473746F70730046523A00D7
:100DE00020466C6F773A200050726F6265204F6624
:100DF00066736574205A0050726F6265204F666694
:100E0000736574205A0064697300656E0043290A93
:100E10000061626C656420286D696E2074656D7078
:100E20002000436F6C64206578747275646573206C
:100E30006172652000426564204C6576656C696E60
:100E40006720004661696C656420746F20656E617F
:100E5000626C6520426564204C6576656C696E67DE
:100E60000A00496E76616C6964206D6573682E0AAC
:100E7000004D34323120696E636F72726563742085
:100E8000706172616D657465722075736167650A62
:100E9000004D65736820706F696E74206F757420E3
:100EA0006F662072616E67650A00546F6F2066611D
:100EB000722066726F6D207265666572656E63651D
:100EC00020706F696E740A00454550524F4D204F97
:100ED0004B0A00290A0020746F20003F5A206F75CA
:100EE00074206F662072616E6765202800290A00F1
:100EF00020746F20003F59206F7574206F66207238
:100F0000616E676520282D00290A0020746F20007B
:100F10003F58206F7574206F662072616E67652080
:100F2000282D002E0A002028302D3130290020766F
:100F3000616C7565206F7574206F662072616E67D5
:100F40006500416476616E6365204B3D00206472EC
:100F5000697665722063757272656E743A2000203E
:100F60006472697665722063757272656E743A2078
:100F700000206472697665722063757272656E74A2
:100F80003A2000206472697665722063757272651A
:100F90006E743A20007370726561644379636C65A6
:100FA00000737465616C746843686F7000206472CC
:100FB00069766572206D6F64653A090073707265B9
:100FC00061644379636C6500737465616C74684334
:100FD000686F700020647269766572206D6F646559
:100FE0003A09007370726561644379636C650073DC
:100FF0007465616C746843686F7000206472697610
:101000006572206D6F64653A090073707265616482
:101010004379636C6500737465616C746843686FD1
:10102000700020647269766572206D6F64653A099C
:1010300000496E76616C69642065787472756465C8
:10104000720A006F6B0020204D3230362058004865
:101050006F6D65206F6666736574004361703A005A
:10106000203B0020204D3835312058005A2D507239
:101070006F6265204F66667365740020573A0020E2
:10108000573A0023646566696E65204445464155BC
:101090004C545F004B6420004B6920004B702000D3
:1010A000504944204175746F74756E652066696E91
:1010B0006973686564212050757420746865206CBC
:1010C000617374204B702C204B6920616E64204B3F
:1010D0006420636F6E7374616E74732066726F6DDB
:1010E0002062656C6F7720696E746F20436F6E6647
:1010F000696775726174696F6E2E680A00504944A1
:10110000204175746F74756E65206661696C6564E5
:10111000212074696D656F75740A0050494420413F
:1011200075746F74756E65206661696C65642120E5
:1011300054656D706572617475726520746F6F208F
:10114000686967680A00204B643A2000204B693ABE
:101150002000204B703A200020436C617373696358
:1011600020504944200A002054753A2000204B7535
:101170003A2000206D61783A2000206D696E3A2097
:101180000020643A200020626961733A20005049CF
:1011900044204175746F74756E6520737461727448
:1011A0000A00504944204175746F74756E6520665D
:1011B00061696C6564212054656D70657261747538
:1011C000726520746F6F20686967680A005049442F
:1011D000204175746F74756E65206661696C656415
:1011E0002120426164206865617465722069640A27
:1011F000006F70656E0054524947474552454400A0
:101200003A20007A5F70726F6265007A5F6D617874
:1012100000795F6D617800785F6D696E005265706E
:101220006F7274696E6720656E6473746F7020737B
:1012300074617475730A0020746F6F206C6F6E6731
:1012400020657874727573696F6E2070726576654B
:101250006E7465640A0020636F6C64206578747234
:101260007573696F6E2070726576656E7465640A59
:1012700000000070C10000C8430000C843576172FD
:101280006E696E673A20486F6D696E672042756DB2
:10129000702044697669736F72203C20310A000225
:1012A00002040080C5430000C8430000C84300009A
:1012B000A0400000A040000000400080C5430000A6
:1012C000C8430000C8430000000000000000000008
:1012D0000000290A002062797465733B2063726301
:1012E000200053657474696E67732053746F726560
:1012F00064202800454550524F4D20496E6974695D
:10130000616C697A65640A0048617264636F646540
:10131000642044656661756C742053657474696EED
:101320006773204C6F616465640020286D6D29002F
:10133000203B204C6576656C696E67200020204D4F
:101340003432302053004175746F20426564204C64
:101350006576656C696E670020204D393036002057
:101360005430204500537465707065722064726952
:101370007665722063757272656E740020204D353B
:101380003639205331005430204500205800447233
:1013900069766572207374657070696E67206D6F11
:1013A00064650020204D393030204B004C696E655B
:1013B000617220416476616E636500204A002020DE
:1013C000473239205720490020204D3134392043FD
:1013D000203B20556E69747320696E2043656C73E1
:1013E0006975730A0054656D706572617475726514
:1013F00020556E697473002020473231203B004C29
:10140000696E65617220556E69747300454550526E
:101410004F4D206461746173697A65206572726FE3
:10142000722E0A00290A002062797465733B2063DA
:10143000726320002073746F726564207365747426
:10144000696E6773207265747269657665642028B9
:1014500000202863616C63756C6174656429210ADE
:101460000020213D2000454550524F4D204352431E
:10147000206D69736D61746368202D202873746F0B
:101480007265642920002053697A653A2000496E0C
:101490006465783A2000000048430000484300009B
:1014A000A041000034420000C8420000C842F0F7EA
:1014B000FB4300000C43DC050000DC0500003200AB
:1014C000000010270000204D61726C696E3D563897
:1014D00036290A00454550524F4D20766572736992
:1014E0006F6E206D69736D61746368202845455087
:1014F000524F4D3D0024F4D43050C38E20C2A24040
:1015000017828B7011127A910D816CD90AA861E152
:1015100008C7586607615143061E4B5D05C145A7C4
:10152000041A411104093D9803713931034036DB37
:101530000265339102D4305402802E1D02632CEEDA
:1015400001752AC501B028A001102781018F2564EB
:10155000012B244B01E0223401AC211F018D200D11
:1015600001801FFC00841EED00971DDF00B81CD217
:1015700000E61BC600201BBC00641AB200B219A80A
:10158000000A19A0006A189900D117910040178B22
:1015900000B516840031167E00B31579003A157334
:1015A00000C7146F0058146A00EE136600881363B6
:1015B0000025135E00C7125B006C12570015125411
:1015C00000C111510070114F0021114B00D610497C
:1015D000008D1047004610440002104200C00F402A
:1015E00000800F3E00420F3C00060F3B00CB0E3840
:1015F00000930E37005C0E3500270E3400F30D32D9
:1016000000C10D3100900D3000600D2E00320D2D07
:1016100000050D2C00D90C2B00AE0C2900850C29DF
:10162000005C0C2700350C27000E0C2600E80B246C
:1016300000C40B2400A00B23007D0B23005A0B21B8
:1016400000390B2100180B2000F80A1F00D90A1ED0
:1016500000BB0A1E009D0A1D00800A1D00630A1CB3
:1016600000470A1B002C0A1B00110A1A00F7091A6E
:1016700000DD091900C4091900AB09190092091706
:10168000007B091800630917004C0916003609167B
:1016900000200916000A091500F5081500E00814D5
:1016A00000CC081400B8081400A408140090081313
:1016B000007D0812006B081300580812004608123B
:1016C000003408110023081100120811000108114C
:1016D00000F0071000E0071000D0071000C007104E
:1016E00000B0070F00A107100091070E0083070F3D
:1016F0000074070F0065070E0057070E0049070E1C
:10170000003B070D002E070E0020070D0013070DEC
:101710000006070D00F9060C00ED060D00E0060CB2
:1017200000D4060C00C8060C00BC060C00B0060C69
:1017300000A4060B0099060C008D060B0082060B18
:101740000077060B006C060B0061060A0057060BBB
:10175000004C060A0042060A0038060A002E060A55
:101760000024060A001A060A001006090007060AE5
:1017700000FD050900F4050900EB050900E2050973
:1017800000D9050900D0050900C7050900BE0509F3
:1017900000B5050800AD050800A50509009C050871
:1017A00000940508008C050800840508007C0508E5
:1017B00000740508006C050700650508005D050755
:1017C00000560508004E05070047050700400508BC
:1017D0000038050700310507002A05070023050723
:1017E000001C050600160507000F05070008050682
:1017F0000002050700FB040600F5040700EE0406DE
:1018000000E8040600E2040700DB040600D5040635
:1018100000CF040600C9040600C3040600BD040688
:1018200000B7040600B1040500AC040600A60406D7
:1018300000A00405009B0406009504050090040622
:10184000008A04050085040500800406007A04056A
:101850000075040500700405006B040500660405AE
:1018600000610405005C04050057040500520405EE
:10187000004D04050048040500430405003E04042F
:10188000003A04050035040500300404002C04056A
:101890000027040400230405001E0404001A0404A5
:1018A0000016040500110404000D040400090405D9
:1018B000000404040000040400FC030400F8030412
:1018C00000F4030400F0030400EC030400E8030444
:1018D00000E4030400E0030400DC030400D8030474
:1018E00000D4030400D0030400CC030400C80303A5
:1018F00000C503030024F404D9201BC40C5C0E981B
:1019000004C4095F0265077101F405F900FB04B323
:101910000048048700C103690058035500030345CC
:1019200000BE023A008402310053022A0029022537
:101930000004022000E4011C00C8011900AF0117D7
:10194000009801140084011300710110006101105E
:101950000051010E0043010D0036010B002B010B5D
:101960000020010B00150109000C0109000301080A
:1019700000FB000800F3000800EB000700E400068D
:1019800000DE000600D8000600D2000600CC0005EC
:1019900000C7000500C2000500BD000400B9000436
:1019A00000B5000400B1000400AD000400A900046B
:1019B00000A5000300A20003009F0004009B000399
:1019C00000980003009500020093000300900003BC
:1019D000008D0002008B00030088000200860002D8
:1019E0000084000300810002007F0002007D0002ED
:1019F000007B0002007900020077000100760002FF
:101A0000007400020072000100710002006F000209
:101A1000006D0001006C0002006A00010069000214
:101A2000006700010066000100650001006400021B
:101A3000006200010061000100600001005F00021F
:101A4000005D0001005C0001005B0001005A000124
:101A50000059000100580001005700010056000124
:101A60000055000100540001005300000053000124
:101A7000005200010051000100500001004F000120
:101A8000004E0000004E0001004D0001004C00011E
:101A9000004B0000004B0001004A0001004900011A
:101AA0000048000000480001004700010046000017
:101AB000004600010045000000450001004400010F
:101AC000004300000043000100420000004200010A
:101AD000004100000041000100400001003F000003
:101AE000003F0001003E0000003E0001003D0000FC
:101AF000003D0001003C0000003C0000003C0001F3
:101B0000003B0000003B0001003A0000003A0001E9
:101B100000390000003900010038000000380000E2
:101B200000380001003700000037000100360000D7
:101B300000360000003600010035000000350000CE
:101B400000350001003400000034000000340001C2
:101B500000330000003300000033000100320000B9
:101B600000320000003200010031000000310000AE
:101B700000310001003000000030000000300001A2
:101B8000002F0000002F0000002F0000002F000198
:101B9000002E0000002E0000002E0001002D00008D
:101BA000002D0000002D0000002D0001002C000081
:101BB000002C0000002C0000002C0001002B000075
:101BC000002B0000002B0000002B0001002A000069
:101BD000002A0000002A0000002A0001002900005D
:101BE0000029000000290000002900000029000150
:101BF0000028000000280000002800000028000045
:101C00000028000100270000002700000027000036
:101C10000027000000270001002600000026000029
:101C2000002600000026000000260001002500001C
:101C30000025000000250000002500000025000010
:101C40000025000100240000002400000024000002
:101C500000240000002400010023000000230000F5
:101C600000230000002300000023000000230000E8
:101C700000230001002200000022000000220000DA
:101C800000220000002200000022000100210000CC
:101C900000210000002100000021000000210000C0
:101CA00000210000002100010020000000200000B1
:101CB00000200000002000000020000000200000A4
:101CC0000020000000200001001F0000001F000095
:101CD000001F0000001F0000001F0000001F000088
:101CE000001F0001001E0000001E0000001E00007A
:101CF000001E000000C23100001C260000F4190084
:101D000000D80F0000EB080000C0040000750200BE
:101D10000040010000423A0020436F756E7420417C
:101D20003A004500626564002C2073797374656D18
:101D30002073746F707065642120486561746572EA
:101D40005F49443A200048656174696E67204661C6
:101D5000696C65640048656174696E6720666169D5
:101D60006C6564001000600350012C019001220199
:101D7000D001180110020E0170020401E002FA0005
:101D80006003F0000004E600B004DC00A005D2000F
:101D9000B006C8000008BE00A009B400800BAA006D
:101DA000D00DA00090109600C0138C007017820018
:101DB000901B780010206E00C0246400E02D5000BD
:101DC00080353C00A03A2800A03D1400003F0000F0
:101DD000A03FECFF4572723A204D415854454D509A
:101DE000004D415854454D502074726967676572C3
:101DF0006564004572723A204D494E54454D50007D
:101E00004D494E54454D502074726967676572653F
:101E10006400202F002042403A0020403A00100089
:101E2000C90210012C014001220170011801B0010A
:101E30000E01F00104015002FA00B002F00030037C
:101E4000E600D003DC009004D2007005C800A006B4
:101E5000BE000008B400B009AA00D00BA000600EBC
:101E6000960060118C000015820020197800C01DBA
:101E70006E00A0226400B0275A00902C5000003160
:101E80004600E0343C0010383200903A2800603CB4
:101E90001E00A03D1400803E0A00203F00002020CC
:101EA000506C616E6E6572427566666572427974D9
:101EB00065733A20002046726565204D656D6F722E
:101EC000793A200020436F6D70696C65643A204157
:101ED000707220313320323032330A00204C61736B
:101EE0007420557064617465643A20323032322D4A
:101EF00030332D3134207C20417574686F723A2064
:101F000028467261636B74616C20576F726B732C1F
:101F10002064656661756C7420636F6E66696729FD
:101F20000A004D61726C696E206275676669782D72
:101F3000322E302E780A0020536F667477617265F6
:101F40002052657365740A00205761746368646F7A
:101F5000672052657365740A002042726F776E20A5
:101F60006F75742052657365740A00204578746536
:101F7000726E616C2052657365740A00506F7765EC
:101F80007255700A0073746172740A0020503A002E
:101F9000205A3A0020593A0020583A00656E64737E
:101FA000746F7073206869743A2000000021002467
:101FB0000027002A002D003000330001010000043A
:101FC0000107010A0100000A0B02090C0D0E0807A7
:101FD00003040100000000000000000000000000F9
:101FE00000000000000000000000000000000000F1
:101FF00000121110000000000000000000000000AE
:10200000000000000000000000000000002000238D
:1020100000260029002C002F0032000001000003E0
:10202000010601090100002200250028002B002ED6
:10203000003100340002010000050108010B010518
:10204000050505070508080808020202020A0A0831
:102050000804040404010101010101010103030357
:102060000303030303040707070C0C0C0C0C0C0CF4
:102070000C0202020206060606060606060B0B0BFB
:102080000B0B0B0B0B010210202008081020401036
:10209000204080020102010804020101020408102C
:1020A000204080804020100804020180040201804A
:1020B0004020100804020108040201010204081073
:1020C0002040800102040810204080486F6D696E36
:1020D00067204661696C656400FF010150726F62A0
:1020E000696E67204661696C65640A00205A3A206F
:1020F0000020593A200042656420583A2000307888
:1021000000220A00556E6B6E6F776E20636F6D6DE7
:10211000616E643A202200204500205A00205900B8
:1021200020204D393220580053746570732070653B
:102130007220756E6974004572726F7220777269D1
:1021400074696E6720746F20454550524F4D210AC7
:1021500000DB0FC93F45BCDA3F8FB30240FCF027DC
:102160004056946140FE4B9B4084A5D840E0231824
:1021700041346A5641E859974164DBD5416E2717CF
:1021800042B4B75542CE1A9742C8AED542B5885A26
:1021900043D40684BFA65FA7BF7443E0BF10B11A43
:1021A000C01C2C58C0E8F697C0B849D6C04E4E1790
:1021B000C124D355C1802497C1A0B5D5C1121A1727
:1021C000C244AE55C2781797C26CACD5C267885A64
:1021D000C320746F6F206C6F6E67206578747275A2
:1021E00073696F6E2070726576656E7465640A003F
:1021F00020636F6C6420657874727573696F6E20EC
:1022000070726576656E7465640A00544845524D77
:10221000414C2052554E4157415900546865726DEA
:10222000616C2052756E6177617900486F6D652031
:102230002573257325732046697273740020453A0F
:1022400000205A3A0020593A00583A006F6B0A00B1
:10225000526573656E643A20005072696E746572DF
:102260002068616C7465642E206B696C6C28292071
:1022700063616C6C6564210A00004CA711241FBEC9
:10228000CFEFD1E2DEBFCDBF00E00CBF84B78093BB
:10229000A60F14BE0FB6F894A895809160008861CF
:1022A00080936000109260000FBE13E0A0E0B2E0E7
:1022B000EAE7F6E701E00BBF02C007900D92A83AEB
:1022C000B107D9F72FE0A8EAB3E001C01D92A63A02
:1022D000B207E1F711E1CEE3D1E100E006C02197BA
:1022E0000109802FFE010E94F3B7CD33D10780E0B2
:1022F0000807A9F70E94DCA80C943BBB0C940000D3
:1023000021E030E0082E02C0220F331F0A94E2F7CA
:10231000209530959091C80429232093C8048130DA
:1023200051F0823069F05F9A80910B078E7F809325
:102330000B0781E008958A9A80910B078D7FF7CF74
:1023400080910801809581708093060180910B0730
:102350008B7FEDCFCF92DF92EF92FF928091750449
:10236000882309F457C0C0907104D0907204E090A3
:102370007304F090740420E030E0A901C701B601B5
:102380000E949BB3882309F445C020E030E040E080
:102390005FE3C701B6010E9400B49B01AC010E943B
:1023A00000B42BED3FE049E450E40E9400B49B01EF
:1023B000AC0160E070E080E89FE30E9420B96B010F
:1023C0007C01C0925F04D0926004E0926104F092BC
:1023D00062046091280270912902072E000C880B7C
:1023E000990B0E94A1B32AE037ED43E25CE30E941F
:1023F00000B4A70196010E9400B460936302709339
:1024000064028093650290936602FF90EF90DF90E4
:10241000CF900895C12CD12C80E8E82E8FE3F82EC0
:10242000D0CF8091A50E9091A60E891B8F7019F4C4
:1024300090E080E008959091A20E992351F08330AE
:1024400030F48FEF890F19F08093A20EF1CF109224
:10245000A20E8091A60E22E5829FC00111248C5B02
:10246000984FFC01208120FDE3CF2091A60E2F5F25
:102470002F702093A30E3091A60E2091A40E32133C
:1024800004C02091A30E2093A40E0895FC01708136
:10249000472F50E0062E02C0559547950A94E2F763
:1024A00040FF14C04091420450E0062E02C05595F2
:1024B00047950A94E2F740FF09C021E030E001C0EF
:1024C000220F6A95EAF72095272320830895CF935A
:1024D000DF9324E0829FC0011124EC01C355D34F48
:1024E000FC01EA58FA4F8D5B9B4FDC012D913D9129
:1024F0004D915C9160817181828193810E9444B889
:10250000688379838A839B83DF91CF9108958F922B
:102510009F92AF92BF92CF92DF92EF92FF92CF93B2
:10252000DF9320912C02222309F48EC0EC018091CC
:102530004204E82E80FF2CC080902E0290902F0243
:10254000A0903002B0903102288139814A815B81AC
:10255000C501B4010E946ABA181624F488829982CF
:10256000AA82BB8280903A0290903B02A0903C02EB
:10257000B0903D02288139814A815B81C501B40157
:102580000E949BB387FF04C088829982AA82BB8283
:10259000E1FE2CC08090320290903302A090340271
:1025A000B09035022C813D814E815F81C501B4011F
:1025B0000E946ABA181624F48C829D82AE82BF8271
:1025C00080903E0290903F02A0904002B090410265
:1025D0002C813D814E815F81C501B4010E949BB376
:1025E00087FF04C08C829D82AE82BF82E2FE2CC037
:1025F000C0903602D0903702E0903802F090390255
:10260000288539854A855B85C701B6010E946ABA6B
:10261000181624F4C886D986EA86FB86C090420242
:10262000D0904302E0904402F0904502288539851D
:102630004A855B85C701B6010E949BB387FF04C032
:10264000C886D986EA86FB86DF91CF91FF90EF900E
:10265000DF90CF90BF90AF909F908F900895809122
:102660003E0490913F04A0914004B09141048093B6
:10267000240290932502A0932602B0932702809112
:102680003C0490913D04909323028093220208958C
:102690008091240290912502A0912602B0912702F8
:1026A00080933E0490933F04A0934004B093410470
:1026B000809122029091230290933D0480933C04E8
:1026C00084E690E09093230280932202089590E0A4
:1026D00080E008952091F903833021F425FD0CC09A
:1026E00024FD0CC030E0A90102C0559547958A959C
:1026F000E2F7CA018170089581E0089580E00895AD
:102700008091150484FD0BC08091170487FD07C0DC
:1027100090911804937081E019F480E0089581E0AD
:1027200008952FEB280F2A3108F047C0E22FF0E080
:102730008091150490911604A0911704B09118048B
:1027400004C0B695A795979587952A95D2F780FDF1
:1027500002C081700895E550FC4FE081EE2341F105
:1027600080910D0790910E07E80FF92FF11D8081E0
:1027700090ED980F9A3030F08E3251F48181805371
:102780008A3098F4F093F603E093F50381E008951E
:102790008D3211F08B3249F4818190ED980F9A308F
:1027A00088F38E3211F48281EACFF0E0E0E0EACFE4
:1027B0001092F6031092F503E9CF80E00895B1DF9F
:1027C000882341F081E02091F5033091F603232B1B
:1027D00009F480E00895FC01DB0112962D913D91F2
:1027E0004C91149722833383448315968C911597CB
:1027F000858316962D913D914C91189726833783AA
:10280000408719964D915D916D917C911C97418700
:102810005287638774871D964D915D916D917C9170
:102820005097458756876787708B84E893E091833C
:10283000808351968D919C915297928B818B539668
:102840004D915D916D917C915697438B548B658B27
:10285000768B57968C915797878B58968D919C9134
:102860005997918F808F5A968D919C915B97938FFA
:10287000828F5C968D919C915D97958F848F5E96EB
:102880004D915D916D917C919197468F578F60A38B
:1028900071A392964D915D916D917C91959742A314
:1028A00053A364A375A396964D915D916D917C9110
:1028B000999746A357A360A771A79A968D919C916B
:1028C0009B9793A782A79C968D919C919D9795A786
:1028D00084A79E968D919C919F9797A786A7D09647
:1028E0008D919C91D19791AB80ABD2968C9182AB1C
:1028F00008958F929F92AF92BF92CF92DF92EF9204
:10290000FF92C090BE04D090BF04E090C004F0904D
:10291000C10420E030E0A901C701B6010E949BB3C9
:102920008823E1F1A701960160E070E080E89FE371
:102930000E9420B96B017C018090C2049090C30476
:10294000A090C404B090C50420E030E0A901C50106
:10295000B4010E949BB3882329F1A501940160E092
:1029600070E080E89FE30E9420B9C092E403D09217
:10297000E503E092E603F092E7036093E8037093C7
:10298000E9038093EA039093EB03FF90EF90DF90CD
:10299000CF90BF90AF909F908F900895C12CD12C75
:1029A0007601CACF60E070E0CB01DFCF2F923F927B
:1029B0004F925F926F927F928F929F92AF92BF924F
:1029C000CF92DF92EF92FF920F931F93CF93DF93FB
:1029D000CDB7DEB72E970FB6F894DEBF0FBECDBFD2
:1029E0008A83162F4983822E262F30E03A87298743
:1029F000E4E08E9FC00111249C878B87FC01E20FCD
:102A0000F31FEE0FFF1FEE0FFF1FEA58FB4F608111
:102A10007181828193819B01AC010E94F0BA88236D
:102A200009F42EC19A81E9819E0F882D810F24E03F
:102A3000929FF0011124A985BA85AE0FBF1FAA0F7E
:102A4000BB1FAA0FBB1FAA58BB4FAC901196BC90DE
:102A500011971296CC9012971396DC903981930FB0
:102A600024E0929FA0011124A985BA85A40FB51F67
:102A7000AA0FBB1FAA0FBB1FAA58BB4FEC90119601
:102A8000FC90119712960C91129713961C91282F77
:102A900030E0AB85BC85A20FB31FAA0FBB1FAA0FE6
:102AA000BB1FAA58BB4F9C9011967C901197129611
:102AB0006C90129713965C90880D90E0AB85BC8566
:102AC000A80FB91FAA0FBB1FAA0FBB1FAA58BB4F45
:102AD0008C9011964C90119712963C9012971396E9
:102AE0002C90E20FF31FEE0FFF1FEE0FFF1FEA58AF
:102AF000FB4F3081398321812A8332813B832381BB
:102B00002C83FA01E80FF91FEE0FFF1FEE0FFF1FD6
:102B1000EA58FB4F30813D8381818E8392819F8370
:102B2000238128879701A801B701C8010E94F0BA44
:102B3000882321F0E12CF12C00E010E09501A601A2
:102B4000B501C6010E94F0BA882311F0570168014F
:102B5000282D342D432D522D682D742D832D922D2B
:102B60000E94F0BA882321F0812C412C312C212C99
:102B7000292D372D462D552D692D772D862D952DF7
:102B80000E94F0BA882321F0982C742C632C522CCC
:102B90002D813E814F8158856D817E818F81988501
:102BA0000E94F0BA882321F01D821E821F8218869F
:102BB00029813A814B815C8169817A818B819C81F9
:102BC0000E94F0BA882341F03D8139838E818A8347
:102BD0009F819B83E885EC832B853C8589859A853D
:102BE000280F391F220F331F220F331F2A583B4F44
:102BF0003A8729879501A601B501C6010E9444B80C
:102C00009701A8010E9443B86B017C01292D372D43
:102C1000462D552D692D772D862D952D0E9444B872
:102C2000282D342D432D522D0E9443B89B01AC0119
:102C3000C701B6010E9444B86B017C0129813A8129
:102C40004B815C8169817A818B819C810E9444B82F
:102C50002D813E814F8158850E9443B89B01AC0174
:102C6000C701B6010E9444B820E030E040E450E4DF
:102C70000E9420B9E985FA856083718382839383FA
:102C80002E960FB6F894DEBF0FBECDBFDF91CF9169
:102C90001F910F91FF90EF90DF90CF90BF90AF907A
:102CA0009F908F907F906F905F904F903F902F906C
:102CB00008954091C60421E042276CE070E00C9436
:102CC000D3914091C60421E0422764E070E00C9467
:102CD000D3914091C60421E0422761E070E00C945A
:102CE000D3914091C60421E0422761E070E00C944A
:102CF000D3914091C60421E0422768E070E00C9433
:102D0000D3914091C60421E042276CE070E00C941E
:102D1000D39141E061E070E00C94D3914091C604FE
:102D200021E042270C94D391BC0190E080E00C9408
:102D3000E68F6CE070E00C94E69764E070E00C9431
:102D4000E69761E070E00C94E69761E070E00C9427
:102D5000E6976CE070E00C94E697682F880F770B8D
:102D6000880B990B0C945090CF92DF92EF92FF92C8
:102D70000F931F93CF93DF93C5E6DCE005E117E0E7
:102D8000C12CD12C7601C394699179918991999143
:102D90000E949FB3288939894A895B890E9400B4BF
:102DA0000E948DB9F80161937193819391938F0182
:102DB000C616D706E806F90610F46B017C01FCE0A4
:102DC000C537DF0709F76FEF7FEFCB01A70196014A
:102DD0000E9475B720932507309326074093270755
:102DE0005093280723EF34E045E35FE36091110738
:102DF0007091120780911307909114070E9400B4FC
:102E00002AE136EF45E95EE30E9420B96B017C01BF
:102E10006091650C7091660C8091670C9091680CC4
:102E20000E949FB39B01AC01C701B6010E9400B490
:102E30000E94AFBA6093290770932A0780932B07EB
:102E400090932C07DF91CF911F910F91FF90EF90FE
:102E5000DF90CF900895CF93DF93EC01C43081E0F1
:102E6000D8076CF184E091E090936205809361054E
:102E7000C4E0D1E060915D0570915E0580915F05D1
:102E8000909160050E9488B96E5F7F4F25976C17FF
:102E90007D07DCF470934105609340050E94A5987E
:102EA00060547B428E4F9F4F609342057093430561
:102EB0008093440590934505DF91CF910895D09379
:102EC0006205C09361052097A9F610924205109201
:102ED00043051092440510924505EECF0F931F93C2
:102EE00080912E04813019F50E94A5980091260446
:102EF000109127042091280430912904601B710B44
:102F0000820B930B28EE33E040E050E00E9475B74F
:102F100060912204709123048091240490912504EF
:102F2000620F731F841F951F1F910F910895609169
:102F30002A0470912B0480912C0490912D04D6CFFB
:102F40000F931F93CF93DF9309E71CE0C2E3D7E011
:102F5000F80121913191419151918F0160E070E030
:102F600080E89FE30E9420B96993799389939993AC
:102F7000F7E0C234DF0761F70E94AF91DF91CF9194
:102F80001F910F91F1CE4F925F926F927F928F922D
:102F90009F92AF92BF92CF92DF92EF92FF920F93E8
:102FA0001F93CF93DF93EC012091B6043091B704C7
:102FB0004091B8045091B904688179818A819B81DC
:102FC0000E9443B86B017C012091BA043091BB048C
:102FD0004091BC045091BD046C817D818E819F81A4
:102FE0000E9443B84B015C01A70196016091030266
:102FF0007091040280910502909106020E949BB399
:10300000882309F450C0C0920302D0920402E092D7
:103010000502F09206022091E4033091E50340910D
:10302000E6035091E703C701B6010E9400B42B01EB
:103030003C010E94B9B96B017C0120E030E0A9019C
:103040000E949BB387FD70C020E030E040E050E478
:10305000C701B6010E946ABA18162CF4C12CD12CF3
:10306000E12CA0E4FA2EA7019601C301B2010E944F
:1030700043B86093DC037093DD038093DE03909389
:10308000DF03C701B6010E9488B96093DA03062EF8
:10309000000C770B6F5F7F4F6330710514F063E0B6
:1030A00070E06093D803D0910102C091DA03A501CA
:1030B0009401609107027091080280910902909139
:1030C0000A020E949BB3811133C0DC1381C020919E
:1030D000C0033091C1034091C2035091C30360917A
:1030E000DC037091DD038091DE039091DF030E9489
:1030F00000B42091C4033091C5034091C6035091A0
:10310000C7030E9444B8DF91CF911F910F91FF90A8
:10311000EF90DF90CF90BF90AF909F908F907F9077
:103120006F905F904F900895C12CD12C76019BCF6A
:103130008092070290920802A0920902B0920A02BD
:103140002091E8033091E9034091EA035091EB03A9
:10315000C501B4010E9400B44B015C010E94B9B9E1
:103160006B017C0120E030E0A9010E949BB387FD48
:10317000F4C020E030E040E050E4C701B6010E9416
:103180006ABA18162CF4C12CD12CE12CF0E4FF2ED5
:10319000A7019601C501B4010E9443B86093E00302
:1031A0007093E1038093E2039093E303C701B601B8
:1031B0000E9488B96093DB03062E000C770B6F5FCB
:1031C0007F4F6330710514F063E070E06093D903C2
:1031D0000091DB03DC1305C080910202801709F423
:1031E00071C08091DA039091DB0390930202809387
:1031F0000102002E000C110B24E0C202C0011124B8
:10320000FC01E00FF11FEE0FFF1FEE0FFF1FEA584A
:10321000FB4F20813181428153812093D40330932D
:10322000D5034093D6035093D703C091D9030C2EF6
:10323000000CDD0BFC01EC0FFD1FEE0FFF1FEE0F6E
:10324000FF1FEA58FB4F60817181828193810E9448
:1032500043B86093D0037093D1038093D2039093CB
:10326000D3038091D80324E08202C0011124FC0121
:10327000E00FF11FEE0FFF1FEE0FFF1FEA58FB4F8D
:1032800020813181428153812093CC033093CD033F
:103290004093CE035093CF03C80FD91FCC0FDD1F2F
:1032A000CC0FDD1FCA58DB4F688179818A819B81F1
:1032B0000E9443B86093C8037093C9038093CA0304
:1032C0009093CB038090E0039090E103A090E20301
:1032D000B090E3032091D0033091D1034091D20309
:1032E0005091D303C501B4010E9400B42091D403CE
:1032F0003091D5034091D6035091D7030E9444B832
:103300006B017C01C092C403D092C503E092C60356
:10331000F092C7032091C8033091C9034091CA03BA
:103320005091CB03C501B4010E9400B42091CC039D
:103330003091CD034091CE035091CF030E9444B809
:10334000A70196010E9443B86093C0037093C10324
:103350008093C2039093C303BACEC12CD12C7601C3
:1033600017CFCF93DF9320917004222371F0EC01EB
:103370000ADE9B01AC01688579858A859B850E9460
:1033800043B8688779878A879B87DF91CF910895B3
:1033900020E030E0A901BC0187E692E00C9477912F
:1033A0008091F5039091F603009731F04AE050E0E8
:1033B00070E060E00C94DBB060E070E0CB01089559
:1033C000EFDF97FD0AC0ECDF6F3F710581059105C6
:1033D00009F02CF4E5DF862F089580E008958FEF43
:1033E0000895CF93C62FEBD9882311F0CF91E8CF62
:1033F0008C2FCF9108958091F5039091F603892B3E
:1034000039F0DEDF91E0811101C090E0892F08954D
:1034100091E0FCCFCF93DF93C82FD62FD0D988234C
:1034200019F0DF91CF91E7CF8C2F7BD9811101C0AB
:103430008D2FDF91CF910895B3DFCB010895CF9306
:10344000DF93EB01BCD9882319F0DF91CF91F4CF42
:10345000CE01DF91CF9108950F931F93CF93809169
:10346000F5039091F6030097E9F0FC018F01C191FB
:103470002C2F2F7D81F0C53411F0C536B9F7F80136
:10348000108270E060E00E9486AFF801C083CF91A7
:103490001F910F91089570E060E0CF911F910F91FF
:1034A0000C9486AF60E070E0CB01F1CFCF92DF9259
:1034B000EF92FF926A017B0182D9882329F0FF9065
:1034C000EF90DF90CF90C8CFC701B601FF90EF908B
:1034D000DF90CF9008958F929F92AF92BF92CF923C
:1034E000DF92EF92FF920F931F93CF938FE4E82E1A
:1034F00084E0F82E07E612E09DEAC92E9CE0D92E62
:10350000C0E088E58C0F5BD9882309F474C0A4DF80
:103510004B015C018C2FDED8882309F462C0F801CE
:103520002081318142815381C501B4010E9444B898
:10353000F7016083718382839383CF5FF4E0EF0EA2
:10354000F11C0C5F1F4F84E0C80ED11CC330C9F6BC
:1035500085E435D9882309F459C07EDF6B017C01ED
:1035600083E0B8D8882371F02091730230917402FF
:103570004091750250917602C701B6010E9444B88D
:103580006B017C01C0925B04D0925C04E0925D040C
:10359000F0925E0440E050E0BA0186E487DF20E06C
:1035A00030E0A9010E946ABA18167CF455DF20E0C9
:1035B00030E040E752E40E9420B960932402709307
:1035C00025028093260290932702CF911F910F919D
:1035D000FF90EF90DF90CF90BF90AF909F908F9033
:1035E0000895F6012081318142815381C501B401E2
:1035F0000E9443B89DCFF80180819181A281B3815F
:10360000F70180839183A283B38397CF8091730264
:1036100090917402A0917502B091760280935B0440
:1036200090935C04A0935D04B0935E04B3CF0F93BA
:103630000FB70F9300916E000F930D7F00936E00F4
:1036400000916F000D7F00936F000F930BB70F93E6
:103650000CB70F921F922F933F934F935F936F93EB
:103660007F938F939F93AF93BF93EF93FF93112417
:103670005DD5FF91EF91BF91AF919F918F917F9118
:103680006F915F914F913F912F911F900F900CBFC1
:103690000F910BBF0F910260F89400936F000F9190
:1036A00000936E000F910FBF0F911895000080914D
:1036B000730580FF1BC0899A8FEF8093C9048091A6
:1036C000730581FF16C08F9A8FEF8093CA04809193
:1036D000730582FF11C080910B01809582708093E9
:1036E00009018FEF8093CB0400000895899881E051
:1036F000E4CF8F9881E0E9CF80910B0182708093B5
:10370000090181E0EFCF8091C804877F8093C804CE
:10371000129A81E0089580E00E94801181E00E9469
:10372000801182E00E948011EECF12988091C8042F
:1037300088608093C8040895813079F0823079F0F0
:103740005F9821E030E001C0220F8A95EAF780916E
:10375000C804822B8093C80408958A98F2CF909170
:103760000801917090930601ECCFCF93DF93809185
:103770006304811119C0C0912A02D0912B022197B4
:1037800020E030E040E05FE360915D0570915E0510
:1037900080915F05909160050E9444B80E9488B9AD
:1037A00021E06C177D070CF020E0822FDF91CF9194
:1037B0000895CF93DF9320917004222371F0EC01E0
:1037C000E2DB9B01AC01688579858A859B850E9437
:1037D00044B8688779878A879B87DF91CF9108955E
:1037E0004F925F926F927F928F929F92AF92BF9211
:1037F000CF92DF92EF92FF920F931F93CF93DF93BD
:10380000CDB7DEB768970FB6F894DEBF0FBECDBF59
:103810008C015B015A834983FC01EF5BFF4F6081A0
:103820007181828193810E949FB36B017C01D501DC
:103830002D913D914D915C910E9400B40E940AB976
:103840002B013C01E981FA81208131814281538140
:10385000C701B6010E9400B40E940AB94B015C0185
:10386000C301B2010E948DB9698B7A8B8B8B9C8BC3
:10387000683771058105910540F428E730E040E0A4
:1038800050E0298B3A8B4B8B5C8BC501B4010E94B5
:103890008DB96D877E878F87988B68377105810515
:1038A000910540F488E790E0A0E0B0E08D879E8726
:1038B000AF87B88BF801E35BFF4F208131814281F4
:1038C000538129833A834B835C83CA01B9010E94E7
:1038D000A1B32B013C0169897A898B899C890E945B
:1038E0009FB369877A878B879C8720E030E0A901A6
:1038F000C301B2010E949BB3882309F43BC1A70115
:103900009601C701B6010E9400B44B015C012985F4
:103910003A854B855C85CA01B9010E9400B49B01C0
:10392000AC01C501B4010E9443B84B015C01A30185
:103930009201C301B2010E9444B89B01AC01C501D0
:10394000B4010E9420B90E940AB90E948DB96D830A
:103950007E838F83988769817A818B819C81909502
:103960008095709561957F4F8F4F9F4F0E94A1B3B7
:103970004B015C016D857E858F8598890E949FB380
:1039800069837A838B839C8320E030E0A901C501A1
:10399000B4010E949BB3882309F4F0C029813A81C5
:1039A0004B815C81CA01B9010E9400B46D8B7E8B92
:1039B0008F8B988FA7019601C701B6010E9400B4B2
:1039C0009B01AC016D897E898F89988D0E9443B8D7
:1039D0006B017C01A5019401C501B4010E9444B8AA
:1039E0009B01AC01C701B6010E9420B90E94B9B980
:1039F000D80195968D909D90AD90BC90989775014B
:103A000064012D813E814F815885C21AD30AE40A90
:103A1000F50A0E948DB9C61AD70AE80AF90AF7FE14
:103A20006EC020E030E0A901C301B2010E949BB347
:103A3000882309F4A7C0C501B4010E949FB36B019C
:103A40007C01A3019201C301B2010E9444B89B0111
:103A5000AC01C701B6010E9400B46B017C0129854D
:103A60003A854B855C85CA01B9010E9400B49B016F
:103A7000AC01C701B6010E9443B86B017C012981EA
:103A80003A814B815C81CA01B9010E9400B49B015B
:103A9000AC01C701B6010E9444B86B017C0120E073
:103AA00030E040E850E4C301B2010E9400B49B0141
:103AB000AC01C701B6010E9420B90E940AB96B018E
:103AC0007C0120E030E0A9010E946ABA18161CF0BF
:103AD000C12CD12C7601C701B6010E948DB96D832E
:103AE0007E838F83988786169706A806B90620F4EA
:103AF0008D829E82AF82B886C12CD12C76018D81B9
:103B00009E81AF81B885F80181A792A7A3A7B4A72A
:103B1000C80ED91EEA1EFB1EC5A6D6A6E7A6F0AAA9
:103B2000EB5BFF4F29893A894B895C89208331837C
:103B30004283538334968D859E85AF85B889808373
:103B40009183A283B38368960FB6F894DEBF0FBE4D
:103B5000CDBFDF91CF911F910F91FF90EF90DF903C
:103B6000CF90BF90AF909F908F907F906F905F901D
:103B70004F90089560E070E0CB01E5CE60E070E02A
:103B8000CB0134CF60E070E0CB0197CF90916F0014
:103B900081E091FD02C080E0089590916F009D7FCB
:103BA00090936F000895EFE6F0E08081826080835B
:103BB00008958F929F92AF92BF92CF92DF92EF9231
:103BC000FF920F931F93CF93DF93182F84E0189FDA
:103BD000E0011124123008F046C0D8DF082FD6DFEC
:103BE00080902A0590902B05A0902C05B0902D0573
:103BF0008111D9DFCBDFC0902E05D0902F05E0904A
:103C00003005F09031058111CEDF0111CCDF11308C
:103C100019F5C501B4016C197D098E099F090E942F
:103C2000A1B320E030E040E05FE30E9400B4CE5C4E
:103C3000D84F288139814A815B810E9400B4DF918D
:103C4000CF911F910F91FF90EF90DF90CF90BF9099
:103C5000AF909F908F900895C701B601680D791DB0
:103C60008A1D9B1DDCCF92DFFE01E65DFA4FC0800E
:103C7000D180E280F380811196DFC701B6010E94F6
:103C8000A1B3D5CFCF92DF92EF92FF92CF93DF9384
:103C9000C82F7CDF94E0C99FE0011124FE01E25EA1
:103CA000FA4FC080D180E280F38081117CDFCE5C4E
:103CB000D84FC701B6010E94A1B3288139814A813A
:103CC0005B810E9400B4DF91CF91FF90EF90DF9075
:103CD000CF900895CF93DF93CDB7DEB72C970FB673
:103CE000F894DEBF0FBECDBF0E94C1904FDF9CE0B5
:103CF000EAE2F5E0DE01119601900D929A95E1F766
:103D0000811151DFCE0101960E9488A62C960FB634
:103D1000F894DEBF0FBECDBFDF91CF9108954F92D3
:103D20005F926F927F928F929F92AF92BF92CF924B
:103D3000DF92EF92FF920F931F93CF93DF9300D008
:103D400000D0CDB7DEB78090670290906802A09057
:103D50006902B0906A02C0906B02D0906C02E09051
:103D60006D02F0906E0280916F0290917002A091AE
:103D70007102B091720289839A83AB83BC830E94E3
:103D8000B4160E94AA1106EC12E1AEE2B2E0BE83C4
:103D9000AD838AEB682E82E1782E512C852D0E940E
:103DA0006712F80185919591A591B491ED81FE81FD
:103DB00081939193A193B193FE83ED83F301859158
:103DC0009591A591B491ED81FE8180879187A2871D
:103DD000B38753940C5F1F4FF4E06F0E711C83E0A8
:103DE0005812DCCF0E94791423EF34E045E35FE3FF
:103DF0006091110770911207809113079091140739
:103E00000E9400B42AE136EF45E95EE30E9420B942
:103E10002B013C016091650C7091660C8091670CE0
:103E20009091680C0E949FB39B01AC01C301B20149
:103E30000E9400B40E94AFBA6093290770932A07CA
:103E400080932B0790932C077BD8A5019401609158
:103E50006702709168028091690290916A020E94E3
:103E60009BB381111EC0A701960160916B027091F6
:103E70006C0280916D0290916E020E949BB3811141
:103E800010C029813A814B815C8160916F027091F1
:103E9000700280917102909172020E949BB38823FC
:103EA000B9F026960FB6F894DEBF0FBECDBFDF91F6
:103EB000CF911F910F91FF90EF90DF90CF90BF9027
:103EC000AF909F908F907F906F905F904F9002CFB8
:103ED00026960FB6F894DEBF0FBECDBFDF91CF910F
:103EE0001F910F91FF90EF90DF90CF90BF90AF9018
:103EF0009F908F907F906F905F904F900895CF9399
:103F0000DF931F92CDB7DEB7898360E0CE010196C3
:103F10000E94461261E0CE0101960E94461262E0C4
:103F2000CE0101960E94461289810F90DF91CF91B8
:103F300008958F929F92AF92BF92CF92DF92EF92AD
:103F4000FF921F93CF93DF93CDB7DEB760970FB685
:103F5000F894DEBF0FBECDBF182F80E02ADE4B01E4
:103F60005C018092300490923104A0923204B092AD
:103F7000330481E01EDE6B017C01C0923404D092D8
:103F80003504E0923604F092370482E012DE60934A
:103F900038047093390480933A0490933B041D864F
:103FA0001E861F86188A89829A82AB82BC82CD8245
:103FB000DE82EF82F88669877A878B879C8783E029
:103FC000F8DD6D877E878F87988BCE010196C9D9E2
:103FD0001E3FD9F480E1FE013196A7E6B2E00190E0
:103FE0000D928A95E1F760960FB6F894DEBF0FBE8A
:103FF000CDBFDF91CF911F91FF90EF90DF90CF90D9
:10400000BF90AF909F908F90089584E0189FF0012B
:104010001124DF01A959BD4F81E090E08C0F9D1F55
:10402000E80FF91F40815181628173814D935D9347
:104030006D937C931397D7CF0C94AF9180917205B9
:10404000811105C080917405882309F46EC08091A8
:104050002F04659B5AC0816080932F0490910301C7
:1040600080912F0490FF53C0826080932F04809131
:104070002F04639B4EC0886080932F0480912F048F
:104080004A9B49C0846080932F0480910E0580FF75
:1040900010C08091730584FF0CC080912F0480FFB5
:1040A00008C080910A07816080930A0780E00E941F
:1040B000BCA680910E0581FF10C08091730585FD1F
:1040C0000CC080912F0481FF08C080910A07826094
:1040D00080930A0781E00E94BCA680910E0582FFB2
:1040E00024C08091730582FF18C0809174058823D5
:1040F000E1F080912F0483FF18C080910A07886047
:1041000080930A0782E00C94BCA68E7FA5CF8D7F9A
:10411000ACCF877FB1CF8B7FB6CF80912F0482FF4A
:1041200004C080910A078460EBCF08952F923F92DC
:104130004F925F926F927F928F929F92AF92BF92B7
:10414000CF92DF92EF92FF920F931F93CF93DF9363
:1041500000D01F921F92CDB7DEB78FEF9FEF9093E5
:104160008900809388002AE02983312C212C7894BF
:104170008091170590911805A0911905B0911A0525
:10418000892B8A2B8B2B09F0B2C180911D058823C6
:10419000E1F080911B0590911C0510921D05892B63
:1041A00009F4A5C110921C0510921B0510920E0572
:1041B0009091A50E8091A60E981709F498C1809150
:1041C000A60E8F5F8F708093A60E80911B05909135
:1041D0001C05892B09F48BC14091130550911405DE
:1041E000609115057091160580910F05909110054D
:1041F000A0911105B09112050091010510E030E089
:1042000020E0841B950BA60BB70B081719072A078C
:104210003B0710F4D901C801B82E840F951FA61FC3
:10422000B71F8093130590931405A0931505B093C1
:104230001605E1E00091D7041091D8042091D9042B
:104240003091DA048091E7049091E804A091E904A8
:10425000B091EA04080F191F2A1F3B1F0093E704BF
:104260001093E8042093E9043093EA0437FD33C047
:104270008091C904082E000C990BAA0BBB0B40912E
:104280002A0550912B0560912C0570912D05840F06
:10429000951FA61FB71F80932A0590932B05A09307
:1042A0002C05B0932D058091D3049091D404A09156
:1042B000D504B091D604B901A801481B590B6A0B6B
:1042C0007B0BDB01CA018093E7049093E804A09381
:1042D000E904B093EA044091DB045091DC0460915E
:1042E000DD047091DE048091EB049091EC04A091C8
:1042F000ED04B091EE04480F591F6A1F7B1F4093D5
:10430000EB045093EC046093ED047093EE0477FD9E
:1043100033C0C090CA040C2C000CDD08EE08FF0866
:1043200080912E0590912F05A0913005B091310517
:104330008C0D9D1DAE1DBF1D80932E0590932F05E6
:10434000A0933005B09331058091D3049091D404AB
:10435000A091D504B091D6043A014B01681A790AAC
:104360008A0A9B0AD401C3018093EB049093EC0466
:10437000A093ED04B093EE04C090DF04D090E0046D
:10438000E090E104F090E2048091EF049091F00459
:10439000A091F104B091F2048C0D9D1DAE1DBF1DC6
:1043A0008093EF049093F004A093F104B093F2048F
:1043B000B7FD33C04090CB04042C000C55086608B0
:1043C0007708C0903205D0903305E0903405F09026
:1043D0003505C40CD51CE61CF71CC0923205D092E2
:1043E0003305E0923405F0923505C090D304D090A7
:1043F000D404E090D504F090D6043C014D016C1833
:104400007D088E089F0874016301C092EF04D0926A
:10441000F004E092F104F092F2044090F304509022
:10442000F4046090F5047090F604C090E304D0901A
:10443000E404E090E504F090E604C40CD51CE61C0E
:10444000F71CC092F304D092F404E092F504F092C9
:10445000F604F7FC1DC04090D3045090D404609043
:10446000D5047090D604C418D508E608F708C092A1
:10447000F304D092F404E092F504F092F604F09183
:10448000FF04F0907305F3FECCC0F150F093FF04ED
:10449000E11104C0E0918400F091850037FF889A13
:1044A00077FF8E9AB7FD06C0E0910B01E095E870AA
:1044B000E0930901E0918400F0918500E09184008F
:1044C000F091850037FF889877FF8E98B7FD05C07B
:1044D00080910B01887080930901BB2021F08091AD
:1044E000840090918500BA94E0E0B110A3CE809151
:1044F0004E0290914F02A0915002B0915102892B2F
:104500008A2B8B2B09F0C8C080910005882309F401
:10451000ACC08091FF048090130590901405A0908A
:104520001505B0901605C090FB04D090FC04E090F7
:10453000FD04F090FE04C814D904EA04FB0408F05A
:1045400072C02091CD043091CE044091D10450919D
:10455000D2044217530708F066C081508093FF04CD
:10456000215031093093CE042093CD0440914A026A
:1045700050914B0260914C0270914D028091FF046A
:10458000882309F481C000008091FF0418160CF004
:1045900070C0169ADD24D394D092CC04000081E040
:1045A0009091FF04992309F46FC0811104C0809198
:1045B0008400909185008091CC04082E000C990B0A
:1045C000AA0BBB0B009136051091370520913805D9
:1045D00030913905800F911FA21FB31F80933605BC
:1045E00090933705A0933805B0933905149A8091BC
:1045F0008400909185008091FF0487FF43C08F5F06
:104600008093FF048091840090918500149880919C
:10461000FF04882321F0809184009091850080E040
:10462000BFCFFF5F33CF8C149D04AE04BF0488F46A
:104630002091CD043091CE044091CF045091D0040C
:104640002417350730F48F5F8093FF042F5F3F4FAF
:1046500089CFCC24CA94DC2C7601C0924A02D09235
:104660004B02E0924C02F0924D024FEF5FEFBA0125
:1046700085CF882309F492CF1698EE24EA94E0922D
:10468000CC048CCF8150BCCF40934E0250934F024C
:104690006093500270935102809117059091180514
:1046A000A0911905B0911A05892B8A2B8B2B09F043
:1046B000C5C4A0911B05B0911C05109709F45FC5F6
:1046C0008090130590901405A0901505B0901605E4
:1046D00040910F05509110056091110570911205E0
:1046E00084169506A606B70608F447C010921C0566
:1046F00010921B0510920E059091A50E8091A60EAA
:10470000981709F43CC58091A60E8F5F8F70809337
:10471000A60E80EDC82E87E0D82EE12CF12C8091DA
:104720001B0590911C05892B09F080C40E94111271
:1047300090931C0580931B05892B09F477C4E091A5
:104740001B05F0911C05808183FF0CC3CF014596AA
:104750000E9403A710921C0510921B0510920E05D3
:104760009091A50E8091A60E981701F38091A60E48
:104770008F5F8F708093A60ED9CF40910A0550911C
:104780000B0560910C0570910D05481559056A05DA
:104790007B0508F405C1409106055091070560911D
:1047A000080570910905D1960D911D912D913C91AF
:1047B000D497EE27419FF12D529FC001629F900D2B
:1047C000619F800D911D429FF00D811D9E1F519F85
:1047D000F00D811D9E1F609FF00D811D9E1F509F3B
:1047E000F10D8E1F9E1FF6958E1F9E1F349F800D0C
:1047F000911D359F900D1124FD01EB5BFF4F008152
:10480000118122813381080F191F211D311D009351
:104810000205109303052093040530930505349792
:10482000C080D180E280F380C016D106E206F30694
:1048300040F4C0920205D0920305E0920405F09284
:1048400005058090020590900305A0900405B090A6
:10485000050585EF9CE1FF24F394FC01059115917A
:1048600025913491081519052A053B0558F4B6948D
:10487000A79497948794FF0C049621E13DE12817B3
:10488000390759F7F092010530E283169104A1042B
:10489000B10428F410E2812E912CA12CB12C80E2DD
:1048A000881A9108A108B108811498E09906A1041A
:1048B000B10408F452C0E4E09E9EC00111248B5064
:1048C000974EFC01329625913491F82DEE27F39FF7
:1048D0008001F29F010D1E1F06940E1F1E1F112442
:1048E00030E020E0FC01C590D490F12CE12CC01AFE
:1048F000D10AE20AF30A4C0D5D1D6E1D7F1D409327
:10490000060550930705609308057093090580918B
:10491000FF0490910005992309F46CC1882309F4E0
:10492000FECED7968D919C91B0E0A0E040914A02D6
:1049300050914B0260914C0270914D028417950783
:10494000A607B70709F4EBCE10924E0210924F0261
:104950001092500210925102E2CE950184013695D8
:10496000279517950795C8018C7F8B509B4EFC01AE
:10497000C590D490FC01329625913491882D877092
:10498000882E829EC001839E900D1124F3E096959F
:104990008795FA95E1F7C81AD90AF12CE12CABCF2B
:1049A000C090FB04D090FC04E090FD04F090FE0465
:1049B000CA82DB82EC82FD82C814D904EA04FB04BB
:1049C00008F01CC14091F7045091F8046091F9047B
:1049D0007091FA04D1960D911D912D913C91D4972F
:1049E0008827419F912D529F6001629FD00C619F4B
:1049F000C00CD11C429F900DC11CD81E519F900D20
:104A0000C11CD81E609F900DC11CD81E509F910DD7
:104A1000C81ED81E9695C81ED81E349FC00CD11C27
:104A2000359FD00C1124F12CE12C0091020510913E
:104A300003052091040530910505FD01E75BFF4F5B
:104A40004080518062807380C016D106E206F30672
:104A500058F40C191D092E093F094016510662062B
:104A6000730610F42801390185EF9CE121E0FC0177
:104A7000C590D590E590F490C414D504E604F704ED
:104A800068F47694679457944794220F049631E122
:104A9000E32E3DE1F32EE816F90649F720930105D0
:104AA00030E2431651046104710428F410E2412EEF
:104AB000512C612C712C80E2481A51086108710850
:104AC000411498E059066104710408F46EC0E4E0F2
:104AD0005E9EC00111248B50974EFC0132960591C9
:104AE0001491342DFF24319FF001309FE10DFF1D03
:104AF0000694EF1DFF1D11242F01712C612CFC0168
:104B0000C590D490F12CE12CC418D508E608F7081C
:104B10004C0D5D1D6E1D7F1D4093F7045093F804EE
:104B20006093F9047093FA0480910005882309F4D6
:104B30005FC04A815B816C817D81420F511D611D87
:104B4000711D481559056A057B05C8F48091FF045D
:104B5000882309F4E4CDD7964D915C91D89770E005
:104B600060E000914A0210914B0220914C0230917A
:104B70004D02401751076207730709F4D0CD109218
:104B80004E0210924F021092500210925102D7968C
:104B90008D919C91B0E0A0E080934A0290934B02EB
:104BA000A0934C02B0934D02BACD73016201F6940A
:104BB000E794D794C794C6018C7F8B509B4EFC0121
:104BC000C590D490FC01329605911491842D877084
:104BD000482E409EC001419E900D1124F3E0969511
:104BE0008795FA95E1F7C81AD90AF12CE12C90CFF4
:104BF0008091FF04882309F492CDA6CE8091FF0412
:104C00008823D9F0D7964D915C91D89770E060E0F9
:104C100000914A0210914B0220914C0230914D02BA
:104C2000401751076207730741F010924E0210922D
:104C30004F02109250021092510240914602509140
:104C40004702609148027091490277FF5FC0AF5BF5
:104C5000BF4FCD90DD90ED90FC9085EF9CE121E081
:104C6000FC0145915591659174914C155D056E055A
:104C70007F0558F4F694E794D794C794220F0496CE
:104C8000A1E1BDE1A817B90759F720930105B0E2EA
:104C9000CB16D104E104F10428F450E2C52ED12C46
:104CA000E12CF12CE0E2CE1AD108E108F108C114A0
:104CB000F8E0DF06E104F10408F431C024E0D29EFC
:104CC000C00111248B50974EFC01329625913491EE
:104CD0007C2D6627739FA001729F410D561F06947D
:104CE000461F561F112470E060E0FC0185919491ED
:104CF000B0E0A0E0841B950BA60BB70B8093460297
:104D000090934702A0934802B0934902C090460294
:104D1000D0904702E0904802F090490200CDD701C0
:104D2000C601B695A795979587958C7F8B509B4E1E
:104D3000FC0125913491FC013296459154918C2DC2
:104D40008770C82EC49EC001C59E900D112443E0FB
:104D5000969587954A95E1F7281B390BC901B0E074
:104D6000A0E0CCCF058916892789308D818C928C63
:104D7000A38CB48C85A991E0081519052A053B057B
:104D800009F0CCC190E0011511052105310551F064
:104D9000582F517081FB442740F991E0541390E063
:104DA0005413BCC1C58CD68CE78CF0A0C114D104BF
:104DB000E104F10409F0946090930E051092F70459
:104DC0001092F8041092F9041092FA041092060559
:104DD00010920705109208051092090545A156A1E9
:104DE00067A170A540930F055093100560931105BE
:104DF00070931205442455243201441A550A660A58
:104E0000770A4092E7045092E8046092E9047092B5
:104E1000EA044092EB045092EC046092ED0470922C
:104E2000EE044092EF045092F0046092F10470920C
:104E3000F20441A052A063A074A0440C551C661C4F
:104E4000771C000F111F221F331F0093D7041093EC
:104E5000D8042093D9043093DA04880C991CAA1C36
:104E6000BB1C8092DB049092DC04A092DD04B09223
:104E7000DE04CC0CDD1CEE1CFF1CC092DF04D092C3
:104E8000E004E092E104F092E2044092E3045092E4
:104E9000E4046092E5047092E604440F551F661F17
:104EA000771F4093D3045093D4046093D504709338
:104EB000D604109213051092140510921505109245
:104EC000160541A552A563A574A540930A05509304
:104ED0000B0560930C0570930D0545A556A567A5B8
:104EE00070A94093FB045093FC046093FD047093FD
:104EF000FE0496A990930005992309F411C123ADEE
:104F000034AD3093D2042093D10421AD32AD30932F
:104F1000D0042093CF0410924E0210924F021092B0
:104F200050021092510247A950AD70E060E04093EA
:104F30004A0250934B0260934C0270934D02909141
:104F40007305981721F0809373050E94561B76D83D
:104F5000CC24CA94DC2C7601C0924602D09247023F
:104F6000E0924802F0924902E0911B05F0911C0585
:104F7000EB5BFF4F40815181628173814093020559
:104F800050930305609304057093050585EF9CE13C
:104F900021E0FC01C590D590E590F490C416D506AB
:104FA000E606F70668F47695679557954795220FBC
:104FB0000496F1E1EF2EFDE1FF2EE816F90649F720
:104FC00020930105403251056105710520F440E24E
:104FD00050E060E070E040525109610971094115EB
:104FE00028E052076105710508F4A7C034E0539F1B
:104FF000C00111248B50974EFC01329625913491BB
:10500000AA27439FF001429FE10DFA1F0694EA1F71
:10501000FA1F1124AF0170E060E0FC01C590D4904C
:10502000F12CE12CC41AD50AE60AF70AC09217053A
:10503000D0921805E0921905F0921A0540914E029F
:1050400050914F02609150027091510200911705EA
:10505000109118052091190530911A05DB01CA013C
:10506000041715072607370710F4D901C801009760
:10507000E1E0AE07B10520F08FEF9FEFA0E0B0E0D8
:10508000081B190B2A0B3B0B0093170510931805EF
:105090002093190530931A054F3FFFEF5F076F0705
:1050A0007F0761F0481B590B6A0B7B0B40934E0244
:1050B00050934F026093500270935102F8942091E4
:1050C000840030918500205F3F4F498141504983E2
:1050D000442309F452C0280E391E2216330608F460
:1050E00046C8309289002092880078940F900F90E3
:1050F0000F900F900F90DF91CF911F910F91FF9024
:10510000EF90DF90CF90BF90AF909F908F907F9067
:105110006F905F904F903F902F900895926042CE95
:1051200066246A94762C430160924A0270924B0284
:1051300080924C0290924D0202CFDB01CA01B695DB
:10514000A795979587958C7F8B509B4EFC01C590BA
:10515000D490FC013296259134914770429FC00152
:10516000439F900D112433E0969587953A95E1F78A
:10517000C81AD90AF12CE12C59CF1901B2CF80ED10
:10518000C82E87E0D82EE12CF12CD0CA10922E0424
:1051900010922604109227041092280410922904D9
:1051A00010922A0410922B0410922C0410922D04B9
:1051B00010922204109223041092240410922504C9
:1051C000089580912E048130E9F08230C9F40E9464
:1051D0006E176093220470932304809324049093A9
:1051E000250481E080932E040E94A59860932604F4
:1051F00070932704809328049093290481E00895F4
:10520000C5DFEFCF80E0089580912E048150823079
:1052100070F410922E040E94A59860932A04709353
:105220002B0480932C0490932D0481E0089580E05A
:105230000895282F30E094E0359527959A95E1F769
:1052400097E32A3008F490E3920F90931F028F7037
:1052500097E38A3008F490E3890F809320028FE16E
:1052600092E008950C9450908F929F92AF92BF92CB
:10527000CF92DF92EF92FF920F931F93CF93DF9322
:1052800010921A04109219042FE320931D04109217
:105290001C0410921B041092150410921604109214
:1052A0001704109218049C01F90190812F5F3F4F61
:1052B0009032D1F39E34C9F4818190ED980F9A30E9
:1052C00020F08D3211F08B3281F432969F012F5FE6
:1052D0003F4F808180538A3008F46BC09F012F5F5D
:1052E0003F4F8081803209F466C0F0930E07E0934F
:1052F0000D078F010F5F1F4FC0816AE270E0C80188
:105300000E9410BB009731F0FC0131978081803200
:10531000E1F31182CD3421F0C43511F0C734E1F549
:10532000F80180810F5F1F4F8032D1F380538A30A4
:1053300098F5C0931D0430E020E06AE0AF014F5FB4
:105340005F4F629FC001639F900D11249C01205309
:1053500031098081280F311D87FD3A95FA0180813E
:1053600080538A3058F330931C0420931B04DF01D0
:1053700031968C918032D9F3CD3449F52E313105F7
:1053800039F0D8F42731310519F02C313105F9F411
:10539000B0931A04A0931904DF91CF911F910F913C
:1053A000FF90EF90DF90CF90BF90AF909F908F9045
:1053B0000895F9018BCFF90191CF2537310538F0E8
:1053C0002737310528F3203A83E0380709F3D091D5
:1053D0000D0740E050E0BA0110E000E0C12CD12CF4
:1053E0007601C394FD0131968C91882309F47FC026
:1053F0008132E1F4CD34D1F420323105B9F4409357
:105400001504509316046093170470931804F093D6
:105410001A04E093190463E270E0CF010E9410BB0C
:10542000009709F4B9CFFC011082B6CF81548A31BC
:1054300008F058C0DF019D91903291F0A0EDA90FC6
:10544000AA30E8F09E3271F4918190539A30B8F00E
:105450000115110519F48F010150110990E013C0D5
:10546000FD01E8CF9D3211F09B3291F79181A0EDC3
:10547000A90FAA3020F09E3259F79281E6CF9E2FD5
:105480009D1B309759F3A82FB0E04601570104C087
:10549000880C991CAA1CBB1C8A95D2F7482959294B
:1054A0006A297B29A550BC4F9C9380818154DF01E0
:1054B0008A3108F497CFDF018191882309F492CFD4
:1054C00090ED980F9A30B8F393ED980F923098F3CF
:1054D0008B3289F3CD010196EC91E03209F082CF55
:1054E000DC01F8CF0115110501F78D01DECF109316
:1054F0001A04009319044093150450931604609302
:1055000017047093180448CFCF93DF93C0915605CA
:10551000D0915705209729F160915205709153055C
:1055200080915405909155050E9488B96E5F7F4F18
:1055300024976C177D07ACF470933B0560933A0594
:105540000E94A5986058774C8E4F9F4F60933C0502
:1055500070933D0580933E0590933F05DF91CF9179
:10556000089510923C0510923D0510923E05109250
:105570003F05F4CFCF92DF92EF92FF926B017C0157
:1055800083E3C816D104E104F10470F082E3C81A81
:10559000D108E108F10862E370E080E090E00E9449
:1055A000B3970E9471A2ECCFC701B6010E94B397D6
:1055B000FF90EF90DF90CF900C9471A280917205D4
:1055C000811104C080917405882329F062E070E0A5
:1055D00080E090E0CFCF089581E00895CF93DF93EE
:1055E000EC01E62F660FFF0BEB53F04EE491E25017
:1055F000E13108F0B0C0F0E08827EE5FF44D8F4F46
:105600000C94F3B7132BAB2BAB2BAB2BAB2B3D2B52
:105610001F2B612B5F2B3F2B852B832B632BAB2BFE
:10562000A92BA72B872B82E1EDE7F2E0DE010190A9
:105630000D928A95E1F7CE01DF91CF91089581E037
:1056400020EB30E03983288321EB30E03B832A8351
:105650001D821C8223EB30E03F832E8324EB30E05D
:10566000398728871B861A861D861C8692E09E87AE
:105670008F8781E0888B198ADECF80E0E1CF81E0DF
:105680008F5F20E930E03983288321E930E03B83D4
:105690002A8322E930E03D832C8328E930E03F83F0
:1056A0002E832AE930E0398728872CE930E03B87D0
:1056B0002A8726E930E03D872C8793E0D8CF80E029
:1056C000DFCF80E0DECF81E08F5F20EA30E03983FA
:1056D000288321EA30E03B832A8322EA30E03D83BD
:1056E0002C8328EA30E03F832E832AEA30E0398792
:1056F00028872CEA30E03B872A8726EA30E03D877E
:105700002C8794E0B4CF80E0DFCF80E0DECF81E073
:105710008F5F20E231E03983288321E231E03B834F
:105720002A8322E231E03D832C8328E231E03F836B
:105730002E832AE231E0398728872CE231E03B874B
:105740002A8726E231E03D872C8795E090CF80E0E4
:10575000DFCF80E0DECF82E1FE0111928A95E9F78A
:105760006ACF9091C00095FFFCCF8093C60008954A
:10577000CF93DF93EC018991882311F0F2DFFBCF07
:10578000DF91CF910895F4DF8DE0EBDF8AE0E9CF80
:1057900085E4E7CF8AE5E5CF89E5E3CF88E5E1CF8A
:1057A000EF92FF920F931F93CF93DF93CDB7DEB7A6
:1057B000E3970FB6F894DEBF0FBECDBF182FE42ECF
:1057C000F22E662301F18F3008F07EC0E82F880F9B
:1057D000FF0B8827E151F44D8F4F0C94F3B7FE2B4C
:1057E000222C292C352C3E2C442C472C4C2C642C60
:1057F000642C532C642C582C5A2C5F2C89E0B1DF7C
:10580000CDDF89E0AEDFEE2009F46CC01F3008F078
:10581000CAC0E12F012E000CFF0B8827ED5EF34D6F
:105820008F4F0C94F3B76D2C912C982CA42CAD2C8D
:10583000B32CB62CBB2CD32CD32CC22CD32CC72CE2
:10584000C92CCE2C88E59EE00E949C9C0E9453921D
:10585000D8CF80915A0E90915B0E20915C0EA22FB2
:10586000AF70BC018A2F90E0F1CF88E59EE00E94E6
:10587000959A682F70E090E080E0E8CF66E088E5D8
:105880009EE00E94B198E2CF60915D0EF3CF88E573
:105890009EE00E948D9ADACF80915E0E90915F0E0D
:1058A0002091600EDCCF88E59EE00E94179DCECF50
:1058B00060E7E5CF88E59EE00E947C9CC7CF88E545
:1058C0009EE00E94F97AC2CF68E57EE0CE010196A3
:1058D0000E94EB1389E045DF94CF89E042DF5CDF73
:1058E00089E03FDFFF2009F46CC01F3008F0C9C019
:1058F000E12F012E000CFF0B8827EE57F34D8F4F41
:105900000C94F3B7DC2CFF2C062D122D1B2D212D12
:10591000242D292D412D412D302D412D352D372D73
:105920003C2D8CE19EE00E949C9C0E945392D8CF1B
:1059300080911E0E90911F0E2091200EA22FAF700D
:10594000BC018A2F90E0F1CF8CE19EE00E94959AF5
:10595000682F70E090E080E0E8CF66E08CE19EE0A8
:105960000E94B198E2CF6091210EF3CF8CE19EE0CE
:105970000E948D9ADACF8091220E9091230E209171
:10598000240EDCCF8CE19EE00E94179DCECF60E715
:10599000E5CF8CE19EE00E947C9CC7CF8CE19EE02D
:1059A0000E94F97AC2CF6CE17EE0CE0101960E949E
:1059B000EB1389E0D6DE94CF89E0D3DEEBDE89E01D
:1059C000D0DE002309F46BC01F3008F0B9C0E12F0E
:1059D000110FFF0B8827E051F34D8F4F0C94F3B755
:1059E0004A2D5E2D652D712D7A2D802D832D882DCC
:1059F000A02DA02D8F2DA02D942D962D9B2D80EECA
:105A00009DE00E949C9C0E945392D9CF8091E20D10
:105A10009091E30D2091E40DA22FAF70BC018A2F6D
:105A200090E0F1CF80EE9DE00E94959A682F70E0A3
:105A300090E080E0E8CF66E080EE9DE00E94B198C3
:105A4000E2CF6091E50DF3CF80EE9DE00E948D9A4C
:105A5000DACF8091E60D9091E70D2091E80DDCCF33
:105A600080EE9DE00E94179DCECF60E7E5CF80EEEF
:105A70009DE00E947C9CC7CF80EE9DE00E94F97A59
:105A8000C2CF60EE7DE0CE0101960E94EB1389E06B
:105A900068DE95CF89E065DE7BDE89E062DE8AE044
:105AA00060DEE3960FB6F894DEBF0FBECDBFDF9188
:105AB000CF911F910F91FF90EF90089584EA9DE0A0
:105AC0000E949C9C0E945392E8CF8091A60D9091D9
:105AD000A70D2091A80DA22FAF70BC018A2F90E0D6
