:100000000C94EA130C942A140C942A140C942A14B9
:100010000C942A140C942A140C942A140C942A1468
:100020000C942A140C946AA40C946AA40C946AA4E8
:100030000C942A140C942A140C942A140C942A1448
:100040000C942A140C94C3220C942A140C942A1491
:100050000C942A140C94CFB00C942A140C94DFA89E
:100060000C942A140C94969A0C948C9A0C942A143E
:100070000C942A140C942A140C942A140C942A1408
:100080000C94F0340C942A140C942A140C942A1412
:100090000C942A140C942A140C942A140C942A14E8
:1000A0000C942A140C942A140C94C2340C942A1420
:1000B0000C942A140C942A140C942A140C942A14C8
:1000C0000C942A140C942A140C942A140C942A14B8
:1000D0000C942A140C942A140C942A140C942A14A8
:1000E0000C942A14084AD73B3BCE016E84BCBFFD5A
:1000F000C12F3D6C74319ABD56833DDA3D00C77FF8
:1001000011BED9E4BB4C3E916BAAAABE0000008090
:100110003F05A84CCDB2D44EB93836A9020C50B91F
:10012000918688083CA6AAAA2ABE000000803F004B
:100130004E414E494E495459494E46CDCCCC3D0ACC
:10014000D7233C17B7D13877CC2B329595E6241FAF
:10015000B14F0A000020410000C84200401C462068
:10016000BCBE4CCA1B0E5AAEC59D74434F4D4D5577
:100170004E49434154494F4E0044525952554E0046
:100180004552524F525300494E464F004543484F47
:10019000005072696E7465722073746F707065645C
:1001A0002064756520746F206572726F72732E20E3
:1001B00046697820746865206572726F7220616E7E
:1001C0006420757365204D39393920746F2072654C
:1001D00073746172742E202854656D706572617439
:1001E0007572652069732072657365742E2053657E
:1001F000742069742061667465722072657374611D
:100200007274696E67290A004E6F20436865636BDC
:1002100073756D2077697468206C696E65206E75E2
:100220006D6265722C204C617374204C696E653A66
:100230002000636865636B73756D206D69736D6114
:100240007463682C204C617374204C696E653A208D
:10025000004C696E65204E756D6265722069732071
:100260006E6F74204C617374204C696E65204E75FE
:100270006D6265722B312C204C617374204C696E59
:10028000653A20004D3131300053657269616C2050
:10029000737461747573206D69736D617463680A3A
:1002A000002121204B494C4C20636175736564200B
:1002B000627920746F6F206D75636820696E616369
:1002C000746976652074696D65202D20637572727E
:1002D000656E7420636F6D6D616E643A2000486FC7
:1002E00074656E642049646C652054696D656F7532
:1002F000740A006D41290A002064726976657220D3
:100300006F76657274656D70657261747572652063
:100310007761726E696E67212028003A20002063A1
:10032000757272656E74206465637265617365646D
:1003300020746F20006D41290A002064726976657F
:1003400072206F76657274656D7065726174757216
:1003500065207761726E696E67212028003A20005F
:100360002063757272656E74206465637265617373
:10037000656420746F20006D41290A002064726951
:10038000766572206F76657274656D7065726174E2
:10039000757265207761726E696E67212028003A58
:1003A00020002063757272656E74206465637265E7
:1003B0006173656420746F20006D41290A00206418
:1003C0007269766572206F76657274656D7065729C
:1003D0006174757265207761726E696E672120287D
:1003E000003A2000627573793A2070617573656414
:1003F00020666F7220696E7075740A006275737979
:100400003A2070617573656420666F72207573653C
:10041000720A00627573793A2070726F6365737344
:10042000696E670A006563686F3A004572726F72A1
:100430003A004F4646004F4E0066616C736500748B
:100440007275650042696C696E656172204C6576F3
:10045000656C696E6720477269643A0A00256875A1
:100460003A25303268750025303268753A253032C9
:10047000687500253032687527253032687500258B
:100480006875642025303268753A25303268750009
:10049000447269766572206572726F7200636F696B
:1004A0006C2073686F727420636972637569740A73
:1004B000006F76657274656D7065726174757265D2
:1004C0000A0020647269766572206572726F72200C
:1004D00064657465637465643A20307800303D2E3D
:1004E00033323500313D2E3138006D6178002F33C5
:1004F00031002F3331002F333100303D2E33323570
:1005000000313D2E3138006D6178002F3331002FDE
:100510003331002F333100303D2E33323500313D41
:100520002E3138006D6178002F3331002F333100C8
:100530002F333100303D2E33323500313D2E3138EE
:10054000006D6178002F3331002F3331002F3331AC
:1005500000092042616420726573706F6E736521BB
:1005600000092042616420726573706F6E736521AB
:1005700000092042616420726573706F6E7365219B
:1005800000092042616420726573706F6E7365218B
:10059000004472697665722072656769737465726A
:1005A000733A0A00733276736209007332767361AC
:1005B0000900313230430900313433430900313509
:1005C000304309003135374309006F7409006F74F7
:1005D000707709007332676109007332676209003E
:1005E0006F6C6109006F6C620900737473740900A9
:1005F00073675F726573756C74004452565354414F
:1006000054555300755374657020636F756E740094
:100610005374616C6C6775617264207468727300E6
:10062000202D737461727409006879737465726542
:100630007369730A202D656E640900626C616E6BCC
:100640002074696D65006F66662074696D65007061
:10065000776D2067726164206175746F0070776DCB
:10066000206F6666736574206175746F0070776DB6
:10067000207363616C65206175746F0070776D2005
:100680007363616C652073756D007472696767656B
:100690007265640A204F545009004F5420707265EF
:1006A0007761726E005B6D6D2F735D090050574D61
:1006B000207468726573682E007473746570090025
:1006C000696E7465727009006D73746570730900EA
:1006D000737465616C746843686F70007673656EDF
:1006E0007365090050574D207363616C6500435377
:1006F0002061637475616C00486F6C64206375726F
:1007000072656E740052756E2063757272656E74D8
:10071000004D41582063757272656E7400524D53DE
:100720002063757272656E74005365742063757210
:1007300072656E7400456E61626C656409004164A7
:100740006472657373090009004C4F5700484947AC
:1007500048004F4B004572726F723A20416C6C201A
:100760000020636F6E6E656374696F6E2E2E2E208F
:100770000054657374696E6720004C4F57004849F8
:100780004748004F4B004572726F723A20416C6CC3
:10079000200020636F6E6E656374696F6E2E2E2E5F
:1007A000200054657374696E6720004C4F570048F1
:1007B000494748004F4B004572726F723A20416CB6
:1007C0006C200020636F6E6E656374696F6E2E2EF1
:1007D0002E200054657374696E6720004C4F5700DB
:1007E00048494748004F4B004572726F723A2041AA
:1007F0006C6C200020636F6E6E656374696F6E2E83
:100800002E2E200054657374696E67200042656463
:10081000204C6576656C696E6720004661696C6581
:100820006420746F20656E61626C6520426564208F
:100830004C6576656C696E670A00496E76616C6915
:1008400064206D6573682E0A002E0A002F00507216
:100850006F62696E67206D65736820706F696E7472
:100860002000202844525952554E29004732392041
:100870004175746F20426564204C6576656C696EC5
:1008800067003F20284C2C522C462C4229206F75A3
:1008900074206F6620626F756E64732E0A003F28A5
:1008A00056296572626F7365206C6576656C206988
:1008B0006D706C61757369626C652028302D342908
:1008C0002E0A00426164205A2076616C75650A0028
:1008D0004E6F2062696C696E65617220677269642F
:1008E0000A0020440020204D3230302054002020C7
:1008F0004D323030205300202844697361626C65AA
:1009000064293A0046696C616D656E742073657484
:1009100074696E67730020204D3230312058004DCD
:10092000617820416363656C65726174696F6E20E4
:1009300028756E6974732F7332290020204D323070
:10094000332058004D617820666565647261746576
:10095000732028756E6974732F732900205200204C
:10096000204D323034205000416363656C65726104
:1009700074696F6E2028756E6974732F7332292025
:1009800028503C7072696E742D616363656C3E2003
:10099000523C726574726163742D616363656C3E71
:1009A00020543C74726176656C2D616363656C3EA6
:1009B0002900204A0020540020530020204D3230CE
:1009C00035204200416476616E6365642028423CB4
:1009D0006D696E5F7365676D656E745F74696D6573
:1009E0005F75733E20533C6D696E5F66656564722A
:1009F0006174653E20543C6D696E5F74726176650A
:100A00006C5F66656564726174653E204A3C6A7518
:100A10006E635F6465763E290020204D32313700D9
:100A2000546F6F6C2D6368616E67696E670020207C
:100A30004D323138205400486F74656E64206F6603
:100A400066736574730020440020490020204D33F4
:100A50003031205000486F74656E64205049440066
:100A6000617869733A70776D5F7363616C652F634A
:100A70007572725F7363616C652F6D6563685F6C1F
:100A80006F61647C666C6167737C7761726E636FA3
:100A9000756E740A004452565F53544154555309BD
:100AA0000050574D5F5343414C45090050574D434B
:100AB0004F4E460900434F4F4C434F4E46090043AB
:100AC000484F50434F4E460900544849474809098A
:100AD0000054434F4F4C5448525309005450574D03
:100AE0005448525309005453544550090900545076
:100AF0004F574552444F574E0900494F494E090937
:100B000000475354415409090049484F4C445F4938
:100B100052554E090047434F4E460909000900202F
:100B20002E68737472743A2000202E68656E643AE1
:100B300020002063686F70706572202E746F666687
:100B40003A2000202E68737472743A2000202E68B8
:100B5000656E643A20002063686F70706572202EA5
:100B6000746F66663A2000202E68737472743A209F
:100B700000202E68656E643A20002063686F7070F4
:100B80006572202E746F66663A2000202E6873749A
:100B900072743A2000202E68656E643A200020634B
:100BA000686F70706572202E746F66663A20003F21
:100BB00053206F7574206F662072616E6765202800
:100BC000312E2E38290A003F50206F7574206F6631
:100BD0002072616E676520282D332E2E3132290A4E
:100BE000003F4F206F7574206F662072616E6765DD
:100BF0002028312E2E3135290A003B200020496E55
:100C000076616C6964206578747275646572200021
:100C100047322F47332062616420706172616D65D5
:100C2000746572730A0047323800205A3A20002057
:100C3000593A200042656420583A20004D65736897
:100C400020706F696E74206F7574206F66207261FA
:100C50006E67650A002569730025696D2025697333
:100C6000002569682025696D202569730025696460
:100C7000202569682025696D20256973002569791B
:100C800020256964202569682025696D2025697300
:100C9000005072696E742074696D653A20006F6B44
:100CA000006F6666008C018701800179016B014449
:100CB000454255473A004D313132205368757464CE
:100CC0006F776E004D3131332053002F2F003F4A94
:100CD000206F7574206F662072616E676520283002
:100CE0002E303120746F20302E33290A0020204D01
:100CF00061783A2000200020204D696E3A200020C3
:100D00003B200020204D323131205300536F667458
:100D100020656E6473746F70730046523A0020460B
:100D20006C6F773A20003A200020536572766F206E
:100D300000206F7574206F662072616E67650A000F
:100D4000536572766F200050726F6265204F666641
:100D5000736574205A0050726F6265204F66667327
:100D60006574205A00496E76616C696420657874F8
:100D700072756465720A0064697300656E004329C8
:100D80000A0061626C656420286D696E2074656D6F
:100D9000702000436F6C64206578747275646573AD
:100DA0002061726520004D34323120696E636F72AC
:100DB0007265637420706172616D6574657220750F
:100DC000736167650A004D65736820706F696E74A2
:100DD000206F7574206F662072616E67650A00541B
:100DE0006F6F206661722066726F6D207265666536
:100DF00072656E636520706F696E740A00454550B8
:100E0000524F4D204F4B0A00290A0020746F2000DA
:100E10003F5A206F7574206F662072616E6765207F
:100E20002800290A0020746F20003F59206F757434
:100E3000206F662072616E676520282D00290A00E8
:100E400020746F20003F58206F7574206F662072E9
:100E5000616E676520282D002064726976657220B6
:100E600063757272656E743A2000206472697665EB
:100E7000722063757272656E743A20002064726924
:100E80007665722063757272656E743A2000206414
:100E900072697665722063757272656E743A2000AD
:100EA0007370726561644379636C65007374656126
:100EB0006C746843686F7000206472697665722094
:100EC0006D6F64653A09007370726561644379639C
:100ED0006C6500737465616C746843686F700020A2
:100EE000647269766572206D6F64653A090073708B
:100EF000726561644379636C6500737465616C74D9
:100F00006843686F700020647269766572206D6F47
:100F100064653A09007370726561644379636C6556
:100F200000737465616C746843686F70002064724C
:100F300069766572206D6F64653A09002074656D8D
:100F40007065726174757265207072657761726E1A
:100F5000207472696767657265643A200020746561
:100F60006D706572617475726520707265776172FB
:100F70006E207472696767657265643A2000207438
:100F8000656D7065726174757265207072657761E8
:100F9000726E207472696767657265643A2000201A
:100FA00074656D70657261747572652070726577B5
:100FB00061726E207472696767657265643A2000B9
:100FC000207072657761726E20666C616720636C59
:100FD00065617265640A00207072657761726E20C7
:100FE000666C616720636C65617265640A002070DD
:100FF00072657761726E20666C616720636C6561F3
:101000007265640A00207072657761726E20666C8A
:10101000616720636C65617265640A006F6B002014
:10102000204D323036205800486F6D65206F66665F
:10103000736574004361703A00434F4E4649475F01
:101040004558504F5254004D4541545041434B0078
:10105000434F4F4C45525F54454D504552415455B6
:101060005245004348414D4245525F54454D50451D
:1010700052415455524500424142595354455050F3
:10108000494E470041524353004D4F54494F4E5F24
:101090004D4F44455300544845524D414C5F5052CA
:1010A0004F54454354494F4E00455854454E4445CE
:1010B000445F4D323000435553544F4D5F464952C3
:1010C0004D574152455F55504C4F4144004C464EA0
:1010D0005F5752495445004C4F4E475F46494C4577
:1010E0004E414D45004155544F5245504F52545F6B
:1010F00053445F5354415455530053445F5752492E
:1011000054450052455045415400534443415244D4
:101110000050524F4D50545F535550504F52540051
:10112000484F53545F414354494F4E5F434F4D4DD9
:10113000414E445300454D455247454E43595F503B
:10114000415253455200434153455F4C494748542F
:101150005F4252494748544E45535300544F474706
:101160004C455F4C494748545300534F46545741F0
:1011700052455F504F574552004255494C445F50CD
:10118000455243454E54004C4556454C494E475FE9
:1011900044415441005A5F50524F42450052554E0F
:1011A0004F5554004155544F4C4556454C005052F4
:1011B000494E545F4A4F420050524F475245535395
:1011C000004155544F5245504F52545F54454D5075
:1011D000004155544F5245504F52545F504F5300A9
:1011E000564F4C554D455452494300454550524F7A
:1011F0004D0042494E4152595F46494C455F545259
:10120000414E534645520053455249414C5F584F59
:101210004E5F584F4646004649524D574152455F32
:101220004E414D453A4D61726C696E20627567663C
:1012300069782D322E302E7820284A756E20323271
:1012400020323032322031313A35393A32342920A5
:10125000534F555243455F434F44455F55524C3AB7
:101260006769746875622E636F6D2F4D61726C696A
:101270006E4669726D776172652F4D61726C696E31
:101280002050524F544F434F4C5F56455253494F95
:101290004E3A312E30204D414348494E455F545916
:1012A00050453A4A756C69612050726F20447561EF
:1012B0006C2045585452554445525F434F554E5447
:1012C0003A3220555549443A636564653261326665
:1012D0002D343161322D343734382D396231322D8D
:1012E0006335356336326633363766660A00203B2F
:1012F0000020204D3835312058005A2D50726F6231
:1013000065204F66667365740020573A0020573A8F
:101310000023646566696E652044454641554C541A
:101320005F004B6420004B6920004B702000504947
:1013300044204175746F74756E652066696E6973BB
:10134000686564212050757420746865206C617331
:1013500074204B702C204B6920616E64204B6420FC
:10136000636F6E7374616E74732066726F6D20624A
:10137000656C6F7720696E746F20436F6E66696766
:1013800075726174696F6E2E680A0050494420417D
:1013900075746F74756E65206661696C6564212073
:1013A00074696D656F75740A005049442041757405
:1013B0006F74756E65206661696C65642120546583
:1013C0006D706572617475726520746F6F206869E5
:1013D00067680A00204B643A2000204B693A2000DD
:1013E000204B703A200020436C6173736963205076
:1013F0004944200A002054753A2000204B753A20B9
:1014000000206D61783A2000206D696E3A2000203E
:10141000643A200020626961733A200050494420F8
:101420004175746F74756E652073746172740A000F
:10143000504944204175746F74756E65206661690A
:101440006C6564212054656D706572617475726598
:1014500020746F6F20686967680A00504944204112
:1014600075746F74756E65206661696C65642120A2
:10147000426164206865617465722069640A006F66
:1014800070656E00545249474745524544003A2022
:10149000007A5F70726F6265007A5F6D61780079C3
:1014A0005F6D617800785F6D696E005265706F7274
:1014B00074696E6720656E6473746F7020737461F5
:1014C0007475730A000080C54300002F440080CA71
:1014D0004300000000000000000000000020746FC6
:1014E0006F206C6F6E6720657874727573696F6EAC
:1014F0002070726576656E7465640A0020636F6C97
:101500006420657874727573696F6E207072657689
:10151000656E7465640A00000020C200002F44005C
:1015200080CA435761726E696E673A20486F6D6971
:101530006E672042756D702044697669736F722002
:101540003C20310A000202040080C54300002F4401
:101550000080CA430000A0400000A04000000040FE
:1015600000000001000000010000800055555500FA
:101570000000400033333300AAAA2A004992240015
:1015800000002000C7711C0099991900D14517006F
:10159000555515003BB113002449120011111100DB
:1015A000000010000F0F0F00E3380E0043790D000C
:1015B000CCCC0C00C3300C00E8A20B0064210B0063
:1015C000AAAA0A00703D0A009DD80900427B0900C2
:1015D00092240900DCD30800888808001042080023
:1015E00000000800F0C1070087870700755007005A
:1015F000711C07003EEB0600A1BC060069900600C6
:1016000066660600703E06006118060017F40500C5
:1016100074D105005BB00500B29005006272050050
:101620005555050078390500B81E0500050505006B
:101630004EEC040087D40400A1BD040090A7040070
:1016400049920400C17D0400EE690400C7560400FD
:10165000444404005C3204000821040041100400EA
:10166000000004003FF00300F8E0030026D203006E
:10167000C3C30300CCB503003AA803000A9B0300D0
:10168000388E0300C08103009F750300D0690300FA
:10169000505E03001D53030034480300913D0300D6
:1016A0003333030016290300381F03009715030086
:1016B000300C0300030303000BFA020049F102009F
:1016C000BAE802005CE002002DD802002DD0020032
:1016D00059C80200B0C0020031B90200DAB10200FC
:1016E000AAAA0200A0A30200BC9C0200FA95020074
:1016F0005C8F0200DF88020082820200457C0200CB
:101700002776020027700200436A02007C64020010
:10171000D05E02003F590200C8530200FFFDFCFAF0
:10172000F8F6F4F2F0EEECEAE9E7E5E3E1E0DEDC1E
:10173000DAD9D7D5D4D2D0CFCDCBCAC8C7C5C3C2CA
:10174000C0BFBDBCBAB9B7B6B4B3B2B0AFADACAA46
:10175000A9A8A6A5A4A2A1A09E9D9C9A9998979598
:10176000949392908F8E8D8B8A89888786848382CA
:1017700081807F7E7D7B7A797877767574737271DC
:10178000706F6E6D6C6B6A696867666564636261D1
:10179000605F5E5D5C5B5A595858575655545352BA
:1017A0005150504F4E4D4C4B4A4A4948474646458A
:1017B0004443424241403F3E3E3D3C3B3B3A393848
:1017C0003837363535343332323130302F2E2E2DF6
:1017D0002C2B2B2A29292827272625252423232299
:1017E000212120201F1E1E1D1C1C1B1B1A1919182D
:1017F00018171616151514131312121111100F0FB6
:101800000E0E0D0D0C0C0B0A0A0909080807070635
:10181000060505040403030202010000DB0FC93FB3
:1018200045BCDA3F8FB30240FCF02740569461403C
:10183000FE4B9B4084A5D840E0231841346A5641B2
:10184000E859974164DBD5416E271742B4B755423A
:10185000CE1A9742C8AED542B5885A43D40684BF43
:10186000A65FA7BF7443E0BF10B11AC01C2C58C0BC
:10187000E8F697C0B849D6C04E4E17C124D355C11B
:10188000802497C1A0B5D5C1121A17C244AE55C263
:10189000781797C26CACD5C267885AC320746F6F33
:1018A000206C6F6E6720657874727573696F6E2037
:1018B00070726576656E7465640A0020636F6C648F
:1018C00020657874727573696F6E207072657665C5
:1018D0006E7465640A00290A002062797465733B9E
:1018E00020637263200053657474696E67732053BC
:1018F000746F726564202800454550524F4D204951
:101900006E697469616C697A65640A004861726421
:10191000636F6465642044656661756C742053650B
:101920007474696E6773204C6F616465640020286D
:101930006D6D2900203B204C6576656C696E6720D3
:101940000020204D3432302053004175746F204206
:101950006564204C6576656C696E670020204D39A2
:101960003036002054302045005374657070657225
:10197000206472697665722063757272656E740098
:1019800020204D3536392053310054302045002079
:101990005800447269766572207374657070696E60
:1019A00067206D6F646500204A002020473239208F
:1019B0005720490020204D3134392043203B205509
:1019C0006E69747320696E2043656C736975730A60
:1019D0000054656D706572617475726520556E692D
:1019E0007473002020473231203B004C696E6561E2
:1019F0007220556E69747300454550524F4D2064F6
:101A000061746173697A65206572726F722E0A0063
:101A1000290A002062797465733B20637263200099
:101A20002073746F7265642073657474696E677374
:101A300020726574726965766564202800202863C9
:101A4000616C63756C6174656429210A0020213D15
:101A50002000454550524F4D20435243206D69733D
:101A60006D61746368202D202873746F726564291A
:101A700020002053697A653A2000496E6465783AFF
:101A8000200000004843000048430000A04100003F
:101A900034420000C8420000C842F0F7FB43000097
:101AA0000C43DC050000DC050000320000001027BC
:101AB0000000204D61726C696E3D563836290A006F
:101AC000454550524F4D2076657273696F6E206D9B
:101AD00069736D617463682028454550524F4D3DD0
:101AE0000024F4D43050C38E20C2A24017828B70E1
:101AF00011127A910D816CD90AA861E108C7586664
:101B000007615143061E4B5D05C145A7041A4111EB
:101B100004093D9803713931034036DB0265339186
:101B200002D4305402802E1D02632CEE01752AC5AA
:101B300001B028A001102781018F2564012B244BBF
:101B400001E0223401AC211F018D200D01801FFC1A
:101B500000841EED00971DDF00B81CD200E61BC6F6
:101B600000201BBC00641AB200B219A8000A19A018
:101B7000006A189900D117910040178B00B51684A0
:101B80000031167E00B31579003A157300C7146F43
:101B90000058146A00EE1366008813630025135E74
:101BA00000C7125B006C12570015125400C111518E
:101BB0000070114F0021114B00D61049008D1047C5
:101BC000004610440002104200C00F4000800F3E4B
:101BD00000420F3C00060F3B00CB0E3800930E373F
:101BE000005C0E3500270E3400F30D3200C10D31BC
:101BF00000900D3000600D2E00320D2D00050D2CD3
:101C000000D90C2B00AE0C2900850C29005C0C2798
:101C100000350C27000E0C2600E80B2400C40B2412
:101C200000A00B23007D0B23005A0B2100390B2150
:101C300000180B2000F80A1F00D90A1E00BB0A1E5C
:101C4000009D0A1D00800A1D00630A1C00470A1B34
:101C5000002C0A1B00110A1A00F7091A00DD0919E5
:101C600000C4091900AB091900920917007B091873
:101C700000630917004C09160036091600200916E2
:101C8000000A091500F5081500E0081400CC081436
:101C900000B8081400A4081400900813007D08126E
:101CA000006B08130058081200460812003408118F
:101CB00000230811001208110001081100F007109C
:101CC00000E0071000D0071000C0071000B0070F99
:101CD00000A107100091070E0083070F0074070F83
:101CE0000065070E0057070E0049070E003B070D61
:101CF000002E070E0020070D0013070D0006070D2C
:101D000000F9060C00ED060D00E0060C00D4060CF0
:101D100000C8060C00BC060C00B0060C00A4060BA4
:101D20000099060C008D060B0082060B0077060B4F
:101D3000006C060B0061060A0057060B004C060AF1
:101D40000042060A0038060A002E060A0024060A87
:101D5000001A060A001006090007060A00FD050918
:101D600000F4050900EB050900E2050900D90509A1
:101D700000D0050900C7050900BE050900B5050822
:101D800000AD050800A50509009C0508009405089C
:101D9000008C050800840508007C0508007405080F
:101DA000006C050700650508005D0507005605087D
:101DB000004E0507004705070040050800380507E5
:101DC00000310507002A050700230507001C05064A
:101DD00000160507000F05070008050600020507A5
:101DE00000FB040600F5040700EE040600E8040604
:101DF00000E2040700DB040600D5040600CF040659
:101E000000C9040600C3040600BD040600B70406AA
:101E100000B1040500AC040600A6040600A00405F9
:101E2000009B04060095040500900406008A040542
:101E30000085040500800406007A04050075040589
:101E400000700405006B04050066040500610405CC
:101E5000005C04050057040500520405004D04050C
:101E60000048040500430405003E0404003A04054C
:101E70000035040500300404002C04050027040488
:101E800000230405001E0404001A040400160405BF
:101E900000110404000D04040009040500040404F6
:101EA0000000040400FC030400F8030400F403042D
:101EB00000F0030400EC030400E8030400E403045E
:101EC00000E0030400DC030400D8030400D403048E
:101ED00000D0030400CC030400C8030300C50303BF
:101EE0000024F404D9201BC40C5C0E9804C4095FC0
:101EF0000265077101F405F900FB04B3004804878B
:101F000000C10369005803550003034500BE023AAF
:101F1000008402310053022A002902250004022015
:101F200000E4011C00C8011900AF0117009801145A
:101F30000084011300710110006101100051010EB5
:101F40000043010D0036010B002B010B0020010B9B
:101F500000150109000C01090003010800FB00083D
:101F600000F3000800EB000700E4000600DE0006B6
:101F700000D8000600D2000600CC000500C700050E
:101F800000C2000500BD000400B9000400B5000453
:101F900000B1000400AD000400A9000400A5000386
:101FA00000A20003009F0004009B000300980003B0
:101FB000009500020093000300900003008D0002D2
:101FC000008B0003008800020086000200840003EA
:101FD00000810002007F0002007D0002007B000201
:101FE0000079000200770001007600020074000210
:101FF0000072000100710002006F0002006D00011C
:10200000006C0002006A0001006900020067000124
:10201000006600010065000100640002006200012A
:102020000061000100600001005F0002005D00012E
:10203000005C0001005B0001005A00010059000132
:102040000058000100570001005600010055000132
:102050000054000100530000005300010052000131
:102060000051000100500001004F0001004E00002F
:10207000004E0001004D0001004C0001004B00002B
:10208000004B0001004A0001004900010048000027
:102090000048000100470001004600000046000122
:1020A000004500000045000100440001004300001D
:1020B0000043000100420000004200010041000016
:1020C0000041000100400001003F0000003F00010E
:1020D000003E0000003E0001003D0000003D000108
:1020E000003C0000003C0000003C0001003B000000
:1020F000003B0001003A0000003A000100390000F6
:1021000000390001003800000038000000380001EC
:1021100000370000003700010036000000360000E4
:1021200000360001003500000035000000350001D8
:1021300000340000003400000034000100330000CF
:1021400000330000003300010032000000320000C4
:1021500000320001003100000031000000310001B8
:10216000003000000030000000300001002F0000AF
:10217000002F0000002F0000002F0001002E0000A3
:10218000002E0000002E0001002D0000002D000098
:10219000002D0000002D0001002C0000002C00008C
:1021A000002C0000002C0001002B0000002B000080
:1021B000002B0000002B0001002A0000002A000074
:1021C000002A0000002A0001002900000029000068
:1021D000002900000029000000290001002800005B
:1021E000002800000028000000280000002800014E
:1021F0000027000000270000002700000027000043
:102200000027000100260000002600000026000034
:102210000026000000260001002500000025000027
:102220000025000000250000002500000025000119
:10223000002400000024000000240000002400000E
:102240000024000100230000002300000023000000
:1022500000230000002300000023000000230001F1
:1022600000220000002200000022000000220000E6
:1022700000220000002200010021000000210000D7
:1022800000210000002100000021000000210000CA
:1022900000210001002000000020000000200000BC
:1022A00000200000002000000020000000200000AE
:1022B00000200001001F0000001F0000001F0000A0
:1022C000001F0000001F0000001F0000001F000191
:1022D000001E0000001E0000001E0000001E000086
:1022E00000393000003325000087190000B00F00CE
:1022F00000DB080000BD040000740200003F010084
:1023000000423A0020436F756E7420413A00450048
:10231000626564002C2073797374656D2073746F2B
:102320007070656421204865617465725F49443A44
:10233000200048656174696E67204661696C656458
:102340000048656174696E67206661696C65640048
:102350001000600350012C0190012201D0011801EE
:1023600010020E0170020401E002FA006003F000A6
:102370000004E600B004DC00A005D200B006C800EE
:102380000008BE00A009B400800BAA00D00DA00078
:1023900090109600C0138C0070178200901B78007C
:1023A00010206E00C0246400E02D500080353C00F9
:1023B000A03A2800A03D1400003F0000A03FECFF21
:1023C0004572723A204D415854454D50004D415888
:1023D00054454D50207472696767657265640045A5
:1023E00072723A204D494E54454D50004D494E545D
:1023F000454D502074726967676572656400202FCF
:10240000002040002042403A0020403A00496E76C9
:10241000616C69642065787472756465720A004144
:1024200063746976652045787472756465723A20C4
:10243000001000C90210012C014001220170011896
:1024400001B0010E01F00104015002FA00B002F0E7
:10245000003003E600D003DC009004D2007005C811
:1024600000A006BE000008B400B009AA00D00BA06E
:1024700000600E960060118C000015820020197813
:1024800000C01D6E00A0226400B0275A00902C509E
:102490000000314600E0343C0010383200903A2809
:1024A00000603C1E00A03D1400803E0A00203F005A
:1024B000002020506C616E6E6572427566666572B2
:1024C00042797465733A20002046726565204D6537
:1024D0006D6F72793A200020436F6D70696C65648E
:1024E0003A204A756E20323220323032320A0020D1
:1024F0004C61737420557064617465643A203230A5
:1025000032322D30332D3134207C20417574686F88
:10251000723A2028467261636B74616C20576F7247
:102520006B732C2064656661756C7420636F6E66D6
:102530006967290A004D61726C696E206275676671
:1025400069782D322E302E780A0020536F6674770A
:102550006172652052657365740A00205761746367
:1025600068646F672052657365740A002042726F59
:10257000776E206F75742052657365740A0020456C
:10258000787465726E616C2052657365740A0050D0
:102590006F77657255700A0073746172740A002057
:1025A000503A00205A3A0020593A0020583A006523
:1025B0006E6473746F7073206869743A2000000051
:1025C0002100240027002A002D00300033000101E3
:1025D0000000040107010A0100000A0B02090C0DAA
:1025E0000E080703040100000000000000000000C6
:1025F00000000000000000000000000000000000DB
:102600000000000012111000000000000000000097
:1026100000000000000000000000000000000000BA
:1026200020002300260029002C002F00320000018A
:102630000000030106010901000022002500280016
:102640002B002E00310034000201000005010801BA
:102650000B01050505050705080808080202020226
:102660000A0A08080404040401010101010101012E
:102670000303030303030303040707070C0C0C0CF9
:102680000C0C0C0C020202020606060606060606E2
:102690000B0B0B0B0B0B0B0B01021020200808106F
:1026A00020401020408002010201080402010102C2
:1026B000040810204080804020100804020180049B
:1026C00002018040201008040201080402010102F6
:1026D0000408102040800102040810204080486F48
:1026E0006D696E67204661696C656400FF01015089
:1026F000726F62696E67204661696C65640A0020CA
:102700005A3A200020593A200042656420583A2065
:1027100000220A00556E6B6E6F776E20636F6D6DD1
:10272000616E643A202200204500205A00205900A2
:1027300020204D3932205800537465707320706525
:102740007220756E6974004572726F7220777269BB
:1027500074696E6720746F20454550524F4D210AB1
:1027600000544845524D414C2052554E4157415915
:1027700000546865726D616C2052756E6177617985
:1027800000486F6D65202573257325732046697297
:1027900073740020453A00205A3A0020593A0058F4
:1027A0003A006F6B0A00526573656E643A20003020
:1027B00078005072696E7465722068616C7465642B
:1027C0002E206B696C6C28292063616C6C65642118
:1027D0000A00B1B911241FBECFEFD1E2DEBFCDBFD9
:1027E00000E00CBF84B78093E91014BE0FB6F894D4
:1027F000A8958091600088618093600010926000CD
:102800000FBE13E0A0E0B2E0E4EBFDE901E00BBF96
:1028100002C007900D92A43CB107D9F720E1A4ECC7
:10282000B3E001C01D92A93EB207E1F713E1CAEE81
:10283000D3E100E006C021970109802FFE010E942C
:1028400090CBC93ED10780E00807A9F70E94A2BB40
:102850000C94D8CE0C940000EF92FF920F931F932C
:10286000E092D103F092D2030093D3031093D403E8
:102870006093D5037093D6038093D7039FEFFF2710
:10288000621B730B840B30F4809570956195790B06
:10289000890B99279093D003A6E06A9F0092C40306
:1028A000512DEE277A9F500DE11D8A9FE00D509328
:1028B000C503E093C603AFE06A9F0092C803512DA1
:1028C000EE277A9F500DE11D8A9FE00D5093C903BA
:1028D000E093CA03AAE06A9F0092CC03512DEE2731
:1028E0007A9F500DE11D8A9FE00D5093CD03E09338
:1028F000CE031F910F91FF90EF90089593E0980FF2
:1029000021E030E002C0220F331F9A95E2F72095B4
:10291000309590911B0B292320931B0B882321F0CA
:10292000813021F081E00895129AFCCF479AFACFC6
:1029300021E030E0082E02C0220F331F0A94E2F794
:102940002095309590911B0B292320931B0B8130F0
:1029500051F0823069F05F9A80913C0D8E7F8093B8
:102960003C0D81E008958A9A80913C0D8D7FF7CFD0
:1029700080910801809581708093060180913C0DC3
:102980008B7FEDCF9F92AF92BF92CF92DF92EF926B
:10299000FF920F931F93CF93DF9300D01F921F924C
:1029A000CDB7DEB7ECE1F7E10027BB27462F572F65
:1029B000A82FAA2341F4A52F542FB85FAA2319F4F6
:1029C000A52F5527B85FA03138F45295A295452F11
:1029D0004F70507FA42BBC5FA03428F4550FAA1F62
:1029E000550FAA1FBE5FA03818F4550FAA1FB39544
:1029F000550FAA1FEA0FF01F449151E0AA27B850C3
:102A000079F1C0F0B0FF02C0440F551FB1FF04C000
:102A1000440F551F440F551FB2FF06C052954295F3
:102A2000142F1F70407F512BB3FF1AC0A52F542FB6
:102A3000442716C0B195B0FF02C055954795B1FF28
:102A400004C05595479555954795B2FF05C05295D9
:102A5000407F4295452B5F70B3FF02C0452F55273D
:102A6000DD24CC24BB24B2E0649FD018C108B00A96
:102A7000B00B749FC018B108B00B849FB018B10997
:102A8000659FC018B108B00B759FB018B109859F3C
:102A9000B0196A9FB018B1097A9FB0194D9DA12C49
:102AA00099243327992722275D9DA00C911C301F64
:102AB000901F201FAD9D900C311D901F201F4C9D1D
:102AC000A00C911C301F901F201F5C9D900C311D8D
:102AD000901F201FAC9D300D911D201F4B9D900C11
:102AE000311D901F201F5B9D300D911D201FAB9D40
:102AF000900D211D4B9F300D911D201F5B9F900D50
:102B0000211DAB9F200DB1E0BB24CC24DD24639FAD
:102B1000D018C108B00AB00B739FC018B108B00B31
:102B2000839FB018B109699FC018B108B00B799F95
:102B3000B018B109899FB019629FB018B109729F8E
:102B4000B019D61AC70AB80A20F0B1E03B0F901F9F
:102B5000201F1124792F632F90E0822F0F900F9068
:102B60000F900F900F90DF91CF911F910F91FF90D9
:102B7000EF90DF90CF90BF90AF909F900895AF926D
:102B8000BF92CF92DF92EF92FF920F931F93CF935A
:102B9000DF93C0E4DDE004EA14E080E5A82E8DE0D8
:102BA000B82EC12CD12C7601C39469917991899169
:102BB00099910E9430C7288939894A895B890E9486
:102BC00091C70E942ACDF8016193719381939193EB
:102BD0008F01C616D706E806F90610F46B017C01D2
:102BE000AC16BD0611F76FEF7FEFCB01A701960181
:102BF0000E9406CB2093B4043093B5044093B604EE
:102C00005093B704DF91CF911F910F91FF90EF90F8
:102C1000DF90CF90BF90AF9008957F928F929F9258
:102C2000AF92BF92CF92DF92EF92FF920F931F93DA
:102C3000CF93DF9370905D0ACCE8D4E096E2C92E82
:102C400092E0D92E2AE2E22E22E0F22E05E51AE0E9
:102C5000772009F45EC0F80180809180A280B38063
:102C600020E030E0A901C501B4010E942CC78823EF
:102C700009F44FC020E030E040E05FE3C501B4015B
:102C80000E9491C79B01AC010E9491C72BED3FE0D0
:102C900049E450E40E9491C79B01AC0160E070E000
:102CA00080E89FE30E94BDCC4B015C018992999220
:102CB000A992B992F601619171916F01072E000CF2
:102CC000880B990B0E9432C72AE037ED43E25CE3A0
:102CD0000E9491C7A50194010E9491C7F7016193D9
:102CE0007193819391937F010C5F1F4FF4E0C4397E
:102CF000DF0709F0ADCFDF91CF911F910F91FF90CA
:102D0000EF90DF90CF90BF90AF909F908F907F908B
:102D10000895812C912C80E8A82E8FE3B82EC6CF81
:102D20008091DA0F9091DB0F891B8F7019F490E07E
:102D300080E008959091D70F992351F0833030F4BB
:102D40008FEF890F19F08093D70FF1CF1092D70F23
:102D50008091DB0F28E5829FC001112487539B4F90
:102D6000FC01208120FDE3CF2091DB0F2F5F2F702E
:102D70002093D80F3091DB0F2091D90F321304C06C
:102D80002091D80F2093D90F0895FC017081472F0F
:102D900050E0062E02C0559547950A94E2F740FF91
:102DA00014C040916F0B50E0062E02C05595479518
:102DB0000A94E2F740FF09C021E030E001C0220F91
:102DC0006A95EAF72095272320830895CF93DF9310
:102DD00024E0829FC0011124EC01C657D24FFC01B0
:102DE000ED55F44F80589B4FDC012D913D914D9155
:102DF0005C9160817181828193810E94E1CB6883C3
:102E000079838A839B83DF91CF91089580917C049D
:102E100090917D04A0917E04B0917F048093540230
:102E200090935502A0935602B093570280917A0472
:102E300090917B04909325028093240208958091C1
:102E4000540290915502A0915602B091570280937E
:102E50007C0490937D04A0937E04B0937F048091C2
:102E600024029091250290937B0480937A0484E657
:102E700090E090932502809324020895CF93DF93EE
:102E800090916D0491111BC0C0912202D091230238
:102E9000219797E1899FF0011124EF5BF44F20E027
:102EA00030E040E05FE364817581868197810E9414
:102EB000E1CB0E9425CD21E06C177D070CF020E0CE
:102EC000822FDF91CF91089590E080E008952091C6
:102ED0003604833021F425FD0CC024FD0CC030E005
:102EE000A90102C0559547958A95E2F7CA018170FC
:102EF000089581E0089580E008958091520484FD52
:102F00000BC08091540487FD07C0909155049370C5
:102F100081E019F480E0089581E008952FEB280FF7
:102F20002A3108F047C0E22FF0E0809152049091DE
:102F30005304A0915404B091550404C0B695A795CC
:102F4000979587952A95D2F780FD02C081700895E4
:102F5000E85CFB4FE081EE2341F180913E0D9091C2
:102F60003F0DE80FF92FF11D808190ED980F9A30F9
:102F700030F08E3251F4818180538A3098F4F0938E
:102F80003304E093320481E008958D3211F08B32E6
:102F900049F4818190ED980F9A3088F38E3211F4C4
:102FA0008281EACFF0E0E0E0EACF109233041092A1
:102FB0003204E9CF80E00895B1DF882341F081E059
:102FC0002091320430913304232B09F480E00895DA
:102FD000FC01DB0112962D913D914C9114972283B7
:102FE0003383448315968C911597858316962D917E
:102FF0003D914C91189726833783408719964D91C0
:103000005D916D917C911C9741875287638774878E
:103010001D964D915D916D917C9150974587568796
:103020006787708B8FE993E09183808351968D91B0
:103030009C915297928B818B53964D915D916D919E
:103040007C915697438B548B658B768B57968C91DE
:103050005797878B58968D919C915997918F808F18
:103060005A968D919C915B97938F828F5C968D91F0
:103070009C915D97958F848F5E964D915D916D913A
:103080007C919197468F578F60A371A392964D9133
:103090005D916D917C91959742A353A364A375A311
:1030A00096964D915D916D917C91999746A357A30A
:1030B00060A771A79A968D919C919B9793A782A7E1
:1030C0009C968D919C919D9795A784A79E968D9196
:1030D0009C919F9797A786A7D0968D919C91D19709
:1030E00091AB80ABD2968C9182AB0895CF92DF9258
:1030F000EF92FF920F931F93CF93DF9300D000D0F6
:103100001F921F92CDB7DEB7DC01ED91FC910084D8
:10311000F185E02D1995AB01BC01072F112722275E
:10312000332749835A836B837C838D8140FB80F9ED
:103130006A017B01F694E794D794C794C0FA81F9A9
:103140008D836A017B01BCE3CB22DD24EE24FF24C6
:1031500091E0CD28CE28CF2809F490E08D8190FB16
:1031600082F906FB85F907FB86F98F77762F7F7149
:1031700029813A814B815C81682F8F8198852896BF
:103180000FB6F894DEBF0FBECDBFDF91CF911F9178
:103190000F91FF90EF90DF90CF9008958F929F92C4
:1031A000AF92BF92CF92DF92EF92FF92C090A60AA9
:1031B000D090A70AE090A80AF090A90A20E030E099
:1031C000A901C701B6010E942CC78823E1F1A7011C
:1031D000960160E070E080E89FE30E94BDCC6B0147
:1031E0007C018090AA0A9090AB0AA090AC0AB090A3
:1031F000AD0A20E030E0A901C501B4010E942CC74E
:10320000882329F1A501940160E070E080E89FE344
:103210000E94BDCCC0921F04D0922004E0922104F1
:10322000F092220460932304709324048093250475
:1032300090932604FF90EF90DF90CF90BF90AF90D7
:103240009F908F900895C12CD12C7601CACF60E059
:1032500070E0CB01DFCF2F923F924F925F926F923F
:103260007F928F929F92AF92BF92CF92DF92EF9216
:10327000FF920F931F93CF93DF93CDB7DEB72E97B7
:103280000FB6F894DEBF0FBECDBF8A83162F4983D9
:10329000822E262F30E03A872987E4E08E9FC001F6
:1032A00011249C878B87FC01E20FF31FEE0FFF1F99
:1032B000EE0FFF1FE25AF54F608171818281938189
:1032C0009B01AC010E948DCE882309F42EC19A8106
:1032D000E9819E0F882D810F24E0929FF001112437
:1032E000A985BA85AE0FBF1FAA0FBB1FAA0FBB1FB0
:1032F000A25AB54FAC901196BC9011971296CC90F3
:1033000012971396DC903981930F24E0929FA001CD
:103310001124A985BA85A40FB51FAA0FBB1FAA0F38
:10332000BB1FA25AB54FEC901196FC9011971296C4
:103330000C91129713961C91282F30E0AB85BC8519
:10334000A20FB31FAA0FBB1FAA0FBB1FA25AB54FD4
:103350009C9011967C90119712966C9012971396F0
:103360005C90880D90E0AB85BC85A80FB91FAA0FB3
:10337000BB1FAA0FBB1FA25AB54F8C9011964C9041
:10338000119712963C90129713962C90E20FF31F10
:10339000EE0FFF1FEE0FFF1FE25AF54F308139830A
:1033A00021812A8332813B8323812C83FA01E80F18
:1033B000F91FEE0FFF1FEE0FFF1FE25AF54F30818E
:1033C0003D8381818E8392819F832381288797010A
:1033D000A801B701C8010E948DCE882321F0E12CFD
:1033E000F12C00E010E09501A601B501C6010E9494
:1033F0008DCE882311F057016801282D342D432DDF
:10340000522D682D742D832D922D0E948DCE8823F0
:1034100021F0812C412C312C212C292D372D462DAA
:10342000552D692D772D862D952D0E948DCE8823C3
:1034300021F0982C742C632C522C2D813E814F81CD
:1034400058856D817E818F8198850E948DCE8823DD
:1034500021F01D821E821F82188629813A814B81AC
:103460005C8169817A818B819C810E948DCE8823C9
:1034700041F03D8139838E818A839F819B83E885DA
:10348000EC832B853C8589859A85280F391F220F6F
:10349000331F220F331F225A354F3A872987950150
:1034A000A601B501C6010E94E1CB9701A8010E94C7
:1034B000E0CB6B017C01292D372D462D552D692D33
:1034C000772D862D952D0E94E1CB282D342D432D6F
:1034D000522D0E94E0CB9B01AC01C701B6010E94B6
:1034E000E1CB6B017C0129813A814B815C8169814F
:1034F0007A818B819C810E94E1CB2D813E814F811D
:1035000058850E94E0CB9B01AC01C701B6010E9427
:10351000E1CB20E030E040E450E40E94BDCCE985FE
:10352000FA8560837183828393832E960FB6F89415
:10353000DEBF0FBECDBFDF91CF911F910F91FF90E6
:10354000EF90DF90CF90BF90AF909F908F907F9043
:103550006F905F904F903F902F900895882319F0BF
:10356000813021F0089580E00C94CBB84798809189
:103570001B0B806180931B0B08954091B20A21E0E0
:1035800042276CE070E00C946DA04091B20A21E0FB
:10359000422761E070E00C946DA04091B20A21E0F6
:1035A000422761E070E00C946DA04091B20A21E0E6
:1035B000422768E070E00C946DA04091B20A21E0CF
:1035C00042276CE070E00C946DA04091B20A21E0BB
:1035D000422764E070E00C946DA041E061E070E08F
:1035E0000C946DA04091B20A21E042270C946DA08A
:1035F0006CE070E00C948FA661E070E00C948FA6F4
:1036000061E070E00C948FA66CE070E00C948FA6E3
:1036100064E070E00C948FA60F931F93CF93DF9319
:1036200004E51DE0C9EBD4E0F8012191319141910D
:1036300051918F0160E070E080E89FE30E94BDCC73
:103640006993799389939993F4E0C93CDF0761F713
:103650000E9449A0DF91CF911F910F9190CA2F92A4
:103660003F924F925F926F927F928F929F92AF9212
:10367000BF92CF92DF92EF92FF920F931F93CF935F
:10368000DF93CDB7DEB76C970FB6F894DEBF0FBEF1
:10369000CDBF8C015B015A834983FC01E95BFF4F7D
:1036A000208131814281538129873A874B875C870A
:1036B000CA01B9010E9430C76B017C01D5012D916F
:1036C0003D914D915C910E9491C70E94A7CC2B0126
:1036D0003C01E981FA812081318142815381C70116
:1036E000B6010E9491C70E94A7CC4B015C01C301A7
:1036F000B2010E942ACD698B7A8B8B8B9C8B6837A9
:1037000071058105910540F428E730E040E050E084
:10371000298B3A8B4B8B5C8BC501B4010E942ACD5F
:103720006D877E878F87988B683771058105910536
:1037300040F448E750E060E070E04D875E876F87B7
:10374000788BF801ED5AFF4F408051806280738082
:10375000C301B2010E9432C769837A838B839C8341
:1037600069897A898B899C890E9430C76D8B7E8B91
:103770008F8B988F20E030E0A90169817A818B815D
:103780009C810E942CC7882309F4E1C1A7019601FE
:10379000C701B6010E9491C74B015C012D893E898A
:1037A0004F89588DCA01B9010E9491C79B01AC0194
:1037B000C501B4010E94E0CB4B015C0129813A8133
:1037C0004B815C81CA01B9010E94E1CB9B01AC0134
:1037D000C501B4010E94BDCC0E94A7CC0E942ACD95
:1037E0006D837E838F83988766277727CB01641943
:1037F0007509860997090E9432C74B015C016D85E6
:103800007E858F8598890E9430C72B013C0120E07E
:1038100030E0A901C501B4010E942CC7882309F436
:103820009AC1A3019201C301B2010E9491C7698F9D
:103830007A8F8B8F9C8FA7019601C701B6010E94DA
:1038400091C79B01AC01698D7A8D8B8D9C8D0E94F7
:10385000E0CB6B017C01A5019401C501B4010E947C
:10386000E1CB9B01AC01C701B6010E94BDCC0E9417
:1038700056CDD80195968D909D90AD90BC9098971F
:10388000750164012D813E814F815885C21AD30A8A
:10389000E40AF50A0E942ACDC61AD70AE80AF90AEC
:1038A000F7FE8EC02D893E894F89588DCA01B90116
:1038B0000E9491C76B017C0129813A814B815C8117
:1038C000CA01B9010E94E1CB69877A878B879C87FF
:1038D00020E030E0A90169817A818B819C810E947E
:1038E0002CC7882309F43BC1C501B4010E9430C72D
:1038F00029853A854B855C850E9491C7A701960171
:103900000E94E0CB6D837E838F839887A301920111
:10391000C301B2010E9491C79B01AC016D817E8100
:103920008F8198850E94E1CB2B013C0120E030E0A3
:1039300040E850E469817A818B819C810E9491C723
:103940009B01AC01C301B2010E94BDCC0E94A7CC77
:103950002B013C0120E030E0A9010E9407CE18169F
:103960001CF0412C512C3201C301B2010E942ACD1E
:103970006D837E838F83988786169706A806B9067F
:1039800020F48D829E82AF82B8866D817E818F8188
:1039900098850E9430C729853A854B855C850E94B1
:1039A00091C7A70196010E94E1CB0E944CCE0E94D4
:1039B0002ACD69877A878B879C87C12CD12C760189
:1039C00069857A858B859C8529893A894B895C89AB
:1039D000621B730B840B950B0E9430C729813A81BF
:1039E0004B815C810E94BDCC20E034E244EF59E47D
:1039F0000E9491C70E942ACD4B015C0169857A859E
:103A00008B859C852D853E854F855889621B730B60
:103A1000840B950B0E9430C729813A814B815C81D0
:103A20000E94BDCC20E034E244EF59E40E9491C7EB
:103A30000E942ACD2B013C013FE683169104A1048C
:103A4000B10408F090C0F401EE0FFF1FEE0FFF1F4E
:103A5000E05AFA4E85919591A591B4918983292ECA
:103A60003A2EBD8B4FE6441651046104710408F0F0
:103A700083C0F201EE0FFF1FEE0FFF1FE05AFA4E58
:103A800045915591659174919A01CB014D815E816B
:103A90006F817885D8019A964D935D936D937C9351
:103AA0009D974C0D5D1D6E1D7F1DF80146A757A704
:103AB00060AB71ABE55BFF4F49895A896B897C89A3
:103AC0004083518362837383D6968D929D92AD928B
:103AD000BC92D997F80142AE53AE64AE75AEFE9675
:103AE00049814083218232825D89538334962083C9
:103AF00031838283938369857A858B859C85D29671
:103B00006D937D938D939C93D5973D962D853E85A2
:103B10004F85588920833183428353836C960FB637
:103B2000F894DEBF0FBECDBFDF91CF911F910F91F3
:103B3000FF90EF90DF90CF90BF90AF909F908F90CD
:103B40007F906F905F904F903F902F90089560E02E
:103B500070E0CB0141CE60E070E0CB0188CE60E048
:103B600070E0CB01F3CEC501B4010E94C214698399
:103B7000272E382E9D8B76CFC301B2010E94C2142E
:103B80009B0184CF4F925F926F927F928F929F9210
:103B9000AF92BF92CF92DF92EF92FF920F931F935B
:103BA000CF93DF93EC0120919E0A30919F0A4091C0
:103BB000A00A5091A10A688179818A819B810E9423
:103BC000E0CB6B017C012091A20A3091A30A4091C5
:103BD000A40A5091A50A6C817D818E819F810E94EB
:103BE000E0CB4B015C01A70196016091030270914B
:103BF000040280910502909106020E942CC788233E
:103C000009F450C0C0920302D0920402E09205026F
:103C1000F092060220911F0430912004409121046B
:103C200050912204C701B6010E9491C72B013C01AB
:103C30000E9456CD6B017C0120E030E0A9010E947A
:103C40002CC787FD70C020E030E040E050E4C701A1
:103C5000B6010E9407CE18162CF4C12CD12CE12CF1
:103C6000A0E4FA2EA7019601C301B2010E94E0CBA5
:103C700060931704709318048093190490931A04A6
:103C8000C701B6010E9425CD60931504062E000CD5
:103C9000770B6F5F7F4F6330710514F063E070E066
:103CA00060931304D0910102C0911504A501940101
:103CB00060910702709108028091090290910A02B6
:103CC0000E942CC7811133C0DC1381C02091FB03FB
:103CD0003091FC034091FD035091FE036091170465
:103CE000709118048091190490911A040E9491C750
:103CF0002091FF033091000440910104509102048F
:103D00000E94E1CBDF91CF911F910F91FF90EF9037
:103D1000DF90CF90BF90AF909F908F907F906F90EB
:103D20005F904F900895C12CD12C76019BCF80924B
:103D3000070290920802A0920902B0920A02209112
:103D40002304309124044091250450912604C50198
:103D5000B4010E9491C74B015C010E9456CD6B01DA
:103D60007C0120E030E0A9010E942CC787FDF4C04F
:103D700020E030E040E050E4C701B6010E9407CEE9
:103D800018162CF4C12CD12CE12CF0E4FF2EA70145
:103D90009601C501B4010E94E0CB60931B047093AF
:103DA0001C0480931D0490931E04C701B6010E9459
:103DB00025CD60931604062E000C770B6F5F7F4FA6
:103DC0006330710514F063E070E0609314040091B7
:103DD0001604DC1305C080910202801709F471C03B
:103DE0008091150490911604909302028093010231
:103DF000002E000C110B24E0C202C0011124FC01B2
:103E0000E00FF11FEE0FFF1FEE0FFF1FE25AF54FFD
:103E1000208131814281538120930F04309310041B
:103E20004093110450931204C09114040C2E000C02
:103E3000DD0BFC01EC0FFD1FEE0FFF1FEE0FFF1F50
:103E4000E25AF54F60817181828193810E94E0CBBB
:103E500060930B0470930C0480930D0490930E04F4
:103E60008091130424E08202C0011124FC01E00FC0
:103E7000F11FEE0FFF1FEE0FFF1FE25AF54F2081DB
:103E80003181428153812093070430930804409389
:103E9000090450930A04C80FD91FCC0FDD1FCC0FA3
:103EA000DD1FC25AD54F688179818A819B810E942A
:103EB000E0CB609303047093040480930504909313
:103EC000060480901B0490901C04A0901D04B090E8
:103ED0001E0420910B0430910C0440910D0450916C
:103EE0000E04C501B4010E9491C720910F043091C6
:103EF000100440911104509112040E94E1CB6B0117
:103F00007C01C092FF03D0920004E0920104F09281
:103F1000020420910304309104044091050450915F
:103F20000604C501B4010E9491C720910704309195
:103F300008044091090450910A040E94E1CBA701B2
:103F400096010E94E0CB6093FB037093FC03809387
:103F5000FD039093FE03BACEC12CD12C760117CF6E
:103F6000CF93DF932091700B222371F0EC010ADED6
:103F70009B01AC01688579858A859B850E94E0CB91
:103F8000688779878A879B87DF91CF9108950F9300
:103F90001F9380916B04813019F50E944EA7009108
:103FA0006304109164042091650430916604601BE1
:103FB000710B820B930B28EE33E040E050E00E943F
:103FC00006CB60915F0470916004809161049091D0
:103FD0006204620F731F841F951F1F910F91089534
:103FE00060916704709168048091690490916A04FB
:103FF000D6CF2F923F924F925F926F927F928F9285
:104000009F92AF92BF92CF92DF92EF92FF920F9367
:104010001F93CF93DF93162F072F242EFC01808050
:104020009180A280B380C501B40120E13EE040E070
:1040300050E00E9406CBE22ED32EC22FD32F8CE36A
:10404000482E512C612C712CC501B401A3019201A1
:104050000E9406CBC62E372ECA01B901A3019201D8
:104060000E9406CBF62E772E222059F1C501B4010D
:1040700020E831E541E050E00E9406CB69017F92E3
:10408000FF92CE0168E170E00E9469CB9F938F930D
:104090003F932F938FE794E09F938F930F931F93FA
:1040A0000E94FDC6EDB7FEB73A960FB6F894FEBF74
:1040B0000FBEEDBF88E0FAE0CF16D104C8F089E06A
:1040C00017C0209741F53F92CF927F936F9383E77C
:1040D00094E09F938F930F931F930E94FDC68DB71B
:1040E0009EB708960FB6F8949EBF0FBE8DBF85E0B1
:1040F000DF91CF911F910F91FF90EF90DF90CF90C4
:10410000BF90AF909F908F907F906F905F904F90F7
:104110003F902F900895C436D105A8F47F936F93F4
:10412000DF92EF9287E694E09F938F930F931F9314
:104130000E94FDC6EDB7FEB738960FB6F894FEBFE5
:104140000FBEEDBFD4CF7F936F93DF92EF928DE5DB
:1041500094E09F938F930F931F930E94FDC68DB79A
:104160009EB708960FB6F8949EBF0FBE8DBF86E02F
:10417000BFCF8091320490913304009731F04AE030
:1041800050E070E060E00C946CC460E070E0CB0143
:104190000895EFDF97FD0AC0ECDF6F3F71058105E1
:1041A000910509F02CF4E5DF862F089580E008954D
:1041B0008FEF0895CF93C62F0E94DC17882311F04C
:1041C000CF91E7CF8C2FCF910895809132049091B9
:1041D0003304892B39F0DDDF91E0811101C090E0DB
:1041E000892F089591E0FCCFCF93DF93C82FD62F6E
:1041F0000E94DC17882319F0DF91CF91E6CF8C2F36
:104200000E948E17811101C08D2FDF91CF910895EB
:10421000B0DFCB010895CF93DF93EB010E94DC1751
:10422000882319F0DF91CF91F3CFCE01DF91CF91A9
:1042300008950F931F93CF9380913204909133048C
:104240000097E9F0FC018F01C1912C2F2F7D81F0A7
:10425000C53411F0C536B9F7F801108270E060E09E
:104260000E9417C3F801C083CF911F910F91089549
:1042700070E060E0CF911F910F910C9417C360E044
:1042800070E0CB01F1CFCF92DF92EF92FF926A0103
:104290007B010E94DC17882329F0FF90EF90DF90CC
:1042A000CF90C7CFC701B601FF90EF90DF90CF90BE
:1042B00008958F929F92AF92BF92CF92DF92EF922A
:1042C000FF920F931F93CF938DE8E82E8BE0F82E8B
:1042D0000EE612E09AE8C92E9DE0D92EC0E088E5EE
:1042E0008C0F0E94DC17882309F477C0A2DF4B01F2
:1042F0005C018C2F0E946717882309F464C0F801C1
:104300002081318142815381C501B4010E94E1CBFA
:10431000F7016083718382839383CF5FF4E0EF0EB4
:10432000F11C0C5F1F4F84E0C80ED11CC330B9F6DE
:1043300085E40E94DC17882309F45AC07ADF6B01F8
:104340007C0183E00E946717882371F020917A0234
:1043500030917B0240917C0250917D02C701B601F1
:104360000E94E1CB6B017C01C092990BD0929A0B19
:10437000E0929B0BF0929C0B40E050E0BA0186E487
:1043800082DF20E030E0A9010E9407CE18167CF4FD
:1043900050DF20E030E040E752E40E94BDCC609363
:1043A0005402709355028093560290935702CF9116
:1043B0001F910F91FF90EF90DF90CF90BF90AF9043
:1043C0009F908F900895F601208131814281538121
:1043D000C501B4010E94E0CB9BCFF801808191819F
:1043E000A281B381F70180839183A283B38395CFA8
:1043F00080917A0290917B02A0917C02B0917D0223
:104400008093990B90939A0BA0939B0BB0939C0B6A
:10441000B3CFCF92DF92EF92FF920F931F93CF9380
:10442000DF936B017A01EC01C452DC4F28813CE040
:10443000389F8001399F100D112427FF24C0FB01F4
:104440001182108288818F5F888388819801280F6C
:10445000311D87FD3A95C9012091C50FF601281736
:10446000190629F024F088818C300CF43CC080813E
:104470009181049680349C4908F475C0F6018081CE
:104480009181049672C088819801280F311D87FDA3
:104490003A95C9012091C50F2817190699F294F28F
:1044A0008881A801480F511D87FD5A95FA01EE0F2A
:1044B000FF1FE40FF51FE358F04F808187FFC2CF45
:1044C0008881F801E80FF11D87FDFA95CF01EE0F05
:1044D000FF1FE80FF91FE358F04F808160E08F77EE
:1044E0000E94E6A4AFCF808191812881A801420F6C
:1044F000511D27FD5A959A01FA01EE0FFF1FE20F99
:10450000F31FE358F04F21813281820F931FF7018F
:104510009183808388819801280F311D87FD3A950A
:10452000F901EE0FFF1FE20FF31FE358F04F8081F8
:1045300087FF20C08881080F111D87FD1A95F8019B
:10454000EE0FFF1FE00FF11FE358F04F808161E095
:104550008F77DF91CF911F910F91FF90EF90DF90B8
:10456000CF900C94E6A480E49CE9F70191838083CA
:104570008FEF8883DF91CF911F910F91FF90EF9084
:10458000DF90CF9008950F930FB70F9300916E00B7
:104590000F930D7F00936E0000916F000D7F0093CD
:1045A0006F000F930BB70F930CB70F921F922F93BF
:1045B0003F934F935F936F937F938F939F93AF93AB
:1045C000BF93EF93FF93112442D4FF91EF91BF91DA
:1045D000AF919F918F917F916F915F914F913F919B
:1045E0002F911F900F900CBF0F910BBF0F91026086
:1045F000F89400936F000F9100936E000F910FBF1E
:104600000F91189500C000C08091A00B80FF28C0BA
:10461000899A8FEF8093B40A8091A00B81FF23C009
:104620008F9A8FEF8093B50A8091A00B82FF1EC0F6
:1046300080910B0180958270809309018FEF8093A8
:10464000B60A8091B80A9091A00B93FF18C081110F
:1046500014C016988FEF8093B70A00C000C0089569
:10466000899881E0D7CF8F9881E0DCCF80910B01D2
:1046700082708093090181E0E2CF439AEBCF8111F0
:1046800003C0169A81E0E7CF4398FCCF80E00E94F8
:104690007E1481E00C947E1480E00E94981481E0E6
:1046A0000E94981482E00E949814F0CF813079F033
:1046B000823079F05F9821E030E001C0220F8A95C6
:1046C000EAF780911B0B822B80931B0B08958A982D
:1046D000F2CF90910801917090930601ECCFCF93A7
:1046E000DF932091700B222371F0EC014BDA9B01D8
:1046F000AC01688579858A859B850E94E1CB6887B6
:1047000079878A879B87DF91CF91089590916F0079
:1047100081E091FD02C080E0089590916F009D7F3F
:1047200090936F000895EFE6F0E0808182608083CF
:1047300008958F929F92AF92BF92CF92DF92EF92A5
:10474000FF920F931F93CF93DF93182F84E0189F4E
:10475000E0011124123008F046C0D8DF082FD6DF60
:1047600080900B0B90900C0BA0900D0BB0900E0B4B
:104770008111D9DFCBDFC0900F0BD090100BE090F0
:10478000110BF090120B8111CEDF0111CCDF113033
:1047900019F5C501B4016C197D098E099F090E94A4
:1047A00032C720E030E040E05FE30E9491C7C75489
:1047B000DB4F288139814A815B810E9491C7DF915B
:1047C000CF911F910F91FF90EF90DF90CF90BF900E
:1047D000AF909F908F900895C701B601680D791D25
:1047E0008A1D9B1DDCCF92DFFE01E55FF44FC08088
:1047F000D180E280F380811196DFC701B6010E946B
:1048000032C7D5CFCF92DF92EF92FF92CF93DF9353
:10481000C82F7CDF94E0C99FE0011124FE01E15024
:10482000F54FC080D180E280F38081117CDFC754D6
:10483000DB4FC701B6010E9432C7288139814A8106
:104840005B810E9491C7DF91CF91FF90EF90DF9045
:10485000CF900895CF93DF93CDB7DEB72C970FB6E7
:10486000F894DEBF0FBECDBF0E94939F4FDF9CE048
:10487000EBE0FBE0DE01119601900D929A95E1F7D5
:10488000811151DFCE0101960E94D9B82C960FB646
:10489000F894DEBF0FBECDBFDF91CF910895CF93C7
:1048A000DF931F92CDB7DEB7898360E0CE0101961A
:1048B0000E94C51661E0CE0101960E94C51662E015
:1048C000CE0101960E94C51689810F90DF91CF918C
:1048D00008958F929F92AF92BF92CF92DF92EF9204
:1048E000FF92CF93DF9320913A02222309F48EC0E6
:1048F000EC0180916F0BE82E80FF2CC080903C0271
:1049000090903D02A0903E02B0903F0228813981F4
:104910004A815B81C501B4010E9407CE181624F4B8
:1049200088829982AA82BB82809048029090490234
:10493000A0904A02B0904B02288139814A815B8164
:10494000C501B4010E942CC787FF04C088829982E8
:10495000AA82BB82E1FE2CC080904002909041026E
:10496000A0904202B09043022C813D814E815F8134
:10497000C501B4010E9407CE181624F48C829D82D2
:10498000AE82BF8280904C0290904D02A0904E0269
:10499000B0904F022C813D814E815F81C501B401F1
:1049A0000E942CC787FF04C08C829D82AE82BF828A
:1049B000E2FE2CC0C0904402D0904502E090460236
:1049C000F0904702288539854A855B85C701B60185
:1049D0000E9407CE181624F4C886D986EA86FB867C
:1049E000C0905002D0905102E0905202F0905302D9
:1049F000288539854A855B85C701B6010E942CC789
:104A000087FF04C0C886D986EA86FB86DF91CF91EE
:104A1000FF90EF90DF90CF90BF90AF909F908F90DE
:104A20000895CF92DF92EF92FF920F931F93CF934F
:104A3000DF93E82FF0E0EF01CC0FDD1FCC0FDD1F7F
:104A4000461739F0823009F049C0C12CD12C7601CB
:104A500017C08230D1F3A0913A0D8A2F90E0DC018B
:104A6000AA0FBB1FA80FB91FAE0FBF1FAA0FBB1FF6
:104A7000AA0FBB1FAB58B44FCD90DD90ED90FC90CA
:104A80008F01000F111F000F111FF801EF52FB4E95
:104A90002591359145915491C65CDD4FC701B60112
:104AA0000E94E1CB6A837B838C839D83F801EB5367
:104AB000FB4E2591359145915491C701B6010E9455
:104AC000E1CB6E877F87888B998BDF91CF911F9188
:104AD0000F91FF90EF90DF90CF90089550E0DA01B2
:104AE000AA0FBB1FA40FB51FAE0FBF1FAA0FBB1F7E
:104AF000AA0FBB1FAB58B44F862F90E0BC01660FC6
:104B0000771F680F791FE60FF71FEE0FFF1FEE0FDD
:104B1000FF1FEB58F44F20813181428153816D9109
:104B20007D918D919C910E94E0CB6B017C01C65CD4
:104B3000DD4FAC019B016A817B818C819D810E944C
:104B4000E1CB6A837B838C839D83A70196016E856D
:104B50007F8588899989B3CF4F925F926F927F92B8
:104B60008F929F92AF92BF92CF92DF92EF92FF927D
:104B7000CF9340906E0250906F02609070027090E0
:104B800071028090720290907302A0907402B090B3
:104B90007502C0907602D0907702E0907802F09093
:104BA00079020E94BF150E940D16C0E08C2F0E9452
:104BB000E61640E060E08C2F34DFCF5FC330B1F702
:104BC0000E94CE180E940C1BA301920160916E02FC
:104BD00070916F0280917002909171020E942CC7B7
:104BE00081111CC0A5019401609172027091730241
:104BF00080917402909175020E942CC781110EC0A1
:104C0000209176023091770240917802509179029A
:104C1000C701B6010E942CC7882371F0CF91FF9085
:104C2000EF90DF90CF90BF90AF909F908F907F904C
:104C30006F905F904F900ECECF91FF90EF90DF90EE
:104C4000CF90BF90AF909F908F907F906F905F902C
:104C50004F9008958F929F92AF92BF92CF92DF9222
:104C6000EF92FF921F93CF93DF93CDB7DEB760979C
:104C70000FB6F894DEBF0FBECDBF182F80E059DD10
:104C80004B015C0180926E0490926F04A0927004BC
:104C9000B092710481E04DDD6B017C01C092720421
:104CA000D0927304E0927404F092750482E041DDC6
:104CB00060937604709377048093780490937904DA
:104CC0001D861E861F86188A89829A82AB82BC82C4
:104CD000CD82DE82EF82F88669877A878B879C8710
:104CE00083E027DD6D877E878F87988BCE010196C5
:104CF00037D91E3FD9F480E1FE013196AEE6B2E02D
:104D000001900D928A95E1F760960FB6F894DEBF98
:104D10000FBECDBFDF91CF911F91FF90EF90DF903D
:104D2000CF90BF90AF909F908F90089584E0189F90
:104D3000F0011124DF01A259BD4F81E090E08C0FFA
:104D40009D1FE80FF91F40815181628173814D934E
:104D50005D936D937C931397D7CF0C9449A080916A
:104D60009F0B811105C08091A10B882309F46EC0AF
:104D700080916C04659B5AC0816080936C04909113
:104D8000030180916C0490FF53C0826080936C0497
:104D900080916C04639B4EC0886080936C0480910A
:104DA0006C044A9B49C0846080936C048091EF0A34
:104DB00080FF10C08091A00B85FF0CC080916C0417
:104DC00080FF08C080913B0D816080933B0D80E0A7
:104DD0000E940DB98091EF0A81FF10C08091A00B55
:104DE00086FD0CC080916C0481FF08C080913B0D52
:104DF000826080933B0D81E00E940DB98091EF0AA3
:104E000082FF24C08091A00B82FF18C08091A10B6B
:104E10008823E1F080916C0483FF18C080913B0DE2
:104E2000886080933B0D82E00C940DB98E7FA5CFF6
:104E30008D7FACCF877FB1CF8B7FB6CF80916C0455
:104E400082FF04C080913B0D8460EBCF08952F92C8
:104E50003F924F925F926F927F928F929F92AF920A
:104E6000BF92CF92DF92EF92FF920F931F93CF9357
:104E7000DF93CDB7DEB762970FB6F894DEBF0FBEF3
:104E8000CDBF8FEF9FEF90938900809388002AE039
:104E9000298B312C212C78948091F80A9091F90A71
:104EA000A091FA0AB091FB0A892B8A2B8B2B09F06F
:104EB000D7C18091FE0A8823D1F08091FC0A90919D
:104EC000FD0A1092FE0A892B91F01092FD0A1092B1
:104ED000FC0A1092EF0A9091DA0F8091DB0F98177D
:104EE00031F08091DB0F8F5F8F708093DB0F8091AB
:104EF000FC0A9091FD0A892B09F4B2C14091F40A91
:104F00005091F50A6091F60A7091F70A8091F00AC3
:104F10009091F10AA091F20AB091F30A0091E60A89
:104F200010E030E020E0841B950BA60BB70B0817B0
:104F300019072A073B0710F4D901C8018A8B840F8F
:104F4000951FA61FB71F8093F40A9093F50AA093AC
:104F5000F60AB093F70AE1E0C090BD0AD090BE0A0D
:104F6000E090BF0AF090C00A8091CD0A9091CE0ADD
:104F7000A091CF0AB091D00AC80ED91EEA1EFB1E1E
:104F8000C092CD0AD092CE0AE092CF0AF092D00A17
:104F9000F7FC33C04091B40A042E000C550B660B8D
:104FA000770B80910B0B90910C0BA0910D0BB09196
:104FB0000E0B840F951FA61FB71F80930B0B9093AA
:104FC0000C0BA0930D0BB0930E0B8091B90A90912E
:104FD000BA0AA091BB0AB091BC0AB701A601481B4E
:104FE000590B6A0B7B0BDB01CA018093CD0A9093AE
:104FF000CE0AA093CF0AB093D00A0091C10A1091B3
:10500000C20A2091C30A3091C40A8091D10A9091BA
:10501000D20AA091D30AB091D40A080F191F2A1FEF
:105020003B1F0093D10A1093D20A2093D30A3093E6
:10503000D40A37FD33C04091B50A042E000C550B3D
:10504000660B770B80910F0B9091100BA091110BB9
:10505000B091120B840F951FA61FB71F80930F0BE3
:105060009093100BA093110BB093120B8091B90A7F
:105070009091BA0AA091BB0AB091BC0A28013901EB
:10508000481A590A6A0A7B0AD301C2018093D10ADD
:105090009093D20AA093D30AB093D40A4091C50A40
:1050A0005091C60A6091C70A7091C80A8091D50ACA
:1050B0009091D60AA091D70AB091D80A480F591FEB
:1050C0006A1F7B1F4093D50A5093D60A6093D70A74
:1050D0007093D80A77FD33C08090B60A082C000C74
:1050E0009908AA08BB088091130B9091140BA0910A
:1050F000150BB091160B880D991DAA1DBB1D809331
:10510000130B9093140BA093150BB093160B809177
:10511000B90A9091BA0AA091BB0AB091BC0A3A01AF
:105120004B01681A790A8A0A9B0AD401C301809349
:10513000D50A9093D60AA093D70AB093D80A809044
:10514000C90A9090CA0AA090CB0AB090CC0A80916C
:10515000D90A9091DA0AA091DB0AB091DC0A880D95
:10516000991DAA1DBB1D8093D90A9093DA0AA093BA
:10517000DB0AB093DC0AB7FD33C04090B70A042CB9
:10518000000C5508660877088090170B9090180B54
:10519000A090190BB0901A0B840C951CA61CB71C80
:1051A0008092170B9092180BA092190BB0921A0BC9
:1051B0008090B90A9090BA0AA090BB0AB090BC0A3D
:1051C0002C013D01481859086A087B085301420127
:1051D0008092D90A9092DA0AA092DB0AB092DC0A95
:1051E000E11104C0E0918400F0918500F7FE889AF7
:1051F00037FF8E9A77FD06C0E0910B01E095E870CD
:10520000E0930901B7FD05C0E091B80AE11199C02A
:10521000149AE0918400F0918500E0918400F0916F
:105220008500F7FE889837FF8E9877FD05C020919E
:105230000B01287020930901B7FD05C08091B80AC1
:10524000811181C014985A88552021F080918400E2
:10525000909185002A8921502A8BE0E021117CCE93
:105260008091F80A9091F90AA091FA0AB091FB0A8C
:10527000892B8A2B8B2B09F0B3C6E091FC0AF091A5
:10528000FD0A309709F420C78091F40A9091F50A3D
:10529000A091F60AB091F70A4091F00A5091F10AF4
:1052A0006091F20A7091F30A84179507A607B70771
:1052B00008F44BC01092FD0A1092FC0A1092EF0AFB
:1052C0009091DA0F8091DB0F981709F4FDC6809159
:1052D000DB0F8F5F8F708093DB0F00EDC02E07E038
:1052E000D02EE12CF12C8091FC0A9091FD0A892BA3
:1052F00009F06EC60E9490169093FD0A8093FC0AF6
:10530000892B09F465C6E091FC0AF091FD0A8081C1
:1053100083FF00C5CF0145960E9454B91092FD0A43
:105320001092FC0A1092EF0A9091DA0F8091DB0F35
:10533000981701F38091DB0F8F5F8F708093DB0FE5
:10534000D9CF419A66CF41987ECF4091EB0A5091D8
:10535000EC0A6091ED0A7091EE0A481759076A0746
:105360007B0708F40AC24091E70A5091E80A60916D
:10537000E90A7091EA0A86A997A9A0ADB1AD4817CC
:1053800059076A077B0708F0D2C14115510561052D
:10539000710509F068C08090D5039090D603A09065
:1053A000D703B090D80381EE92E2A1E0FC01059111
:1053B000159125913491081519052A053B0568F4C6
:1053C000B694A79497948794AA0F04961DEF612E24
:1053D00012E2712E6816790649F7A093E60A20E2D8
:1053E00082169104A104B10428F4A0E28A2E912C23
:1053F000A12CB12C30E2831A9108A108B1088114C4
:1054000088E09806A104B10408F496C1A4E09A9E2D
:10541000C00111248F51914EFC0132962591349197
:10542000B82DEE27B39F8001B29F010D1E1F069479
:105430000E1F1E1F112430E020E0FC01C590D49007
:10544000F12CE12CC01AD10AE20AF30A4C0D5D1DC1
:105450006E1D7F1D4093E70A5093E80A6093E90AA6
:105460007093EA0A40CF00E01981942F852E862F91
:10547000BB81AC81FD81EE813F8128854A80E0912E
:10548000D103E99FA12DFF273091D203399FA00DB1
:10549000F11D1090D303199EF00DE89DA00DF11D94
:1054A000389DF00DE89FF00D4A2EBF2F4A9EE12D4A
:1054B000332722274F9EE00D311D201FBA9FE00D9C
:1054C000311D201FBF9F300D211D432EB22F4A9E3C
:1054D000112D332722274F9E100D311D201FBA9FFB
:1054E000100D311D201FBF9F300D211D432EB22FE7
:1054F000EE279091D5038090D6038091D70300903A
:10550000D003002A09F483C03091CC03349DE11903
:10551000900B800A800B2091CD03249DE019910906
:10552000800A800B1091CE03149D90198108800B86
:105530003B9FE0199109800A800B2B9F90198108ED
:10554000800B1B9F801881094A9E112D332722272B
:105550004F9E100D311D201FBA9F100D311D201FB1
:10556000BF9F300D211D432EB22F3091C803349DB3
:10557000E10D901F801E801F2091C903249DE00D26
:10558000911D801E801F1091CA03149D900D811CD7
:10559000801F3B9FE00D911D801E801F2B9F900D53
:1055A000811C801F1B9F800C811D4A9E112D33275B
:1055B00022274F9E100D311D201FBA9F100D311D47
:1055C000201FBF9F300D211D432EB22F3091C403E9
:1055D000349DE119900B800A800B2091C503249D16
:1055E000E0199109800A800B1091C603149D90194F
:1055F0008108800B3B9FE0199109800A800B2B9F4B
:1056000090198108800B1B9F8018810982C03091FE
:10561000CC03349DE10D901F801E801F2091CD038F
:10562000249DE00D911D801E801F1091CE03149DBE
:10563000900D811C801F3B9FE00D911D801E801FDF
:105640002B9F900D811C801F1B9F800C811D4A9EEB
:10565000112D332722274F9E100D311D201FBA9F79
:10566000100D311D201FBF9F300D211D432EB22F65
:105670003091C803349DE119900B800A800B209172
:10568000C903249DE0199109800A800B1091CA0377
:10569000149D90198108800B3B9FE0199109800AA5
:1056A000800B2B9F90198108800B1B9F801881090C
:1056B0004A9E112D332722274F9E100D311D201F8A
:1056C000BA9F100D311D201FBF9F300D211D432E8D
:1056D000B22F3091C403349DE10D901F801E801FB6
:1056E0002091C503249DE00D911D801E801F109107
:1056F000C603149D900D811C801F3B9FE00D911DE2
:10570000801E801F2B9F900D811C801F1B9F800C73
:10571000811D11244A821983BB83AC83FD83EE83F0
:105720003F832887982C892EB12CA82E3CCE82A8A6
:1057300093A8A4A8B5A837CED501C401B695A7955E
:10574000979587958C7F8F51954EFC01C590D4908D
:10575000FC01329625913491F82DF770F29FC0012B
:10576000F39F900D1124F3E096958795FA95E1F754
:10577000C81AD90AF12CE12C69CE4091E20A509165
:10578000E30A6091E40A7091E50A481759076A072D
:105790007B0708F02BC28090DD0A9090DE0AA09073
:1057A000DF0AB090E00A8091E10A81117CC0DF013C
:1057B000AE5BBF4FED90FD900D911C9113971D9620
:1057C0002D913D914D915C9162A973A984A995A9F0
:1057D0000E942C14442443944092E10AE091FC0A74
:1057E000F091FD0A42A953A964A975A981EE92E23C
:1057F000A1E0FC010591159125913491041715073D
:105800002607370768F47695679557954795AA0F49
:1058100004963DEF632E32E2732E6816790649F73F
:10582000A093E60A403251056105710520F440E27B
:1058300050E060E070E04052510961097109411582
:1058400028E052076105710508F4B0C134E0539FA8
:10585000C00111248F51914EFC0132962591349153
:10586000AA27439FF001429FE10DFA1F0694EA1F09
:10587000FA1F1124AF0170E060E0FC01C590D490E4
:10588000F12CE12CC41AD50AE60AF70A8C0C9D1CEF
:10589000AE1CBF1C8092DD0A9092DE0AA092DF0A45
:1058A000B092E00A20CD82AD93ADA4ADB5AD88161F
:1058B0009906AA06BB0608F072C181149104A104DE
:1058C000B10449F44091D5035091D6036091D703B8
:1058D0007091D8038BCFA0E0F985982D492D8A2DA2
:1058E000EA857B856C85BD855E853F8528895091DD
:1058F000D103599F612DBB273091D203399F600D91
:10590000B11D1090D303199EB00D549F600DB11DB1
:10591000349FB00D589FB00DE62F7B2FE69F512D81
:1059200033272227EB9F500D311D2A1F769F500DE4
:10593000311D2A1F7B9F300D211DE32F722FE69F03
:10594000F12D33272227EB9FF00D311D2A1F769F63
:10595000F00D311D2A1F7B9F300D211DE32F722F6B
:1059600055279091D5034091D6038091D70300909D
:10597000D0030A2A09F483C03091CC033E9F511909
:105980009A0B4A0B8A0B2091CD032E9F5019910937
:105990004A0B8A0BF091CE03FE9F901941098A0BA6
:1059A000379F501991094A0B8A0B279F901941097B
:1059B0008A0BF79F40198109E69FF12D3327222793
:1059C000EB9FF00D311D2A1F769FF00D311D2A1F10
:1059D0007B9F300D211DE32F722F3091C8033E9F16
:1059E000510D9A1F4A1F8A1F2091C9032E9F500DE7
:1059F000911D4A1F8A1FF091CA03FE9F900D411D01
:105A00008A1F379F500D911D4A1F8A1F279F900D97
:105A1000411D8A1FF79F400D811DE69FF12D332701
:105A20002227EB9FF00D311D2A1F769FF00D311DAF
:105A30002A1F7B9F300D211DE32F722F3091C4034D
:105A40003E9F51199A0B4A0B8A0B2091C5032E9F3A
:105A5000501991094A0B8A0BF091C603FE9F9019C9
:105A600041098A0B379F501991094A0B8A0B279FCE
:105A7000901941098A0BF79F4019810982C0309122
:105A8000CC033E9F510D9A1F4A1F8A1F2091CD03C0
:105A90002E9F500D911D4A1F8A1FF091CE03FE9F2D
:105AA000900D411D8A1F379F500D911D4A1F8A1F5F
:105AB000279F900D411D8A1FF79F400D811DE69F76
:105AC000F12D33272227EB9FF00D311D2A1F769FE2
:105AD000F00D311D2A1F7B9F300D211DE32F722FEA
